:020000040800F2
:10000000B00A002045010008BB260008F9170008C7
:10001000B926000853020008592900080000000012
:10002000000000000000000000000000BF260008E3
:100030005502000800000000BD260008C126000887
:100040005F0100085F0100085F0100085F01000810
:100050005F0100085F0100085F0100085F01000800
:100060005F0100085F0100085F0100085F010008F0
:100070005F0100085F0100085F0100085F010008E0
:100080005F0100085F0100085F0100085F010008D0
:100090005F0100085F0100085F0100085F010008C0
:1000A0005F0100085F0100085F0100085F010008B0
:1000B0005F0100085F0100085F01000809180008DF
:1000C000FD1700085F0100085F0100085F010008DC
:1000D0005F010008C52800085F0100085F010008F3
:1000E0005F0100085F0100085F0100085F01000870
:1000F0005F0100085F0100085F0100085F01000860
:100100005F0100085F0100085F0100085F0100084F
:100110005F0100085F0100085F0100085F0100083F
:100120005F0100085F0100085F0100085F0100082F
:10013000DFF80CD000F06CF8004800474D2E0008A6
:10014000B00A00200648804706480047FEE7FEE761
:10015000FEE7FEE7FEE7FEE7FEE7FEE7FEE7FEE777
:100160001327000831010008202A04DB203A21FA75
:1001700002F00021704721FA02F3D040C2F12002C0
:100180009140084319467047D2B201E000F8012BB4
:10019000491EFBD270470022F6E710B513460A4607
:1001A00004461946FFF7F0FF204610BD2DE9F05F29
:1001B0000546002092469B468846064681464024D6
:1001C0001BE02846414647462246FFF7CDFF5346EF
:1001D0005A46C01A914110D311461846224600F0E3
:1001E00029F82D1A67EB01084F462246012000210D
:1001F00000F020F817EB00094E41201EA4F1010485
:10020000DFDC484631462A464346BDE8F09F000001
:10021000064C074D06E0E06840F0010394E8070053
:1002200098471034AC42F6D3FFF786FF3030000811
:1002300050300008202A04DB203A00FA02F10020A6
:1002400070479140C2F1200320FA03F31943904014
:100250007047FEE77047704710B590F821100022F4
:10026000022905D00421816380F82020012010BDDF
:1002700001680B6823F00E030B6001680B6823F024
:1002800001030B6090F84030C46B012101FA03F3C5
:10029000636080F8211080F82020104610BD000017
:1002A0002DE9F05F90F821100024022903D00421E9
:1002B0008163012485E001680A6822F00E020A6069
:1002C00001680A6822F001020A603F4E3E4FB215F3
:1002D000DFF8F4C0DFF8F090DFF8ECA0DFF8E8B06A
:1002E000DFF8E4E00168783F13011502ACF1640C1B
:1002F000A9F15009AAF13C0AABF1280BAEF1140E9A
:100300004FF48018B14227D9B9420ED0614512D0BE
:1003100049451DD0514518D0594518D0714501D1D6
:10032000424615E0294EB14201D1012210E0274E8C
:100330001436B14201D110220AE0244E2836B142CF
:1003400006D0224A3C32914201D11A4600E02A46A8
:100350001E49091F0A602BE0B94213D0614517D02E
:10036000494522D051451DD059451DD0714501D177
:1003700042461AE0B14202D14FF0807215E0134EAE
:10038000B14201D1012210E0104E1436B14201D128
:1003900010220AE00D4E2836B14206D00B4A3C32FC
:1003A000914201D11A4600E02A46074980394A6045
:1003B000012180F82110002180F82010416B01B14B
:1003C00088472046BDE8F09F8000024008040240B4
:1003D00090F821007047000070B5044600F010F955
:1003E0000546601C02D004480078044400F008F977
:1003F000401BA042FAD370BD000000202DE9F84F49
:10040000DFF8C891002409F1040A0AF1040B23461D
:100410000F270BF1040ED1E00125A54006EA0502E5
:10042000AA4276D1DFF8A8C14E68A6EB0C08664553
:100430002BD00DDC032E34D005DC36B3012E19D0C1
:10044000022E2FD11BE0112E16D0122E2AD119E028
:10045000B8F5881F19D006DCB8F5803F15D0B8F57F
:10046000801F1FD111E0B8F5001F0ED0B8F5041F92
:1004700018D10AE0CB6815E0CB681B1D12E0CB68F1
:1004800008330FE0CB680C330CE08B682BB1012BE9
:100490004FF0080303D0456104E0042302E0056146
:1004A00000E00023FF2A01D8064601E000F104061F
:1004B0004FEA840501D9A5F12005D6F8008007FA96
:1004C00005FC28EA0C0803FA05F548EA0508C6F811
:1004D00000804D68ED0070D53E4DAE6946F00106D6
:1004E000AE61AD6924F0030605F0010500953A4DB3
:1004F00006EB050CDCF80850A607360F07FA06F8DD
:1005000025EA0805DFF8D480404503D14FF0000804
:1005100025E052E0DFF8C880404502D14FF00108E5
:100520001DE0DFF8C080404502D14FF0020816E020
:10053000DFF8B480404502D14FF003080FE0DFF848
:10054000AC80404502D14FF0040808E0DFF8A080FD
:10055000404502D14FF0050801E04FF0060808FAC7
:1005600006F848EA0508CCF808804D68D9F800601C
:10057000ED034D4601D5164300E096432E604D68CD
:10058000DAF80060AD03554601D5164300E0964306
:100590002E604D68DBF80060ED025D4601D5164324
:1005A00000E096432E604D68DEF80060AD027546AF
:1005B00001D5164300E096432E60641C0A68164677
:1005C000E2407FF429AFBDE8F88F0000000401404D
:1005D000000011100010024000000140000801401E
:1005E000000C0140001001400014014000180140BF
:1005F000001C01400AB1016170470904FBE70000DB
:100600000148806870470000000000207047704774
:100610002DE9F041016804464A694E6890F83E00B1
:100620000025D743FA050BD4F243D20508D46FF462
:10063000807201254A6121680A6842F400420A601A
:10064000B90508D4F143C90505D422686FF40071D7
:1006500045F002055161790525D4F143C90522D43D
:10066000638D94F83D10226B202808D13BB92129D5
:1006700010D029290ED0282901D1212A0AD0226898
:100680006FF48061516145F00405102806D04028C0
:1006900004D008E0204601F091FD04E020680168E4
:1006A00041F400710160380508D4F043C00505D459
:1006B00021686FF4006045F008054861002D07D0FF
:1006C000206C284320642046BDE8F04101F000B9C9
:1006D000BDE8F0812DE9F047026800215368C66A41
:1006E00090F83E4090F83D50102C12D0402C10D085
:1006F000046C002C7DD05469E443A6077AD4DE4311
:10070000B60577D4036C03B19169BDE8F04701F0F9
:1007100031BD976951694FF42A0CC9435FEAC1782A
:100720004FF02A4904D066452AD04E4528D010E023
:10073000DE43B6050DD4C16A614501D1012103E054
:10074000C16A494501D10821C162BDE8F04701F005
:10075000A9BB0E0716D4DE43B60513D4416CC9B24B
:100760001161416B09B1896A29B9816B002907D0F0
:10077000896A002904D00068416841F40061416041
:10078000BDE8F0878E0706D4DE43B60503D4BDE886
:10079000F04701F0DBBAFE43526876074FEA025297
:1007A0001DD4002AECDB0A0608D4DA43520505D42E
:1007B000490705D5BDE8F04701F06CBA4907DFD419
:1007C000D9438905DCD4212D05D0402CD8D1BDE8F2
:1007D000F04701F0ADBBBDE8F04701F019BA002ABF
:1007E000CEDB4A060BD4DA43520508D4490708D5B4
:1007F00001E00DE00EE0BDE8F04701F095B94907D2
:10080000BED4D9438905BBD4BDE8F04701F023B974
:10081000916970E7E10606D4D943890503D4BDE8A0
:10082000F04701F00DBD2821212D27D0292D25D0FD
:10083000650655D4DD436D0552D4640752D590F852
:100840003D30448D002C9BD01269446A2270426A6C
:10085000521C4262428D521E4285428D002A8FD127
:100860002A2B8DD10268536823F4806353602222BF
:10087000026380F83D1000F00FFB81E7250623D4CA
:10088000DD436D0520D4640720D590F83D30448DBC
:10089000002CF2D0446A24781461426A521C4262ED
:1008A000428D521E4285428D002AE6D1292BE4D189
:1008B0000268536823F4806353602122026380F846
:1008C0003D1000F0EAFA5BE76107D6D4D943890509
:1008D000D3D4418D0029D0D0416A097811610AE052
:1008E0006107CAD4D9438905C7D4418D0029C4D032
:1008F0001169426A1170416A491C4162418D491E69
:1009000041853DE77047000070B5040025D094F89C
:100910003D00002520B984F83C50204600F07EFAC6
:10092000242084F83D002068016821F00101016065
:100930002068016841F4004101602068016821F4E9
:100940000041016000F0D6FB4D4A6168914201D838
:100950004C4900E04C49884201D2012070BD4B490E
:100960002368B0FBF1F15E6826F03F060E435E603F
:100970006368934206D94FF4967359434FF47A73E0
:10098000B1FBF3F12368491C1E6A26F03F06314390
:1009900019626168914210D84900401EB0FBF1F223
:1009A000521CC2F30B02042A01D2042022E0B0FB45
:1009B000F1F0401CC0F30B001CE0A268F2B301EBA5
:1009C000C10303EB0116431EB3FBF6F35B1C43F4B8
:1009D00080431B0549D092B301EBC10202EB011128
:1009E000401EB0FBF1F0401CC0F30B0040F480400F
:1009F00040F400402168CA694CF6FF739A431043E3
:100A0000C861D4E9071001432068026822F0C002DF
:100A100011430160D4E9030101432068826848F270
:100A2000FF339A4311438160D4E9050108432168EB
:100A3000CA6822F0FF021043C86001E00EE016E031
:100A40002068016841F0010101602564202084F8DC
:100A50003D00256384F83E50002070BD01EB410647
:100A6000431EB3FBF6F35B1CB3E70120C2E701EBC7
:100A70004101401EB0FBF1F0401CC0F30B00B7E792
:100A8000A086010080841E0000093D0040420F0046
:100A90007047704770477047704700002DE9FF4F5F
:100AA00083B00025DDE910799A4693460446DDF8C7
:100AB00048800095FFF7A4FD064694F83D002028E5
:100AC0007CD11923012285492046009601F08CFC37
:100AD0000028F5D194F83C0001286FD0012084F85B
:100AE0003C0020680168C90703D1016841F0010199
:100AF00001602068016821F400610160222084F80F
:100B00003D00402084F83E0025646762A4F82A90E6
:100B1000608D20857248E062CDE9008653465A46D2
:100B20002046049901F054FA00287DD1208DDFF889
:100B3000B491202768B1012814D0022820680168E8
:100B40001ED041F480610160206841698069009095
:100B5000B6E02068416981690091016841F4007143
:100B60000160ADE02068016821F48061016072B627
:100B70002068416981690091016841F400710AE0CF
:100B800041F40061016072B6206841698169009199
:100B9000016821F48061016062B691E0032868D8A1
:100BA00001280CD0022843464FF000024946204657
:100BB00000960FD001F018FCB0BB10E08BE032467D
:100BC0004146204601F08FFC70BB20680069616AD5
:100BD00008706CE001F008FC30BB72B634E02068AD
:100BE000016821F48061016072B620680069616A61
:100BF0000870606A401C6062208D401E2085608DF8
:100C0000401E6085384846F2A8110068B0FBF1F03C
:100C1000C0EBC00000EB80000090401E009008D0A8
:100C200020684069C04300E029E040070CD50098E7
:100C3000F3E744F8305F6773A573206940F0200044
:100C4000206162B625731AE02068016841F40071E2
:100C5000016020680069616A0870606A401C606217
:100C6000218D491E2185618D491E618562B62168ED
:100C70001BE032464146204601F035FC18B1012008
:100C800007B0BDE8F08F20680069616A0870606A8B
:100C9000401C6062218D491E2185618D491E618540
:100CA00021684A69D24352070AD409690170606A0F
:100CB000401C6062208D401E2085608D401E608536
:100CC000208D00287FF46AAF84F83D7084F83E5090
:100CD00084F83C50D4E70220D2E700000200100064
:100CE0000000FFFF040001000C0000202DE9FF4F71
:100CF00083B09A46DDE9119793460446DDF84080BB
:100D0000FFF77EFC054694F83D0020287FD119238B
:100D1000012240492046009501F066FB002876D16B
:100D200094F83C00012872D0012084F83C0020682F
:100D30000168C90703D1016841F001010160206821
:100D4000016821F400610160212084F83D00402009
:100D500084F83E0000262664C4F82480A4F82A9073
:100D6000608D20852C48E062CDE9007553465A46D7
:100D70002046049901F0AAF970B930E02A463946B4
:100D8000204601F0E3FB58B1206C042804D1206810
:100D9000016841F400710160012007B0BDE8F08FE7
:100DA000606A216800780861606A401C6062218D79
:100DB000491E89B22185628D521E6285226853695F
:100DC000DB435B070BD469B100781061606A401C9B
:100DD0006062208D401E2085608D401E6085208DC4
:100DE0000028CBD12A463946204601F0D7FA002800
:100DF000CAD154F83D0B016841F400710160202014
:100E000004F81E09E67766770020C6E7FFE70220B0
:100E1000C3E70000020010000000FFFF10B586B01D
:100E200000210091019102910391006817498842C5
:100E30002AD1174CA06940F00800A061A06969465A
:100E400000F008000490C0200090122001900320C0
:100E500003901048FFF7D2FAE06940F40010E06117
:100E6000E069002200F40010049011461F2000F0F9
:100E700079F81F2000F068F800221146202000F0C9
:100E800071F8202000F060F806B010BD005400405A
:100E900000100240000C0140704770470248816812
:100EA000027811448160704700000020074810B5A7
:100EB000016841F010010160032000F073F8002088
:100EC00000F006F800F024F8002010BD00200240D9
:100ED00070B50D4D04464FF47A712878B1FBF0F0EF
:100EE0000A490968B1FBF0F000F0F6FA48B9102C95
:100EF00007D200222146501E00F034F800206C601A
:100F000070BD012070BD0000000000200C0000201A
:100F10000B4808B5816941F001018161816901F0E7
:100F200001010091C16941F08051C161C06900F0C7
:100F3000805000900348416821F0E061416008BDA5
:100F40000010024000000140002809DB00F01F02F1
:100F5000012191404009800000F1E020C0F800111B
:100F600070470000F0B40E4B1B680C46C3F302231D
:100F7000C3F10705042D00D90425191D072901D245
:100F8000002300E0DB1E012606FA05F1491E214080
:100F900099409E40761E16403143F0BC01F0EEBCF5
:100FA0000CED00E0064900F0070208684FF6FF0369
:100FB000184040EA0220034A1043086070470000CE
:100FC0000CED00E00000FA052DE9F0470F460500A2
:100FD00061D0434E306800F00700B84209D2306853
:100FE00020F0070038433060306800F00700B84256
:100FF00051D128683B4C810712D5400703D5606862
:1010000040F4E06060602878000703D5606840F431
:10101000605060606068A96820F0F000084360607C
:101020002878C00728D06868012810D021680228D5
:1010300010D0890700292EDA616821F003010143ED
:101040006160FFF7DDFA804641F288390DE02168E2
:101050008903EFE78901EDE7FFF7D2FAA0EB08017A
:10106000494502D90320BDE8F0876068696800F04F
:101070000C00B0EB810FEFD1306800F00700B842F0
:101080000BD9306820F0070038433060306800F03A
:101090000700B84201D00120E5E72878400705D5D0
:1010A0006068E96820F4E060084360602878000721
:1010B00006D56068296920F4605040EAC10060608C
:1010C00000F038F86168084AC1F30311515CC84068
:1010D0000649086006480068FFF7FAFE0020C2E7EC
:1010E0000020024000100240183000080C000020D0
:1010F000040000200448054900684968044AC1F317
:101100000221515CC84070470C00002000100240D2
:10111000283000080448054900684968044AC1F3BA
:10112000C221515CC84070470C00002000100240F2
:101130002830000812A185B00FC98DE80F0014A057
:10114000144A006804905168134801F00C03042B02
:1011500010D0082B0ED1C1F38343C9031DF803003F
:101160000AD5516804AAC1F34041515C0A4A504370
:10117000B0FBF1F005B0704708494843FAE70000BA
:1011800002030405060708090A0B0C0D0E0F1010C8
:10119000010200000010024000127A0000093D0028
:1011A0002DE9F84F040070D02078C04DC00749D019
:1011B0006868C0F38100012807D06868C0F3810027
:1011C000022809D16868C00306D52868800339D58C
:1011D00060680028E7D035E06068B0F5803F0BD04C
:1011E00010B1B0F5A02F11D0286820F4803028600D
:1011F000286820F4802002E0286840F480302860CD
:10120000606890B1FFF7FCF906460AE0286840F4F0
:1012100080202860F0E700BFFFF7F2F9801B642808
:1012200073D828688003F7D50CE0FFF7E9F9064684
:1012300005E000BFFFF7E4F9801B6428F0D82868B8
:101240008003F7D420789A4E80074FF001094FF0C1
:10125000000839D5686810F00C0F07D06868C0F333
:101260008100022809D16868C00306D42868800775
:1012700014D52069012808D110E02069B0B1C6F862
:101280000090FFF7BDF9074605E00AE1FFF7B8F95E
:10129000C01B0228C4D828688007F7D52868616970
:1012A00020F0F80040EAC10028600DE0C6F8008098
:1012B000FFF7A6F9074604E0FFF7A2F9C01B0228D2
:1012C00023D828688007F7D4207800072CD57948E0
:1012D000A169D9B1C0F80090FFF792F9074604E080
:1012E000FFF78EF9C01B02280FD8686A8007F7D570
:1012F00071484FF4FA510068B0FBF1F0009000BF64
:101300000098411E0091FAD20EE080E0C0F8008003
:10131000FFF776F9074604E0FFF772F9C01B0228D1
:1013200075D8686A8007F7D42078400760D5E869E7
:101330000027C00008D4E86940F08050E861E869FF
:10134000012700F0805000905C480168C90513D463
:101350000168834641F480710160FFF751F98246CC
:1013600006E000BFFFF74CF9A0EB0A0064284ED856
:10137000DBF80000C005F5D5E06801280AD008B107
:10138000052813D0286A20F001002862286A20F07E
:10139000040002E0286A40F001002862E06841F29F
:1013A000883B98B1FFF72CF982460BE0286A40F0A1
:1013B00004002862EEE700BFFFF722F9A0EB0A0164
:1013C00059455AD8286A8007F6D50CE0FFF718F976
:1013D000824605E0FFF714F9A0EB0A0159454CD805
:1013E000286A8007F6D41FB1E86920F08050E861D0
:1013F000E06988B36968C1F38101022944D00228F9
:10140000C6F8608004D0FFF7FBF8044638E034E00B
:10141000FFF7F6F8074604E0FFF7F2F8C01B0228D2
:101420002BD828688001F7D4206AB0F5803F05D119
:101430006868A16820F4003008436860D4E90801B6
:101440000843696821F4741108436860C6F8609025
:10145000FFF7D6F8044606E025E000BFFFF7D0F816
:10146000001B022809D828688001F7D51BE000BFBF
:10147000FFF7C6F8001B022802D90320BDE8F88F49
:1014800028688001F4D40EE00128F7D06868226A49
:1014900000F48031914204D1616A00F470108842F6
:1014A00001D00120EAE70020E8E700000010024038
:1014B00000004242800442420C00002000700040C4
:1014C0004FF0E0210428086903D020F004000861EF
:1014D000704740F00400FAE710B5401EB0F1807F7D
:1014E00001D3012010BD4FF0E02460610F2160178F
:1014F00001F044FA0020A06107202061002010BD07
:1015000070477047F8B5026804461068D16853699F
:1015100010F00F0F4FF0000553D003F0010601F457
:10152000907737435FD0C20705D0CA0503D5226C38
:1015300042F001022264420705D5DA0703D0226C8B
:1015400042F002022264820705D5DA0703D0226C3A
:1015500042F004022264020707D501F02002324360
:1015600003D0226C42F008022264226C002A34D09C
:10157000800604D5880602D5204601F0EBF82068E5
:101580004069216CC0F38010090700D430B32046B5
:1015900001F0C8F82068416949061BD5416921F06E
:1015A00040014161A06BA8B158494163A06BFEF7AF
:1015B00077FE002811D0A06B416B01B0BDE8F04070
:1015C000084783060FD58B060DD52046BDE8F840A9
:1015D00001F0C0B82046FFF794FFF8BD2046FFF7A2
:1015E00090FF2564F8BD266B2023012E52D1C6063C
:1015F00050D5CE064ED51068506800905069400610
:101600002AD5A16B086840680004000CEAD0A68DBA
:101610008642E7D9E0858869202818D0D06820F470
:101620008070D0602068416921F00101416120682B
:10163000416921F04001416184F83E302563206812
:10164000C16821F01001C160A06BFEF705FEA08DFE
:10165000E18D401A81B219E0A08DE18D401A81B26E
:10166000E08D0028BED00029BCD0D06820F4907056
:10167000D0602068426922F00102426184F83E3065
:1016800025632068C26822F01002C2602046FFF77E
:1016900037FFF8BD05062BD50D0629D594F83D007A
:1016A0002128F6D1A068B0F5805F01D12069B0B1E2
:1016B000206A411C2162216800784860E08C401E4D
:1016C0000004000CE084E4D12068C16821F08001AE
:1016D000C1602068C16841F04001C160F8BD206A66
:1016E0000088C0F308005060206A801C2062E5E793
:1016F0004006F3D54806F1D5D168204621F04001D7
:10170000D16084F83D3000F076F8F8BD1527000868
:1017100070B5040004D094F83D00002510B106E037
:10172000012070BD84F83C50204600F023F82420AE
:1017300084F83D002068C16821F40051C160204652
:1017400001F064F82068016921F49041016120688A
:10175000416921F02A0141612068C16841F40051CA
:10176000C1602564202084F83D0084F83E000020FC
:1017700070BD000030B585B000240094019402943F
:1017800003940068184988422CD11848816941F4B3
:1017900080418161816901F480410491816941F056
:1017A000040181618069124D00F0040004904FF43F
:1017B00000700090022001900320039069462846A3
:1017C000FEF71CFE2815CDE9000469462846029460
:1017D000FEF714FE002211462520FFF7C3FB25204B
:1017E000FFF7B2FB05B030BD0038014000100240E9
:1017F0000008014070477047FEE700000148FEF70F
:1018000007BF00001C0200200148FEF763BF000074
:101810001C02002038B5406A002190F83D202B4B77
:1018200046F2A8141B68B3FBF4F3C3EBC30303EB4A
:10183000830300933BB15B1E009303681B689B0509
:1018400005D5009BF6E7036C43F020030364436B6C
:1018500003B19962836B03B1996203681C6824F435
:1018600080641C604185436B03B15963836B03B192
:10187000596303681C6824F001041C6090F83D4023
:101880002023602C0BD0282434EA02020FD080F8E9
:101890003D3080F83E1000BFFFF734F838BD80F8C7
:1018A0003D3080F83E100164FEF7B0FE38BD02689E
:1018B000136843F0010313600268136843F4806304
:1018C0001360016380F83D40E6E700000C00002053
:1018D00070B5044690F83D0094F83E10102901D0F0
:1018E000402906D1222804D121680A6822F4006226
:1018F0000A60282131EA00024FF000054FF020066F
:1019000026D021684968090505D4602803D084F8E9
:101910003D6084F83E50256320684168090537D54D
:10192000416821F400614160606B3D4990F82120DD
:10193000012A11D04163606BFEF7B2FC38B3206816
:10194000016821F00101016084F83D60606B1CE0DA
:10195000256384F83D10DFE7A06B4163A06BFEF7C1
:101960009FFCA0B120684169C943490605D40069BC
:10197000616A0870606A401C60622068016821F03A
:101980000101016084F83D60A06B416B884710E065
:1019900094F83D10602910D04169C943490605D427
:1019A0000069616A0870606A401C60622046FEF748
:1019B000A9FF206CC1071CD115E084F83D602564A7
:1019C0004169C943490605D40069616A0870606AC3
:1019D000401C60622068016821F00101016020461E
:1019E000FEF714FEE5E7810703D4410701D40007A1
:1019F00004D52068416821F4E061416094F83D001D
:101A0000216C49070BD5282809D10648E0622563D7
:101A100084F83D6084F83E502046FFF739F870BDE9
:101A2000151800080000FFFF01684A69D2435205FB
:101A30000FD46FF480624A61002140F8301F2022E9
:101A400042738173026942F0040202610173012052
:101A500070470020704710B5C26A438D0168042B9F
:101A600006D0438D032B08D0438D022B1DD012E0EE
:101A70004A6822F480624A600CE04B6823F4806379
:101A80004B60042A06D0022A04D001680A6822F4B6
:101A900080620A6001680969426A1170416A491CE2
:101AA0004162418D491E418510BD012A30D0102A66
:101AB0002ED0042A30D0022A2ED00A6842F40072B6
:101AC0000A6001680969426A1170416A491C4162F1
:101AD000428D521E4285026812690A70416A491C91
:101AE0004162418D491E418501684A6822F4407275
:101AF0004A60202180F83D1090F83E200021402AC5
:101B000080F83E100CD012210163FEF7C2FF10BD19
:101B10000A6822F48062D3E70A6842F48062CFE761
:101B20000163FEF7B8FF10BD38B590F83D102229CB
:101B300014D1418D032912D901680969426A1170D3
:101B4000416A491C4162418D491E4185418D0329ED
:101B500004D10068416821F48061416038BDC26AE7
:101B6000022AFBD0012901D00029F7D1274946F2EA
:101B7000A81300220968B1FBF3F101EB8101009188
:101B800001682023009C641E009422D00C68A405E8
:101B9000F8D40C6824F480640C6001684C6824F468
:101BA000E0644C6001680969446A2170416A491C1B
:101BB0004162418D491E418580F83D3090F83E10CC
:101BC00080F83E2040291DD012210163FEF761FFFD
:101BD00038BD046C44F0200404644C6824F4E064D0
:101BE0004C6001680969446A2170416A491C41627C
:101BF000418D491E418580F83D3080F83E20FEF73A
:101C000081FE38BD0263FEF746FF38BD0C000020A0
:101C100010B5C26A90F83D1021290BD1418D51B108
:101C2000416A026809781161416A491C4162418D2B
:101C3000491E418510BD20230021082A13D0202AE7
:101C400011D012F5803F0ED00268546824F4E0648D
:101C500054601122026380F83E1080F83D3000BFCE
:101C6000FEF718FF10BD0268546824F4E064546065
:101C70000268146844F400741460016380F83D3015
:101C800090F83E2080F83E10402AE9D1FEF704FF8C
:101C900010BD000010B590F83D1090F83E30C26ABB
:101CA000048DB4B1212903D0402B11D122290FD1A9
:101CB000418DE1B390F83E10402942D0416A02685C
:101CC00009781161416A491C4162418D491E418573
:101CD00010BD2129E8D120230021082A13D0202A71
:101CE00011D012F5803F0ED00268546824F4E064ED
:101CF00054601122026380F83E1080F83D3000BF2E
:101D0000FEF7C8FE10BD0268546824F4E064546015
:101D10000268146844F400741460016380F83D3074
:101D200090F83E2080F83E10402AE9D100E002E021
:101D3000FEF7B2FE10BD0068416821F48061416089
:101D400010BDBDE8104000F0F3B8000078B590F881
:101D50003E50C26A046B90F83D6000230168222E59
:101D600073D1066D0EB9402D6FD0056D1DB9056993
:101D7000B5F5404F1BD0458D95B3468D484D012E8E
:101D800020D0448D022C4DD00C6844F480640C604B
:101D900001684C68240579D5AA4273D0012A71D014
:101DA000082A6FD0102A6DD0202A6BD06EE04A69C5
:101DB0008A6900920A6842F480720A60016D491CC7
:101DC000016578BDAA4214D10A6822F480620A60D3
:101DD00001684A68120504D50A6822F4806217E097
:101DE000FFE74A698A6900920A6842F400720A6051
:101DF00050E0082A10D0202A0ED0122C0AD0042A33
:101E000003D0022A01D0102AE6D10A6842F4806287
:101E10000A603BE0012ADFD00A6822F480620A608F
:101E20000168DEE7042A11D0022A0FD0102A0DD053
:101E30000C6844F400640C6001684C698C6900947F
:101E40000C6824F480640C6008E025E00C6844F41D
:101E500080640C6001684C698969009101684C6874
:101E6000240517D5AA4207D0012A05D0082A03D095
:101E7000102A01D0202A0DD14A6842F480524A60CB
:101E800008E0FFE74A6842F480524A6001684A6904
:101E900089690091036578BD48698869009078BDBB
:101EA0000000FFFF90F83E10402910D00169B1F505
:101EB000804F19D0016DA9B3016D012910D1416C7A
:101EC0005FF0F10201F4407142EAD11106E0016DC8
:101ED0000029416C05D0C9B241F0010100680161DF
:101EE000704701F0FE01F9E790F83D102129416C9F
:101EF00009D0C9B241F0010102681161416B29B1F9
:101F0000896A49B902E001F0FE01F5E7816B002919
:101F1000E6D0896A0029E3D00068416841F4006195
:101F200041607047FFE7416CF02201F44071CBE75C
:101F300010B590F83D10026D22B3026D012A2FD02A
:101F4000026D022A1DD122292FD0428D0AB12129EA
:101F500033D0428D002A14D1212912D101684A6858
:101F600022F4E0624A6001680A6842F400720A6082
:101F700000210163202280F83D2080F83E10FEF70A
:101F80008BFD10BDC16C0129816C02D0C1F307210A
:101F900008E00268C9B21161016D891C016510BDBC
:101FA000816CC9B20268116104E001680A6842F4F8
:101FB00080720A60016D491CF0E7416A0268097885
:101FC0001161416A491C4162418D491E418510BD24
:101FD0002DE9F84F0446006889460B9D0168984634
:101FE000174641F4806101602068016841F4807106
:101FF000016000954FF0011B0022594620460A9BC4
:1020000000F0F2F94FF4007A40B120680068C00592
:1020100001D5C4F840A00320BDE8F88F216809F07D
:10202000FE0008612B46284920460A9A00F010FA63
:10203000F0BB20684169806900902A4620460A99D1
:1020400000F084FA40B1206C04283AD1206801687D
:1020500041F40071016034E0FEB2B8F1010F09D023
:102060002168380A08612A4620460A9900F06EFA6B
:102070000028E8D1206806612A4620460A9900F027
:1020800065FA0028DFD12068016841F480710160A1
:1020900000950022594620460A9B00F0A5F9002829
:1020A000B3D1216809F0FF0040F00100086100E0B1
:1020B00007E02B46044920460A9A00F0C9F9002897
:1020C000AAD00120A8E70000020001002DE9F84392
:1020D000044600680D46DDE90897016898461646F3
:1020E00041F4807101604B4600224FF001112046FF
:1020F000009700F079F948B120680068C00502D562
:102100004FF4007020640320BDE8F883216805F0D7
:10211000FE0008613B464A461549204600F098F902
:1021200088B920684169806900903A46494620464E
:1021300000F00CFA48B1206C042804D12068016832
:1021400041F4007101600120DEE7F5B2B8F1010F42
:1021500009D02168300A08613A464946204600F015
:10216000F5F90028E7D1206805610020CCE70000E0
:102170000200010038B50C4690F83D2000212825CA
:10218000954302680B4605D051699169009180F82A
:102190003C3038BD556825F480655560E2435407EE
:1021A00000D50121120601D5828900E0028B80F85A
:1021B0003C3092B2FEF72BFA38BD00002DE9F04119
:1021C00090F83D40C26A002320261C4F01686FF43E
:1021D0008065082A01D0202A01D1282C04D0212C86
:1021E00016D04D61BDE8F081C7624A6822F4E06212
:1021F0004A6001684D6101680A6822F480620A60E1
:10220000036380F83D6080F83E30FEF741FCE9E76B
:10221000C7622122026380F83D6080F83E304A6840
:1022200022F4E0624A6001684D6101680A6822F4A4
:1022300080620A60FEF731FED4E700000000FFFF75
:10224000F8B590F83D6004460068416821F4E0610B
:1022500041602068002541690091016841F0010159
:1022600001602068016821F4806101602068416894
:10227000090520D5474F222E48D02A2E46D0616B23
:10228000096849686185618D19B1216C41F00401CB
:102290002164416821F400614160606BFEF798F8A9
:1022A000012808D0606B4763606BFDF7F9FF10B140
:1022B000606B416B8847608D08B320684169C943F2
:1022C000490708D40069616A0870606A401C60624E
:1022D000608D401E608520684169C943490608D465
:1022E0000069616A0870606A401C6062608D401E0F
:1022F0006085608D18B1206C40F004002064206C73
:1023000000B32046BDE8F840FFF7E2BAA16B0968C8
:1023100049686185618D19B1216C41F00401216426
:10232000416821F400614160A06BFEF751F801287B
:10233000C1D0A06B4763A06BFDF7B2FF0028BAD0F5
:10234000A06BB6E72A2E06D12563282084F83D002D
:102350002046FEF7A1FD94F83D10202028290DD03D
:10236000216B222901D0222E07D1256384F83D005C
:1023700084F83E502046FEF78FFDF8BD0649E16225
:10238000256384F83D0084F83E502046FEF780FB2C
:10239000F8BD0000151800080000FFFF70B51646D4
:1023A0000D4604460DE02046FFF73EFB08B1012034
:1023B00070BD681C05D0FEF723F9801BA84207D822
:1023C00035B120684069C0434007ECD4002070BD9F
:1023D000002044F8300F20216173A073216941F07F
:1023E000200121612073E2E72DE9F0471E46904667
:1023F0000D460446C1F30747DDF8209008E0701C45
:1024000006D0FEF7FDF8A0EB0900B0420FD876B178
:102410002068012F18D0806925EA00000004000C14
:1024200014D000214145EAD00020BDE8F08700200B
:1024300044F8300F20216173A073216941F020011D
:10244000216120730120F0E74069E5E70121E9E718
:102450002DE9F0479A4691460E46044600254FF076
:102460002008C1F3074725E020684069C0434005C4
:1024700014D42068016841F40071016021686FF490
:1024800080604861256384F83D8084F83E50206C6C
:1024900040F00400206484F83C501FE0B9F1FF3F95
:1024A00008D0FEF7ADF8A0EB0A0149450CD8B9F108
:1024B000000F09D02068012F13D0806926EA0000A0
:1024C0000004000C0BD0CFE744F8305F84F80D8097
:1024D000A573206940F02000206125730120BDE82C
:1024E000F0874069EAE72DE9F041002590460E4665
:1024F0000446202717E04069C043C0060CD454F8B6
:10250000301B6FF01000486144F810596777A577C9
:10251000206A2062257717E0FEF772F8A0EB08002A
:10252000B04208D83EB120684169C9434906E2D4A7
:102530000020BDE8F08144F8305F6773A57320691F
:1025400040F02000206125730120F2E770B51646A7
:102550000D4604460DE02046FFF766FA08B101205B
:1025600070BD681C05D0FEF74BF8801BA84207D849
:1025700035B120684069C0430006ECD4002070BD2E
:10258000002044F8300F20216173A073216941F0CD
:10259000200121612073E2E72DE9F04186B000249B
:1025A00024480094019402940394816941F010013D
:1025B0008161816901F010010491816941F020017C
:1025C0008161816901F020010491816941F0040178
:1025D0008161816901F004010491816941F0080180
:1025E00081618069012200F00800134F15020490F8
:1025F00029463846FDF7FEFFDFF84080012204211E
:102600004046FDF7F7FF0095032601250396CDE927
:10261000015469463846FDF7F1FE0420CDE9000576
:10262000CDE9024669464046FDF7E8FE06B0BDE842
:10263000F081000000100240000801400014014039
:102640000D4810B50B4901600C49416000214FF461
:1026500080428160C0E9031241618161C161016210
:10266000FEF752F9002803D0BDE81040FDF7F3BD96
:1026700010BD0000005400401C020020A086010094
:102680000C4810B50A4901604FF4E1314160002166
:1026900081600C22C160C0E904128161C161FFF751
:1026A00037F8002803D0BDE81040FDF7D4BD10BDB9
:1026B0000038014070020020FEE770477047704705
:1026C000FEF7ECBB30B58FB028216846FDF763FDFF
:1026D00014210AA8FDF75FFD01210804CDE90010CF
:1026E0000024029402250491CDE907504FF4E01034
:1026F00009906846FEF754FD0F20CDE90A056802EF
:10270000CDE90C4002210AA80E94FEF75DFC0FB043
:1027100030BD704710B5406A0021C185C184FEF705
:10272000F0FE10BD0168CA6822F49072CA600168A8
:102730004A6922F001024A61016B012904D1016852
:10274000CA6822F01002CA60202180F83E100021E1
:102750000163704708B590F83E10222901D002208D
:1027600008BD82684FF480539A4201D1016921B1BA
:10277000816A9A421BD04AB10AE00268816A5268B3
:10278000C2F308020A80816A891C08E0026972B1FA
:102790000268526802F07F020A70816A491C8162F5
:1027A000C18D491E0904090CC18503D019E00268D6
:1027B0005268F1E70168CA6822F02002CA60016825
:1027C000CA6822F48072CA6001684A6922F0010274
:1027D0004A61202180F83E10016B012903D0FFF7E8
:1027E00009F8002008BD002101630168CA6822F0D1
:1027F0001002CA6001680A68D20602D50A684968F0
:102800000091818DFEF77CFEEBE7000070B5044679
:1028100000680169E26821F44051114301612169B6
:10282000A0680843616908432168CA6841F20C63E3
:102830009A430243CA6020684169A26921F4407149
:10284000114341611E492068884202D1FEF762FCB3
:1028500001E0FEF74FFC00EBC00101EB00126068E5
:1028600064218000B2FBF0F3B3FBF1F36FF01806C4
:102870007343B2FBF0F5B2FBF0F605EB83053223B0
:1028800003EB0515B5FBF1F5B6FBF1F605F0F00528
:1028900005EB0615B2FBF0F6B2FBF0F0B0FBF1F081
:1028A0006FF01802504306EB800003EB0010B0FB02
:1028B000F1F0216800F00F002844886070BD00002E
:1028C00000380140F8B52048FEF71CFE1E49086894
:1028D00000684FF00006C04382061C4823D41C4AFF
:1028E000176802784FF0020E02EB021202EB42056B
:1028F000184A02EB45040EEB4505637803EB020C26
:102900005B1C63700CF80570037803EB031303EB97
:10291000430302EB43025378642B00D956700B68D3
:102920006FF020021A6009680A68D243D20609D4FF
:102930000278521CD2B202700A2A00D306700868CC
:1029400048680090F8BD00007002002014000020CC
:1029500004380140B4020020FEE700000FB4054B2C
:1029600010B503A9044A029800F028F810BC5DF8DD
:1029700014FB0000352E0008180000200907090E7E
:10298000002804DB00F1E02080F80014704700F01C
:102990000F0000F1E02080F8141D704702E008C825
:1029A000121F08C1002AFAD170477047002001E0C9
:1029B00001C1121F002AFBD1704700002DE9FF4F13
:1029C0008DB00F460546002606E025280BD0DDE930
:1029D0000F1290476D1C761C28780028F5D111B095
:1029E0003046BDE8F08F0024A246A1460122EC4902
:1029F00000E0044315F8013F203B02FA03F00842CF
:102A0000F7D128782A2810D06FF02F022878A0F16B
:102A10003001092914D80AEB8A0102EB410144F084
:102A2000020400EB010A6D1CF0E701CF5FEA000A27
:102A300003D544F40054CAF1000A44F002046D1CAA
:102A400028782E2817D115F8010F44F004042A28FD
:102A50000ED06FF02F022878A0F1300109290AD892
:102A600009EB890102EB410100EB01096D1CF2E762
:102A700057F8049B6D1C28786C280FD006DC4C2876
:102A800017D068280DD06A2814D104E0742810D01B
:102A90007A280FD10DE044F400140AE044F48014C5
:102AA00001E044F440146978814202D104F58014B5
:102AB0006D1C6D1C2A786E2A1FD00CDC632A31D065
:102AC00004DC002A8BD0582A11D1A3E0642A68D0F4
:102AD000692A0CD165E0732A2ED004DC6F2A73D0EA
:102AE000702A04D19BE0752A6FD0782A6ED01046E8
:102AF000DDE90F129047761C50E1C4F30250022822
:102B000006D0032809D0042801CF09D0066045E18A
:102B100001CFF117C0E9006140E101CF06803DE13E
:102B200006703BE117F8040B8DF8000000208DF8CB
:102B30000100EB46012003E057F804BB4FF0FF30E3
:102B400061074FF0000102D40DE008F10101884651
:102B500049450FDA8045F8DB1BF808100029F4D14D
:102B600008E008F1010188468142FADB1BF80810F1
:102B70000029F6D1DDE90F23AAEB080081462146A2
:102B800000F036F9304400EB080604E0DDE90F12EE
:102B90001BF8010B9047B8F10108F7D221464846CF
:102BA000F7E00A21C4F302534FF0000B0891022B07
:102BB00004D001CFC117032B09D00AE0FF1D27F075
:102BC0000707F7E8020108E032E01FE020E000B26A
:102BD000C117042B01D140B2C117031E71F10003CC
:102BE00007DA4FF0000CD0EB0C006CEB01012D2349
:102BF00002E0230504D52B238DF82430012303E0C4
:102C0000E30701D02023F7E7984658E00A2110E0B7
:102C100010210EE010204FF0000B08900CE0102166
:102C20004FF0000B44F004044FF00809089103E052
:102C300008214FF0000B0891C4F30253022B04D07B
:102C400001CF0021032B06D006E0FF1D27F0070768
:102C5000F7E8020103E080B2042B00D1C0B24FF0CC
:102C6000000823072BD5702A07D0DDF820C08CF090
:102C7000100C5CEA0B0C05D00EE040238DF82430DC
:102C8000012308E050EA010306D030238DF82430F8
:102C90008DF8252002239846DDF820C08CF0080C22
:102CA0005CEA0B0C0BD150EA010301D1630706D596
:102CB00030238DF824304FF00108A9F10109582A7A
:102CC00004D038A20B9208AA0A920BE03AA2F9E7C4
:102CD0005B46089AFDF76AFA0B9B9B5C0A9A521EA8
:102CE0000A92137050EA0102F2D10A98ADEB00008B
:102CF00000F1200B600702D524F4803401E04FF08E
:102D00000109D94502DDA9EB0B0000E0002000EB32
:102D10000B0141440890AAEB010AE00306D4DDE967
:102D20000F232146504600F063F806444FF0000997
:102D300008E009A911F80900DDE90F12904709F12F
:102D40000109761CC145F4DBE0030CD5DDE90F2356
:102D50002146504600F04CF8064404E0DDE90F122D
:102D600030209047761C0899481E08900029F5DC11
:102D700008E00A980A990078491C0A91DDE90F12C7
:102D80009047761CBBF10001ABF1010BF1DC214651
:102D90005046DDE90F2300F019F806446D1C1BE6D0
:102DA0000928010030313233343536373839616221
:102DB00063646566000000003031323334353637E5
:102DC0003839414243444546000000002DE9F041B6
:102DD000044600251E461746880404D405E03946FB
:102DE0002020B0476D1C641EF9D52846BDE8F0814F
:102DF0002DE9F041044600251E469046C80301D542
:102E0000302700E02027880404D505E041463846F5
:102E1000B0476D1C641EF9D52846BDE8F08100005E
:102E200010B504460420FEF74BFB0148046010BDBA
:102E30001000002004490A685206FCD5024AC1B2BB
:102E4000121D116070470000003801400EB5482087
:102E5000FFF7E6FFFEF72AF8FFF734FCFFF79CFBCD
:102E6000FFF70EFCFFF7ECFB32480168CA6842F03E
:102E70002002CA600068C16841F01001C1604FF4CF
:102E80008078002241462C48FDF7B4FB0022042143
:102E90002A48FDF7AFFB2A4D4FF47A7605F5807985
:102EA00028A0FFF75BFD36A0FFF758FD0024E1B234
:102EB000295539A0FFF752FD641CA4B2FF2CF6D9A6
:102EC000002408272819CDE9000701232246A02164
:102ED00002963348FDF70AFF002804F10802214654
:102EE00021D030A0FFF73AFD0834A4B2FF2CE9D975
:102EF00036A0FFF733FDCDE900984C4601230022B0
:102F0000A12127480296FDF7C9FD002736A0E15D03
:102F1000FFF724FD7F1CBFB2FF2FF7D941F28830A5
:102F2000FDF75AFABCE733A0FFF718FD0520FDF7BF
:102F300053FAD9E770020020000801400014014054
:102F40001C0000200D0A200D0A2A2A2A2A2A2A2AD1
:102F50002A2A53544D3332437562654D5820493205
:102F6000432041543234433032204578616D706CD7
:102F7000652A2A2A2A2A2A2A2A2A0D0A000000005B
:102F80000D0A2049324320577269746520427566E4
:102F90006665723A0D0A00002530325820000000A4
:102FA0001C0200200D0A204279746520253032640D
:102FB00020746F2042797465202530326420577266
:102FC000697465204661696C656400000D0A2052D1
:102FD000656164696E672066726F6D20415432349A
:102FE0004330323A0D0A0000307825303258202024
:102FF000000000000D0A20427974652025303264FB
:1030000020746F2042797465202530326420577215
:10301000697465204F4B00000000000000000000B4
:10302000010203040607080900000000010203046E
:1030300050300008000000201C0000009C290008FF
:103040006C3000081C000020940A0000AC29000825
:103050000100000010000000000000000024F40047
:0C30600000000000000000000000000064
:0400000508000131BD
:00000001FF
