:020000040800F2
:10000000A0080020450100086F130008450F0008F4
:100010006D130008530200088D1600080000000050
:10002000000000000000000000000000F5130008C0
:10003000550200080000000071130008F7130008C3
:100040005F0100085F0100085F0100085F01000810
:100050005F0100085F0100085F0100085F01000800
:100060005F0100085F0100085F0100085F010008F0
:100070005F0100085F0100085F0100085F010008E0
:100080005F0100085F0100085F0100085F010008D0
:100090005F0100085F0100085F0100085F010008C0
:1000A0005F0100085F0100085F0100085F010008B0
:1000B0005F0100085F0100085F0100085F010008A0
:1000C0005F0100085F0100085F0100085F01000890
:1000D0005F010008F91500085F0100085F010008D2
:1000E0005F0100085F0100085F0100085F01000870
:1000F0005F0100085F0100085F0100085F01000860
:100100005F0100085F0100085F0100085F0100084F
:100110005F0100085F0100085F0100085F0100083F
:100120005F0100085F0100085F0100085F0100082F
:10013000DFF80CD000F06CF800480047D11B000835
:10014000A00800200648804706480047FEE7FEE773
:10015000FEE7FEE7FEE7FEE7FEE7FEE7FEE7FEE777
:100160004914000831010008202A04DB203A21FA52
:1001700002F00021704721FA02F3D040C2F12002C0
:100180009140084319467047D2B201E000F8012BB4
:10019000491EFBD270470022F6E710B513460A4607
:1001A00004461946FFF7F0FF204610BD2DE9F05F29
:1001B0000546002092469B468846064681464024D6
:1001C0001BE02846414647462246FFF7CDFF5346EF
:1001D0005A46C01A914110D311461846224600F0E3
:1001E00029F82D1A67EB01084F462246012000210D
:1001F00000F020F817EB00094E41201EA4F1010485
:10020000DFDC484631462A464346BDE8F09F000001
:10021000064C074D06E0E06840F0010394E8070053
:1002200098471034AC42F6D3FFF786FFE41E00086F
:10023000041F0008202A04DB203A00FA02F1002003
:1002400070479140C2F1200320FA03F31943904014
:100250007047FEE77047704710B590F821100022F4
:10026000022905D00421816380F82020012010BDDF
:1002700001680B6823F00E030B6001680B6823F024
:1002800001030B6090F84030C46B012101FA03F3C5
:10029000636080F8211080F82020104610BD000017
:1002A0002DE9F05F90F821100024022903D00421E9
:1002B0008163012485E001680A6822F00E020A6069
:1002C00001680A6822F001020A603F4E3E4FB215F3
:1002D000DFF8F4C0DFF8F090DFF8ECA0DFF8E8B06A
:1002E000DFF8E4E00168783F13011502ACF1640C1B
:1002F000A9F15009AAF13C0AABF1280BAEF1140E9A
:100300004FF48018B14227D9B9420ED0614512D0BE
:1003100049451DD0514518D0594518D0714501D1D6
:10032000424615E0294EB14201D1012210E0274E8C
:100330001436B14201D110220AE0244E2836B142CF
:1003400006D0224A3C32914201D11A4600E02A46A8
:100350001E49091F0A602BE0B94213D0614517D02E
:10036000494522D051451DD059451DD0714501D177
:1003700042461AE0B14202D14FF0807215E0134EAE
:10038000B14201D1012210E0104E1436B14201D128
:1003900010220AE00D4E2836B14206D00B4A3C32FC
:1003A000914201D11A4600E02A46074980394A6045
:1003B000012180F82110002180F82010416B01B14B
:1003C00088472046BDE8F09F8000024008040240B4
:1003D0002DE9F84FDFF8C891002409F1040A0AF169
:1003E000040B23460F270BF1040ED1E00125A54095
:1003F00006EA0502AA4276D1DFF8A8C14E68A6EB4C
:100400000C0866452BD00DDC032E34D005DC36B34A
:10041000012E19D0022E2FD11BE0112E16D0122E34
:100420002AD119E0B8F5881F19D006DCB8F5803F4D
:1004300015D0B8F5801F1FD111E0B8F5001F0ED000
:10044000B8F5041F18D10AE0CB6815E0CB681B1D76
:1004500012E0CB6808330FE0CB680C330CE08B68FC
:100460002BB1012B4FF0080303D0456104E00423B6
:1004700002E0056100E00023FF2A01D8064601E002
:1004800000F104064FEA840501D9A5F12005D6F84C
:10049000008007FA05FC28EA0C0803FA05F548EA8B
:1004A0000508C6F800804D68ED0070D53E4DAE6978
:1004B00046F00106AE61AD6924F0030605F00105C2
:1004C00000953A4D06EB050CDCF80850A607360FF0
:1004D00007FA06F825EA0805DFF8D480404503D17D
:1004E0004FF0000825E052E0DFF8C880404502D117
:1004F0004FF001081DE0DFF8C080404502D14FF009
:10050000020816E0DFF8B480404502D14FF003083E
:100510000FE0DFF8AC80404502D14FF0040808E05E
:10052000DFF8A080404502D14FF0050801E04FF010
:10053000060808FA06F848EA0508CCF808804D686D
:10054000D9F80060ED034D4601D5164300E096430F
:100550002E604D68DAF80060AD03554601D51643AC
:1005600000E096432E604D68DBF80060ED025D46CA
:1005700001D5164300E096432E604D68DEF800601A
:10058000AD02754601D5164300E096432E60641C0B
:100590000A681646E2407FF429AFBDE8F88F0000F4
:1005A0000004014000001110001002400000014052
:1005B00000080140000C01400010014000140140FF
:1005C00000180140001C01408068084000D0012054
:1005D00070470AB1016170470904FBE70148806870
:1005E000704700000400002002488168027811442E
:1005F0008160704704000020074810B5016841F091
:1006000010010160032000F073F8002000F006F8EC
:1006100000F024F8002010BD0020024070B50D4D00
:1006200004464FF47A712878B1FBF0F00A49096862
:10063000B1FBF0F000F0F6FA48B9102C07D2002216
:100640002146501E00F034F800206C6070BD01207F
:1006500070BD000004000020100000200B4808B509
:10066000816941F001018161816901F0010100911D
:10067000C16941F08051C161C06900F080500090B3
:100680000348416821F0E061416008BD001002406C
:1006900000000140002809DB00F01F020121914009
:1006A0004009800000F1E020C0F800117047000010
:1006B000F0B40E4B1B680C46C3F30223C3F10705CD
:1006C000042D00D90425191D072901D2002300E0BB
:1006D000DB1E012606FA05F1491E214099409E4085
:1006E000761E16403143F0BC00F0E2BF0CED00E096
:1006F000064900F0070208684FF6FF03184040EA79
:100700000220034A10430860704700000CED00E02F
:100710000000FA052DE9F0470F46050061D0434E71
:10072000306800F00700B84209D2306820F00700B6
:1007300038433060306800F00700B84251D1286873
:100740003B4C810712D5400703D5606840F4E06058
:1007500060602878000703D5606840F460506060EE
:100760006068A96820F0F000084360602878C0073E
:1007700028D06868012810D02168022810D0890785
:1007800000292EDA616821F0030101436160FFF75F
:1007900025FF804641F288390DE021688903EFE7A3
:1007A0008901EDE7FFF71AFFA0EB0801494502D9DF
:1007B0000320BDE8F0876068696800F00C00B0EBCA
:1007C000810FEFD1306800F00700B8420BD93068D4
:1007D00020F0070038433060306800F00700B8426E
:1007E00001D00120E5E72878400705D56068E96871
:1007F00020F4E060084360602878000706D5606850
:10080000296920F4605040EAC100606000F038F8C7
:100810006168084AC1F30311515CC8400649086089
:1008200006480068FFF7FAFE0020C2E700200240F9
:1008300000100240CC1E000810000020080000201C
:100840000448054900684968044AC1F30221515C23
:10085000C84070471000002000100240DC1E000855
:100860000448054900684968044AC1F3C221515C43
:10087000C84070471000002000100240DC1E000835
:1008800012A185B00FC98DE80F0014A0144A0068AA
:1008900004905168134801F00C03042B10D0082B6E
:1008A0000ED1C1F38343C9031DF803000AD5516873
:1008B00004AAC1F34041515C0A4A5043B0FBF1F035
:1008C00005B0704708494843FAE7000002030405F1
:1008D000060708090A0B0C0D0E0F1010010200008C
:1008E0000010024000127A0000093D002DE9F84F87
:1008F000040070D02078C04DC00749D06868C0F3AC
:100900008100012807D06868C0F38100022809D15E
:100910006868C00306D52868800339D56068002858
:10092000E7D035E06068B0F5803F0BD010B1B0F58E
:10093000A02F11D0286820F480302860286820F487
:10094000802002E0286840F480302860606890B120
:10095000FFF744FE06460AE0286840F4802028603D
:10096000F0E700BFFFF73AFE801B642873D82868C1
:100970008003F7D50CE0FFF731FE064605E000BF27
:10098000FFF72CFE801B6428F0D828688003F7D47A
:1009900020789A4E80074FF001094FF0000839D5B2
:1009A000686810F00C0F07D06868C0F38100022857
:1009B00009D16868C00306D42868800714D5206967
:1009C000012808D110E02069B0B1C6F80090FFF707
:1009D00005FE074605E00AE1FFF700FEC01B0228FE
:1009E000C4D828688007F7D52868616920F0F80026
:1009F00040EAC10028600DE0C6F80080FFF7EEFD78
:100A0000074604E0FFF7EAFDC01B022823D8286848
:100A10008007F7D4207800072CD57948A169D9B18F
:100A2000C0F80090FFF7DAFD074604E0FFF7D6FDB7
:100A3000C01B02280FD8686A8007F7D571484FF4A9
:100A4000FA510068B0FBF1F0009000BF0098411E21
:100A50000091FAD20EE080E0C0F80080FFF7BEFD02
:100A6000074604E0FFF7BAFDC01B022875D8686A84
:100A70008007F7D42078400760D5E8690027C000D8
:100A800008D4E86940F08050E861E869012700F087
:100A9000805000905C480168C90513D40168834602
:100AA00041F480710160FFF799FD824606E000BFC6
:100AB000FFF794FDA0EB0A0064284ED8DBF8000095
:100AC000C005F5D5E06801280AD008B1052813D083
:100AD000286A20F001002862286A20F0040002E061
:100AE000286A40F001002862E06841F2883B98B132
:100AF000FFF774FD82460BE0286A40F0040028628C
:100B0000EEE700BFFFF76AFDA0EB0A0159455AD88E
:100B1000286A8007F6D50CE0FFF760FD824605E005
:100B2000FFF75CFDA0EB0A0159454CD8286A800705
:100B3000F6D41FB1E86920F08050E861E06988B31D
:100B40006968C1F38101022944D00228C6F8608097
:100B500004D0FFF743FD044638E034E0FFF73EFDE4
:100B6000074604E0FFF73AFDC01B02282BD828688F
:100B70008001F7D4206AB0F5803F05D16868A1688C
:100B800020F4003008436860D4E90801084369682C
:100B900021F4741108436860C6F86090FFF71EFDE9
:100BA000044606E025E000BFFFF718FD001B022801
:100BB00009D828688001F7D51BE000BFFFF70EFDBC
:100BC000001B022802D90320BDE8F88F28688001A5
:100BD000F4D40EE00128F7D06868226A00F480316E
:100BE000914204D1616A00F47010884201D0012062
:100BF000EAE70020E8E7000000100240000042425F
:100C00008004424210000020007000404FF0E021BC
:100C10000428086903D020F004000861704740F000
:100C20000400FAE710B5401EB0F1807F01D3012027
:100C300010BD4FF0E02460610F21601700F038FD17
:100C40000020A06107202061002010BD7047704780
:100C5000F8B5026804461068D168536910F00F0FA8
:100C60004FF0000553D003F0010601F490773743AD
:100C70005FD0C20705D0CA0503D5226C42F001023D
:100C80002264420705D5DA0703D0226C42F0020243
:100C90002264820705D5DA0703D0226C42F00402F1
:100CA0002264020707D501F02002324303D0226CF0
:100CB00042F008022264226C002A34D0800604D557
:100CC000880602D5204600F0E0FB20684069216CD0
:100CD000C0F38010090700D430B3204600F0BDFBFC
:100CE0002068416949061BD5416921F040014161F5
:100CF000A06BA8B158494163A06BFFF7D1FA002857
:100D000011D0A06B416B01B0BDE8F04008478306ED
:100D10000FD58B060DD52046BDE8F84000F0B5BBD9
:100D20002046FFF794FFF8BD2046FFF790FF2564AB
:100D3000F8BD266B2023012E52D1C60650D5CE0613
:100D40004ED5106850680090506940062AD5A16BB6
:100D5000086840680004000CEAD0A68D8642E7D9F6
:100D6000E0858869202818D0D06820F48070D06091
:100D70002068416921F0010141612068416921F049
:100D80004001416184F83E3025632068C16821F04C
:100D90001001C160A06BFFF75FFAA08DE18D401AD2
:100DA00081B219E0A08DE18D401A81B2E08D00285A
:100DB000BED00029BCD0D06820F49070D0602068EC
:100DC000426922F00102426184F83E3025632068C6
:100DD000C26822F01002C2602046FFF737FFF8BD5C
:100DE00005062BD50D0629D594F83D002128F6D10E
:100DF000A068B0F5805F01D12069B0B1206A411CC4
:100E00002162216800784860E08C401E0004000CDC
:100E1000E084E4D12068C16821F08001C1602068CD
:100E2000C16841F04001C160F8BD206A0088C0F38C
:100E300008005060206A801C2062E5E74006F3D578
:100E40004806F1D5D168204621F04001D16084F8F0
:100E50003D3000F076F8F8BD4B14000870B5040082
:100E600004D094F83D00002510B106E0012070BDCB
:100E700084F83C50204600F023F8242084F83D00FC
:100E80002068C16821F40051C160204600F058FB81
:100E90002068016921F4904101612068416921F0D5
:100EA0002A0141612068C16841F40051C160256494
:100EB000202084F83D0084F83E00002070BD000032
:100EC00030B585B000240094019402940394006826
:100ED000184988422CD11848816941F480418161C8
:100EE000816901F480410491816941F004018161CB
:100EF0008069124D00F0040004904FF400700090DF
:100F0000022001900320039069462846FFF760FA0B
:100F10002815CDE90004694628460294FFF758FADF
:100F2000002211462520FFF7C3FB2520FFF7B2FB67
:100F300005B030BD003801400010024000080140FB
:100F400070477047FEE710B50446C18980680022EB
:100F5000FFF73FFB217B606800F088F8A189002241
:100F60006068FFF736FB022000F00CFEE1890122E9
:100F7000A068FFF72EFB022000F004FEE189A068C4
:100F8000BDE810400022FFF724BB000070B504004C
:100F9000DDE9045025D0002828D0642800D9642039
:100FA0002070C4E901120846A381E581D9B200F09E
:100FB0005DF8A17BA06800F059F8A1890122606862
:100FC000FFF707FBE1890122A068FFF702FB084851
:100FD0002061084860610848A0610848E06101207C
:100FE00070BD07A000F054FB002070BD0120D7E7C2
:100FF000B7110008FB11000857110008F510000890
:10100000B3F5CABCBBAFC8EDBCFE494943CAA7B0E3
:10101000DCA3AC7048616E646C65BEE4B1FACEAA24
:10102000BFD50D0A0000000010B50446C1898068D4
:101030000022FFF7CEFA217B606800F017F8A18943
:1010400001226068FFF7C5FA022000F09BFDE189EC
:101050000122A068FFF7BDFA022000F093FDE189AC
:10106000A068BDE810400022FFF7B3BA00B585B014
:10107000002200920192029203921C4A83181C4A99
:1010800009D0B3F5806F0ED0B3F5006F1ED0B3F565
:10109000406F10D122E0936943F004039361926999
:1010A00002F0040206E0936943F008039361926939
:1010B00002F00802049200910121019102910321A2
:1010C00003916946FFF784F905B000BD936943F0C9
:1010D00010039361926902F01002EBE7936943F009
:1010E00020039361926902F02002E3E700F8FEBF5B
:1010F000001002402DE9F0410F460446017B002517
:10110000406800F037F90026E1890022A068FFF767
:1011100060FA022000F036FDE1890122A068FFF7A5
:1011200058FA6806050EA1896068FFF74DFA08B104
:1011300045F00105012000F025FD761CF6B2082ED1
:10114000E2D3204627B1FFF7FEFE2846BDE8F08136
:10115000FFF76AFFF9E770B50E460446017B406869
:10116000FFF784FFE1890022A068FFF732FA00252B
:101170003006A189606801D5012200E00022FFF756
:1011800028FA7006060E022000F0FCFCE18901221C
:10119000A068FFF71EFA022000F0F4FCE1890022AB
:1011A000A068FFF716FA022000F0ECFC6D1CEDB20F
:1011B000082DDDD370BD10B50446017B4068FFF7F4
:1011C00055FFA18901226068FFF703FAE189012236
:1011D000A068FFF7FEF9042000F0D4FCA1890022EA
:1011E0006068FFF7F6F9042000F0CCFCE189A06804
:1011F000BDE810400022FFF7ECB910B50446017BB2
:101200004068FFF733FFE1890022A068FFF7E1F9AA
:10121000A18900226068FFF7DCF9042000F0B2FC2D
:10122000E1890122A068FFF7D4F9A1890122606851
:10123000FFF7CFF9BDE81040042000F0A3BC70B563
:101240000446017B0025406800F094F8A189012242
:101250006068FFF7BEF9012000F094FCE1890122EB
:10126000A068FFF7B6F9012000F08CFC08E06D1CC7
:10127000EDB2FA2D04D92046FFF7BFFF002070BD64
:10128000A1896068FFF7A0F90028F0D1E189002268
:10129000A068FFF79EF9012070BD00002DE9F04124
:1012A00086B000242048009401940294039481693C
:1012B00041F010018161816901F01001049181699F
:1012C00041F020018161816901F02001049181696F
:1012D00041F0040181618069012200F00400134F94
:1012E0001502049029463846FFF773F9DFF840806D
:1012F000012204214046FFF76CF9009503260125E1
:101300000396CDE9015469463846FFF761F8042099
:10131000CDE90005CDE9024669464046FFF758F899
:1013200006B0BDE8F0810000001002400008014056
:10133000001401400C4810B50A4901604FF4E13136
:101340004160002181600C22C160C0E9041281610A
:10135000C161FFF783FD002803D0BDE81040FEF710
:101360007ABF10BD0038014060000020FEE77047E2
:101370007047000000B585B00022009201920292F1
:1013800003921A4A83181A4A09D0B3F5806F0ED017
:10139000B3F5006F19D0B3F5406F10D11DE093691C
:1013A00043F004039361926902F0040206E093693A
:1013B00043F008039361926902F0080204920091DD
:1013C0006946FFF705F805B000BD936943F01003C7
:1013D0009361926902F01002F0E7936943F02003F1
:1013E0009361926902F02002E8E7000000F8FEBF76
:1013F000001002407047FFF7F7B830B58FB02821D2
:101400006846FEF7C8FE14210AA8FEF7C4FE0121B3
:101410000804CDE900100024029402250491CDE9CE
:1014200007504FF4E01009906846FFF75FFA0F206D
:10143000CDE90A056802CDE90C4002210AA80E9404
:10144000FFF768F90FB030BD704710B5406A002152
:10145000C185C184FFF7FBFB10BD0168CA6822F497
:101460009072CA6001684A6922F001024A61016B08
:10147000012904D10168CA6822F01002CA60202143
:1014800080F83E1000210163704708B590F83E10C7
:10149000222901D0022008BD82684FF480539A426D
:1014A00001D1016921B1816A9A421BD04AB10AE097
:1014B0000268816A5268C2F308020A80816A891C44
:1014C00008E0026972B10268526802F07F020A7095
:1014D000816A491C8162C18D491E0904090CC185BC
:1014E00003D019E002685268F1E70168CA6822F087
:1014F0002002CA600168CA6822F48072CA6001686A
:101500004A6922F001024A61202180F83E10016BF5
:10151000012903D0FFF714FD002008BD002101635D
:101520000168CA6822F01002CA6001680A68D2061F
:1015300002D50A6849680091818DFFF787FBEBE7C8
:1015400070B5044600680169E26821F44051114316
:1015500001612169A0680843616908432168CA687C
:1015600041F20C639A430243CA6020684169A26950
:1015700021F44071114341611E492068884202D123
:10158000FFF76EF901E0FFF75BF900EBC00101EB3B
:101590000012606864218000B2FBF0F3B3FBF1F34A
:1015A0006FF018067343B2FBF0F5B2FBF0F605EBF3
:1015B0008305322303EB0515B5FBF1F5B6FBF1F618
:1015C00005F0F00505EB0615B2FBF0F6B2FBF0F006
:1015D000B0FBF1F06FF01802504306EB800003EB14
:1015E0000010B0FBF1F0216800F00F002844886083
:1015F00070BD000000380140F8B52048FFF728FB17
:101600001E49086800684FF00006C04382061C4867
:1016100023D41C4A176802784FF0020E02EB021224
:1016200002EB4205184A02EB45040EEB45056378D0
:1016300003EB020C5B1C63700CF80570037803EB82
:10164000031303EB430302EB43025378642B00D9EB
:1016500056700B686FF020021A6009680A68D2435E
:10166000D20609D40278521CD2B202700A2A00D3E0
:101670000670086848680090F8BD0000600000200F
:101680001800002004380140A4000020FEE70000FC
:101690000FB4054B10B503A9044A029800F028F8CE
:1016A00010BC5DF814FB0000B91B00081C000020F2
:1016B0000907090E002804DB00F1E02080F800147F
:1016C000704700F00F0000F1E02080F8141D704713
:1016D00002E008C8121F08C1002AFAD170477047FB
:1016E000002001E001C1121F002AFBD17047000059
:1016F0002DE9FF4F8DB00F460546002606E0252850
:101700000BD0DDE90F1290476D1C761C287800285D
:10171000F5D111B03046BDE8F08F0024A246A146B5
:101720000122EC4900E0044315F8013F203B02FA96
:1017300003F00842F7D128782A2810D06FF02F0242
:101740002878A0F13001092914D80AEB8A0102EBAC
:10175000410144F0020400EB010A6D1CF0E701CFE7
:101760005FEA000A03D544F40054CAF1000A44F0C9
:1017700002046D1C28782E2817D115F8010F44F0AB
:1017800004042A280ED06FF02F022878A0F130012F
:1017900009290AD809EB890102EB410100EB010993
:1017A0006D1CF2E757F8049B6D1C28786C280FD04D
:1017B00006DC4C2817D068280DD06A2814D104E024
:1017C000742810D07A280FD10DE044F400140AE0F8
:1017D00044F4801401E044F440146978814202D159
:1017E00004F580146D1C6D1C2A786E2A1FD00CDC49
:1017F000632A31D004DC002A8BD0582A11D1A3E00F
:10180000642A68D0692A0CD165E0732A2ED004DCE2
:101810006F2A73D0702A04D19BE0752A6FD0782A82
:101820006ED01046DDE90F129047761C50E1C4F3EC
:101830000250022806D0032809D0042801CF09D07D
:10184000066045E101CFF117C0E9006140E101CF39
:1018500006803DE106703BE117F8040B8DF80000AF
:1018600000208DF80100EB46012003E057F804BB8F
:101870004FF0FF3061074FF0000102D40DE008F196
:101880000101884649450FDA8045F8DB1BF808104E
:101890000029F4D108E008F1010188468142FADB11
:1018A0001BF808100029F6D1DDE90F23AAEB080088
:1018B0008146214600F036F9304400EB080604E08A
:1018C000DDE90F121BF8010B9047B8F10108F7D2C0
:1018D00021464846F7E00A21C4F302534FF0000BBB
:1018E0000891022B04D001CFC117032B09D00AE0C5
:1018F000FF1D27F00707F7E8020108E032E01FE0CC
:1019000020E000B2C117042B01D140B2C117031E61
:1019100071F1000307DA4FF0000CD0EB0C006CEB18
:1019200001012D2302E0230504D52B238DF824305B
:10193000012303E0E30701D02023F7E7984658E0AE
:101940000A2110E010210EE010204FF0000B08904B
:101950000CE010214FF0000B44F004044FF0080994
:10196000089103E008214FF0000B0891C4F30253E3
:10197000022B04D001CF0021032B06D006E0FF1D6F
:1019800027F00707F7E8020103E080B2042B00D13B
:10199000C0B24FF0000823072BD5702A07D0DDF81E
:1019A00020C08CF0100C5CEA0B0C05D00EE040233C
:1019B0008DF82430012308E050EA010306D03023DB
:1019C0008DF824308DF8252002239846DDF820C0BC
:1019D0008CF0080C5CEA0B0C0BD150EA010301D12E
:1019E000630706D530238DF824304FF00108A9F1A4
:1019F0000109582A04D038A20B9208AA0A920BE0D7
:101A00003AA2F9E75B46089AFEF7D0FB0B9B9B5C7A
:101A10000A9A521E0A92137050EA0102F2D10A98F1
:101A2000ADEB000000F1200B600702D524F48034F8
:101A300001E04FF00109D94502DDA9EB0B0000E000
:101A4000002000EB0B0141440890AAEB010AE003DF
:101A500006D4DDE90F232146504600F063F8064422
:101A60004FF0000908E009A911F80900DDE90F129B
:101A7000904709F10109761CC145F4DBE0030CD560
:101A8000DDE90F232146504600F04CF8064404E0FF
:101A9000DDE90F1230209047761C0899481E089007
:101AA0000029F5DC08E00A980A990078491C0A9197
:101AB000DDE90F129047761CBBF10001ABF1010B81
:101AC000F1DC21465046DDE90F2300F019F8064409
:101AD0006D1C1BE6092801003031323334353637AE
:101AE000383961626364656600000000303132336A
:101AF000343536373839414243444546000000000A
:101B00002DE9F041044600251E461746880404D4FA
:101B100005E039462020B0476D1C641EF9D52846E3
:101B2000BDE8F0812DE9F041044600251E469046AF
:101B3000C80301D5302700E02027880404D505E03C
:101B400041463846B0476D1C641EF9D52846BDE8AD
:101B5000F081000010B504460420FFF757F8014853
:101B6000046010BD1400002070B5054600244FF439
:101B70007A7603E0304600F005F8641CAC42F9D3F5
:101B800070BD000070B54FF0E0240022656909497E
:101B9000A36909684843A1699942FCD002D2A3EB2A
:101BA000010302E0A5EB010633441A440B468242CE
:101BB000F1D370BD1400002004490A685206FCD518
:101BC000024AC1B2121D1160704700000038014086
:101BD0002DE9FC414820FFF7BDFFFEF70DFDFFF7A3
:101BE0000CFCFFF75BFBFFF7A5FB4D480168CA68DB
:101BF00042F02002CA600068C16841F01001C16073
:101C000000224FF480714748FEF7E3FC00220421D4
:101C10004548FEF7DEFC01244020CDE9000443499D
:101C200080230A464248FFF7B1F938B32003CDE9D3
:101C3000000443103F493E480A462030FFF7A6F90A
:101C4000F0B13D4D3D4F41F2883800243CA0FFF7F4
:101C50001FFD00263648FFF7AEFA31463448FFF73D
:101C60007AFA3348FFF7EBFA2870002816D0E0071D
:101C70000CD004EA070001280BD00FE039A000E0E7
:101C800043A0FFF705FD0020BDE8FC8131464AA0D6
:101C900001E0314654A0FFF7FBFC641C2448FFF729
:101CA000ACFA761CF6B2FF2ED4D314B95AA0FFF7C3
:101CB000EFFC00244046FFF757FF5DA0FFF7E8FC6C
:101CC00000261B482030FFF776FA194831462030AD
:101CD000FFF741FA16482030FFF7B1FA287070B1CB
:101CE000E00704D004EA0700012803D007E03146EA
:101CF00058A001E0314663A0FFF7CAFC641C0C4801
:101D00002030FFF77AFA761CF6B2FF2ED9D314B939
:101D100068A0FFF7BDFC4046FFF726FF95E70000EF
:101D2000600000200008014000140140000C014048
:101D30002000002000100140000000200100008071
:101D400049324330205363616E6E696E6720666F5F
:101D500072204932432064657669636573202E2EB4
:101D60002E0D0A004154323443303220B3F5CABC40
:101D7000BBAFCAA7B0DCA3AC494943BDD3BFDAB3FC
:101D8000F5CABCBBAFCAA7B0DCA3A10D0A00000016
:101D90004932433120B3F5CABCBBAFCAA7B0DCA3FC
:101DA000AC493243BDD3BFDAB3F5CABCBBAFCAA797
:101DB000B0DCA3A10D0A00004932433020646576EF
:101DC00069636520666F756E64206174207772693F
:101DD00074652061646472657373203D20307825DA
:101DE0003032580D0A0000004932433020646576D5
:101DF00069636520666F756E642061742072656129
:101E000064202061646472657373203D20307825FE
:101E10003032580D0A0000004E6F20493243302006
:101E20006465766963657320666F756E640D0A007C
:101E300049324331205363616E6E696E6720666F6D
:101E400072204932432064657669636573202E2EC3
:101E50002E0D0A004932433120646576696365209E
:101E6000666F756E64206174207772697465206195
:101E7000646472657373203D203078253032580DCC
:101E80000A000000493243312064657669636520A9
:101E9000666F756E642061742072656164202061D4
:101EA000646472657373203D203078253032580D9C
:101EB0000A0000004E6F2049324331206465766984
:101EC00063657320666F756E640D0A000000000084
:101ED00000000000010203040607080900000000DA
:101EE00001020304041F000800000020200000007D
:101EF000D0160008241F00082000002080080000E1
:101F0000E0160008000000000100000010000000C2
:101F1000000000000024F4000000000000000000A9
:041F200000000000BD
:0400000508000131BD
:00000001FF
