:020000040800F2
:100000004011002091620008E5600008E7600008E8
:10001000E9600008EB600008ED60000800000000E7
:10002000000000000000000000000000EF60000879
:10003000F160000800000000F3600008F5600008AF
:10004000B5620008B9620008BD620008C16200081C
:10005000C562000801610008C9620008CD6200089D
:10006000D1620008D5620008D9620008DD6200088C
:10007000E1620008E5620008E9620008ED6200083C
:10008000F1620008F5620008F9620008FD620008EC
:100090000163000805630008096300080D63000898
:1000A0001163000815630008196300081D63000848
:1000B0002163000825630008296300082D630008F8
:1000C0003163000835630008396300083D630008A8
:1000D00041630008456300084963000803610008A4
:1000E0004D63000851630008556300085963000818
:1000F0005D630008616300086563000869630008C8
:100100006D630008716300080D61000875630008E5
:10011000796300087D630008816300088563000837
:10012000896300088D6300089163000895630008E7
:10013000996300089D630008A1630008A563000897
:10014000A9630008AD630008B1630008B563000847
:10015000B9630008BD630008C1630008C5630008F7
:10016000C9630008CD630008D1630008D5630008A7
:10017000D9630008DD630008E163000800000000A7
:10018000E5630008E963000800F5E0700268914249
:1001900003D343689A18914202D380680028F5D1AE
:1001A0007047DFF85807016891B94FF480318160DA
:1001B0004FF4805141604FF0FF31C1600161042173
:1001C000DFF83C274161C2F8BC11DFF83817016045
:1001D0000120704701F1080313F0070305D001F176
:1001E0000803C3F1080303F007035918D21A816109
:1001F000C26042F001034B60511828234B60DFF8C6
:10020000FC160969C16170472DE9F84F064601F1F6
:10021000080010F0070008BF884607D001F1080069
:10022000C0F1080000F0070000EB010802F108002F
:1002300010F0070006D002F10800C0F1080000F03D
:10024000070082181546A5EB0800A0EB030903EB95
:10025000080B43F00300C8F80400AB4528BF01F0C9
:100260000BFA2879C00758BF01F006FAB9F1100F50
:1002700038BF01F001FAB069854209D1F0684844FD
:10028000F060C6F818B040F00100CBF804006DE152
:10029000706985420BD1B0684844B060C6F814B0AC
:1002A00040F00101CBF8041040F80B005EE16868F3
:1002B00000F00301012940F0AD80C008C0000190AA
:1002C000C00820283AD2D5F808A0EF680090BD42B7
:1002D00008BF01F0D1F9554508BF01F0CDF96868B4
:1002E0000099C008C000B0EBC10F18BF01F0C4F9FD
:1002F000009806EBC00000F128018A4507D031695B
:100300008A45C0F08280DAF80C10A9427DD15745A9
:1003100006D1009A3068012191408843306076E030
:100320002830874205D0306987426ED3B868A8422A
:100330006BD1CAF80C70C7F808A068E0EF68D5F870
:1003400018A0AF420CD0A8683169884223D3C16895
:10035000A94204BFB968A9421DD1C760B8601CE0BA
:1003600005F11400076837B905F110000768A7B157
:1003700001E00846076807F114010A68002A02BF75
:1003800007F110010A68002AF3D13169884202D3CB
:100390000021016001E001F06FF9BAF1000F36D0E1
:1003A000E86906EB800000F5987001688D4208D17D
:1003B0000760A7B9EA6970680121914088437060BD
:1003C00025E03069824508D3DAF81000A84214BF4E
:1003D000CAF81470CAF8107001E001F04DF9B7B115
:1003E0003069874211D3C7F818A0296929B1814221
:1003F00026BF39618F6101F03FF9686938B1316911
:10040000884202D37861876101E001F035F90198F3
:100410004519814468684008400068604FEAD90582
:1004200049F00100CBF8040049F80B90202D23D2AD
:1004300006EBC50000F12807BA46B9F1100F38BF26
:1004400001F01AF9306820FA05F1C90704D4012136
:10045000A9400843306006E0B868316988422CBF83
:10046000824601F009F9C7F808B0CAF80CB0CBF819
:1004700008A0CBF80C7079E05FEA192108BF0020D2
:1004800023D0B1F5803F28BF1F201ED2A1F5807078
:10049000000C00F008008140A1F58052120C02F01F
:1004A00004029140A1F580431B0CC0F10E0003F043
:1004B0000203801AC01A994000EBD130C11D29FAFD
:1004C00001F202F0010101EB4000CBF81C00002218
:1004D000CBF81420CBF8102006EB8001726822FACA
:1004E00000F3DB0701F5987107D4012303FA00F04C
:1004F00010437060C1F800B01DE009681F280EBFEE
:1005000000204008C0F1190009FA00F000E011468F
:100510004A68D208D2004A4514D0C20F01EB8202C9
:1005200002F1100340001A68002AF0D130698342BA
:100530001AD3C3F800B0CBF81810CBF80CB0CBF836
:1005400008B013E032698868914228BF90420BD30B
:10055000C0F80CB0C1F808B0CBF80800CBF80C100C
:100560000020CBF8180001E001F086F808F108003F
:10057000BDE8E68F2DE9FA4D0546DFF8800384B02B
:10058000006808B9FFF70DFEDFF870030499806872
:1005900041182F31401E21EA00000499814280F069
:1005A000A88105F5D876B16839B1326880188242E1
:1005B00080F09F818142C0F09C8101F061F80028A9
:1005C0001EBF0446D0F8008014F1010F00F09181A5
:1005D0003068716840443060814238BF01467160C4
:1005E000A86980BB286908B1844200D22C61002030
:1005F000F0613461C6F8148005F12801BF48006835
:1006000068624FF0FF302862002001F10802C960E3
:100610001160801C10312028D2609260F5D3B84858
:10062000854203D1A8F12802214629E055F8040C9F
:10063000C00805EBC000A0F1080108EB0400401A57
:10064000A0F128021CE005F5E071084600E0806892
:10065000D0B1026843689A189442F8D1027B12071D
:1006600012D4AA6903689A420ED347683B449A425F
:100670000AD208EB07014160E868A96908EB0002AB
:100680002846FFF7A7FD1EE128698442084638BFC7
:100690002C6108EB040100E0806880B102688A42A6
:1006A000FAD1017B09070AD40460416841444160E2
:1006B0002146049B284606B0BDE8F04DA4E5AF698D
:1006C00039462846FFF760FD0168406840180290EF
:1006D0002F3800F1080111F0070105D000F10801E1
:1006E000C1F1080101F00701081807F11001884263
:1006F00034BF0097009000980830019004F1080181
:10070000009800F1180A11F007014FF0000BA8F152
:10071000280005D004F10801C1F1080101F007012A
:100720000A19401AAA61E86040F00101516080187E
:100730002821416071480069E861019810F00700C4
:1007400018BF00F099FF00991B20486005F5E07183
:10075000B1E80C500198A0E80C503461C6F8148040
:10076000C6F81CB00198B061029800E08A460722E2
:10077000CAF804200AF104010A1D82420BF1010BA0
:10078000F4D3BBF1020FB8BF00F076FF0098B84277
:1007900000F09980C01BC119C4084A685208520071
:1007A0004A6040F001017960C051202C20D205EB55
:1007B000C40101F12806B046102838BF00F05CFFE4
:1007C000286820FA04F1C90704D40121A140084394
:1007D000286006E0B068296988422CBF804600F096
:1007E0004BFFB760C8F80C70C7F80880FE606AE07D
:1007F000010A08BF002223D0B1F5803F28BF1F2285
:100800001ED2A1F58072120C02F008029140A1F5EF
:1008100080531B0C03F004039940A1F58044240C81
:10082000C2F10E0204F00204D21A121BA14002EB24
:10083000D131CA1D20FA02F303F0010202EB41029A
:10084000FA6100237B613B6105EB82016B6823FA4F
:1008500002F4E40701F5987105D401209040184393
:1008600068600F601CE009681F2A0EBF0022520852
:10087000C2F1190200FA02F200E019464B68DB08E7
:10088000DB00834210D0D30F01EB830303F110048C
:1008900052002368002BF0D12869844211D32760CD
:1008A000B961FF60BF600EE02A698868914228BF85
:1008B000904206D3C7608F60B860F9600020B861CD
:1008C00001E000F0D9FEE8680499814211D2401A93
:1008D000E860A969049A5218AA6140F001005060CA
:1008E000049840F00300486006B001F10800BDE83C
:1008F000F08D002006B0BDE8F08D0000241A002025
:10090000401500206859883C2DE9F04D044600262A
:1009100088465FEA1820C8F1000B08BF002123D0E9
:10092000B0F5803F28BF1F211ED2A0F58071090CB1
:1009300001F008018840A0F58052120C02F0040278
:100940009040A0F580431B0CC1F10E0103F002039F
:10095000891AC91A984001EBD030C11D28FA01F25A
:1009600002F0010101EB400104EB8100D0F83001FD
:1009700018B31F290EBF00224A08C2F1190208FA53
:1009800002F2002300E052004568ED08ED00A5EBFF
:1009900008055D4503D25FEA050B06460BD04569A5
:1009A000D70F00EB8700002D00691CBF85422B4646
:1009B0000028E8D11846B8BBC6BB012088404000DB
:1009C000414208436168084000F0638141420840A9
:1009D000401E010B01F01001C840420902F008025C
:1009E000D040830803F00403D840450805F0020511
:1009F0005118E8405918C0F3400729443944F840D9
:100A0000401804EB8000D0F830010DE00846416842
:100A1000C908C900A1EB080159453CBF8B460646F1
:100A200001690029F2D140690028F0D1002E00F0C0
:100A30003081A068A0EB0800834580F02A812069FE
:100A40008642C0F024817068C008C00008EB0B012A
:100A500008EB0605884218BF00F00EFEAE4280F09B
:100A60001681F768D6F818A0B7420CD0B068216993
:100A7000884223D3C168B14204BFB968B1421DD1D5
:100A8000C760B8601CE006F11400076837B906F1CA
:100A900010000768A7B101E00846076807F11401D4
:100AA0000A68002A02BF07F110010A68002AF3D180
:100AB0002169884202D30021016001E000F0DCFDE1
:100AC000BAF1000F38D0F06904EB800000F598709F
:100AD00001688E4209D10760380014D1F26960685C
:100AE000012191408843606026E02069824508D357
:100AF000DAF81000B04214BFCAF81470CAF81070C7
:100B000001E000F0B9FDBFB12069874212D3C7F8F8
:100B100018A0306930B12169884226BF38618761E9
:100B200000F0AAFD706938B12169884202D378616A
:100B3000876101E000F0A0FDBBF1100F0CD208EBC3
:100B40000B0040F00300706008EB0B008019416857
:100B500041F00101416096E048F0030070604BF005
:100B6000010068604FEADB004BF805B020281DD279
:100B700004EBC00101F12807216821FA00F2D20735
:100B8000BB4605D4012202FA00F00843206006E0CB
:100B9000B868216988422CBF834600F06DFDBD60B6
:100BA000CBF80C50C5F808B0EF606CE05FEA1B2191
:100BB00008BF002023D0B1F5803F28BF1F201ED2E0
:100BC000A1F58070000C00F008008140A1F5805272
:100BD000120C02F004029140A1F580431B0CC0F1FD
:100BE0000E0003F00203801AC01A994000EBD130C6
:100BF000C11D2BFA01F202F0010101EB4000E86196
:100C000000226A612A6104EB8001626822FA00F323
:100C1000DB0701F5987106D4012303FA00F01043B5
:100C200060600D601CE009681F280EBF00204008AE
:100C3000C0F119000BFA00F000E011464A68D20832
:100C4000D2005A4510D0C20F01EB820202F110030C
:100C500040001A68002AF0D12069834211D31D6038
:100C6000A961ED60AD600EE022698868914228BFFD
:100C7000904206D3C5608D60A860E9600020A8613D
:100C800001E000F0F9FC06F10800BDE8F08D00F08D
:100C9000F3FC0020BDE8F08D2DE9F84F04468846AE
:100CA000606841420840401E010B01F01001C8403D
:100CB000420902F00802D040830803F00403D84040
:100CC000450805F002055118E8405918C0F34006E0
:100CD00029447118F040401804EB8000D0F830012E
:100CE0004168C908C9000646A1EB080A09E00846A0
:100CF0004168C908C900A1EB080151453CBF8A46BB
:100D0000064601690029F2D140690028F0D1206926
:100D10008642C0F0C4807068C00808EB0A09C000B1
:100D200008EB060B484518BF00F0A6FC5E4580F0B6
:100D3000B680F768B569B7420CD0B06821698842BF
:100D400023D3C168B14204BFB968B1421DD1C760A5
:100D5000B8601CE006F11400076837B906F110000E
:100D60000768A7B101E00846076807F114010A689F
:100D7000002A02BF07F110010A68002AF3D1216995
:100D8000884202D30021016001E000F075FC002DD3
:100D900034D0F06904EB800000F5987001688E4251
:100DA00009D10760380011D1F269606801219140D2
:100DB0008843606022E02069854205D32869B042FB
:100DC00014BF6F612F6101E000F056FCB7B12069DC
:100DD000874211D3BD61306930B12169884226BF95
:100DE0003861876100F048FC706938B12169884238
:100DF00002D37861876101E000F03EFCBAF1100F88
:100E000009D249F00300706009EB0600416841F027
:100E1000010141603FE048F0030070604AF00100CA
:100E2000CBF804004AF80BA0D4F808804FEAD805A4
:100E3000202D28BF00F020FCB8F1000F27D0D4F8F7
:100E40001490009504EBC50000F128052F46B8F179
:100E5000100F38BF00F010FC2068009920FA01F252
:100E6000D10705D4009A012191400843206006E093
:100E7000A868216988422CBF074600F0FDFBC5F831
:100E80000890C7F80C90C9F80870C9F80C50C4F85D
:100E900008A0C4F814B006F10800BDE8F28F00F015
:100EA000EBFB0020BDE8F28F2DE9F04F83B0054643
:100EB000C046C046F52DDFF8B84780F002810B2D03
:100EC00031BF102705F10B00C708FF002068FE089E
:100ED000F04010F0030F42D0C04300F0010086192B
:100EE00004EBC60000F12808F700D8F8085068683D
:100EF000C008C000B84218BF00F0BEFBD5F808908B
:100F0000454508BF00F0B8FB4D4508BF00F0B4FBF5
:100F10006868C008C000B84218BF00F0ADFBC84503
:100F200005D120680121B140884320600DE020698F
:100F3000814508D3D9F80C00A84204D1C8F808901C
:100F4000C9F80C8001E000F097FB47F003006860EF
:100F500078190835416841F001014160F9E0A16864
:100F6000B94280F0C080002800F0A280012505FA77
:100F700006F149004A42B04011430840414208404E
:100F8000401E010B01F01001C840420902F00802A6
:100F9000D040830803F00403D840460806F0020658
:100FA0005118F0405918C0F340087118414420FA14
:100FB00008F000EB010804EBC80000F128094FEA33
:100FC000C80AD9F808607068C008C000504518BF4A
:100FD00000F052FBD6F808B04E4508BF00F04CFBBD
:100FE0005E4508BF00F048FB7068C008C00050456F
:100FF00018BF00F041FBD94505D1206805FA08F17A
:10100000884320600DE02069834508D3DBF80C009D
:10101000B04204D1C9F808B0CBF80C9001E000F060
:101020002BFB47F003007060AAEB0708B81901908A
:1010300048F0010001994860019848F80080A768CD
:101040004FEAD70ABAF1200F28BF00F015FB47B3CB
:10105000CDF800A004EBCA00D4F8149000F1280ADF
:10106000D346102F38BF00F007FB2068009920FA04
:1010700001F2D10705D4009905FA01F10843206077
:1010800007E0DAF80800216988422CBF834600F0A7
:10109000F3FACAF80890CBF80C90C9F808B0C9F870
:1010A0000CA0C4F8088006F108050198606150E0C2
:1010B0006068C0B339462046FFF7EEFD050012D048
:1010C00047E015F1400F28BF4FF0FF370BD205F175
:1010D0000B00C7086068FF0028B139462046FFF7BB
:1010E00013FC050035D1A068B8421CD3C11B62694E
:1010F00010290AD3B8186061A16041F00103436070
:10110000095047F0030050600AE00021A1606161CE
:1011100040F0030151608018416841F001014160D5
:1011200002F1080515E0E06887420DD2C01BA169F5
:10113000E0607A18A26140F00100506001F10805FA
:1011400047F00300486004E039462046FFF712FAF2
:101150000546C046C046284603B0BDE8F08F00B93A
:1011600070472DE9F047A0F10804C046C046DFF8FB
:10117000005528698442C0F07482616801F003025E
:10118000012A00F06E82CA084FEAC208CA0708EBBB
:10119000040936D4226811F0030F00F06482A41A07
:1011A00084429044C0F05D8269698C4200F0D8802E
:1011B000D608202E70D2D4F80CA0A768544508BFDA
:1011C00000F05AFABC4208BF00F056FA6068C00846
:1011D000C000B0EBC60F18BF00F04EFA05EBC6001A
:1011E00000F128018F4205D029698F4251D3F96857
:1011F000A1424ED1BA453DD128680121B140884372
:1012000028604C4580F02D82D9F80400C10740F1D8
:101210002882810700F17A81A969894540F0B5806B
:10122000E868AC614044E86040F0010161606969D0
:101230008C4202D100216961A960E969814280F094
:101240001282DFF83004006808B9FEF7AAFFA96926
:10125000002900F00882E868292824BF2846FEF704
:1012600093FFE869E968884280F0FD814FF0FF3024
:10127000E861F8E12830824506D02869824508D324
:10128000DAF80800A04204D1C7F80CA0CAF8087028
:10129000B7E700F0F1F9B4E7E768A669A7420BD019
:1012A000A168814222D3C868A04204BFB868A042A6
:1012B0001CD1CF60B9601BE004F114010F6837B98D
:1012C00004F110010F689FB101E011460F6807F1AA
:1012D00014021368002B02BF07F110021368002BE1
:1012E000F3D1814202D30020086001E000F0C4F98C
:1012F000002E86D0E06905EB800000F5987001684B
:101300008C4209D10760380011D1E2696868012177
:1013100091408843686074E72869864205D3306944
:10132000A04214BF7761376101E000F0A5F9002FFA
:101330003FF467AF28698742ABD3BE61216929B109
:10134000814226BF39618F6100F096F960690028FB
:101350003FF457AF296988429BD37861876150E792
:1013600099F8040000F0030003287FF44AAFC5F8A1
:101370000880D9F8040040084000C9F8040048F08B
:101380000100606048F804806DE16969894508D111
:10139000A8686C614044A86040F0010161600051A0
:1013A00061E1C008C0004FEAD00ABAF1200F8044C2
:1013B00036D2D9F80C70D9F80860B94508BF00F0EA
:1013C0005BF9B14508BF00F057F9D9F80400C0082F
:1013D000C000B0EBCA0F18BF00F04EF905EBCA0011
:1013E00000F128018E4206D029698E42C0F081802A
:1013F000F16849457DD1B74206D12868012101FA3B
:101400000AF18843286076E02830874205D02869B1
:1014100087426ED3B86848456BD1F760BE606AE01A
:10142000D9F80C70D9F818604F450DD0D9F80800DC
:101430002969884223D3C168494504BFB968494531
:101440001DD1C760B8601CE009F11400076837B906
:1014500009F110000768A7B101E00846076807F125
:1014600014010A68002A02BF07F110010A68002A65
:10147000F3D12969884202D30021016001E000F024
:10148000FBF8002E37D0D9F81C0005EB800000F5E2
:101490009870016889450AD10760380012D1D9F8DF
:1014A0001C206868012191408843686023E0286916
:1014B000864205D33069484514BF7761376101E042
:1014C00000F0DAF8BFB12869874212D3BE61D9F8BB
:1014D000101029B1814226BF39618F6100F0CCF82C
:1014E000D9F8140038B12969884202D3786187613C
:1014F00001E000F0C1F848F00100606048F80480A5
:10150000686984420BD1C5F80880ACE0400840000F
:10151000C9F8040048F00100606048F804804FEA10
:10152000D807202F22D205EBC70000F128094E462C
:10153000B8F1100F38BF00F09FF8286820FA07F1C3
:10154000C90704D40121B9400843286007E0D9F84D
:101550000800296988422CBF064600F08DF8C9F8BA
:101560000840F460A660C4F80C907CE05FEA1820A4
:1015700008BF002123D0B0F5803F28BF1F211ED215
:10158000A0F58071090C01F008018840A0F5805297
:10159000120C02F004029040A0F580431B0CC1F134
:1015A0000E0103F00203891AC91A984001EBD030EA
:1015B000C11D28FA01F202F0010101EB40010022F5
:1015C00062612261E16105EB81006A6822FA01F340
:1015D000DB0700F5987006D4012303FA01F11143EB
:1015E000696004601CE000681F290EBF00214908E3
:1015F000C1F1190108FA01F100E010464268D20871
:10160000D200424510D0CA0F00EB820202F1100353
:1016100049001A68002AF0D129698B4211D31C6055
:10162000A061E460A4600EE02A698168904228BF4E
:10163000914206D3CC608460E060A1600020A0618C
:1016400001E000F019F8286A401E28620BD1D5F895
:10165000C80100E080680028FCD14FF0FF3028620C
:1016600001E000F009F8C046C046BDE8F087000080
:1016700040150020241A0020012000F017B80000B7
:101680000749086808B1002070470648C008C00034
:1016900008600549C908C900091A0160704700BF00
:1016A000601A0020471100204015002080B5C04678
:1016B000C046024A11001820ABBEFBE7260002001C
:1016C0002DE9F04F80460FF23060A5B015461E465A
:1016D000D0E90023CDE91223002004910D900DF1F3
:1016E000500A6FF0004900E065190020ADF80200D3
:1016F00012AB4FF0FF3229460DF1020001F093F8D2
:101700000446012C04DA2878441EA441E443E40F83
:10171000BDF8020025280CBFA4F1010BA346BBF1C4
:10172000010F0EDB2F4617F8011B0498C047002855
:10173000049000F0F3800D98401CBBF1010B0D905C
:10174000F1D1BDF80200252807D1002007900890AC
:1017500009900A900B900C9005E00028C4D10D98D8
:10176000D2E240F0010015F8011F2029F9D0232909
:101770000DD02B2904D02D2906D030290AD00CE019
:1017800040F0020080B2EEE740F00400FAE740F0DB
:101790000800F7E740F01000F4E72A290ED131687D
:1017A000316051F8042B3160002A0F9204D5514268
:1017B00040F004000F9180B26D1C11E000210F91E8
:1017C00009E00F99494505D001EB810302EB430184
:1017D00030390F916D1C2A78A2F130010A29F0D31B
:1017E00029782E2903D04FF0FF310E911DE015F816
:1017F000011F2A2907D1316831606D1C51F8042B73
:1018000031600E9211E000210E9109E00E994945D8
:1018100005D001EB810302EB430130390E916D1CC1
:101820002A78A2F130010A29F0D3ADF840000FF276
:10183000D040297801F008F808B115F8010B8DF8AF
:1018400042009DF84200682802BF2978682962207A
:1018500005D06C2804BF28786C2803D171208DF83E
:1018600042006D1C14A8069015F8014BB4F1250038
:101870002AD01C3800F0D480001F022840F2D0800B
:10188000133800F0F580093800F0CA80801E00F09F
:101890005C81401E00F03581401E022840F2C0806D
:1018A000001F00F02E81401F00F08B80401E00F0D2
:1018B000DF80401E35D0C01E0BD0801E00F0D880C7
:1018C000C01E00F0D58063E125208DF85000012076
:1018D00067E19DF842006C283068306014D050F801
:1018E000047B306005970E9C002C04D5384600F030
:1018F000B7FF044606E022460021384600F0CCFF40
:1019000000B1C41B08944DE150F8042B306002A9CB
:10191000404600F033FA002840F144814FF0FF3098
:10192000F2E1316831603C2451F8040B3160002150
:10193000CDE9020114A80590DDE90201069F11B965
:1019400008B90E9AB2B10206120FA0EB02123032A1
:10195000D2B2631E3A2AA8BF27320009DA5540EAFC
:101960000170090908BF00281C4603D0059AE31935
:101970009A42E8D3E0190590C4F13C010E98089111
:10198000814209DA401A0A904FF6EF71BDF8400023
:101990000840ADF8400005E1002840F103819DF8C2
:1019A000400000F01400102840F0FC800F98079AC7
:1019B000801A0A9A801A441A012CC0F2F3800A9401
:1019C000F0E09DF8420062281AD0682806D06A2804
:1019D0000CD06C281CD0712808D019E03068306019
:1019E00050F8041B30600D980880DBE030683060F0
:1019F00050F8042B30600D98C117C2E90001D1E006
:101A00003068306050F8041B30600D980870C9E0F1
:101A10003068306050F8041B30600D980860C1E0F9
:101A20003068C01D20F007023260D2E900010832A0
:101A30003260CDE90201002902D507982D210AE084
:101A4000BDF84000810702D507982B2103E0C007AD
:101A500005D50798202100F80A10401C079014A80B
:101A6000079908180590214602A800F091FB99E01B
:101A70009DF842006C280DD0712818BF6A2809D142
:101A80003068C01D20F007023260D2E90001083240
:101A9000326005E03168316051F8040B316000219B
:101AA000CDE902019DF84200682803D1DDE9020179
:101AB00080B20BE0622803D1DDE90201C0B205E08B
:101AC000742818BF7A2804D1DDE902010021CDE98C
:101AD00002019DF8400000072ED5DDE90201002932
:101AE00008BF002828D044F02000782824D1079887
:101AF000302100F80A10401C411C079100F80A40F0
:101B00001AE09DF84200314600F001F9CDE90201EA
:101B1000002902DA07982D210AE0BDF8400081076C
:101B200002D507982B2103E0C00705D5079820218F
:101B300000F80A10401C079014A80799081805908F
:101B4000214602A800F0A0FA2CE09DF842006C2883
:101B500009D0012007903068306050F8041B3060D5
:101B60008DF850101EE03068306001AA50F8041B58
:101B70003060ADF804100020ADF8060002A94FF067
:101B8000FF300E90404600F0F9F800280AD5C5E66F
:101B900025208DF85000012007901CB18AF80140E3
:101BA000022007900F980799401A0A99401A08993D
:101BB000401A0B99401A0999401A0C99441A9DF839
:101BC0004000400710D42020012C8DF800000BDBD2
:101BD000274601236A4602A9404600F000FE00287D
:101BE0007FF49CAE7F1EF4D1DDF81CB0BBF1000F7A
:101BF00014AF0DD017F8011B0498C04700280490BB
:101C00003FF48CAE0D98401CBBF1010B0D90F1D14F
:101C100030208DF800000A9F012F0ADB01236A465D
:101C200002A9404600F0DBFD00287FF477AE7F1E5E
:101C3000F4D1DDF820B0059FBBF1000F0DD017F8EF
:101C4000011B0498C047002804903FF467AE0D982C
:101C5000401CBBF1010B0D90F1D130208DF800003C
:101C60000B9F012F0ADB01236A4602A9404600F0C0
:101C7000B6FD00287FF452AE7F1EF4D10598089976
:101C8000DDF824B00F18BBF1000F0DD017F8011BC1
:101C90000498C047002804903FF440AE0D98401CC3
:101CA000BBF1010B0D90F1D130208DF800000C9F9D
:101CB000012F0ADB01236A4602A9404600F08FFD8E
:101CC00000287FF42BAE7F1EF4D19DF84000400722
:101CD0007FF50BAD2020012C8DF80000FFF605AD3F
:101CE00001236A4602A9404600F079FD00287FF4EE
:101CF00015AE641EF4D1F8E40000000000000000FE
:101D0000686A6C747A4C000025B0BDE8F08F6228D8
:101D100026D068281DD06A2808D06C2827D07128C2
:101D200004D0742823D07A280CD020E00868C01D85
:101D300020F007000860D0E9002308300860194649
:101D4000104670470A680A6052F8040B0A600021C6
:101D500070470A680A6052F8040B0A6000B20BE090
:101D60000A680A6052F8040B0A6040B204E00A688C
:101D70000A6052F8040B0A60C11770472DE9F44F4E
:101D80000D4694B0D5F830A0BAF1000F804648BF98
:101D90006FF0004A00F0ACFD696B401801900FF63F
:101DA0006C20D0E90023CDE9022395F838004007E4
:101DB00002D40198412805D240200DF1100901906C
:101DC000002609E0FFF770F85FEA0009F8D14FF04C
:101DD000FF3056E1AAEB040ABAF1010FC0F2CE803F
:101DE0001498018802AA0DF1010000F086FD002878
:101DF000044600F1DE801498008810B9641E00F1DA
:101E0000D880A245C0F2BA8068690199221891422F
:101E100080F0A2806E634042296A401AA969401A84
:101E2000696A401AE969401AA96A461A95F83800A1
:101E3000400710D42020012E8DF800000BDB374620
:101E400001236A462946404600F0C9FC002840F0BC
:101E5000B0807F1EF4D1D5F814B0BBF1000F4F460F
:101E60000DD017F8011BA868C0470028A86000F033
:101E7000A080E86A401CBBF1010BE862F1D1302080
:101E80008DF800002F6A012F0ADB01236A462946DC
:101E9000404600F0A4FC002840F08B807F1EF4D167
:101EA000D5F818B0EF68BBF1000F0CD017F8011B84
:101EB000A868C0470028A8607BD0E86A401CBBF136
:101EC000010BE862F2D130208DF800006F6A012F1B
:101ED00009DB01236A462946404600F080FC0028C1
:101EE00067D17F1EF5D1E868A969D5F81CB00F1835
:101EF000BBF1000F0CD017F8011BA868C0470028E1
:101F0000A86056D0E86A401CBBF1010BE862F2D130
:101F100030208DF80000AF6A012F09DB01236A46EB
:101F20002946404600F05BFC002842D17F1EF5D1D7
:101F300095F8380040070DD52020012E8DF80000BF
:101F400008DB01236A462946404600F048FC80BB76
:101F5000761EF6D100266E61224668690DF10101F8
:101F6000484400F0D7FC6869201868611498801C08
:101F70001490801E008800287FF42CAF686B69697C
:101F8000401A296A401AA969401A696A401AE9691F
:101F9000401AA96AA0EB010A95F83800400710D44E
:101FA000BAF1010F0DDB5446A8682021C047A86094
:101FB00010B94FF0FF365DE0E86A401C641EE8622D
:101FC000F2D16B694A462946404600F008FC0028D9
:101FD000EFD12C6A012C0ADBA8683021C047002809
:101FE000A860E6D0E86A401C641EE862F4D1AB69E0
:101FF000EA682946404600F0F2FB0028D9D16C6A15
:10200000012C0ADBA8683021C0470028A860D0D086
:10201000E86A401C641EE862F4D1E868A969EB69CB
:102020000A182946404600F0DAFB0028C1D1AC6A04
:10203000012C0ADBA8683021C0470028A860B8D06E
:10204000E86A401C641EE862F4D195F83800400745
:102050000ED5BAF1010F0BDBA8682021C04700287C
:10206000A860A6D0E86A401CBAF1010AE862F3D180
:102070006E616E6304A881451CBF4846FFF76FF888
:10208000304615B0BDE8F08F2DE9FA4E05460A46F8
:102090002F696F2A08BF082405D041F02000782856
:1020A00014BF0A2410243C26D5E90001642A18BF75
:1020B000692A81468A4605D1002903DAD9F1000947
:1020C0006AEB4A0ABAF1000F08BFB9F1000F0CD150
:1020D000286B50B9082C36D195F83800000732D556
:1020E00030203B2687F83B002DE0E3174846514659
:1020F000224600F04BFCA4FB0023A9EB0202303285
:10210000D2B2A6F1010B3A2A5E4603DB9DF80030FD
:10211000513B9A180BF8072081465FEA010A08BF75
:10212000B9F1000F03D0E868F1198842DDD3082C1B
:1021300009D195F83800000705D5F05D302802D0A8
:10214000761E3020F055C6F13C00A861F119E96017
:10215000296B884208DA081A28624FF6EF71288F37
:1021600008402887BDE8F38E00290ED595F8381071
:1021700001F01401102908D1696B6A69891A2A6A69
:10218000891A0E1A012EA8BF2E62BDE8F38E000038
:102190002DE9F24F04468EB0D4E90001CDE90201E9
:1021A00004AF9DF8380040F0200BBBF1610F0AD05E
:1021B000206B002848BF062004D408BFBBF1670F7E
:1021C00001D1012020636168C1F30A5040F2FF721F
:1021D00090421CD1080304BF2068002809D10320C5
:1021E000A0619DF8380061381A2836D30FF23061AB
:1021F00008E00320A0619DF8380061381A2829D32F
:102200000FF21461E068032200F084FBBEE10128B4
:1022100016DA204600F031FC012811DB00250020F1
:10222000BBF1610F20D1E168302201F8012B4A1C7B
:10223000E2609DF83820612A0CBF782258220FE016
:10224000626840F2FE3161F31E52451A62604FF03F
:10225000FF30E5E70FF2BC51D4E70FF2C051D1E7F0
:102260000A706169891C616110B90026002584E14A
:10227000BBF1610F40F09880206B00284CBF2126F5
:10228000461CD4E900ABDDE902010022002300F086
:1022900015FC36B23ABF8BF00040CDE902A0CDE983
:1022A00002AB06F101082D1FB8F1010F8DF81020C7
:1022B0000DF1110736DBDDE902010022002300F0F9
:1022C00015FC2FD21C2102A800F028FCDDE9020138
:1022D00000F0AEFCA8F10708B8F1010F814609DB58
:1022E00000F0D2FC02460B46DDE9020100F0E4FCFE
:1022F000CDE90201F81D072105E009F00F0200F801
:10230000012D4FEA2919B9F1010F01DB491EF4D55E
:10231000491E5CBF002200F8012DF9D5C71DB8F198
:10232000010FC8DA0DF11100391AB142B8BF0E46DB
:1023300036B230000DF111072FD4884206DA04A915
:10234000411849780829A8BF0F2100DA002104AA02
:10235000821800E0761E12F80139401E8B42F9D037
:102360000F2904D104A941184A78521C4A70002848
:1023700002D504AF761C2D1D36B2701E0DD4C119C6
:102380000A783032D2B23A2A03DB9DF838303A3B31
:102390009A18401E01F80129F2D5206B002840F15F
:1023A000EC80701E2063E8E0DDE9020100220023DA
:1023B00000F084FB3CBF81F00041CDE902012DB269
:1023C00047F2975068434B49DFF82C9190FBF1F5A9
:1023D0002DB2C5F1070ABAF1010F90461CDBDDE909
:1023E00002675FEACA7007D542464B463046394617
:1023F00000F022FD06460F464046494642464B46FF
:102400004FEA6A0A00F018FDBAF1000F80468946CB
:10241000E7D1CDE9026724E0CAF1000A0026374F70
:1024200014E05FEACA7007D542464B46304639464B
:1024300000F002FD06460F464046494642464B46DE
:1024400000F0FAFC4FEA6A0A80468946BAF1000FAA
:10245000E7D1DDE9020132463B4600F0BFFDCDE9A0
:102460000201BBF1660F0CBF05F10A000620216BCB
:10247000DFF88C904618142EA8BF132630208DF854
:1024800010000DF11107012E3CDBDDE9020100F027
:10249000E5FB07F1080104220A23B0FBF3F303EB89
:1024A0008307A0EB4700303001F8010C0A20B3FB92
:1024B000F0F000EB8007A3EB47033033521E01F826
:1024C000023DE9D1083E012E01F10807DBDBDDE921
:1024D000020100F0C3FB00F0E1FB02460B46DDE920
:1024E000020100F0E9FB00224B4600F0A5FCCDE91B
:1024F0000201CAE7A0860100000024400000F03F6E
:1025000084D797410DF11100381A0DF1110702E03F
:10251000401E6D1E7F1C39783029F9D0BBF1660F43
:1025200002D12DB2691C04E0BBF1650F0CBF012183
:102530000021226B8E1836B2B042B8BF064636B2C2
:1025400031001AD4814204DAC85D3528A8BF392089
:1025500000DA3020CA19521E00E0761E12F8013946
:10256000491E8342F9D0392802D1C85D401CC855A4
:10257000002902D57F1E761C6D1C2DB29DF83810E7
:10258000009533B23A46204600F003F80FB0BDE89C
:10259000F08F2DE9F04786B006468A4690461D46E4
:1025A00000F065FE012D406A376B90F8009002DA6A
:1025B00001250FF270284AF02000BDF93840662846
:1025C00008BF641C12D0672876D114F1040F79DBA0
:1025D000BC4277DA96F83800641C000702D4BD428A
:1025E000B8BF2F4624B23F1B48BF002724B2F06873
:1025F000B169012C21DA4A1C30230B54012F03DA74
:1026000096F83810090702D502F80090521CB26102
:10261000E742B8BF7C4224B26142E7197162AF421F
:10262000B8BF3D46B3692DB2F5612A464146181838
:1026300000F070F9781BB062BAE00818A54216DA0B
:102640002A46414600F066F9B1696918601B012FFE
:10265000B161706203DA96F83800000705D5F068BA
:1026600001F80090F069401CF061B762A0E02246DA
:10267000414600F04FF9B06920182D1B012F03DAF5
:1026800096F83810090703D5F16800F80190401C4E
:102690002DB2B061AF42B8BF3D46F068B3692DB20C
:1026A0002A4604EB0801181800F034F9B06928181C
:1026B000B061781B70627BE0BAF1610F14D14FF00A
:1026C000700A16E0BD4204DA96F83810090758BFC0
:1026D0002F467F1E48BF0027BAF1670F14BF4FF087
:1026E000450A4FF0650A04E0BAF1410F08BF4FF008
:1026F000500AB169F0684A1CB261012F18F8013B19
:102700000B5403DA96F83810090715D5531CB3613A
:1027100002F80090012F0FDB6D1E2DB2AF42B8BF43
:102720003D462DB22A464146181800F0F3F8B0692C
:102730002818B061781B7062F068B1690918200030
:1027400081F800A004D42B20487001F1020804E0B5
:102750002D224A7001F102086442002502AF08E010
:102760000A22684600F09CFD019807F8010B6D1CD9
:10277000009C21B20129F3DA022D06DA4AF020008A
:10278000652804BF302008F8010B4DB9302008F847
:10279000010B07E06D1E02A8285C303008F8010B21
:1027A000012DF7DAF068B1690818A8EB0000F061B4
:1027B00096F8380000F0140010280DD17069B16946
:1027C0000818716A0818F1690818B16A0818716B5D
:1027D0008842BCBF081A306206B0BDE8F087F8B581
:1027E00004460D4616461F46002077B116F8011B19
:1027F000A868A047A86030B1E86A401CE8620020E1
:102800007F1EF3D1F2BD4FF0FF30F2BD000000009B
:10281000000000006E616E004E414E00696E660061
:10282000494E46003000F8B504460D4616461F4690
:1028300000F03EFD3B4632462946204601B0BDE849
:10284000F04000F04CBD00000278C9B28A421AB1D3
:102850001CBF10F8012FF9E718BF002070470000D7
:1028600000F10103810704D010F8011B89B1810731
:10287000FAD10268B2F10131914311F0803F04BFF7
:1028800050F8042FF6E710F8011B11B110F8011BE6
:10289000FBE7C01A70470000C9B2830706D0521E7A
:1028A00022D310F8013B9942F7D11FE0083A13D325
:1028B00002F1040241EA012141EA014150F8043BDE
:1028C000121F21BF4B40A3F1013C2CEA030C1CF06A
:1028D000803FF3D0C9B2001F083210F8013B521EEE
:1028E00028BF91EA030FF8D818BF0120401E704797
:1028F00080B500F0DDFC012002BD70B504460D4638
:10290000164600F0D5FC324629462046BDE8704008
:1029100000F0D8BC62B38B0708D0521E11F8013BFF
:1029200000F8013B00F024808B07F6D1830740F0CC
:10293000208000BF103A07D330B4B1E83810103A05
:10294000A0E83810F9D230BC530724BFB1E8081012
:10295000A0E8081044BF51F8043B40F8043BD207FC
:1029600024BF31F8022B20F8022B44BF0B780370F0
:102970007047083A07D3B1E80810083A40F8043B1A
:1029800040F804CBF7D25307E4E700001B4213D111
:10299000094236D12AB18446B0FBF2F002FB10C2E4
:1029A000704700F0BFBCFCD30022002370470B002F
:1029B0000200002100207047904271EB030CF6D317
:1029C00070B5B1FA81F4B3FA83F52C1BA340C4F1BE
:1029D000200532FA05F63343A2405FF00046E64098
:1029E00002E05B085FEA3202841A71EB030524BF40
:1029F000204629467641F4D302000B003000002126
:102A000070BD012ACFD970B5140C20D0B1FA81F471
:102A1000B2FA82F5C4F120046419B4F12006D6D3C9
:102A2000B2405FF00044F440002502E052085FEA43
:102A30003303C61A71EB020E24BF3046714664415F
:102A40006D41F3D302000B002000290070BD0C463D
:102A5000B1FBF2F102FB11452D0445EA1045B5FB2F
:102A6000F2F402FB145580B240EA0545B5FBF2F0E2
:102A700002FB105240EA044070BD30B4436803F0DA
:102A8000004201211B031B0B436004BF0368002BA2
:102A900008D10DE00368DD0F45EA440444605B00A3
:102AA0000360491E4468E302F4D523031B0B436013
:102AB00043681A434260084630BC70474FF4001C1C
:102AC0001CEB410F94BF1CEB430F09E041EA030CE0
:102AD00050EA4C0C52EA0C0C03D2994208BF9042C7
:102AE000704714BF8B428242704700004FF4001CB5
:102AF0001CEB410F94BF1CEB430F09E041EA030CB0
:102B000050EA4C0C52EA0C0C03D28B4208BF8242B2
:102B1000704714BF994290427047000070B5044658
:102B20000D466068C0F30A5040F2FF71884207D139
:102B30006068000304BF2068002817D0022070BD21
:102B400020B92046FFF799FF012866DA012D0FDB37
:102B500040F2FF71091A8D420AD3606800284CBF09
:102B60009FED2F0B9FED300B84ED000B012070BD0E
:102B70004142A942616806DA6FF31E51401941EAE9
:102B80000050606040E0401E63684519012205F175
:102B9000350062F31F53352801F00041636003D311
:102BA00061600020206070BD002015F11F0F04DA65
:102BB000206823600022203562606A4212D0401EE5
:102BC00025688041C2F12003C0439D4045EAD07092
:102BD00025686668D54006FA03F32B4323606368D3
:102BE000D340636062680A43B0F1004F626003D86B
:102BF0000DD12078C0070AD52068401C20602068CD
:102C000028B96068401C60604FF0FF3070BD60689C
:102C1000884204BF20680028F6D1002070BD00BFA4
:102C2000000000000000F0FF000000000000F07F46
:102C3000F446400D40EAC120490006D200F014F8E5
:102C4000004248BF6FF00040604700F00DF84FF0C1
:102C5000004188428CBF084640426047400D40EA30
:102C6000C120490080F00D8040F00040490DA1F5E1
:102C70008061491C05D4D1F11F0154BFC840C01761
:102C800070474FF000007047010040F10980F446A2
:102C9000404200F005F851F000416047010000BFDC
:102CA00009D0B0FA80F18840C91CC1F584610905DA
:102CB00001EBD02140057047F0B44FF0004591EA98
:102CC000030F44BF6B4000F02FBB00BF841A71EBB1
:102CD000030604D26E40001BB141121973414FF438
:102CE000001C1CEB410F34BF7CEB430684E00C0D51
:102CF000A4EB1356362E7DDC012E43DC45EAC323BC
:102D000043EA525312BFD20292025B08240545EAFD
:102D1000C12141EA5051D2EBC020994125D407D1BD
:102D2000B0FA80F610FA06F164D00020203608E0F0
:102D3000B1FA81F6B140C6F1200220FA02F2114345
:102D4000B0404FEAF474B4EB465434F001064FEA55
:102D500074040AD8D6F50016760D04F00044F0404D
:102D600061FA06F25040F1404840C00A40EA415042
:102D700021F0004128BF5FEA500550F1000044EB0C
:102D8000D12137E045EAC323DB0A45EAC121C90A5C
:102D9000B6F120050EDD42EA0242120CC5F1200612
:102DA00003FA06F6EB4042EA06056D42984161F1EE
:102DB00000010DE062FA06F5F240554063FA06FCA8
:102DC00082EA0C02F3405A406D42904161EB0301EC
:102DD00011F4801F05D1641E620502D06D004041D0
:102DE000494121F48011430875F1004350F100007E
:102DF00041EB0451F0BC70471CEB410F15D223F09E
:102E0000004352EA43060BD04FEA4C0CBCEB410F97
:102E100004D80C0D661E342EB7DDEBE7801A9941FD
:102E200050EA410608BF0021E4E708BF1CEB430F4E
:102E300028BF6FF00001DDE7B0B581EA030C0CF0AC
:102E4000004C40F2FF7515EA11541DBF15EA1357E7
:102E5000AC42AF4239E0E41923EA455343F480130E
:102E6000C90241F0004141EA505EC7021100A7FBD0
:102E7000020200284FF00000EEFB01204FF000019D
:102E8000E3FB072118BF42F001024018002149412D
:102E9000E3FB0E01A4F580640F0302D2520040410F
:102EA000494154F101046CDD470872F1004250F1D0
:102EB000000051EB0451A1F580115CBF41EA0C0107
:102EC000B0BD4CEA05510020B0BD05EA1357AC4235
:102ED00014BFAF4241E050EA410E1CBF52EA430E1C
:102EE00002E061460020B0BD24423C441BD15FEAB1
:102EF000070EF6D0090302BF01460020AEF1140E02
:102F0000B1FA81F7AEEB070401FA07FE0C37C7F1FF
:102F1000200100FA07F7C8404EEA000E23EA4553A5
:102F200043F48013A2E733F00043B3FA83F704BFFE
:102F3000B2FA82FE77440B3FE41BB7F1200E2FBF9D
:102F400002FA0EF3BB40C7F1200E22FA0EFE38BF84
:102F500043EA0E03BA40641C82E750EA410E14BFF4
:102F600052EA430E6FF000014FF4001717EB430FC6
:102F70008ABF194617EB410FB5E74CEA055100200F
:102F8000B0BDD4F10104B4F120070FDAC4F1200779
:102F9000520828BF42F0010210FA07F501FA07F7BC
:102FA000E1BF2A43E0403843E1400FE0352C98DC94
:102FB000C7F1200452EA400220FA07F218BF42F09B
:102FC000010231FA07F0A1400A43002172F10042E8
:102FD00050F1000051EB0C01B0BD00002DE9F041B3
:102FE00040F2FF7581EA030C0CF0004C15EA115415
:102FF0001DBF15EA1357AC42AF42E9E0BC41C1F333
:103000001301C3F31303801A994143F4801304D2CC
:10301000641E4000494180185941C90241EA50519B
:10302000B1FBF3F603FB1611A2FB0675D7EBC0202C
:10303000A94102D2761E80185941C90241EA505175
:10304000B1FBF3FE03FB1E11A2FB0E75D7EBC020F4
:10305000A94103D2AEF1010E80185941890241EA1B
:103060009051760546EA8E2EB1FBF3F603FB16115E
:10307000A2FB0675D7EB8020A94102D2761E8018EC
:103080005941C90241EA50514EEA060EB1FBF3F62E
:1030900003FB1611A2FB0675D7EBC020A94102D293
:1030A000761E80185941C90241EA5051B1FBF3F72D
:1030B00003FB1711A2FB0735D3EBC020A94167F131
:1030C00000070CBF004247F0010766F3D5274FEA1F
:1030D0001E31B80814F5806414DDBD0775F1004297
:1030E00050EB0E5051EB045111F5801F5CBF41EACB
:1030F0000C01BDE8F0814CF07F6141F0E04100201F
:10310000BDE8F081BD076D0840EA0E5041F4801122
:10311000D4F10104B4F120060ADAC4F12006020059
:10312000E04001FA06F3E1401843B24015430EE0D7
:10313000342C14DCC6F1200445EA40056D0820FA61
:1031400006F2154321FA06F0A1400D43002175F166
:10315000004250F1000051EB0C01BDE8F08100206D
:103160005FEA0C01BDE8F081CFB992185B41B3FA78
:1031700083F704BFB2FA82F6BF190B3FB7F12006FE
:103180002FBF02FA06F3BB40C7F1200622FA06F66B
:1031900038BF3343BA401CB1E419641E2FE77F42A5
:1031A00031F00041B1FA81F404BFB0FA80F6A419FD
:1031B0000B3CB4F120062FBF00FA06F1A140C4F188
:1031C000200620FA06F638BF3143A0403C1B16E724
:1031D000AC421ABF05EA1357AF4214E050EA410669
:1031E0001CBF52EA4306BFE750EA4107304661463A
:1031F0001CBF41EA0551BDE8F08152EA430C08BF0B
:10320000C143BDE8F08100204FF4001616EB410FDA
:1032100098BF16EB430F08BF16EB410F24BFC14305
:1032200005E016EB430F0CBF61464CEA0551BDE8C3
:10323000F081000080B5134800F0E0F80FF24C0276
:103240000FF244010160426241600FF24402826366
:1032500081600FF24402C16001614161816181625C
:10326000C16201634163C2630164416401BD10B581
:10327000044800F0C3F80446206808B9FFF7DAFFF5
:10328000204610BD44000020000000002E00000079
:1032900066616C7365000000747275650000000063
:1032A00091FBF2F303FB1211C0E9003170470000FB
:1032B00080B5DFF80C0000F0A1F8806902BD0000C5
:1032C000D400002030B430B90FF24800D0E90045F6
:1032D000C2E900451BE00170012030BC704730B4EA
:1032E00031B90FF23800D0E90045C3E900450EE0DE
:1032F0001AB930BC6FF00100704708B10A7802803B
:103300000978481E804130BCC043C00F7047002080
:1033100030BC70470000000000000000000000000A
:103320000000000070470000841A71EB030603D20E
:10333000001BB141121973414FF4001C1CEB410FEB
:1033400034BF7CEB430443E00C0DA4EB1356352E45
:1033500050DC45EAC323DB0A45EAC121C912B6F1B4
:1033600020050DDD63FA05F6EB4086EA03051242FF
:1033700018BF45F00105C01851F100010CD213E04F
:1033800062FA06F5F2405540F3415A40B340F3402B
:103390005A408018594107D349085FEA30005FEA74
:1033A000350528BF45F0010501F58011420875F18A
:1033B000004250F1000041EB0451F0BC4FF4001CFE
:1033C0001CEB410F38BF70470020090D09057047FD
:1033D0001CEB410F10D252EA43060BD0BCEB410F5D
:1033E00005D80C0DAB43661E342EB5DD02E0AB43B1
:1033F00080185941F0BC7047F0BC7047704700001E
:1034000010B4FF22FF230CE0DBB204785C40401CC8
:10341000DFF82437A4B2E35C5340DFF82027A4B2DE
:10342000A25C0C00611EE4B2002CEDD1D2B2DBB282
:1034300053EA022080B210BC704780B5DFF8000765
:103440004078DFF800170870DFF8F4068078C0B223
:10345000DFF8EC16C97851EA0020DFF8E81648805A
:10346000DFF8DC060079C0B2DFF8D416497951EAFA
:103470000020DFF8D0168880DFF8CC060088811E97
:10348000C9B2DFF8BC06FFF7BBFFDFF8B816C8808B
:10349000DFF8AC068079DFF8AC164870DFF8AC06D0
:1034A000DFF8A0168860DFF89C06C068DFF8941685
:1034B000498810EB4100DFF88C16086101BD80B52A
:1034C0000020DFF880160978012920D0DFF8741673
:1034D000097802291BD0DFF86C160978032916D069
:1034E000DFF860160978042911D0DFF8581609783A
:1034F00005290CD0DFF84C160978062907D0DFF82B
:1035000044160978102902D00120C0B275E0DFF816
:103510003416097801290CD002290AD0032926D0B3
:10352000042924D0052944D0062943D0102942D0AB
:1035300062E0DFF8100601780122C9B2DFF8040664
:10354000808800F018FB80B2002801D0C0B254E09F
:10355000DFF8F005818889B2DFF8E805408800F0DF
:10356000FFFA80B2002801D0C0B246E044E0DFF8A4
:10357000D4054278DFF8CC050178D2B292B2C9B254
:10358000DFF8C005808800F0F6FA80B2002801D08C
:10359000C0B232E0DFF8AC05818889B2DFF8A4055B
:1035A000408800F0DDFA80B2002801D0C0B224E0EB
:1035B00022E021E020E0DFF88C054278DFF8840586
:1035C0000178D2B292B2C9B2DFF87805808800F0F3
:1035D000D2FA80B2002801D0C0B20EE0DFF8640554
:1035E000818889B2DFF85C05408800F0B9FA80B2C2
:1035F000002801D0C0B200E0C0B202BD10B582B058
:10360000002400210121DFF84825A4B2A154641C44
:10361000DFF83C15A4B26054641CC0B201280CD081
:10362000022817D0032822D004282CD0052837D010
:10363000062842D0102850D062E0DFF808058288C2
:1036400092B2DFF800054188200080B200F072F8E5
:10365000040055E0DFF8EC04828892B2DFF8E4045D
:103660004188200080B200F0D0F8040048E0DFF884
:10367000D4048288DFF8CC040169200080B200F015
:103680002EF904003CE0DFF8BC04828892B2DFF837
:10369000B4044188200080B200F042F904002FE019
:1036A000DFF8A004828892B2DFF8980441882000F5
:1036B00080B200F073F9040022E0DFF88804828809
:1036C000DFF88004036992B2DFF8780441882000B3
:1036D00080B200F0C0F9040012E0DFF868048288CC
:1036E000DFF8600480680090DFF85804036992B244
:1036F000DFF850044188200080B200F0CAF90400CD
:103700002100C9B2DFF84804FFF77AFE0100DFF8B4
:103710004004A4B22154641C89B2080ADFF83014B2
:10372000A4B26054641C210089B2DFF8240400F0C4
:10373000DFFA13BD0222DFF8183480B2C254401CF5
:1037400089B2012912D1DFF80C14498889B2090A1B
:10375000DFF8FC2380B28154401CDFF8F81349885D
:10376000DFF8EC2380B28154401C4CE089B202297E
:1037700012D1DFF8E013898889B2090ADFF8D02373
:1037800080B28154401CDFF8CC138988DFF8C02355
:1037900080B28154401C36E089B2032912D1DFF88F
:1037A000B413C98889B2090ADFF8A42380B281540E
:1037B000401CDFF8A013C988DFF8942380B281543D
:1037C000401C20E089B2042912D1DFF8881309894E
:1037D00089B2090ADFF8782380B28154401CDFF8EF
:1037E00074130989DFF8682380B28154401C0AE011
:1037F0000021DFF85C2380B28154401C0021D44AB0
:1038000080B28154401C80B270472DE9F04184B0F1
:1038100004000D0016005FF00008B6B2F01D08218C
:1038200090FBF1F7CA48A4B22754641CADB2002D36
:103830003DD0B6B2002E3AD05FF0000807E000207D
:1038400069461FFA88F808F8010018F101081FFA04
:1038500088F8BFB2B845F2D35FF0000822E015EB5C
:103860000800C0B200F0C7FA002819D01FFA88F883
:10387000082098FBF0F069461FFA88F8082298FBA8
:10388000F2F26B46D25C01231FFA88F85FF0080C55
:1038900098FBFCFE0EFB1C8E13FA0EF31A434254E7
:1038A00018F101081FFA88F8B6B2B045D7D35FF017
:1038B00000080AE068461FFA88F818F80000A449D2
:1038C000A4B26054641C18F101081FFA88F8BFB252
:1038D000B845EFD3200080B204B0BDE8F08130B429
:1038E0001300DBB25B009A4C80B20355401C0023EE
:1038F0000DE00C88A4B2240A954D80B24455401CBA
:103900000C88934D80B24455891C401C5B1C1C00E4
:10391000E4B2A4B292B29442EBD3C0B230BC7047CE
:1039200030B4A0B08A4B80B2C254401C002306E0E1
:1039300000246D46DBB225F81340491C5B1C1C00BB
:10394000E4B2A4B292B2944209D289B22029EFD152
:10395000804C24886D46DBB225F81340EDE7002348
:1039600012E06946DBB231F8131089B2090A784CCB
:1039700080B20155401C6946DBB231F81310744C1B
:1039800080B20155401C5B1C1900C9B289B292B2C9
:103990009142E6D3C0B220B030BC704738B50500C4
:1039A0001400080080B2000A694AADB2A8546D1C28
:1039B0006748ADB229546D1C89B2012908D1654808
:1039C000448001224FF40071634800F03BFB34E077
:1039D00089B2022907D15F488480012220215F48F3
:1039E00000F030FB29E089B2032907D15948C4808F
:1039F00001224021594800F025FB1EE089B204292C
:103A00000FD1544804814FF40071534800F024FB57
:103A10002021524800F020FB4021504800F01CFBC0
:103A20000BE000204B49488000204A498880002054
:103A30004849C880002047490881200080B2000A18
:103A40004349ADB268546D1C4148ADB22C546D1C55
:103A50002800C0B232BD30B40C00A4B2240A3C4DE0
:103A600080B24455401C3A4C80B20155401C1A802B
:103A70003449898889B2090A354A80B28154401C88
:103A800030498988324A80B28154401CC0B230BC6F
:103A9000704770B4002400250C00A4B2240A2C4DF9
:103AA00080B24455401C2A4C80B20155401C002471
:103AB000039907E00D784E7856EA05251D809B1C7A
:103AC000891C641CA4B292B29442F3D3110089B24F
:103AD000090A1F4B80B2C154401C1D4980B2425498
:103AE000401CC0B270BC704710B5002400220122F7
:103AF000174BA4B2E254641C50F08000144AA4B2E4
:103B0000A054641C1248A4B22154641C2100C9B200
:103B10000F48FFF775FC02000D48A4B22254641C44
:103B200092B2100A0A49A4B26054641C210089B2FE
:103B3000074800F0DDF810BD385E0008385F000867
:103B4000181700203C1A0020641A00201F170020BC
:103B500018180020501A0020001C024000100240DB
:103B6000002280B210FA81F0B0F5803F00D302222B
:103B70001000C0B2704710B40023C9B2491E012919
:103B800005D9891E01290BD90D3911D01DE080B24C
:103B9000002803D080B2B0F5FA6F00DD032314E0F3
:103BA00080B2002802D080B27E2800DB03230CE024
:103BB00080B2002802D080B27C2800DB032392B2BE
:103BC00080B2B2EB400F00D003231800C0B210BC8B
:103BD0007047000000B587B0002000905048006892
:103BE00050F480204E4908604D48006810F4802051
:103BF00000900098002000904A48006850F00200B1
:103C0000484908604748006810F00200009000989A
:103C1000002000904348006850F08000414908604F
:103C20004048006810F08000009000984FF48060D9
:103C3000019002200290022004900720059001A923
:103C4000394800F009F94FF4006001900220029019
:103C5000002003900720059001A9334800F0FCF8EC
:103C600000224FF48071314800F0ECF94FF480707D
:103C70000190012002900220049001A92B4800F03D
:103C8000EBF807B000BD80B5FFF7A4FF284829492D
:103C900008604FF41640274948604FF4805025498A
:103CA000886000202349C8604FF480602149086182
:103CB0000C202049486100201E49886100201D49D0
:103CC000C8611C4800F0EAF901220121272000F018
:103CD00031FE272000F03FFE00224FF48071134890
:103CE00000F0B0F901221449124800F080FA01BD39
:103CF00038B504000D0001224FF480710B4800F02C
:103D0000A1F94FF6FF732A0092B22100094800F092
:103D100000FA00224FF48071044800F093F931BD9D
:103D2000403802403038024000040240001C02408B
:103D300000480040A8190020681A002000B587B08C
:103D4000002000904148006850F080003F49086022
:103D50003E48006810F0800000900098002000901D
:103D60003A48006850F01000384908603748006849
:103D700010F0100000900098002000903348006878
:103D800050F01000314908603048006810F0100011
:103D90000090009800224FF400712D4800F052F975
:103DA000002220212B4800F04DF900224021294813
:103DB00000F048F94FF400700190012002900220B9
:103DC000049001A9224800F047F82020019001202A
:103DD00002900220049001A91E4800F03DF8402006
:103DE0000190012002900220049001A9194800F0DE
:103DF00033F807B000BD80B5C0B201280AD14FF436
:103E00000071134800F015F9012801D101201CE0D0
:103E100000201AE0C0B2022809D120210D4800F08C
:103E200008F9012801D101200FE000200DE0C0B207
:103E3000032809D14021074800F0FBF8012801D1EF
:103E4000012002E0002000E0002002BD30380240E6
:103E5000001C02400010024078B40024002300241B
:103E6000002237E00825EDB212F00306F6B2B600E4
:103E7000B5402C43DFF8EC51960845F82640DFF8B2
:103E8000E84124689C434D68ED0300D51C43DFF8EE
:103E9000D8512C60DFF8D44124689C434D68AD03B1
:103EA00000D51C43DFF8C4512C60DFF8C4412468FE
:103EB0009C434D68ED0200D51C43DFF8B4512C60E3
:103EC0006C4C24689C434D68AD0200D51C43694B83
:103ED0001C60521C102A80F0AA80012313FA02F4FD
:103EE0000B682340A342F4D14C68022C02D04C68EA
:103EF000122C15D1D40810EB8404246A0F2512F07B
:103F00000706F6B2B600B540AC430D6912F00706DD
:103F1000F6B2B600B5402C43D50810EB85052C62EF
:103F2000046803251600F6B27600B540AC430D795F
:103F300015F003051600F6B27600B5402C43046078
:103F40004C68012C08D04C68022C05D04C68112C10
:103F500002D04C68122C17D1846803251600F6B2E3
:103F60007600B540AC43CD681600F6B27600B54099
:103F70002C438460446801259540AC434D68C5F3EB
:103F8000001595402C434460C46803251600F6B222
:103F90007600B540AC438D681600F6B27600B540A9
:103FA0002C43C4604C68E40093D500240094324C48
:103FB000246854F48044304D2C602F4C246814F451
:103FC00080440094009C274C950854F825400F2508
:103FD00012F00306F6B2B600B540AC43274DA84236
:103FE00001D100253FE7264DA84201D101253AE73E
:103FF000244DA84201D1022535E7234DA84201D125
:10400000032530E7214DA84201D104252BE7204D9F
:10401000A84201D1052526E71E4DA84201D106255B
:1040200021E71D4DA8427FF41DAF07251BE771BC9A
:104030007047006989B2084201D0012000E00020E9
:1040400040B2704752B2002A02D089B2816102E0C8
:1040500089B2090481617047426989B25140416166
:104060007047000008380140003C0140043C01401A
:10407000083C01400C3C0140443802400000024032
:104080000004024000080240000C02400010024000
:104090000014024000180240001C024010B5040049
:1040A000002C01D1012033E0A0690028FFD194F851
:1040B0003900002805D1002084F83800200000F0E5
:1040C0007BFC242084F839002068C06830F400505C
:1040D0002168C860200000F039FA2068006930F4D7
:1040E0009040216808612068406930F02A0021680A
:1040F00048612068C06850F400502168C860002002
:10410000E063202084F83900202084F83A00002061
:1041100010BD2DE9F04182B004000D0016001F0013
:104120005FF0000894F8390020285DD1002D02D0FE
:10413000B6B2002E01D1012057E094F938000128D1
:1041400001D1022051E0012084F838000020E06312
:10415000212084F8390000F0C8FC8046A684E6845B
:1041600003E02878216848606D1CE08C002828D086
:10417000E08C401EE084A068B0F5805F16D1009707
:10418000434600228021200000F0FCF8002801D0E6
:1041900003202AE02888C005C00D216848602069F6
:1041A000002801D1AD1CE0E76D1CDEE70097434617
:1041B00000228021200000F0E5F80028D1D0032063
:1041C00013E00097434600224021200000F0DAF877
:1041D000002801D0032008E0202084F839000020C6
:1041E00084F83800002000E00220BDE8F68190F855
:1041F0003A30202B28D1002902D092B2002A01D1D6
:10420000012022E090F93830012B01D102201CE07E
:10421000012380F8383081628285C2850021C16324
:10422000222180F83A10002180F83810016849698D
:1042300051F00101026851610168C96851F490713F
:104240000068C160002000E00220704738B504001B
:10425000206800682168C968226852690023002329
:1042600010F00F03002B07D1850605D58D0603D569
:10427000200000F01EF982E0002B70D0D30702D49A
:1042800011F4907F6BD010F00103DBB2002B05D04E
:10429000CB0503D5E36B53F00103E363430708D574
:1042A00012F00103DBB2002B03D0E36B53F00203E7
:1042B000E363830708D512F00103DBB2002B03D0C0
:1042C000E36B53F00403E363030708D512F0010224
:1042D000D2B2002A03D0E26B52F00802E263E26B32
:1042E000002A3BD0800604D5880602D5200000F0C5
:1042F000E0F820684069800910F00103E06B0007D6
:1043000001D4002B25D0200000F074F8206840690B
:1043100040061AD52068406930F0400021684861A5
:10432000606B00280DD00FF2F100616B0865606BC7
:1043300000F0F4FB002811D0606B616B096D8847B9
:104340000CE0200000F01DF808E0200000F019F853
:1043500004E0200000F015F80020E0630FE0020602
:1043600005D50A0603D5200000F060F807E04006F6
:1043700005D5480603D5200000F08DF8FFE731BDD4
:10438000704770472DE9F04104000D0016001F0032
:10439000DDF81880206800682840A84201D101207B
:1043A00000E0002076B2B04221D118F1010FF1D027
:1043B000B8F1000F04D000F098FBC01B8045E9D293
:1043C0002068C06830F4D0702168C86020684069F7
:1043D0004008400021684861202084F839002020EE
:1043E00084F83A00002084F83800032000E0002020
:1043F000BDE8F0810168C96831F490710268D1604C
:10440000016849694908490002685161202180F822
:104410003A1070470000000080B5806B0021C18514
:104420000021C184FFF7ADFF01BD000090F83910F5
:1044300021292ED18168B1F5805F10D1016A0988E8
:10444000C905C90D026851600169002903D1016ADB
:10445000891C016209E0016A491C016205E0016AE8
:104460004A1C0262097802685160C18C491EC184ED
:1044700089B200290BD10168C96831F08001026856
:10448000D1600168C96851F040010068C160002036
:1044900000E00220704780B50168C96831F0400132
:1044A0000268D160202180F83910FFF769FF0020F1
:1044B00002BD80B590F83A10222945D18168B1F546
:1044C000805F14D1816A0269002A08D102685268AB
:1044D000D205D20D0A80816A891C816219E00268C6
:1044E0005268D2B20A80816A491C816211E0016976
:1044F000002906D1816A4A1C8262026852680A70E9
:1045000007E0816A4A1C82620268526812F07F02E8
:104510000A70C18D491EC18589B2002912D1016876
:10452000C96831F490710268D1600168496949082D
:10453000490002685161202180F83A1000F01AFC0D
:10454000002002E0002000E0022002BD2DE9F04141
:10455000040000202068006930F44050E1680843FE
:10456000216808612068C068BB490840A1682269C9
:10457000114362691143E269114308432168C8602D
:104580002068406930F44070A1690843216848619F
:10459000E069B0F5004F40F0B0802068AF49884234
:1045A00003D02068AE49884253D100F07FFF804697
:1045B00000F07CFF060000F079FF070000F076FFB6
:1045C000050000F073FF192101FB08F16268520039
:1045D000B1FBF2F16422B1FBF2F1192202FB06F207
:1045E00063685B00B2FBF3F2192303FB07F3666811
:1045F0007600B3FBF6F36426B3FBF6F3642606FB02
:104600001322D20032326423B2FBF3F212F0F8022A
:10461000520012EB0111192202FB05F263685B00E4
:10462000B2FBF3F21923584363685B00B0FBF3F06D
:104630006423B0FBF3F0642303FB1020C00032308E
:104640006422B0FBF2F010F0070040182168886087
:1046500000E100F01BFF804600F018FF060000F0AC
:1046600015FF070000F012FF050000F00FFF1921F1
:1046700001FB08F162685200B1FBF2F16422B1FB68
:10468000F2F1192202FB06F263685B00B2FBF3F25F
:10469000192303FB07F366687600B3FBF6F3642681
:1046A000B3FBF6F3642606FB1322D20032326423F6
:1046B000B2FBF3F212F0F802520012EB01111922D0
:1046C00002FB05F263685B00B2FBF3F21923584367
:1046D00063685B00B0FBF3F06423B0FBF3F064238A
:1046E00003FB1020C00032306422B0FBF2F010F067
:1046F0000700401821688860ACE02068574988426C
:1047000003D020685649884252D100F0CFFE80463F
:1047100000F0CCFE060000F0C9FE070000F0C6FE67
:10472000050000F0C3FE192101FB08F16268920048
:10473000B1FBF2F16422B1FBF2F1192202FB06F2A5
:1047400063689B00B2FBF3F2192303FB07F366686F
:10475000B600B3FBF6F36426B3FBF6F3642606FB60
:104760001322120132326423B2FBF3F212F0F00290
:1047700012EB0111192202FB05F263689B00B2FBE8
:10478000F3F21923584363689B00B0FBF3F06423F2
:10479000B0FBF3F0642303FB1020000132306422ED
:1047A000B0FBF2F010F00F0040182168886051E073
:1047B00000F06CFE804600F069FE060000F066FE28
:1047C000070000F063FE050000F060FE192101FB08
:1047D00008F162689200B1FBF2F16422B1FBF2F1E0
:1047E000192202FB06F263689B00B2FBF3F2192365
:1047F00003FB07F36668B600B3FBF6F36426B3FB6E
:10480000F6F3642606FB1322120132326423B2FB54
:10481000F3F212F0F00212EB0111192202FB05F281
:1048200063689B00B2FBF3F21923584363689B0053
:10483000B0FBF3F06423B0FBF3F0642303FB102020
:10484000000132306422B0FBF2F010F00F0040188B
:1048500021688860BDE8F081F369FFFF0010014026
:104860000014014010F00701484800684FF6FF02AD
:104870001040474A52EA0121084344490860704702
:1048800042480068C0F302207047012110F01F0267
:104890009140404A40B2400942F82010704740B26F
:1048A000002808D509013C4A40B210F00F008018DA
:1048B00000F8041C03E00901384A40B281547047F3
:1048C00010B410F00700D0F10703052B01D3042327
:1048D00001E0D0F10703041D072C01D2002000E005
:1048E000C01E012414FA03F35B1E1940814001230A
:1048F00013FA00F0401E1040084310BC704780B50A
:10490000411EB1F1807F01D301200EE0401E2449F9
:1049100008600F215FF0FF30FFF7C1FF0020214941
:104920000860072020490860002002BD80B5FFF71D
:1049300099FF01BD70B504000D0016000020FFF7BF
:104940009FFF32002900FFF7BBFF0100200040B2AB
:10495000FFF7A5FF70BD80B540B2FFF796FF01BD20
:1049600080B5FFF7CCFF02BD042806D10E480068D1
:1049700050F004000C49086005E00B48006830F076
:104980000400094908607047000000000CED00E0D9
:104990000000FA0500E100E018ED00E000E400E0AE
:1049A00014E000E018E000E010E000E080B500F066
:1049B00001F801BD7047000000B587B000682B49C1
:1049C00088421BD1002000902948006850F0100058
:1049D000274908602648006810F0100000900098F1
:1049E000C020019002200290012003900320049037
:1049F0000720059001A91F48FFF72EFA07B000BD58
:104A000080B5002000901C48006850F002001A4950
:104A100008601948006810F00200009000981348E0
:104A2000164908605FF4E1301449486000201349DA
:104A3000886000201149C8600020104908610C20DE
:104A40000E49486100200D49886100200B49C8616A
:104A50000A48FFF723FB01BD01B54FF6FF730122A2
:104A600069460648FFF755FB009802BD001001405B
:104A700044380240000402403038024068190020E7
:104A800080B52348006850F4007021490860204830
:104A9000006850F480601E4908601D48006850F4AA
:104AA00080701B4908600320FFF740FF002000F0E2
:104AB00004F800F02FFD002002BD10B504001548D9
:104AC00000684FF47A71B0FBF1F0FFF749FF002264
:104AD00021005FF0FF30FFF72DFF002010BD0E48D2
:104AE0000068401C0C49086070470B48006870471C
:104AF00031B5FFF7FAFF0400009D15F1010F00D05A
:104B00006D1CFFF7F2FF001BA842FAD331BD000075
:104B1000003C0240000000205C1A002090F9351093
:104B2000022903D080214165012009E0052180F898
:104B300035100168096849084900006801600020D3
:104B40007047000000B593B000200090B2480068A4
:104B500050F08050B0490860AF48006810F08050B5
:104B60000090009800200090AC48006850F480400D
:104B7000AA490860A948006810F480400090009895
:104B8000012006905FF48030079002200C905FF4C3
:104B900080000D9008200E904FF4A8700F90022016
:104BA00010900720119006A800F056F90F200190F0
:104BB00002200290002003904FF4A05004904FF484
:104BC00080500590052101A800F03AFB00F011FC8F
:104BD00000F059FC4FF47A71B0FBF1F0FFF7C0FE22
:104BE0000420FFF7C1FE002200215FF0FF30FFF735
:104BF000A1FE13B000BD80B5FFF742FFFFF7A2FF93
:104C0000FFF7FEFE00F0BEFCFFF798F800F014FD81
:104C1000FFF739F882480068C06850F00200804908
:104C20000968C8607E480068C06850F001007C498F
:104C30000968C86040F2EE2079490968486340F28B
:104C4000D66077490968C86240F2D6607449C86086
:104C500001BD00220123C9B2032903D0062901D0D6
:104C600010290AD10F23002203E092B213545B1CD7
:104C7000521C92B2B2F5147FF7DB704710B50020DA
:104C800000200024FFF7B7FF40F24A20FCF70CF9A0
:104C90006449C86003216348C068FFF7DAFF6248CF
:104CA00000F064FD614800F061FD0020604908806B
:104CB00002E000205E4908805D480088022840D15B
:104CC000002408E05B48E4B2225CE4B221005A48C8
:104CD00000F04CFD641CE4B2082CF3DB554800786E
:104CE000012803D053480078FF28E2D1FEF7A5FB46
:104CF000524800884F4980B2401810F8010C4F49C3
:104D00000988C0B24B4A89B2891811F8021C51EACD
:104D100000204449C98880B288420FD1FEF7CFFBFA
:104D2000C0B2002806D00100C9B23E480078FEF7A4
:104D3000DBFE03E03B480078FEF760FC00203C49C6
:104D4000088000F0F5FC0128B6D145F263203C490B
:104D5000088003203A49488040213A48FFF77CF90F
:104D600020213848FFF778F94FF400713648FFF7F3
:104D700073F9A1E780B5354988422ED12C480088C7
:104D8000002804D04FF6FF7188420AD010E00120BD
:104D900027490880002029490880214800F0F8FCB4
:104DA00006E02B4800F0E2FC4FF400402049088068
:104DB00022480088274909781E4A80B281541F483A
:104DC0000088401C1D490880002015490968486278
:104DD000012220491D48FFF70AFA01BD1448008846
:104DE000B0F5004F04D04FF6FF701149088003E082
:104DF0004FF400400E49088070470D480088B0F518
:104E0000004F04D14FF400400949088002E002201D
:104E10000749088070470000403802400070004099
:104E2000E81900203C1A002080610008A4610008F5
:104E3000661A00201817002070620008641A00200B
:104E4000501A002000100240001C0240A819002047
:104E50005C620008681A002038B50400002520783C
:104E6000C0076FD5DFF86406006810F00C00042856
:104E70000BD0DFF85806006810F00C0008280ED19F
:104E8000DFF84C060068400209D5DFF848060068E4
:104E9000800357D56068002854D10120CFE16068B5
:104EA000B0F5803F08D1DFF82C06006850F4803060
:104EB000DFF82016086024E06068B0F5A02F10D15C
:104EC000DFF81006006850F48020DFF8081608604C
:104ED000DFF80006006850F48030DFF8F81508604D
:104EE0000FE0DFF8F005006830F48030DFF8E415FB
:104EF0000860DFF8E005006830F48020DFF8D415A2
:104F00000860606800280ED0FFF7EFFD0500DFF8AD
:104F1000C4050068800315D4FFF7E7FD401B652832
:104F2000F5D303208BE1FFF7E0FD0500DFF8A405D2
:104F30000068800306D5FFF7D8FD401B6528F5D330
:104F400003207CE1207880072BD5DFF880050068FE
:104F500010F00C0F0BD0DFF87405006810F00C0097
:104F6000082837D1DFF868050068400232D4DFF83E
:104F700064050068800704D5E068012801D001209D
:104F80005DE1DFF8500500685FF0F851B1FA81F19A
:104F900030F0F800226912FA01F10843DFF8341505
:104FA00008602078000762D5606900284CD0012095
:104FB000DFF824150860FFF798FD0500DFF81C05F1
:104FC0000068800753D4FFF790FD401B0328F5D3FA
:104FD000032034E1E068002823D00120DFF8001529
:104FE0000860FFF782FD0500DFF8E804006880072D
:104FF00006D4FFF77AFD401B0328F5D303201EE1FA
:10500000DFF8D00400685FF0F851B1FA81F130F0B8
:10501000F800226912FA01F10843DFF8B8140860B9
:10502000BFE70020DFF8B8140860FFF75EFD050059
:10503000DFF8A00400688007B3D5FFF756FD401BDA
:105040000328F5D30320FAE00020DFF88C14086071
:10505000FFF74BFD0500DFF884040068800706D5E4
:10506000FFF743FD401B0328F5D30320E7E020783A
:1050700040077CD500200090DFF86804006850F0FD
:105080008050DFF860140860DFF85804006810F002
:10509000805000900098DFF85004006850F4807051
:1050A000DFF844140860FFF720FD0500DFF838043E
:1050B0000068C00506D4FFF718FD401B0328F5D390
:1050C0000320BCE0A068012808D1DFF820040068B4
:1050D00050F00100DFF81414086023E0A0680528F0
:1050E00010D1DFF80804006850F00400DFF8FC136A
:1050F0000860DFF8F803006850F00100DFF8EC13F7
:1051000008600FE0DFF8E403006840084000DFF8C3
:10511000DC130860DFF8D403006830F00400DFF827
:10512000CC130860A068002810D0FFF7DEFC050053
:10513000DFF8B8030068800719D4FFF7D6FC401BDE
:1051400041F289318842F3D3032078E0FFF7CDFCA8
:105150000500DFF898030068800708D5FFF7C5FC55
:10516000401B41F289318842F3D3032067E0A069F4
:10517000002863D0DFF85403006810F00C00082802
:105180005AD0A069022844D10020DFF864130860D7
:10519000FFF7ABFC0500DFF83C030068800106D593
:1051A000FFF7A3FC401B0328F5D3032047E0DFF8FB
:1051B0004403B0FA80F14FF44040B0FA80F2F0209E
:1051C000B0FA80F0E369256A2B43656A15FA01F1AC
:1051D0001943A36A5B085B1E13FA02F21143E26AE9
:1051E00012FA00F00843DFF8E81208600120DFF847
:1051F00000130860FFF779FC0500DFF8D8020068AB
:1052000080011BD4FFF771FC401B0328F5D303205A
:1052100015E00020DFF8D8120860FFF766FC0500F3
:10522000DFF8B0020068800108D5FFF75EFC401B84
:105230000328F5D3032002E0012000E0002032BD66
:1052400070B504000D000026DFF8AC02006810F015
:105250000F00A8420BD2DFF8A0020570DFF8980219
:10526000006810F00F00A84201D00120C0E02078B3
:10527000800709D5DFF85402006830F0F000A1681B
:105280000843DFF8481208602078C00772D56068CC
:10529000012806D1DFF83C020068800315D4012004
:1052A000A6E06068022802D06068032806D1DFF813
:1052B00024020068800108D4012099E0DFF814027C
:1052C0000068800701D4012092E0DFF80002006846
:1052D0008008800061680843DFF8F0110860FFF77C
:1052E00004FC0600606801280FD1DFF8E0010068C7
:1052F00010F00C0004283DD0FFF7F7FB801B41F2B3
:1053000089318842F1D3032072E0606802280FD10E
:10531000DFF8B801006810F00C0008282AD0FFF769
:10532000E4FB801B41F289318842F1D303205FE026
:10533000606803280FD1DFF89401006810F00C00BA
:105340000C2817D0FFF7D1FB801B41F2893188422E
:10535000F1D303204CE0DFF87401006810F00C0F6B
:1053600008D0FFF7C2FB801B41F289318842F2D39B
:1053700003203DE0DFF88001006810F00F00854257
:105380000BD2DFF874010570DFF86C01006810F0D3
:105390000F00A84201D001202AE02078400707D55D
:1053A0004A48006830F4E050E16808434749086023
:1053B0002078000708D54548006830F4604021692E
:1053C00050EAC1004149086000F017F83F490968F8
:1053D0005FF07062B2FA82F2484B11F0F001D140F6
:1053E000C95CC840464908600020FFF766FB002002
:1053F00070BD012043490860704700200020002153
:1054000000203248006810F00C00002804D0042866
:1054100004D0082804D034E03B4833E03B4831E076
:105420002B48006810F03F002949096849020DD552
:1054300027490968354AB2FBF0F047F6C0721140BF
:105440002C4AB2FA82F2D14048430CE02049096864
:105450002D4AB2FBF0F047F6C0721140254AB2FA6D
:1054600082F2D14048431A49096811F440314FF49F
:105470004042B2FA82F2D140491C4900B0FBF1F03F
:1054800000E0214870471E480068704780B5FFF76C
:10549000FAFF0E4909685FF46012B2FA82F21C4BFF
:1054A00011F4E051D140C95CC84002BD80B5FFF79E
:1054B000EAFF064909685FF4E022B2FA82F2144B6F
:1054C00011F46041D140C95CC84002BD08380240B7
:1054D0000438024000380240800E474274380240CF
:1054E00000004742403802400070004070380240DF
:1054F000600047420000FE03003C0240806200085A
:10550000000000204C0047420024F40000127A0002
:10551000AC62000880B50320FFF708FA00220021E2
:105520007FF00B00FFF706FA002200217FF00A004F
:10553000FFF700FA002200217FF00900FFF7FAF9D7
:10554000002200217FF00400FFF7F4F9002200217F
:105550007FF00300FFF7EEF9002200217FF0010049
:10556000FFF7E8F9002200215FF0FF30FFF7E2F9D2
:10557000002200210520FFF7DDF90520FFF7EBF9F8
:1055800001BD000000B58BB02848294908605320B0
:10559000274948600020264988604FF6FF7024495B
:1055A000C8600020224908610821214800F0FEF867
:1055B0004FF48050079007A91D4800F009FA3020E9
:1055C00000904FF6FF700190002002900820039099
:1055D00000200490002005900020069000226946DB
:1055E000134800F0C6F904226946114800F0C1F9D9
:1055F0000BB000BD80B500680C49884215D1002071
:1056000000900C48006850F008000A4908600948FA
:10561000006810F00800009000980022002132205D
:10562000FFF788F93220FFF796F901BD000C004022
:10563000E81900204038024000B587B000200090F3
:105640004848006850F01000464908604548006826
:1056500010F0100000900098002000904148006871
:1056600050F010003F4908603E48006810F01000FC
:1056700000900098002000903A48006850F0100018
:10568000384908603748006810F010000090009812
:10569000002000903348006850F010003149086045
:1056A0003048006810F01000009000980020009032
:1056B0002C48006850F010002A490860294800680A
:1056C00010F010000090009801200190002002903E
:1056D0000120039001A92448FEF7BEFB022001909F
:1056E000002002900120039001A91F48FEF7B4FB9F
:1056F00004200190002002900120039001A91A4883
:10570000FEF7AAFB082001900020029001200390E0
:1057100001A91548FEF7A0FB10200190002002907F
:105720000120039001A91048FEF796FB07B000BDC9
:1057300080B501210C48FEF77CFC002810D1142014
:10574000FFF7D6F901210848FEF773FC002807D1BE
:1057500001210548FEF76DFC0028F9D0012000E08A
:10576000002002BD30380240001002400EB400B5E7
:1057700082B003A9009102466B4601210348784498
:105780000A30FBF79DFF06BC5DF810FBAF0A000076
:10579000022180F839100168096851F0010102689E
:1057A0001160012180F839100020704738B50400DD
:1057B0000D00002C01D101201FE094F939000028D0
:1057C00005D1002084F838002000FFF713FF0220E5
:1057D00084F83900211D206800F089F920680068EC
:1057E00030F00800216808602068006828432168BC
:1057F0000860012084F83900002032BD10B5040093
:105800002068006980071AD52068C068800716D50F
:105810007FF00200216808610120207620688069FD
:1058200010F0030F03D0200000F05EF905E0200027
:10583000FFF7D4FA200000F058F900202076206805
:10584000006940071AD52068C068400716D57FF068
:10585000040021680861022020762068806910F425
:10586000407F03D0200000F03FF905E02000FFF763
:10587000B5FA200000F039F9002020762068006990
:1058800000071AD52068C068000716D57FF0080009
:1058900021680861042020762068C06910F0030F99
:1058A00003D0200000F020F905E02000FFF796FA71
:1058B000200000F01AF90020207620680069C00658
:1058C0001AD52068C068C00616D57FF01000216880
:1058D0000861082020762068C06910F4407F03D05A
:1058E000200000F001F905E02000FFF777FA200022
:1058F00000F0FBF80020207620680069C0070AD578
:105900002068C068C00706D57FF0010021680861E3
:105910002000FFF772FA2068006900060AD52068A7
:10592000C068000606D57FF080002168086120006D
:1059300000F081FA2068006940060AD52068C06836
:10594000400606D57FF0400021680861200000F085
:10595000CDF82068006980060AD52068C0688006F6
:1059600006D57FF0200021680861200000F062FA6F
:1059700010BD10B5040094F93800012801D10220AF
:1059800025E0012084F83800022084F83900002A3C
:1059900006D0042A08D0082A0AD00C2A0CD00FE01E
:1059A000206800F051F90BE0206800F012F907E0E0
:1059B000206800F07FF903E0206800F0B5F9FFE708
:1059C000012084F83900002084F83800002010BD40
:1059D00010B50400002094F93800012801D10220FC
:1059E00081E0012084F83800022084F83900206822
:1059F000806830F0770030F47F402268906008685B
:105A0000002855D0102858D020285BD030285ED0F0
:105A1000402843D050282DD0602835D070280DD094
:105A2000B0F5805F03D0B0F5005F16D054E0206879
:105A30008068C008C000216888604DE0CB684A6873
:105A40008968206800F0E9F92068806830F0770004
:105A500050F07700216888603EE0CB684A6889682A
:105A6000206800F0DAF92068806850F480402168EE
:105A7000886031E0CA684968206800F09BF95021CD
:105A8000206800F0C0F927E0CA684968206800F083
:105A9000A5F96021206800F0B6F91DE0CA684968E0
:105AA000206800F087F94021206800F0ACF913E08D
:105AB0000021206800F0A7F90EE01021206800F016
:105AC000A2F909E02021206800F09DF904E03021CE
:105AD000206800F098F9FFE7012084F839000020E1
