:020000040800F2
:10000000489C0020450100082D150008A1080008A3
:10001000291500080B0400080D210008000000004D
:100020000000000000000000000000002D19000882
:100030006D06000800000000B9150008751A0008D8
:100040005F0100085F0100085F0100085F01000810
:100050005F0100085F0100085F0100085F01000800
:100060005F0100085F0100085F0100085F010008F0
:100070005F0100085F0100085F0100085F010008E0
:100080005F0100085F0100085F0100085F010008D0
:10009000EF1E00085F0100085F0100085F01000813
:1000A0005F0100085F0100085F0100085F010008B0
:1000B000611B00085F0100085F0100085F01000884
:1000C0005F0100085F0100085F0100085F01000890
:1000D0005F0100080D1D00081D1D00082D1D0008F2
:1000E0005F0100085F0100085F0100085F01000870
:1000F0005F0100085F0100085F0100085F01000860
:100100005F0100085F0100085F0100085F0100084F
:100110005F0100085F0100085F0100085F0100083F
:100120005F0100085F0100085F0100085F0100082F
:10013000DFF80CD000F06EF800480047A12D000851
:10014000489C00200648804706480047FEE7FEE737
:10015000FEE7FEE7FEE7FEE7FEE7FEE7FEE7FEE777
:10016000011B00083101000840EA01039B0703D08E
:1001700009E008C9121F08C0042AFAD203E011F8E6
:10018000013B00F8013B521EF9D27047D2B201E0A8
:1001900000F8012B491EFBD270470022F6E710B58C
:1001A00013460A4604461946FFF7F0FF204610BDE5
:1001B0002DE9F05F0546002092469B46884606469C
:1001C000814640241BE0284641464746224600F02F
:1001D00042F853465A46C01A914110D31146184668
:1001E000224600F029F82D1A67EB01084F462246F7
:1001F0000120002100F020F817EB00094E41201EDD
:10020000A4F10104DFDC484631462A464346BDE8F6
:10021000F09F0000064C074D06E0E06840F0010347
:1002200094E8070098471034AC42F6D3FFF784FFF8
:10023000D82F0008F82F0008202A04DB203A00FA03
:1002400002F1002070479140C2F1200320FA03F32D
:10025000194390407047202A04DB203A21FA02F02B
:100260000021704721FA02F3D040C2F120029140F0
:1002700008431946704721B1826842F0010282604A
:1002800003E0826822F001028260704721B1826837
:1002900042F48072826003E0826822F4807282609D
:1002A0007047014600208A6812F0040F01D0012037
:1002B00000E000207047014600208A6812F0080F15
:1002C00001D0012000E000207047000030B5024658
:1002D0000020002350680F4C20400D790C6844EA40
:1002E00005242043506090680B4C2040D1E9025413
:1002F0002C434D7944EA450420439060D06A20F4B1
:1003000070000C7C641EE4B2234340EA0350D062C8
:1003100030BD0000FFFEF0FFFDF7F1FFF0B5044631
:100320000D4600200021092D11DDE068A5F10A0627
:1003300006EB4607072606FA07F18843A5F10A06E9
:1003400006EB460603FA06F10843E0600CE020697C
:1003500005EB4507072606FA07F1884305EB450636
:1003600003FA06F108432061072A0FDA606B561E74
:1003700006EB86071F2606FA07F18843561E06EB92
:10038000860605FA06F10843606322E00D2A0FDABB
:10039000206BD61F06EB86071F2606FA07F1884357
:1003A000D61F06EB860605FA06F10843206310E027
:1003B000E06AA2F10D0606EB86071F2606FA07F192
:1003C0008843A2F10D0606EB860605FA06F10843FE
:1003D000E062F0BD816841F008018160704721B1A1
:1003E000826842F4A002826003E0826822F4A002E4
:1003F00082607047816841F0040181607047014666
:1004000048780A7840EA0220704700BFFEE7000003
:1004100070B502460C46FF25FF2309E012F8010BD8
:1004200080EA05010648405C80EA03050548435C14
:100430002000A4F10106B4B2F0D143EA052070BD5A
:10044000D82D0008D82E0008014609B90948704780
:10045000012901D10848FAE7022901D10748F6E746
:10046000032901D10020F2E7042901D10020EEE7A1
:100470000020ECE788020020B00A0020D8120020FB
:1004800008B525208DF8000000208DF8020001201D
:100490008DF80300684601F04BF826208DF8000027
:1004A00001208DF802008DF80300684601F040F845
:1004B00027208DF8000002208DF8020001208DF821
:1004C0000300684601F034F808BD21B1026842F02B
:1004D0000102026004E002684FF6FE731A400260F7
:1004E0007047000001684FF6FE7211400160002164
:1004F000016041608160C1604B49884208D14A492E
:100500000839496841F00F01474A083A51608AE0CA
:1005100045491431884208D143490839496841F0B6
:10052000F001414A083A51607DE03F492831884254
:1005300008D13D490839496841F470613A4A083A9E
:10054000516070E038493C31884208D13649083959
:10055000496841F47041344A083A516063E03249D5
:100560005031884208D130490839496841F4702136
:100570002D4A083A516056E02B496431884208D12F
:1005800029490839496841F47001274A083A5160FD
:1005900049E025497831884208D12349083949681A
:1005A00041F07061204A083A51603CE01F4988429E
:1005B00006D1011F096841F00F01021F116032E0EE
:1005C0001A491431884208D11849091F096841F0B5
:1005D000F001164A121F116025E0144928318842A3
:1005E00008D11249091F096841F470610F4A121FAE
:1005F000116018E00D493C31884208D10B49091FB0
:10060000096841F47041094A121F11600BE0074963
:100610005031884207D10549091F096841F470210A
:10062000024A121F1160704708000240080402408D
:1006300010B50022026847F6F0739A430C6A8B6883
:1006400023430C6923434C6923438C692343CC69BE
:1006500023434C6A23438C6A23431A430260CB68CA
:1006600043600B6883604B68C36010BD7047000037
:1006700010B52AA001F04CFD29A001F049FD294840
:10068000018829A001F044FD25A001F041FD254885
:10069000418828A001F03CFD21A001F039FD21484E
:1006A000818827A001F034FD1CA001F031FD1CA0C1
:1006B00001F02EFD25A001F02BFD002406E02848C6
:1006C000015D28A001F024FD601CC4B22448401E36
:1006D0000078A042F3DC11A001F01AFD10A001F097
:1006E00017FD22A001F014FD002407E01C481F3074
:1006F000015D1CA001F00CFD601CC4B21848401E36
:10070000C07FA042F2DC05A001F002FD1CA001F0B8
:10071000FFFC1D4800880349888010BD0A0D0000B9
:100720001B5B4B009801002020503031203D2025DC
:10073000640D0A0020503032203D2025640D0A004F
:1007400020413031203D2025640D0A0020BDD3CA50
:10075000D5B5C4C3FCC1EE203A20307800000000BB
:1007600055000020202530325800000020B7A2CBD1
:10077000CDB5C4C3FCC1EE203A20307800000000A3
:100780001B5B374100000000240000202DE9F041F0
:10079000024600250026002000230024002791F8AF
:1007A00003C00CF00F0591F803C01CF0100F03D02C
:1007B00091F802C04CEA050591F800C0BCF1000FA9
:1007C00031D0146800202BE04FF0010C0CFA00F33C
:1007D000B1F800C00CEA03069E4220D183004FF01E
:1007E0000F0C0CFA03F7BC4305FA03FC4CEA0404B3
:1007F00091F803C0BCF1280F06D14FF0010C0CFAA0
:1008000000FCC2F814C00AE091F803C0BCF1480F24
:1008100005D14FF0010C0CFA00FCC2F810C0401CCE
:100820000828D1D31460B1F800C0BCF1FF0F34DD4B
:10083000546800202EE000F1080C4FF0010808FA7F
:100840000CF3B1F800C00CEA03069E4221D18300EC
:100850004FF00F0C0CFA03F7BC4305FA03FC4CEA0B
:10086000040491F803C0BCF1280F05D100F1080C75
:1008700008FA0CF8C2F8148091F803C0BCF1480FD4
:1008800007D100F1080C4FF0010808FA0CF8C2F883
:100890001080401C0828CED35460BDE8F0810000D1
:1008A0000EE00849096881F48071064A1160002051
:1008B00001E0411C88B242F210718842F9DB00BFAE
:1008C000EFE700000C08014000B585B001210520CC
:1008D00000F080FF0121880300F07CFF4FF40070DE
:1008E000ADF8100018208DF8130003208DF81200C9
:1008F00004A96648FFF74AFF4FF48060ADF8100086
:1009000004208DF8130004A96048FFF73FFF4FF45F
:10091000E13000900020ADF80400ADF80600ADF81D
:100920000800ADF80C000C20ADF80A0069465848E4
:1009300001F068FA012240F22551554801F03DFAD4
:100940000121534801F003FA4021514801F0F6F922
:100950000121052000F03EFF0121480400F02AFF9C
:100960000420ADF8100018208DF8130003208DF836
:10097000120004A94548FFF709FF0820ADF8100050
:1009800004208DF8130004A94048FFF7FFFE04A9D6
:100990003E48FFF7FBFE4FF4E13000900020ADF839
:1009A0000400ADF80600ADF80800ADF80C000C200E
:1009B000ADF80A006946374801F024FA012240F2F6
:1009C0002551344801F0F9F90121324801F0BFF90D
:1009D0004021304801F0B2F90121082000F0FAFE70
:1009E00010208DF8130003208DF812000420ADF8BC
:1009F000100004A92848FFF7C9FE0121092000F0D2
:100A0000E9FE0121880400F0D5FE4FF48060ADF8C6
:100A1000100018208DF8130003208DF8120004A98F
:100A20001D48FFF7B3FE4FF40060ADF8100004203E
:100A30008DF8130004A91848FFF7A8FE04A916486A
:100A4000FFF7A4FE4FF4165000900020ADF804000C
:100A5000ADF80600ADF80800ADF80C000C20ADF8BC
:100A60000A0069460D4801F0CDF9012240F22551F6
:100A70000A4801F0A2F90121084801F068F9402173
:100A8000064801F05BF905B000BD00000008014018
:100A90000038014000440040000C01400048004084
:100AA0000948806810F4005F0BD10848006810F016
:100AB000010F06D10648806810F4807F01D0012024
:100AC00070470020FCE700000010014008080140CA
:100AD000002001400948806810F4005F0BD00848EE
:100AE000006810F0010F06D00648806810F4807F7F
:100AF00001D1012070470020FCE7000000100140F8
:100B000008080140002001400948806810F4005F97
:100B10000BD00848006810F0010F06D00648806826
:100B200010F4807F01D0012070470020FCE7000016
:100B30000010014008080140002001400948806879
:100B400010F4005F0BD00848006810F0010F06D1C8
:100B50000648806810F4807F01D101207047002092
:100B6000FCE700000010014008080140002001409F
:100B70000448806810F4004F01D101207047002024
:100B8000FCE70000002001400448006810F0080F56
:100B900001D1012070470020FCE70000081401404B
:100BA0000448806810F4804F01D101207047002074
:100BB000FCE70000002001400448806810F4005F5A
:100BC00001D1012070470020FCE700000020014017
:100BD0000448806810F0800F01D101207047002088
:100BE000FCE70000002001400948806810F4005F25
:100BF0000BD10848006810F0010F06D00648806845
:100C000010F4807F01D0012070470020FCE7000035
:100C1000001001400808014000200140FEB50020FE
:100C2000524981F821000846807F082803D003201C
:100C300081F82100FEBD4D48801CFFF7E0FB074610
:100C40004A48001DFFF7DBFB0546E81DC11700EB16
:100C50005171CE10B7F5807F35DD002D33DD781969
:100C6000B0F5837F2FDA002404E000200DF80400A3
:100C7000601C84B2B442F8DB002421E0611C3944DA
:100C8000491EC8B201F046FFC0B1E21704EB527230
:100C9000D2101DF802202146E31704EB5373DB103A
:100CA000A4EBC30C012303FA0CF31A43D2B220467F
:100CB000E31704EB5373DB100DF80320601C84B2C0
:100CC000AC42DBDB03E00220284981F82100274801
:100CD00090F82100002841D1244981F8A20008465B
:100CE000017890F8A22090F8A200401C1F4B83F8D6
:100CF000A20003F1220081542238417890F8A2200A
:100D000090F8A200401C83F8A20003F12200815455
:100D1000223890F8A22090F8A200401C83F8A2008C
:100D200003F12200865400240FE01DF804100F4840
:100D300090F8A22090F8A200401C0C4B83F8A2006F
:100D400003F122008154601C84B2B442EDDB0748F9
:100D500090F8A210223000F0A7FB04E0034991F8BC
:100D6000210000F079FB00BF64E70000F4000020E0
:100D7000FEB50020514981F821000846807F0828EF
:100D800003D0032081F82100FEBD4C48801CFFF7F2
:100D900036FB06464948001DFFF731FB0546E81DB6
:100DA000C11700EB5171CF10B6F5007F34DD002D77
:100DB00032DD7019B0F5017F2EDC002404E0002044
:100DC0000DF80400601C84B2BC42F8DB002420E073
:100DD000711E2144C8B201F053FCC0B1E21704EB0C
:100DE0005272D2101DF802202146E31704EB537310
:100DF000DB10A4EBC30C012303FA0CF31A43D2B2A9
:100E00002046E31704EB5373DB100DF80320601C3E
:100E100084B2AC42DCDB03E00220284981F82100E7
:100E2000264890F82100002841D1244981F8A200E9
:100E30000846017890F8A22090F8A200401C1F4BB1
:100E400083F8A20003F1220081542238417890F8FF
:100E5000A22090F8A200401C83F8A20003F1220017
:100E60008154223890F8A22090F8A200401C83F808
:100E7000A20003F12200875400240FE01DF80410A3
:100E80000E4890F8A22090F8A200401C0B4B83F86B
:100E9000A20003F122008154601C84B2BC42EDDB4D
:100EA000064890F8A210223000F0FEFA04E0034950
:100EB00091F8210000F0D0FA00BF65E7F4000020AF
:100EC00070B590B00020494981F821000846807F24
:100ED000082803D0032081F8210027E04348801C24
:100EE000FFF78DFA06464148001DFFF788FA0546D0
:100EF000202D04D903203D4981F8210016E000246B
:100F000010E06846022202FB0401304600F064FA59
:100F100020B90220354981F8210005E0701C86B215
:100F2000601C84B2AC42ECDB00BF00BF2F4890F8DD
:100F30002100002852D12D4981F8A20008460178ED
:100F400090F8A22090F8A200401C284B83F8A20041
:100F500003F1220081542238417890F8A22090F8C1
:100F6000A200401C83F8A20003F12200815468060D
:100F7000010E184690F8A22090F8A200401C83F8B9
:100F8000A20003F12200815400241EE01DF8141079
:100F9000164890F8A22090F8A200401C134B83F84A
:100FA000A20003F1220081546000401C1DF80010D3
:100FB000184690F8A22090F8A200401C83F8A200E6
:100FC00003F122008154601C84B2AC42DEDB07488E
:100FD00090F8A210223000F067FA04E0034991F87B
:100FE000210000F039FA10B070BD0000F4000020BC
:100FF00070B586B00A2101A8FFF7CFF800204E494E
:1010000081F821000846807F082803D0032081F85A
:10101000210031E04848801CFFF7F1F906464648B8
:10102000001DFFF7ECF90546B6F5806F1FDD002DBA
:101030001DDD701940F20241884218DC002413E0E3
:10104000A6F58060013805D13C48808801A921F8C7
:10105000140004E0002001A921F8140000BF00BF23
:10106000701C86B2601C84B2AC42E9DB03E0022053
:10107000314981F8210000BF2F4890F82100002855
:1010800053D12D4981F8A2000846017890F8A2209A
:1010900090F8A200401C284B83F8A20003F1220024
:1010A00081542238417890F8A22090F8A200401C88
:1010B00083F8A20003F1220081546806010E18464D
:1010C00090F8A22090F8A200401C83F8A20003F13F
:1010D0002200815400241FE001A830F814000112FE
:1010E000154890F8A22090F8A200401C124B83F8FB
:1010F000A20003F12200815401A810F81410184630
:1011000090F8A22090F8A200401C83F8A20003F1FE
:1011100022008154601C84B2AC42DDDB064890F8AA
:10112000A210223000F0C0F904E0034991F8210038
:1011300000F092F906B070BDF40000209801002084
:1011400070B50020244981F821000846807F0828D6
:1011500003D0032081F8210030E01F48801CFFF7F6
:101160004EF905461C48001DFFF749F9044634B105
:10117000012C04D00320184981F821001EE0A5F5B8
:101180008070013802D11548C48016E0B5F5817F22
:1011900002D11248048110E0A5F58070033802D115
:1011A0000E48448109E0B5F5827F02D10B48848165
:1011B00003E00220084981F8210000BF064890F8AA
:1011C000210010B900F05EF904E0034991F8210014
:1011D00000F042F970BD0000F400002098010020EA
:1011E00070B50020164981F821000846807F082844
:1011F00003D0032081F8210014E01148801CFFF780
:10120000FEF805460E48001DFFF7F9F80446214692
:10121000284600F073F9012803D00220084981F81C
:10122000210000BF064890F8210010B900F02AF90B
:1012300004E0034991F8210000F00EF970BD0000B0
:10124000F40000202DE9F0410020204981F8210020
:101250000846807F0B2803DA032081F8210026E06E
:101260001A48801CFFF7CBF806461848001DFFF708
:10127000C6F8054615488779002414E06100C91DA9
:10128000124A8818FFF7BBF88046311988B24146E8
:1012900000F034F9012804D002200C4981F8210023
:1012A00003E0601CC4B2AC42E8DB00BF00BF0748EB
:1012B00090F8210010B900F0E5F804E0034991F836
:1012C000210000F0C9F8BDE8F0810000F400002022
:1012D00010B527484078042823D006DC01280BD01D
:1012E000022810D0032838D114E0052820D0062881
:1012F00025D0102831D129E0FFF790FC00210120F2
:1013000001F092FC32E0FFF733FD0021022001F0F2
:101310008BFC2BE0FFF7D4FD0021032001F084FCBF
:1013200024E0FFF765FE0021042001F07DFC1DE0B4
:10133000FFF706FF0021052001F076FC16E0FFF71D
:101340004FFF0021062001F06FFC0FE0FFF77AFF4E
:101350000021072001F068FC08E00120044981F821
:10136000210091F8210000F077F800BF00BF10BD08
:10137000F400002070B51548007800B970BD002059
:10138000124908701248807F042800DA0EE01048E5
:10139000817FFFF73DF8044604B107E00C4805786B
:1013A000012D00D002E0FFF793FF00BF0848807FC7
:1013B000084908700648827F01460648401CFEF72F
:1013C000D3FE00200249887700BFD7E70000002045
:1013D000F40000205400002003460A46A3F54070A4
:1013E000013802D0012806D102E00748018804E054
:1013F0000548418801E00020704700BF08121070C6
:1014000051700120F8E700009801002070B50446F3
:1014100000200B49087040F63D650A4A2946012024
:1014200001F032FC0848807F1E2807DA0648817FD9
:10143000807F401C044A90771046445470BD0000E1
:10144000000000204D140008F40000200120014994
:10145000087070470000002038B50446084800783E
:101460008DF800000648407840F080008DF80100BB
:101470008DF802400321684600F016F838BD0000E0
:10148000F40000201CB5002405E00648005D0DF8BE
:101490000400601CC4B2062CF7DB0621684600F08D
:1014A00003F81CBDF400002070B5A0B005460C4642
:1014B000224629466846FEF757FE21462846FEF793
:1014C000A7FF064632122046611CCCB20DF8002060
:1014D000F2B22046611CCCB20DF8002021466846CD
:1014E00000F014FA0448C477224669462030FEF71B
:1014F0003BFE20B070BD0000540000200246A2F563
:101500004070013802D0012806D102E00548018070
:1015100004E00448418001E00020704700BF012042
:10152000FBE700009801002000BFFEE770470000C5
:1015300070B5002100230F22C4780CB3164C246828
:1015400004F4E064C4F5E064210AC1F10403CA4074
:10155000447804FA03F184781440214309010F4CC4
:101560000678A155047804F01F050124AC400578E5
:101570006D114FF0E02606EB8505C5F8004109E046
:10158000047804F01F050124AC40054D067876115F
:1015900045F8264070BD00000CED00E000E400E0DE
:1015A00080E100E002490143024A116070470000F7
:1015B0000000FA050CED00E07047000010B517A020
:1015C00000F0A6FD16A000F0A3FD25A12AA000F0C2
:1015D0009FFD2EA12EA000F09BFD32A134A000F0B3
:1015E00097FD01230622032136A000F091FD43A0C0
:1015F00000F08EFD43A000F08BFD48A000F088FDB8
:101600004BA000F085FD51A000F082FD57A000F036
:101610007FFD03A000F07CFD10BD00000A0D00005E
:101620002A2A2A2A2A2A2A2A2A2A2A2A2A2A2A2A1A
:101630002A2A2A2A2A2A2A2A2A2A2A2A2A2A2A2A0A
:101640002A2A2A2A2A2A2A2A2A2A2A2A2A2A2A2AFA
:101650002A2A2A2A2A2A2A2A2A2A2A2A2A0A0D0051
:1016600056342D5253343835204D4F44425553B4DF
:10167000D3D5BEC0FDB3CC002A20C0FDB3CCC3FB84
:10168000B3C62020203A2025730D0A00312E3000E9
:101690002A20C0FDB3CCB0E6B1BE2020203A2025E0
:1016A000730D0A00323031362D30312D31310000CA
:1016B0002A20B7A2B2BCC8D5C6DA2020203A2025FD
:1016C000730D0A002A20B9CCBCFEBFE2B0E6B1BE61
:1016D000203A205625642E25642E25642028535454
:1016E0004D3332463130785F53746450657269709F
:1016F000685F447269766572290D0A002A200A0D16
:10170000000000002A205151202020203A203132B0
:101710003935373434363330200D0A002A20CDFADB
:10172000CDFA20203A2061726D666C790D0A0000B6
:101730002A20456D61696C203A2061726D666C7972
:101740004071712E636F6D200D0A00002A20CCD4E9
:10175000B1A6B5EA3A2061726D666C792E74616F3C
:1017600062616F2E636F6D0D0A0000002A20436FC7
:1017700070797269676874207777772E61726D6609
:101780006C792E636F6D20B0B2B8BBC0B3B5E7D72C
:10179000D30D0A0029B1064A52690243044B5A612B
:1017A00004E0034A52698243014B5A6170470000CA
:1017B0000010024029B1064AD2690243044BDA61A3
:1017C00004E0034AD2698243014BDA6170470000AA
:1017D0000010024029B1064A92690243044B9A6103
:1017E00004E0034A92698243014B9A61704700000A
:1017F0000010024030B500210022002400232D4DAE
:101800006D6805F00C0121B1042905D0082923D108
:1018100005E0294D056022E0274D05601FE0254DBC
:101820006D6805F47012234D6D6805F4803402254F
:1018300005EB92421CB9214D554305600BE01D4D4F
:101840006D6815F4003F03D01C4D5543056002E060
:10185000194D5543056002E0174D056000BF00BFFC
:10186000144D6D6805F0F0010909154D6B5C0568B4
:10187000DD4045600F4D6D6805F4E061090A104DCB
:101880006B5C4568DD4085600A4D6D6805F460510C
:10189000C90A0B4D6B5C4568DD40C560054D6D6840
:1018A00005F44041890B074D6B5CC568B5FBF3F54A
:1018B000056130BD0010024000127A0000093D00B1
:1018C000260000203600002008B501210820FFF77F
:1018D00081FF03208DF8020010208DF80300042002
:1018E000ADF8000069460248FEF750FF08BD000051
:1018F000000C014010B504462046FFF787FD10BDDF
:101900000420014908607047100C014070B504467E
:101910000D462A462146022001F01AFA70BD000049
:101920000420014908607047140C01407047000012
:1019300010B51648C088012802D101F047F902E02D
:10194000012001F025F911480089012803D1022066
:1019500001F03CF902E0022001F01AF90B4840893D
:10196000012803D1032001F031F902E0032001F046
:101970000FF906488089012803D1042001F026F9D7
:1019800002E0042001F004F910BD000098010020DD
:1019900010B500F001F810BD0CB5002001900090CA
:1019A0003248006840F480303049086000BF2F485A
:1019B000006800F4003000900198401C01900098ED
:1019C00018B90198B0F5A06FF1D12848006810F45B
:1019D000003F02D00120009001E00020009000981C
:1019E000012842D12248006840F0100020490860D8
:1019F0000846006820F0030008600846006840F0D0
:101A00000200086019484068184948600846406864
:101A100048600846406840F4806048600846406876
:101A200020F47C1048600846406840F4E8104860A4
:101A30000846006840F08070086000BF0B480068EE
:101A400010F0007FFAD00948406820F003000749F1
:101A500048600846406840F00200486000BF034804
:101A6000406800F00C000828F9D10CBD00100240BD
:101A70000020024010B500F001F810BD10B51B4861
:101A8000006840B119480068401E1849086002D13A
:101A9000012017490870002408E004EB4401154AAE
:101AA00002EB810001F0E1F8601CC4B2042CF4DB0D
:101AB00011480068401C10490860084600686FF033
:101AC0000041884202D100200B49086001F0CCF8A7
:101AD0000A480078401CC0B2084908700A2803DB95
:101AE0000020087001F0BCF810BD000004000020C8
:101AF00008000020580200200C00002010000020E8
:101B000010B51348006840F001001149086008460C
:101B10004068104908400E494860084600680E4970
:101B200008400B4908600846006820F480200860DF
:101B30000846406820F4FE0048604FF41F008860AB
:101B4000FFF726FF4FF000600449086010BD000059
:101B5000001002400000FFF8FFFFF6FE08ED00E075
:101B600010B50221480700F05BF858B10221480780
:101B700000F044F800220221480700F062F81B48F8
:101B8000006880470421080700F04AF858B1042192
:101B9000080700F033F800220421080700F051F88C
:101BA0001348006880470821C80600F039F858B18A
:101BB0000821C80600F022F800220821C80600F01B
:101BC00040F80C48006880471021880600F028F88B
:101BD00058B11021880600F011F800221021880663
:101BE00000F02FF804480068804710BD1400002062
:101BF000180000201C00002020000020CA430282A0
:101C0000704721B1028842F00102028004E002889C
:101C10004FF6FE731A40028070470146888C704769
:101C200030B50246002000230024158A05EA01038E
:101C3000958905EA010413B10CB1012000E00020F0
:101C400030BD1AB183890B43838102E083898B43C2
:101C5000838170478186704701877047818770470D
:101C6000A0F8401070470000002202881D4B9842E7
:101C70000ED01D4B98420BD0B0F1804F08D01B4BBB
:101C8000984205D01A4B984202D01A4B984204D180
:101C90004FF68F731A404B881A43174B984207D060
:101CA000164B984204D04FF6FF431A40CB881A4394
:101CB00002808B8883850B8803850A4B98420BD062
:101CC000094B984208D00E4B984205D00D4B9842D4
:101CD00002D00D4B984201D10B7A038601238382F7
:101CE00070470000002C0140003401400004004017
:101CF00000080040000C00400010004000140040AC
:101D000000400140004401400048014010B5024835
:101D100000F0EEF810BD00008802002010B5024867
:101D200000F0E6F810BD0000B00A002010B502482F
:101D300000F0DEF810BD0000D812002001F400729F
:101D4000B2F5007F00D100BFCA430280704721B1C5
:101D5000828942F40052828104E082894DF6FF7349
:101D60001A408281704770B5024600240023002586
:101D70000020A1F510666A3E00D100BFC1F34215F4
:101D800001F01F03012606FA03F3012D02D1968903
:101D9000334006E0022D02D1168A334001E0968AD4
:101DA00033400C12012606FA04F41688344013B1AD
:101DB0000CB1012000E0002070BDF0B50346002406
:101DC000002600250020A1F510676A3F00D100BF62
:101DD0001846C1F3421401F01F06012707FA06F561
:101DE000012C01D10C3004E0022C01D1103000E0B4
:101DF00014301AB107682F43076002E00768AF4349
:101E00000760F0BD2DE9F04786B005460E46002478
:101E1000A24600BFA1460027B08900B100BF2F46EF
:101E20002C8A4CF6FF700440F08804432C82AC8965
:101E30004EF6F3100440B088318908437189084395
:101E40000443AC81AC8A4FF6FF400440B0890443A0
:101E5000AC8201A8FFF7CEFC1F48874202D1DDF813
:101E600010A001E0DDF80CA0A88910F4004F08D004
:101E70000AEBCA0000EB0A1031684900B0FBF1F828
:101E800007E00AEBCA0000EB0A1031688900B0FBDA
:101E9000F1F86420B8FBF0F004012009642101FB93
:101EA0001089A88910F4004F08D0322000EBC90037
:101EB000B0FBF1F000F00700044308E0322000EB33
:101EC00009106421B0FBF1F000F00F0004432C81F5
:101ED00006B0BDE8F0870000003801400146888860
:101EE000C0F308007047C1F3080282807047704752
:101EF00070B5044640F225512068FFF734FFE0B189
:101F00002068FFF7EBFFC5B2E18AA0684554E08A7C
:101F1000401C80B2E082E189884201DB0020E0823F
:101F2000608BE189884202DA608B401C6083606AC2
:101F300010B12846616A884700BF40F227712068C7
:101F4000FFF711FF08B3A08A60B9002240F22771A1
:101F50002068FFF732FF012240F226612068FFF778
:101F60002CFF37E0638A6268D15C2068FFF7BBFF13
:101F7000608A401C80B26082A189884201DB002017
:101F80006082A08A401EA08224E040F22661206880
:101F9000FFF7E9FEF0B1A08A50B9002240F22661B5
:101FA0002068FFF70AFF206AA0B1206A804711E08D
:101FB000638A6268D15C2068FFF795FF608A401CE5
:101FC00080B26082A189884201DB00206082A08A01
:101FD000401EA08270BDF8B504460E461746002587
:101FE00029E00EE0012000F0B2F8A08A0090002065
:101FF00000F0ADF8A089BDF80010884200DD01E0D6
:1020000000BFEFE700BF705D228A6168885401203D
:1020100000F09DF8208A401C80B22082A18988426D
:1020200001DB00202082A08A401CA082002000F05A
:102030008EF8681C85B2BD42D3DB012240F22771C5
:102040002068FFF7BAFEF8BD2148224908602248FF
:102050004860224888604FF480608881C8810020F1
:1020600008824882C882088348838882C8610862DF
:1020700048621B481B4908601B4848601B48886031
:102080004FF480608881C881002008824882C8821D
:10209000088348838882C8610862486214481549E9
:1020A000086015484860154888604FF48060888152
:1020B000C881002008824882C882088348838882B9
:1020C0000F48C8610F4808620F4848627047000017
:1020D0000038014088020020B0020020B006002035
:1020E00000440040B00A0020D80A0020D80E00208A
:1020F00000480040D81200200013002000170020E4
:102100000119000821190008F518000800BFFEE7B2
:102110000FB4054B10B503A9044A029800F01AF851
:1021200010BC5DF814FB00008F2D0008500000204B
:1021300002E008C8121F08C1002AFAD17047704790
:10214000002001E001C1121F002AFBD1704780F37B
:10215000108870472DE9FF4F8DB00F4605460026C9
:10216000DEE1252874D100246D1CF149A246A14668
:1021700001222B78203B02FA03F0084202D00443EC
:102180006D1CF6E728782A2810D06FF02F022878E7
:10219000A0F13001092915D80AEB8A0102EB4101AF
:1021A00044F0020400EB010A6D1CF0E757F804ABA1
:1021B000BAF1000F03DA44F40054CAF1000A44F003
:1021C00002046D1C28782E2817D115F8010F44F051
:1021D00004042A280ED06FF02F022878A0F13001D5
:1021E00009290AD809EB890102EB410100EB010939
:1021F0006D1CF2E757F8049B6D1C28786C280FD0F3
:1022000006DC4C2817D068280DD06A2814D104E0C9
:10221000742810D07A280FD10DE044F400140AE09D
:1022200044F4801401E044F440146978814202D1FE
:102230006D1C04F580146D1C2A786E2A20D00DDCEC
:10224000632A33D005DC002A6FD0582A12D1A2E0CD
:1022500011E0642A6AD0692A0CD167E0732A2FD072
:1022600004DC6F2A6FD0702A04D199E0752A6BD0F4
:10227000782A6AD01046DDE90F129047761C4EE1AD
:10228000C4F30250022806D003280AD0042801CF44
:102290000AD0066043E101CF4FEAE671C0E9006170
:1022A0003DE101CF06803AE1067038E117F8040BF2
:1022B0008DF8000000208DF80100EB46012003E0BE
:1022C00057F804BB4FF0FF3061074FF0000102D414
:1022D0000DE008F10101884649450FDA8045F8DB39
:1022E0001BF808100029F4D108E008F10101884624
:1022F0008142FADB1BF808100029F6D1DDE90F2333
:10230000AAEB08008146214600F03BF9304400EB7F
:10231000080604E0DDE90F121BF8010B9047B8F145
:102320000108F7D221464846F4E0FDE00A21C4F353
:1023300002534FF0000B0891022B07D001CFC117B9
:10234000032B09D00AE034E023E024E0FF1D27F04E
:102350000707F7E8020105E000B2C117042B01D11D
:1023600040B2C117002907DA4FF0000CD0EB0C0087
:102370006CEB01012D2302E0230504D52B238DF8FE
:102380002430012303E0E30701D02023F7E7984638
:1023900050E00A210EE010204FF0000B08900CE0F6
:1023A00010214FF0000B44F004044FF0080908918D
:1023B00003E008214FF0000B0891C4F30253022BF5
:1023C00004D001CF0021032B06D006E0FF1D27F02B
:1023D0000707F7E8020103E080B2042B00D1C0B286
:1023E0004FF00008230725D5702A2AD0DDF820C039
:1023F0008CF0100C5CEA0B0C09D150EA010306D0FA
:1024000030238DF824308DF8252002239846DDF8FE
:1024100020C08CF0080C5CEA0B0C0BD150EA0103D5
:1024200001D1630706D530238DF824304FF0010821
:10243000A9F10109582A09D03EA20B9208AA0A92D2
:1024400011E040238DF824300123DFE73EA2F4E7BA
:102450005B46089AFDF7ACFE0B9B9B5C0A9AA2F1C7
:1024600001020A92137050EA0102F1D10A98ADEB11
:10247000000000F1200B600702D524F4803401E055
:102480004FF00109D94502DDA9EB0B0000E0002067
:1024900000EB0B0141440890AAEB010AE00306D4CB
:1024A000DDE90F232146504600F06BF8064400207A
:1024B00008E009A911F80900DDE90F129047761C20
:1024C00009F1010081464045F3DBE0030CD5DDE96D
:1024D0000F232146504600F054F8064404E0DDE99D
:1024E0000F1230209047761C0899481E089000294A
:1024F000F5DC08E00A980A990078491C0A91DDE9A0
:102500000F129047761CBBF10001ABF1010BF1DC1F
:1025100021465046DDE90F2300F020F806446D1CEB
:10252000287800287FF41DAE11B03046BDE8F08F4A
:102530000928010030313233343536373839616299
:10254000636465660000000030313233343536375D
:102550003839414243444546000000002DE9F0412E
:10256000044600251E461746880405D406E0394671
:102570002020B04705F10105641EF8D52846BDE8C6
:10258000F0812DE9F041044600251E469046C8031F
:1025900001D5302700E02027880405D506E0414614
:1025A0003846B04705F10105641EF8D52846BDE858
:1025B000F081000070B50546304800EB0514206836
:1025C000804700283ED02079052802DA05202071B6
:1025D00052E020790A2803DA2079401C20714BE070
:1025E000A07A38B90120A07205EB4501491CC8B298
:1025F00000F00AFB208900283EDDE088218988421E
:102600000DDAE088401C80B2E0802189884233D115
:1026100005EB4501C91CC8B200F0F6FA2CE0E07ADF
:10262000002829DD207B401CC0B22073E17A88425B
:1026300022DB0020207305EB4501491CC8B200F0E5
:10264000E3FA19E02079052802DD0520207110E069
:10265000207918B12079401E20710AE0A07A012863
:1026600007D10020A07205EB4501891CC8B200F01B
:10267000CBFA0020E080207370BD0000A80100208C
:102680000146024800EB0110807A7047A801002043
:102690000146114890F840010F4B93F841319842A0
:1026A00001D1002070470C4890F840010A4B03EB21
:1026B000C002184690F84001401CC0B283F84001A7
:1026C000282802DB002083F8400110880880506829
:1026D00048600120E6E70000001B002010B5FEF76F
:1026E00049FE10BD10B54FF44070FEF75BFF00F0DF
:1026F00007FA00F07DF900F0B9F800F0B1F900F048
:1027000001F810BD00B591B001210846FFF742F86D
:1027100001214FF40470FFF75DF81020ADF80000C0
:1027200000208DF8030069463248FEF72FF8324842
:10273000FDF7D8FE31480190314802900020039007
:102740000120049000200590802006904000079012
:10275000800008902020099000020A9000200B9031
:1027600001A92548FDF764FF01212348FDF7ADFECF
:1027700000200C908DF8340001208DF835004FF4C6
:1027800060200E9000200F9001208DF840000CA9D1
:102790001A484C38FDF79AFD052301220E211748EF
:1027A0004C38FDF7BBFD012114484C38FDF76EFD98
:1027B000012112484C38FDF75EFD10484C38FDF7FA
:1027C00009FE00BF0D484C38FDF775FD0028F9D112
:1027D0000A484C38FDF70EFE00BF08484C38FDF79C
:1027E00060FD0028F9D1012104484C38FDF7F7FDC0
:1027F00011B000BD00100140080002404C2401400F
:10280000240000207FB501210846FEF7D3FF1548BC
:10281000006846081448B6FBF0F085B24FF6FF7426
:10282000ADF80840ADF804500020ADF80A00ADF84E
:10283000060001A94FF08040FFF716FA0121880732
:10284000FFF7DFF91C208DF8000004208DF801004F
:1028500000208DF8020001208DF803006846FEF785
:1028600067FE7FBD3C00002040420F0010B500F025
:1028700055F800F001F810BD08B501214FF49A7029
:10288000FEF7A8FF03208DF8020004208DF8030056
:10289000C002ADF8000069461C48FDF777FF012033
:1028A000ADF8000069461A48FDF770FF4FF48070DC
:1028B000ADF8000069461748FDF768FF4FF4004087
:1028C000ADF8000069461348FDF760FF0820ADF839
:1028D000000069461048FDF759FF4FF48040ADF8FD
:1028E000000069460B48FDF751FF4FF40050ADF86A
:1028F000000069460748FDF749FF8020ADF8000059
:1029000069460448FDF742FF08BD00000010014081
:102910000008014000200140001401400021284A25
:102920009172D1721173002018E06421254A02EBE4
:10293000001211810221234A02EB001211710021C1
:10294000204A02EB001291721E4A02EB0012D17271
:102950001C4A02EB00121173411CC8B20A28E4DBC6
:10296000642218490A87052281F83B206422A1F8D5
:102970004820052281F84B206422A1F85820052226
:1029800081F85B206422A1F86820052281F86B2081
:102990000D490C4A11600D4911610D4911620D4933
:1029A00011630D4911640D4911650D4911660D49F9
:1029B00011670D49C2F880100C49C2F89010704799
:1029C00048020020A8010020A10A0008090B000805
:1029D0003D0B0008710B0008890B0008A10B0008D3
:1029E000B90B0008D10B0008E90B0008D50A000854
:1029F00008B501218020FEF7EDFE012000F0C8F8A7
:102A0000022000F0C5F8032000F0C2F8042000F016
:102A1000BFF803208DF8020010208DF80300C001DC
:102A2000ADF8000069460D48FDF7B0FE8020ADF816
:102A3000000069460948FDF7A9FE4FF48070ADF823
:102A4000000069460548FDF7A1FE4FF40070ADF89F
:102A5000000069460148FDF799FE08BD001C0140D1
:102A600070B5002416E0002004EB4401204A02EB7C
:102A70008101486004EB440102EB8101886004EBB2
:102A8000440102EB8101487004EB440102F821008B
:102A9000601CC4B2042CE6DB164800684FF47A725E
:102AA000B0FBF2F1B1F1807F00D31DE021F07F4057
:102AB000401E4FF0E022506150170F22002807DA25
:102AC00013071E0E0C4B00F00F052D1F5E5503E083
:102AD00013071D0E094B1D5400BF00204FF0E022CC
:102AE00090610720106100BFFFF78CFE70BD0000F1
:102AF000580200203C00002018ED00E000E400E057
:102B000010B5FFF7A1FAFDF7DFFEFEF7DDFEFDF7DA
:102B1000B7FC10BD0146012908D11648006810F421
:102B2000006F01D1012070470020FCE7022908D185
:102B30001048006810F0800F01D10120F3E7002059
:102B4000F1E7032908D10B48006810F4807F01D118
:102B50000120E8E70020E6E7042908D105480068DD
:102B600010F4007F01D10120DDE70020DBE7002029
:102B7000D9E700000C1C014010B5002404E02046F9
:102B8000FFF718FD601CC4B20A2CF8DB10BD000072
:102B9000411EC8B220B94FF400610B4A116011E028
:102BA000012803D18021084A11600BE0022803D1DB
:102BB000C101054A116005E0032803D14FF40071FB
:102BC000014A116070470000101C0140411EC8B24C
:102BD00020B94FF400610B4A116011E0012803D1C4
:102BE0008021084A11600BE0022803D1C101054A87
:102BF000116005E0032803D14FF40071014A116010
:102C000070470000141C01400649C97A054A505417
:102C10001146C97A491CC9B2D1720A2901DB0021C7
:102C2000D1727047480200200C4A92F841210B4BA8
:102C300023F832001A4692F8412103EBC202516098
:102C40001A4692F84121521CD2B283F84121282A17
:102C500002DB002283F8412170470000001B0020A6
:102C600010B5FFF789FF10BD7047416851B1416849
:102C7000491E416006D1012141700178012901D12D
:102C800081684160704700002DE9F04104460F461D
:102C90001546052F00D37F1F4FF08040FEF7BDFF84
:102CA000804608EB0706012C0FD125480560B1B21C
:102CB000A007FEF7CFFF02214807FEF79FFF012282
:102CC00002214807FEF7BDFF38E0022C0FD11D4856
:102CD0000560B1B26007FEF7BFFF04210807FEF7E9
:102CE0008DFF012204210807FEF7ABFF26E0032C2D
:102CF00010D115480560B1B24FF08040FEF7AEFF2D
:102D00000821C806FEF77AFF01220821C806FEF74F
:102D100098FF13E0042C0FD10C480560B1B22007D6
:102D2000FEF79EFF10218806FEF768FF01221021A2
:102D30008806FEF786FF01E0BDE8F08100BFFBE7F3
:102D400014000020180000201C000020200000209B
:102D50002DE9F04105460E4617462846FDF774FB5F
:102D600004460CB9BDE8F081E06908B1E06980472C
:102D70003A4631462046FFF72EF900BFF2E713B579
:102D80000446012201A92046FFF7E2FF1CBD70B5F1
:102D900004460D46E1B20020FFF7F1FF204670BD6A
:102DA0001CB5FFF79FFCFEF709FCFDF761FC12E084
:102DB000FFF794FC6846FFF76BFC60B1BDF80000BC
:102DC000052804D1FDF754FCFEF7B2FD02E0FDF743
:102DD0004FFC00BF00BFEBE700C1814001C0804154
:102DE00001C0804100C1814001C0804100C18140DB
:102DF00000C1814001C0804101C0804100C18140CB
:102E000000C1814001C0804100C1814001C08041BA
:102E100001C0804100C1814001C0804100C18140AA
:102E200000C1814001C0804100C1814001C080419A
:102E300001C0804100C1814000C1814001C080418A
:102E400001C0804100C1814001C0804100C181407A
:102E500000C1814001C0804101C0804100C181406A
:102E600000C1814001C0804100C1814001C080415A
:102E700001C0804100C1814000C1814001C080414A
:102E800001C0804100C1814001C0804100C181403A
:102E900000C1814001C0804100C1814001C080412A
:102EA00001C0804100C1814001C0804100C181401A
:102EB00000C1814001C0804101C0804100C181400A
:102EC00000C1814001C0804100C1814001C08041FA
:102ED00001C0804100C1814000C0C101C30302C2E2
:102EE000C60607C705C5C404CC0C0DCD0FCFCE0E4A
:102EF0000ACACB0BC90908C8D81819D91BDBDA1ABA
:102F00001EDEDF1FDD1D1CDC14D4D515D71716D629
:102F1000D21213D311D1D010F03031F133F3F23299
:102F200036F6F737F53534F43CFCFD3DFF3F3EFE09
:102F3000FA3A3BFB39F9F83828E8E929EB2B2AEA79
:102F4000EE2E2FEF2DEDEC2CE42425E527E7E626E9
:102F500022E2E323E12120E0A06061A163A3A26259
:102F600066A6A767A56564A46CACAD6DAF6F6EAEC9
:102F7000AA6A6BAB69A9A86878B8B979BB7B7ABA39
:102F8000BE7E7FBF7DBDBC7CB47475B577B7B676A9
:102F900072B2B373B17170B0509091519353529219
:102FA00096565797559594549C5C5D9D5F9F9E5E89
:102FB0005A9A9B5B99595898884849894B8B8A4AF9
:102FC0004E8E8F4F8D4D4C8C448485458747468669
:102FD0008242438341818040F82F00080000002096
:102FE00054000000302100084C300008540000203C
:102FF000F49B0000402100080000000000000000D9
:1030000000000000000000000000000000000000C0
:1030100000000000000000000000000000000000B0
:103020000000010203040102030406070809020468
:103030000608000000A24A04000000000000000092
:0C3040000102030406070809000000005C
:0400000508000131BD
:00000001FF
