:020000040800F2
:10000000A808002045010008E70E0008990D000827
:10001000E50E0008B1010008D5110008000000003D
:10002000000000000000000000000000EB0E0008CF
:10003000B301000800000000E90E0008ED0E000802
:100040005F0100085F0100085F0100085F01000810
:100050005F0100085F0100085F0100085F01000800
:100060005F0100085F0100085F0100085F010008F0
:100070005F0100085F0100085F0100085F010008E0
:100080005F0100085F0100085F0100085F010008D0
:100090005F0100085F0100085F0100085F010008C0
:1000A0005F0100085F0100085F0100085F010008B0
:1000B0005F0100085F010008410F00085F010008B0
:1000C0005F0100085F0100085F0100085F01000890
:1000D0005F010008411100085F0100085F0100088E
:1000E0005F0100085F0100085F0100085F01000870
:1000F0005F0100085F0100085F0100085F01000860
:100100005F0100085F0100085F0100085F0100084F
:100110005F0100085F0100085F0100085F0100083F
:100120005F0100085F0100085F0100085F0100082F
:10013000DFF80CD000F02AF80048004779120008D8
:10014000A80800200648804706480047FEE7FEE76B
:10015000FEE7FEE7FEE7FEE7FEE7FEE7FEE7FEE777
:100160003F0F000831010008D2B201E000F8012B76
:10017000491EFBD270470022F6E710B513460A4627
:1001800004461946FFF7F0FF204610BD064C074D08
:1001900006E0E06840F0010394E807009847103457
:1001A000AC42F6D3FFF7C8FF94130008B41300085D
:1001B000FEE77047704700002DE9F84FDFF8C8915F
:1001C000002409F1040A0AF1040B23460F270BF15E
:1001D000040ED1E00125A54006EA0502AA4276D127
:1001E000DFF8A8C14E68A6EB0C0866452BD00DDCE5
:1001F000032E34D005DC36B3012E19D0022E2FD1B8
:100200001BE0112E16D0122E2AD119E0B8F5881F46
:1002100019D006DCB8F5803F15D0B8F5801F1FD186
:1002200011E0B8F5001F0ED0B8F5041F18D10AE090
:10023000CB6815E0CB681B1D12E0CB6808330FE0DC
:10024000CB680C330CE08B682BB1012B4FF008030B
:1002500003D0456104E0042302E0056100E00023CF
:10026000FF2A01D8064601E000F104064FEA8405A2
:1002700001D9A5F12005D6F8008007FA05FC28EA87
:100280000C0803FA05F548EA0508C6F800804D6831
:10029000ED0070D53E4DAE6946F00106AE61AD6928
:1002A00024F0030605F0010500953A4D06EB050C18
:1002B000DCF80850A607360F07FA06F825EA080505
:1002C000DFF8D480404503D14FF0000825E052E02C
:1002D000DFF8C880404502D14FF001081DE0DFF88B
:1002E000C080404502D14FF0020816E0DFF8B4802C
:1002F000404502D14FF003080FE0DFF8AC804045E5
:1003000002D14FF0040808E0DFF8A080404502D198
:100310004FF0050801E04FF0060808FA06F848EA31
:100320000508CCF808804D68D9F80060ED034D460B
:1003300001D5164300E096432E604D68DAF8006060
:10034000AD03554601D5164300E096432E604D6837
:10035000DBF80060ED025D4601D5164300E09643F0
:100360002E604D68DEF80060AD02754601D516437B
:1003700000E096432E60641C0A681646E2407FF453
:1003800029AFBDE8F88F0000000401400000111003
:10039000001002400000014000080140000C014034
:1003A000001001400014014000180140001C0140F1
:1003B0000AB1016170470904FBE700000148806849
:1003C0007047000000000020024881680278114454
:1003D0008160704700000020074810B5016841F0B7
:1003E00010010160032000F075F8002000F006F80D
:1003F00000F024F8002010BD0020024070B50D4D23
:1004000004464FF47A712878B1FBF0F00A49096884
:10041000B1FBF0F000F0F8FA48B9102C07D2002236
:100420002146501E00F036F800206C6070BD01209F
:1004300070BD0000000000200C0000200C4808B532
:10044000816941F001018161816901F0010100913F
:10045000C16941F08051C161C06900F080500090D5
:100460000448416821F0E06141F00071416008BD3D
:100470000010024000000140002809DB00F01F02CC
:10048000012191404009800000F1E020C0F80011F6
:1004900070470000F0B40E4B1B680C46C3F30223F8
:1004A000C3F10705042D00D90425191D072901D220
:1004B000002300E0DB1E012606FA05F1491E21405B
:1004C00099409E40761E16403143F0BC00F083BE3A
:1004D0000CED00E0064900F0070208684FF6FF0344
:1004E000184040EA0220034A1043086070470000A9
:1004F0000CED00E00000FA052DE9F0470F4605007D
:1005000061D0434E306800F00700B84209D230682D
:1005100020F0070038433060306800F00700B84230
:1005200051D128683B4C810712D5400703D560683C
:1005300040F4E06060602878000703D5606840F40C
:10054000605060606068A96820F0F0000843606057
:100550002878C00728D06868012810D021680228B0
:1005600010D0890700292EDA616821F003010143C8
:100570006160FFF723FF804641F288390DE0216872
:100580008903EFE78901EDE7FFF718FFA0EB08010A
:10059000494502D90320BDE8F0876068696800F02A
:1005A0000C00B0EB810FEFD1306800F00700B842CB
:1005B0000BD9306820F0070038433060306800F015
:1005C0000700B84201D00120E5E72878400705D5AB
:1005D0006068E96820F4E0600843606028780007FC
:1005E00006D56068296920F4605040EAC100606067
:1005F00000F038F86168084AC1F30311515CC84043
:100600000649086006480068FFF7F8FE0020C2E7C8
:1006100000200240001002407C1300080C00002063
:10062000040000200448054900684968044AC1F3F1
:100630000221515CC84070470C00002000100240AD
:100640008C1300080448054900684968044AC1F34E
:10065000C221515CC84070470C00002000100240CD
:100660008C13000812A185B00FC98DE80F0014A0EB
:10067000144A006804905168134801F00C03042BDD
:1006800010D0082B0ED1C1F38343C9031DF803001A
:100690000AD5516804AAC1F34041515C0A4A50434B
:1006A000B0FBF1F005B0704708494843FAE7000095
:1006B00002030405060708090A0B0C0D0E0F1010A3
:1006C000010200000010024000127A0000093D0003
:1006D0002DE9F84F040070D02078C04DC00749D0F4
:1006E0006868C0F38100012807D06868C0F3810002
:1006F000022809D16868C00306D52868800339D567
:1007000060680028E7D035E06068B0F5803F0BD026
:1007100010B1B0F5A02F11D0286820F480302860E7
:10072000286820F4802002E0286840F480302860A7
:10073000606890B1FFF742FE06460AE0286840F480
:1007400080202860F0E700BFFFF738FE801B642898
:1007500073D828688003F7D50CE0FFF72FFE064614
:1007600005E000BFFFF72AFE801B6428F0D8286848
:100770008003F7D420789A4E80074FF001094FF09C
:10078000000839D5686810F00C0F07D06868C0F30E
:100790008100022809D16868C00306D42868800750
:1007A00014D52069012808D110E02069B0B1C6F83D
:1007B0000090FFF703FE074605E00AE1FFF7FEFDA4
:1007C000C01B0228C4D828688007F7D5286861694B
:1007D00020F0F80040EAC10028600DE0C6F8008073
:1007E000FFF7ECFD074604E0FFF7E8FDC01B022819
:1007F00023D828688007F7D4207800072CD57948BB
:10080000A169D9B1C0F80090FFF7D8FD074604E010
:10081000FFF7D4FDC01B02280FD8686A8007F7D500
:1008200071484FF4FA510068B0FBF1F0009000BF3E
:100830000098411E0091FAD20EE080E0C0F80080DE
:10084000FFF7BCFD074604E0FFF7B8FDC01B022818
:1008500075D8686A8007F7D42078400760D5E869C2
:100860000027C00008D4E86940F08050E861E869DA
:10087000012700F0805000905C480168C90513D43E
:100880000168834641F480710160FFF797FD82465D
:1008900006E000BFFFF792FDA0EB0A0064284ED8E7
:1008A000DBF80000C005F5D5E06801280AD008B1E2
:1008B000052813D0286A20F001002862286A20F059
:1008C000040002E0286A40F001002862E06841F27A
:1008D000883B98B1FFF772FD82460BE0286A40F032
:1008E00004002862EEE700BFFFF768FDA0EB0A01F5
:1008F00059455AD8286A8007F6D50CE0FFF75EFD07
:10090000824605E0FFF75AFDA0EB0A0159454CD895
:10091000286A8007F6D41FB1E86920F08050E861AA
:10092000E06988B36968C1F38101022944D00228D3
:10093000C6F8608004D0FFF741FD044638E034E09B
:10094000FFF73CFD074604E0FFF738FDC01B022817
:100950002BD828688001F7D4206AB0F5803F05D1F4
:100960006868A16820F4003008436860D4E9080191
:100970000843696821F4741108436860C6F8609000
:10098000FFF71CFD044606E025E000BFFFF716FD5B
:10099000001B022809D828688001F7D51BE000BF9A
:1009A000FFF70CFD001B022802D90320BDE8F88FD9
:1009B00028688001F4D40EE00128F7D06868226A24
:1009C00000F48031914204D1616A00F470108842D1
:1009D00001D00120EAE70020E8E700000010024013
:1009E00000004242800442420C000020007000409F
:1009F0004FF0E0210428086903D020F004000861CA
:100A0000704740F00400FAE710B5401EB0F1807F57
:100A100001D3012010BD4FF0E02460610F21601769
:100A200000F0D9FB0020A06107202061002010BD4C
:100A300070B590F83C20012A2CD0012480F83C406D
:100A4000022280F83D2003685A689D6822F07006F3
:100A50000A6832435A60104B02689A420ED00F4B1C
:100A60009A420BD0B2F1804F08D00D4B9A4205D07C
:100A70000C4B9A4202D00C4B9A4204D1496825F0A3
:100A800080031943916080F83D40002180F83C10BC
:100A9000084670BD022070BD002C014000340140AA
:100AA0000004004000080040000C004010B50400A5
:100AB00003D094F83D0010B107E0012010BD0020E4
:100AC00084F83C00204600F01FF8022084F83D0026
:100AD000211D206800F05CFA012084F8460084F8AB
:100AE0003E0084F83F0084F8400084F8410084F818
:100AF000420084F8430084F8440084F8450084F8F8
:100B00003D00002010BD000008B500680B49884278
:100B100012D10B48C16941F00401C161C0690022D2
:100B200000F00400009011461E20FFF7B3FCBDE862
:100B300008401E20FFF7A0BC08BD000000080040D0
:100B40000010024090F83D10012901D001207047AB
:100B5000022180F83D100168CA6842F00102CA60B3
:100B600000680E4988420ED00D4988420BD0B0F182
:100B7000804F08D00B49884205D00B49884202D0EB
:100B80000A49884204D1816801F00701062903D08F
:100B9000016841F00101016000207047002C014014
:100BA000003401400004004000080040000C0040F8
:100BB0000168CA6822F00102CA6001680A6A41F24B
:100BC00011131A4207D10A6A9B101A4203D10A680C
:100BD00022F001020A60012180F83D1000207047D8
:100BE00070B5044690F83C00012817D0012584F820
:100BF0003C50022084F83D002068826822F0770291
:100C000022F47F4282600868502830D00DDC202812
:100C10004DD005DC98B310283BD148E0022070BDD0
:100C2000302844D0402834D139E0602828D07028BA
:100C300006D0B0F5805F2CD0B0F5005F29D10AE076
:100C4000CB68D1E90121206800F0E8F920688168CB
:100C500041F0770109E0CB68D1E90121206800F07B
:100C6000DDF92068816841F48041816011E0CA6843
:100C70004968206800F0E4F95021206807E016E098
:100C8000CA684968206800F0ECF96021206800F02B
:100C9000CFF984F83D50002084F83C0070BDCA684C
:100CA0004968206800F0CCF940212068EFE722680D
:100CB00001461046EBE770B5040004D094F83D00FF
:100CC000002510B106E0012070BD84F83C5020469C
:100CD00000F022F8242084F83D002068C16821F447
:100CE0000051C160204600F0CFF92068016921F46D
:100CF000904101612068416921F02A014161206829
:100D0000C16841F40051C1602564202084F83D0091
:100D100084F83E00002070BD30B585B000240094FA
:100D20000194029403940068184988422CD1184811
:100D3000816941F480418161816901F480410491BC
:100D4000816941F0040181618069124D00F0040065
:100D500004904FF400700090022001900320039053
:100D600069462846FFF728FA2815CDE900046946A8
:100D700028460294FFF720FA002211462520FFF7AB
:100D800089FB2520FFF778FB05B030BD0038014016
:100D90000010024000080140FEE700002DE9F0418C
:100DA00086B0002420480094019402940394816941
:100DB00041F010018161816901F0100104918169A4
:100DC00041F020018161816901F020010491816974
:100DD00041F0040181618069012200F00400134F99
:100DE0001502049029463846FFF7E2FADFF8408002
:100DF000012204214046FFF7DBFA00950326012576
:100E00000396CDE9015469463846FFF7D5F9042029
:100E1000CDE90005CDE9024669464046FFF7CCF929
:100E200006B0BDE8F081000000100240000801405B
:100E30000014014010B586B000241A4800940194B3
:100E40000294039404941649059401604721C0E973
:100E500001141549098801EBC10202EB0111621E60
:100E600002EB4101C0E903148461FFF71FFE08B1E2
:100E7000FFF7A0F94FF48050009069460948FFF74A
:100E8000AFFE08B1FFF796F9049404A9054805944C
:100E9000FFF7CEFD002801D0FFF78CF906B010BD9A
:100EA00000080040200000201C0000200C4910B564
:100EB0000A4AC1E90020002088600C22C860C1E90C
:100EC00004028861C8610846FFF7F5FE002803D0D8
:100ED000BDE81040FFF76EB910BD000000380140BA
:100EE00068000020FEE7704770477047FFF76CBA54
:100EF00030B58FB028216846FFF73DF914210AA8C4
:100F0000FFF739F901210804CDE90010002402940B
:100F100002250491CDE907504FF4E010099068468E
:100F2000FFF7D6FB0F20CDE90A056802CDE90C409A
:100F300002210AA80E94FFF7DFFA0FB030BD704708
:100F400070B5104D28680069C043C0070FD10E4826
:100F50000024017811B1012905D109E00948FFF702
:100F600027FE2868446229686FF00100086170BD9F
:100F7000047006480178491CC9B201700A29EDD3F2
:100F80000470EBE720000020160000201400002071
:100F9000F0B502681C4B1D4D1D4E1E4F1E4C4FF0F0
:100FA000804C984209D0A04207D0604505D0A842A5
:100FB00003D0B04201D0B84204D122F0700E4A688A
:100FC00042EA0E02984209D0A04207D0604505D0FF
:100FD000A84203D0B04201D0B84203D122F44075F8
:100FE000CA682A434D6922F080022A4302608A6857
:100FF000C2620A688262984201D0A04201D10969A6
:10100000016301214161F0BD002C0140000400405A
:1010100000080040000C00400034014010B5846816
:1010200042EA032224F47F440A432243826010BD33
:10103000826822F070020A4342F007018160704723
:1010400010B5036A046A24F001040462846924F080
:10105000F00444EA021423F00A020A4384610262A3
:1010600010BD10B5036A23F0100303628369046A9C
:1010700023F4704343EA023224F0A00343EA01114F
:101080008261016210BD000070B50446006801690C
:10109000E26821F44051114301612169A0680843CD
:1010A000616908432168CA6841F20C639A430243AC
:1010B000CA6020684169A26921F44071114341610D
:1010C0001E492068884202D1FFF7BCFA01E0FFF711
:1010D000A9FA00EBC00101EB0012606864218000F6
:1010E000B2FBF0F3B3FBF1F36FF018067343B2FBFE
:1010F000F0F5B2FBF0F605EB8305322303EB0515A3
:10110000B5FBF1F5B6FBF1F605F0F00505EB0615BC
:10111000B2FBF0F6B2FBF0F0B0FBF1F06FF01802AA
:10112000504306EB800003EB0010B0FBF1F02168A8
:1011300000F00F002844886070BD000000380140B6
:101140002DE9F0411D4D1E4C287810B101282FD1FA
:1011500004E01C48FFF7F6FC012028701948002520
:101160000068456220680068C043800620D41648A5
:101170000768164A4FF0020E107800EB001000EBE3
:101180004006134800EB46030EEB4606597801EB88
:10119000000C491C59700CF80670117801EB011114
:1011A00001EB410100EB41004178642900D9457011
:1011B00021686FF020000860BDE8F0811600002073
:1011C00068000020200000200438014014000020A6
:1011D000AC000020FEE70907090E002804DB00F13F
:1011E000E02080F80014704700F00F0000F1E020CC
:1011F00080F8141D704702E008C8121F08C1002AB9
:10120000FAD170477047002001E001C1121F002A87
:10121000FBD1704710B504460420FFF7E9FB0148F5
:10122000046010BD1000002070B5054600244FF486
:101230007A7603E0304600F005F8641CAC42F9D33E
:1012400070BD000070B54FF0E024002265690949C7
:10125000A36909684843A1699942FCD002D2A3EB73
:10126000010302E0A5EB010633441A440B46824217
:10127000F1D370BD100000204820FFF7CBFFFFF72F
:10128000ABF82D4C2D492068B0F5964F01D923209D
:1012900003E02B4A4000B2FBF0F00880FFF728FE85
:1012A000FFF77CFD2068FFF701FEFFF7C3FD25482F
:1012B0006FF00101026811610068C16841F001012D
:1012C000C16021480068C16841F02001C1601F4D24
:1012D0001F4EDFF88080204C4FF4FA77286840F4E6
:1012E00080702860306840F4802030603846FFF716
:1012F0009BFF286840F080702860306840F0040050
:1013000030603846FFF790FF207898F80010884248
:10131000E4D000EB0010114900EB400001EB40006D
:10132000801C00F01DF82078401CC0B220700A28F4
:10133000D4D300202070D1E7180000201C0000202A
:10134000A07F170020000020680000201008014046
:10135000101401401400002015000020AC000020F3
:10136000054A111D13685B06FCD510F8013B0B60A4
:101370000378002BF6D170470038014000000000D0
:101380000000000001020304060708090000000035
:1013900001020304B4130008000000202000000034
:1013A000F6110008D413000820000020880800006F
:1013B00006120008010000001000000000000000FC
:1013C0000024F40000000000000000008025000060
:0413D0000000000019
:0400000508000131BD
:00000001FF
