:020000040800F2
:10000000E008002045010008BB130008A912000801
:10001000B9130008B101000899170008000000009A
:10002000000000000000000000000000BF130008F6
:10003000F701000800000000BD130008C11300080C
:100040005F0100085F0100085F0100085F01000810
:100050005F0100085F0100085F0100085F01000800
:100060005F0100085F0100085F0100085F010008F0
:100070005F0100085F010008B5010008C101000828
:100080005F0100085F0100085F0100085F010008D0
:100090005F0100085F0100085F0100085F010008C0
:1000A0005F0100085F0100085F0100085F010008B0
:1000B0005F0100085F0100085F0100085F010008A0
:1000C0005F0100085F0100085F0100085F01000890
:1000D0005F010008051700085F0100085F010008C4
:1000E0005F0100085F0100085F0100085F01000870
:1000F0005F0100085F0100085F0100085F01000860
:100100005F0100085F0100085F0100085F0100084F
:100110005F0100085F0100085F0100085F0100083F
:100120005F0100085F0100085F0100085F0100082F
:10013000DFF80CD000F02AF8004800473D1800080E
:10014000E00800200648804706480047FEE7FEE733
:10015000FEE7FEE7FEE7FEE7FEE7FEE7FEE7FEE777
:100160001314000831010008D2B201E000F8012B9D
:10017000491EFBD270470022F6E710B513460A4627
:1001800004461946FFF7F0FF204610BD064C074D08
:1001900006E0E06840F0010394E807009847103457
:1001A000AC42F6D3FFF7C8FF301900085019000819
:1001B000FEE70000014800F0DBB80000A0000020CE
:1001C000014800F0D5B800005C00002030B590F880
:1001D00040500124AC40C56B6C60046863604368A8
:1001E000102B036803D099600068C26030BD9A602C
:1001F0000068C16030BD7047704710B590F821109D
:100200000022022905D00421816380F820200120EA
:1002100010BD01680B6823F00E030B6001680B68CA
:1002200023F001030B6090F84030C46B012101FA08
:1002300003F3636080F8211080F82020104610BD81
:100240002DE9F05F90F821100024022903D0042149
:100250008163012485E001680A6822F00E020A60C9
:1002600001680A6822F001020A603F4E3E4FB21553
:10027000DFF8F4C0DFF8F090DFF8ECA0DFF8E8B0CA
:10028000DFF8E4E00168783F13011502ACF1640C7B
:10029000A9F15009AAF13C0AABF1280BAEF1140EFA
:1002A0004FF48018B14227D9B9420ED0614512D01F
:1002B00049451DD0514518D0594518D0714501D137
:1002C000424615E0294EB14201D1012210E0274EED
:1002D0001436B14201D110220AE0244E2836B14230
:1002E00006D0224A3C32914201D11A4600E02A4609
:1002F0001E49091F0A602BE0B94213D0614517D08F
:10030000494522D051451DD059451DD0714501D1D7
:1003100042461AE0B14202D14FF0807215E0134E0E
:10032000B14201D1012210E0104E1436B14201D188
:1003300010220AE00D4E2836B14206D00B4A3C325C
:10034000914201D11A4600E02A46074980394A60A5
:10035000012180F82110002180F82010416B01B1AB
:1003600088472046BDE8F09F800002400804024014
:100370002DE9F05FC16B0A6801680B68046C4FF0EF
:10038000040808FA04F8844D844E854FDFF814C23F
:10039000DFF81492DFF814A2DFF814B2DFF814E2E9
:1003A00018EA020F65D05FEA437862D50A689206C0
:1003B00003D40A6822F004020A60DFF8F0814FF4E7
:1003C0008062016808F1140813011402414524D920
:1003D000A9420DD0B1420FD0B9421AD0614515D013
:1003E000494515D0514501D1120312E0594501D1BB
:1003F00004220EE0714501D140220AE06D4D143512
:10040000A94206D06B4A2832914201D11A4600E037
:1004100022466749091F0A6029E0A94213D0B14268
:1004200015D0B94220D061451BD049451BD051455C
:1004300002D14FF4800217E0414502D14FF08062B3
:1004400012E0594501D104220EE0714501D140224C
:100450000AE0584D1435A94206D0564A2832914236
:1004600001D11A4600E022464B4908394A60C16A68
:1004700071E04FF0020808FA04F818EA020F70D091
:100480005FEA83786DD50A68920606D40A6822F07E
:100490000A020A60012180F82110DFF810814FF470
:1004A0000072016808F1140813011402414524D9AF
:1004B000A9420DD0B1420FD0B9421AD0614515D032
:1004C000494515D0514501D1120312E0594501D1DA
:1004D00002220EE0714501D120220AE0354D14358B
:1004E000A94206D0334A2832914201D11A4600E08F
:1004F00022462F49091F0A6029E0A94213D0B142C0
:1005000015D0B94220D061451BD049451BD051457B
:1005100002D14FF4001217E0414502D14FF00072B2
:1005200012E0594501D102220EE0714501D120228D
:100530000AE0204D1435A94206D01E4A28329142C5
:1005400001D11A4600E02246134908394A600021C9
:1005500080F82010816A00291CD0BDE8F05F0847B0
:10056000FFE70825A540154214D01A0712D50A68DE
:1005700022F00E020A6090F84020C36B012101FABC
:1005800002F25A60816380F82110002180F8201067
:10059000016BE0E7BDE8F09F080002401C0002404C
:1005A0003000024044000240580002406C0002400B
:1005B000080402401C04024030B560B11A4B0268C6
:1005C00014219A4209D2194B1344B3FBF1F189006B
:1005D000016417490AE0012030BD134B5B4213440C
:1005E000B3FBF1F1890001640F490839C1630221AD
:1005F00080F82110136843F6F0718B43F0E9011481
:100600002143D0E902452C43214304692143446935
:100610002143846921431943116000214163012270
:1006200042770177084630BD08040240F8FFFDBF5D
:100630000000024070B5044690F820000025012813
:100640000CD0012084F8200094F821600020012EB5
:1006500006D084F820000225284670BD022070BD17
:10066000022684F82160A0632068066826F001064F
:1006700006602046FFF7AAFDE06A002820680168AE
:1006800002D041F00E0106E021F004010160206873
:10069000016841F00A0101602068016841F0010130
:1006A0000160D9E72DE9F84FDFF8C891002409F17E
:1006B000040A0AF1040B23460F270BF1040ED1E0C4
:1006C0000125A54006EA0502AA4276D1DFF8A8C1B5
:1006D0004E68A6EB0C0866452BD00DDC032E34D0FB
:1006E00005DC36B3012E19D0022E2FD11BE0112EBE
:1006F00016D0122E2AD119E0B8F5881F19D006DCC1
:10070000B8F5803F15D0B8F5801F1FD111E0B8F5BE
:10071000001F0ED0B8F5041F18D10AE0CB6815E011
:10072000CB681B1D12E0CB6808330FE0CB680C339D
:100730000CE08B682BB1012B4FF0080303D045610F
:1007400004E0042302E0056100E00023FF2A01D851
:10075000064601E000F104064FEA840501D9A5F13F
:100760002005D6F8008007FA05FC28EA0C0803FAF1
:1007700005F548EA0508C6F800804D68ED0070D51B
:100780003E4DAE6946F00106AE61AD6924F0030648
:1007900005F0010500953A4D06EB050CDCF8085014
:1007A000A607360F07FA06F825EA0805DFF8D48011
:1007B000404503D14FF0000825E052E0DFF8C88043
:1007C000404502D14FF001081DE0DFF8C0804045F0
:1007D00002D14FF0020816E0DFF8B480404502D1A4
:1007E0004FF003080FE0DFF8AC80404502D14FF036
:1007F000040808E0DFF8A080404502D14FF005086A
:1008000001E04FF0060808FA06F848EA0508CCF8B7
:1008100008804D68D9F80060ED034D4601D51643B8
:1008200000E096432E604D68DAF80060AD0355464F
:1008300001D5164300E096432E604D68DBF800605A
:10084000ED025D4601D5164300E096432E604D68EB
:10085000DEF80060AD02754601D5164300E0964310
:100860002E60641C0A681646E2407FF429AFBDE89A
:10087000F88F000000040140000011100010024039
:100880000000014000080140000C01400010014040
:100890000014014000180140001C01400AB1016130
:1008A00070470904FBE700000148806870470000BA
:1008B000000000200248816802781144816070477E
:1008C00000000020074810B5016841F010010160E8
:1008D000032000F075F8002000F006F800F024F87E
:1008E000002010BD0020024070B50D4D04464FF4AD
:1008F0007A712878B1FBF0F00A490968B1FBF0F091
:1009000000F0F8FA48B9102C07D200222146501EF8
:1009100000F036F800206C6070BD012070BD000052
:10092000000000200C0000200C4808B5816941F04F
:1009300001018161816901F001010091C16941F00A
:100940008051C161C06900F0805000900448416846
:1009500021F0E06141F00071416008BD00100240EB
:1009600000000140002809DB00F01F020121914036
:100970004009800000F1E020C0F80011704700003D
:10098000F0B40E4B1B680C46C3F30223C3F10705FA
:10099000042D00D90425191D072901D2002300E0E8
:1009A000DB1E012606FA05F1491E214099409E40B2
:1009B000761E16403143F0BC00F0EFBE0CED00E0B7
:1009C000064900F0070208684FF6FF03184040EAA6
:1009D0000220034A10430860704700000CED00E05D
:1009E0000000FA052DE9F0470F46050061D0434E9F
:1009F000306800F00700B84209D2306820F00700E4
:100A000038433060306800F00700B84251D12868A0
:100A10003B4C810712D5400703D5606840F4E06085
:100A200060602878000703D5606840F4605060601B
:100A30006068A96820F0F000084360602878C0076B
:100A400028D06868012810D02168022810D08907B2
:100A500000292EDA616821F0030101436160FFF78C
:100A600023FF804641F288390DE021688903EFE7D2
:100A70008901EDE7FFF718FFA0EB0801494502D90E
:100A80000320BDE8F0876068696800F00C00B0EBF7
:100A9000810FEFD1306800F00700B8420BD9306801
:100AA00020F0070038433060306800F00700B8429B
:100AB00001D00120E5E72878400705D56068E9689E
:100AC00020F4E060084360602878000706D560687D
:100AD000296920F4605040EAC100606000F038F8F5
:100AE0006168084AC1F30311515CC84006490860B7
:100AF00006480068FFF7F8FE0020C2E70020024029
:100B000000100240181900080C000020040000200A
:100B10000448054900684968044AC1F30221515C50
:100B2000C84070470C00002000100240281900083F
:100B30000448054900684968044AC1F3C221515C70
:100B4000C84070470C00002000100240281900081F
:100B500012A185B00FC98DE80F0014A0144A0068D7
:100B600004905168134801F00C03042B10D0082B9B
:100B70000ED1C1F38343C9031DF803000AD55168A0
:100B800004AAC1F34041515C0A4A5043B0FBF1F062
:100B900005B0704708494843FAE70000020304051E
:100BA000060708090A0B0C0D0E0F101001020000B9
:100BB0000010024000127A0000093D002DE9F84FB4
:100BC000040070D02078C04DC00749D06868C0F3D9
:100BD0008100012807D06868C0F38100022809D18C
:100BE0006868C00306D52868800339D56068002886
:100BF000E7D035E06068B0F5803F0BD010B1B0F5BC
:100C0000A02F11D0286820F480302860286820F4B4
:100C1000802002E0286840F480302860606890B14D
:100C2000FFF742FE06460AE0286840F4802028606C
:100C3000F0E700BFFFF738FE801B642873D82868F0
:100C40008003F7D50CE0FFF72FFE064605E000BF56
:100C5000FFF72AFE801B6428F0D828688003F7D4A9
:100C600020789A4E80074FF001094FF0000839D5DF
:100C7000686810F00C0F07D06868C0F38100022884
:100C800009D16868C00306D42868800714D5206994
:100C9000012808D110E02069B0B1C6F80090FFF734
:100CA00003FE074605E00AE1FFF7FEFDC01B022830
:100CB000C4D828688007F7D52868616920F0F80053
:100CC00040EAC10028600DE0C6F80080FFF7ECFDA7
:100CD000074604E0FFF7E8FDC01B022823D8286878
:100CE0008007F7D4207800072CD57948A169D9B1BD
:100CF000C0F80090FFF7D8FD074604E0FFF7D4FDE9
:100D0000C01B02280FD8686A8007F7D571484FF4D6
:100D1000FA510068B0FBF1F0009000BF0098411E4E
:100D20000091FAD20EE080E0C0F80080FFF7BCFD31
:100D3000074604E0FFF7B8FDC01B022875D8686AB3
:100D40008007F7D42078400760D5E8690027C00005
:100D500008D4E86940F08050E861E869012700F0B4
:100D6000805000905C480168C90513D4016883462F
:100D700041F480710160FFF797FD824606E000BFF5
:100D8000FFF792FDA0EB0A0064284ED8DBF80000C4
:100D9000C005F5D5E06801280AD008B1052813D0B0
:100DA000286A20F001002862286A20F0040002E08E
:100DB000286A40F001002862E06841F2883B98B15F
:100DC000FFF772FD82460BE0286A40F004002862BB
:100DD000EEE700BFFFF768FDA0EB0A0159455AD8BE
:100DE000286A8007F6D50CE0FFF75EFD824605E035
:100DF000FFF75AFDA0EB0A0159454CD8286A800735
:100E0000F6D41FB1E86920F08050E861E06988B34A
:100E10006968C1F38101022944D00228C6F86080C4
:100E200004D0FFF741FD044638E034E0FFF73CFD15
:100E3000074604E0FFF738FDC01B02282BD82868BE
:100E40008001F7D4206AB0F5803F05D16868A168B9
:100E500020F4003008436860D4E908010843696859
:100E600021F4741108436860C6F86090FFF71CFD18
:100E7000044606E025E000BFFFF716FD001B022830
:100E800009D828688001F7D51BE000BFFFF70CFDEB
:100E9000001B022802D90320BDE8F88F28688001D2
:100EA000F4D40EE00128F7D06868226A00F480319B
:100EB000914204D1616A00F47010884201D001208F
:100EC000EAE70020E8E7000000100240000042428C
:100ED000800442420C000020007000404FF0E021EE
:100EE0000428086903D020F004000861704740F02E
:100EF0000400FAE710B5401EB0F1807F01D3012055
:100F000010BD4FF0E02460610F21601700F045FC38
:100F10000020A06107202061002010BD70477047AD
:100F2000F8B5026804461068D168536910F00F0FD5
:100F30004FF0000553D003F0010601F490773743DA
:100F40005FD0C20705D0CA0503D5226C42F001026A
:100F50002264420705D5DA0703D0226C42F0020270
:100F60002264820705D5DA0703D0226C42F004021E
:100F70002264020707D501F02002324303D0226C1D
:100F800042F008022264226C002A34D0800604D584
:100F9000880602D5204600F0C5FA20684069216C19
:100FA000C0F38010090700D430B3204600F099FA4E
:100FB0002068416949061BD5416921F04001416122
:100FC000A06BA8B158494163A06BFFF739F900281D
:100FD00011D0A06B416B01B0BDE8F040084783061B
:100FE0000FD58B060DD52046BDE8F84000F09ABA23
:100FF0002046FFF794FFF8BD2046FFF790FF2564D9
:10100000F8BD266B2023012E52D1C60650D5CE0640
:101010004ED5106850680090506940062AD5A16BE3
:10102000086840680004000CEAD0A68D8642E7D923
:10103000E0858869202818D0D06820F48070D060BE
:101040002068416921F0010141612068416921F076
:101050004001416184F83E3025632068C16821F079
:101060001001C160A06BFFF7C8F8A08DE18D401A98
:1010700081B219E0A08DE18D401A81B2E08D002887
:10108000BED00029BCD0D06820F49070D060206819
:10109000426922F00102426184F83E3025632068F3
:1010A000C26822F01002C2602046FFF737FFF8BD89
:1010B00005062BD50D0629D594F83D002128F6D13B
:1010C000A068B0F5805F01D12069B0B1206A411CF1
:1010D0002162216800784860E08C401E0004000C0A
:1010E000E084E4D12068C16821F08001C1602068FB
:1010F000C16841F04001C160F8BD206A0088C0F3BA
:1011000008005060206A801C2062E5E74006F3D5A5
:101110004806F1D5D168204621F04001D16084F81D
:101120003D3000F0C0F8F8BD1514000870B504009B
:1011300004D094F83D00002510B106E0012070BDF8
:1011400084F83C50204600F023F8242084F83D0029
:101150002068C16821F40051C160204600F03EFAC9
:101160002068016921F4904101612068416921F002
:101170002A0141612068C16841F40051C1602564C1
:10118000202084F83D0084F83E00002070BD00005F
:101190002DE9F04186B000240646009401940294A3
:1011A000039400682F49884258D12F48816941F43F
:1011B00080418161816901F480410491816941F03C
:1011C000040181618069294D00F0040004904FF40E
:1011D0000070009002200190032003906946284689
:1011E000FFF760FA2815CDE9000469462846029405
:1011F000FFF758FA1F4D1E484FF08008C5E900045C
:10120000C5E902482C614FF440576C61C5E90647B7
:101210002846FFF7D1F908B1FEF7EEFFB5636E621D
:10122000144D13484435143801C51020A5E81101A8
:10123000104845F8104944306C61C5E90647FFF78E
:10124000BBF908B1FEF7D8FF7563002211462520CF
:101250006E62FFF795FB2520FFF784FB06B0BDE823
:10126000F0810000003801400010024000080140F9
:10127000580002405C00002090F83E30202B0ED138
:1012800059B152B190F83C30012B08D0012380F8BD
:101290003C300023036300F0FDB9012070470220B9
:1012A0007047704770477047FEE700000D4808B56B
:1012B000416941F0010141614069002200F00100F3
:1012C000009011460E20FFF75BFB0E20FFF74AFB54
:1012D000002211460F20FFF753FBBDE808400F2006
:1012E000FFF740BB001002402DE9F04186B000241A
:1012F00020480094019402940394816941F0100104
:101300008161816901F010010491816941F020013E
:101310008161816901F020010491816941F004013A
:1013200081618069012200F00400134F15020490CE
:1013300029463846FFF7B2FADFF84080012204213F
:101340004046FFF7ABFA0095032601250396CDE949
:10135000015469463846FFF7A5F90420CDE9000598
:10136000CDE9024669464046FFF79CF906B0BDE864
:10137000F08100000010024000080140001401400C
:101380000C4810B50A4901604FF4E1314160002179
:1013900081600C22C160C0E904128161C161FFF764
:1013A000C5FE002803D0BDE81040FEF725BF10BDE4
:1013B0000038014018000020FEE770477047704772
:1013C000FFF778BA30B58FB028216846FEF7D3FE14
:1013D00014210AA8FEF7CFFE01210804CDE9001070
:1013E0000024029402250491CDE907504FF4E01047
:1013F00009906846FFF7E2FB0F20CDE90A05680275
:10140000CDE90C4002210AA80E94FFF7EBFA0FB0C9
:1014100030BD704710B5406A0021C185C184FFF717
:101420007EFD10BD70B5446A2068406994F83D1097
:10143000C0F3C0100025212904D118B1E58420464D
:1014400000F067F82068406994F83E10C0F38010FF
:10145000222904D118B1E585204600F042F8206C1D
:1014600040F0100020642046FFF759FD70BD10B514
:101470000146406A0968096889061BD40021C185B4
:101480000168CA6822F48072CA6001684A6922F061
:1014900001024A6101684A6922F040024A61202142
:1014A00080F83E10016B012904D10168CA6822F05E
:1014B0001002CA60016B012902D0FFF7F2FE10BDD5
:1014C000818DFFF72BFD10BD10B5406A016B01291E
:1014D00002D0FFF7E7FE10BD818D4908FFF71EFD22
:1014E00010BD0168CA6822F49072CA6001684A6936
:1014F00022F001024A61016B012904D10168CA6826
:1015000022F01002CA60202180F83E100021016301
:1015100070470168CA6822F0C002CA60202180F8C2
:101520003D10704708B590F83E10222901D00220E6
:1015300008BD82684FF480539A4201D1016921B1FC
:10154000816A9A421BD04AB10AE00268816A5268F5
:10155000C2F308020A80816A891C08E0026972B13C
:101560000268526802F07F020A70816A491C816237
:10157000C18D491E0904090CC18503D019E0026818
:101580005268F1E70168CA6822F02002CA60016867
:10159000CA6822F48072CA6001684A6922F00102B6
:1015A0004A61202180F83E10016B012903D0FFF72A
:1015B00078FE002008BD002101630168CA6822F09E
:1015C0001002CA6001680A68D20602D50A68496832
:1015D0000091818DFFF7A2FCEBE7000070B5044697
:1015E00000680169E26821F44051114301612169F9
:1015F000A0680843616908432168CA6841F20C6326
:101600009A430243CA6020684169A26921F440718B
:10161000114341611E492068884202D1FFF788FAD0
:1016200001E0FFF775FA00EBC00101EB0012606802
:1016300064218000B2FBF0F3B3FBF1F36FF0180606
:101640007343B2FBF0F5B2FBF0F605EB83053223F2
:1016500003EB0515B5FBF1F5B6FBF1F605F0F0056A
:1016600005EB0615B2FBF0F6B2FBF0F0B0FBF1F0C3
:101670006FF01802504306EB800003EB0010B0FB44
:10168000F1F0216800F00F002844886070BD000070
:101690000038014038B58162828500251346044632
:1016A0000564222084F83E00A26B13489062A26B6E
:1016B0001248D062A26B12481063A06B0A464563C1
:1016C0002168A06B091DFEF7B5FF2068016841681D
:1016D000009184F83C50C16841F48071C160206879
:1016E000416941F0010141612068416941F04001D7
:1016F0004161002038BD00006F140008C9140008C3
:1017000025140008F8B52048FFF70AFC1E490868B0
:1017100000684FF00006C04382061C4823D41C4AD0
:10172000176802784FF0020E02EB021202EB42053C
:10173000184A02EB45040EEB4505637803EB020CF7
:101740005B1C63700CF80570037803EB031303EB69
:10175000430302EB43025378642B00D956700B68A5
:101760006FF020021A6009680A68D243D20609D4D1
:101770000278521CD2B202700A2A00D3067008689E
:1017800048680090F8BD00001800002014000020F8
:1017900004380140E4000020FEE70907090E002894
:1017A00004DB00F1E02080F80014704700F00F0027
:1017B00000F1E02080F8141D704702E008C8121FF5
:1017C00008C1002AFAD170477047002001E001C12A
:1017D000121F002AFBD1704710B504460420FFF702
:1017E0007DFB0148046010BD1000002070B5054667
:1017F00000244FF47A7603E0304600F005F8641CCC
:10180000AC42F9D370BD000070B54FF0E024002267
:1018100065690949A36909684843A1699942FCD0EF
:1018200002D2A3EB010302E0A5EB010633441A4404
:101830000B468242F1D370BD100000204820FFF714
:10184000CBFFFFF73FF8FFF7BDFDFFF74DFDFFF7BB
:101850002DFDFFF795FD234C6422A11C2248FFF7C4
:101860000BFD21480168CA6842F02002CA60006886
:10187000C16841F01001C1601C4EDFF874B04FF434
:10188000807A4FF4FA774FF00009A046194D0022F4
:10189000544651462846FFF701F8012204213046FC
:1018A000FEF7FCFF3846FFF7A1FF0122214628463C
:1018B000FEF7F4FF002204213046FEF7EFFF384622
:1018C000FFF794FF0C4D9BF800005C462978884296
:1018D000DCD008F1020000F011F884F8009085F8DF
:1018E0000090D3E7E400002018000020001401401D
:1018F000150000200008014014000020054A111DB9
:1019000013685B06FCD510F8013B0B600378002BD5
:10191000F6D17047003801400000000000000000D0
:101920000102030406070809000000000102030485
:10193000501900080000002018000000BA17000825
:101940006819000818000020C8080000CA1700081D
:101950000100000010000000000000000024F4005E
:0819600000000000000000007F
:0400000508000131BD
:00000001FF
