:020000040800F2
:100000003813002045010008B916000879110008CE
:100010008512000807020008691B000800000000A4
:10002000000000000000000000000000CF180008E1
:100030000902000800000000E9160008D1180008B5
:100040005F0100085F0100085F0100085F01000810
:100050005F0100085F0100085F0100085F01000800
:100060005F0100085F0100085F0100085F010008F0
:100070005F0100085F0100085F0100085F010008E0
:100080005F0100085F0100085F0100085F010008D0
:100090005F0100085F0100085F0100085F010008C0
:1000A0005F0100085F0100085F0100085F010008B0
:1000B0005F0100085F0100085F0100085F010008A0
:1000C0005F0100085F0100085F0100085F01000890
:1000D0005F010008D51A00085F0100085F010008F1
:1000E0005F0100085F0100085F0100085F01000870
:1000F0005F0100085F0100085F0100085F01000860
:100100005F0100085F0100085F0100085F0100084F
:100110005F0100085F0100085F0100085F0100083F
:100120005F0100085F0100085F0100085F0100082F
:10013000DFF80CD000F02AF800480047BD1B00088B
:10014000381300200648804706480047FEE7FEE7D0
:10015000FEE7FEE7FEE7FEE7FEE7FEE7FEE7FEE777
:100160002319000831010008D2B201E000F8012B88
:10017000491EFBD270470022F6E710B513460A4627
:1001800004461946FFF7F0FF204610BD064C074D08
:1001900006E0E06840F0010394E807009847103457
:1001A000AC42F6D3FFF7C8FF541C0008741C0008CB
:1001B00070B58C1810F8015B15F0070301D110F829
:1001C000013B2A1106D110F8012B03E010F8016B56
:1001D00001F8016B5B1EF9D12B0705D40023521ED9
:1001E0000DD401F8013BFAE710F8013BCB1A921C41
:1001F00003E013F8015B01F8015B521EF9D5A1423F
:10020000D8D3002070BDFEE77047704710B590F856
:1002100021100022022905D00421816380F82020CA
:10022000012010BD01680B6823F00E030B6001680C
:100230000B6823F001030B6090F84030C46B012180
:1002400001FA03F3636080F8211080F82020104643
:1002500010BD00002DE9F05F90F821100024022964
:1002600003D004218163012485E001680A6822F03B
:100270000E020A6001680A6822F001020A603F4E1D
:100280003E4FB215DFF8F4C0DFF8F090DFF8ECA0D5
:10029000DFF8E8B0DFF8E4E00168783F1301150209
:1002A000ACF1640CA9F15009AAF13C0AABF1280B9E
:1002B000AEF1140E4FF48018B14227D9B9420ED0D6
:1002C000614512D049451DD0514518D0594518D027
:1002D000714501D1424615E0294EB14201D10122BA
:1002E00010E0274E1436B14201D110220AE0244E0C
:1002F0002836B14206D0224A3C32914201D11A46F8
:1003000000E02A461E49091F0A602BE0B94213D0BB
:10031000614517D0494522D051451DD059451DD0C2
:10032000714501D142461AE0B14202D14FF08072CC
:1003300015E0134EB14201D1012210E0104E1436E7
:10034000B14201D110220AE00D4E2836B14206D04A
:100350000B4A3C32914201D11A4600E02A46074935
:1003600080394A60012180F82110002180F8201096
:10037000416B01B188472046BDE8F09F80000240F4
:10038000080402402DE9F84FDFF8C891002409F174
:10039000040A0AF1040B23460F270BF1040ED1E0E7
:1003A0000125A54006EA0502AA4276D1DFF8A8C1D8
:1003B0004E68A6EB0C0866452BD00DDC032E34D01E
:1003C00005DC36B3012E19D0022E2FD11BE0112EE1
:1003D00016D0122E2AD119E0B8F5881F19D006DCE4
:1003E000B8F5803F15D0B8F5801F1FD111E0B8F5E2
:1003F000001F0ED0B8F5041F18D10AE0CB6815E035
:10040000CB681B1D12E0CB6808330FE0CB680C33C0
:100410000CE08B682BB1012B4FF0080303D0456132
:1004200004E0042302E0056100E00023FF2A01D874
:10043000064601E000F104064FEA840501D9A5F162
:100440002005D6F8008007FA05FC28EA0C0803FA14
:1004500005F548EA0508C6F800804D68ED0070D53E
:100460003E4DAE6946F00106AE61AD6924F003066B
:1004700005F0010500953A4D06EB050CDCF8085037
:10048000A607360F07FA06F825EA0805DFF8D48034
:10049000404503D14FF0000825E052E0DFF8C88066
:1004A000404502D14FF001081DE0DFF8C080404513
:1004B00002D14FF0020816E0DFF8B480404502D1C7
:1004C0004FF003080FE0DFF8AC80404502D14FF059
:1004D000040808E0DFF8A080404502D14FF005088D
:1004E00001E04FF0060808FA06F848EA0508CCF8DB
:1004F00008804D68D9F80060ED034D4601D51643DC
:1005000000E096432E604D68DAF80060AD03554672
:1005100001D5164300E096432E604D68DBF800607D
:10052000ED025D4601D5164300E096432E604D680E
:10053000DEF80060AD02754601D5164300E0964333
:100540002E60641C0A681646E2407FF429AFBDE8BD
:10055000F88F00000004014000001110001002405C
:100560000000014000080140000C01400010014063
:100570000014014000180140001C01400AB1016153
:1005800070470904FBE700000148806870470000DD
:1005900000000020024881680278114481607047A1
:1005A00000000020074810B5016841F0100101600B
:1005B000032000F073F8002000F006F800F024F8A3
:1005C000002010BD0020024070B50D4D04464FF4D0
:1005D0007A712878B1FBF0F00A490968B1FBF0F0B4
:1005E00000F0F6FA48B9102C07D200222146501E1E
:1005F00000F034F800206C6070BD012070BD000078
:10060000000000200C0000200B4808B5816941F073
:1006100001018161816901F001010091C16941F02D
:100620008051C161C06900F080500090034841686A
:1006300021F0E061416008BD00100240000001406F
:10064000002809DB00F01F020121914040098000D1
:1006500000F1E020C0F8001170470000F0B40E4B2C
:100660001B680C46C3F30223C3F10705042D00D910
:100670000425191D072901D2002300E0DB1E0126F5
:1006800006FA05F1491E214099409E40761E16400B
:100690003143F0BC01F069BA0CED00E0064900F00E
:1006A000070208684FF6FF03184040EA0220034A99
:1006B00010430860704700000CED00E00000FA05F0
:1006C0002DE9F0470F46050061D0434E306800F039
:1006D0000700B84209D2306820F007003843306084
:1006E000306800F00700B84251D128683B4C8107C0
:1006F00012D5400703D5606840F4E0606060287858
:10070000000703D5606840F4605060606068A968C5
:1007100020F0F000084360602878C00728D068689F
:10072000012810D02168022810D0890700292EDA6C
:10073000616821F0030101436160FFF725FF8046F6
:1007400041F288390DE021688903EFE78901EDE77F
:10075000FFF71AFFA0EB0801494502D90320BDE8C5
:10076000F0876068696800F00C00B0EB810FEFD192
:10077000306800F00700B8420BD9306820F007005D
:1007800038433060306800F00700B84201D00120E3
:10079000E5E72878400705D56068E96820F4E0605F
:1007A000084360602878000706D56068296920F44E
:1007B000605040EAC100606000F038F86168084AA3
:1007C000C1F30311515CC84006490860064800683F
:1007D000FFF7FAFE0020C2E70020024000100240AE
:1007E0003C1C00080C0000200400002004480549BF
:1007F00000684968044AC1F30221515CC84070474F
:100800000C000020001002404C1C00080448054960
:1008100000684968044AC1F3C221515CC84070476E
:100820000C000020001002404C1C000812A185B0F2
:100830000FC98DE80F0014A0144A00680490516895
:10084000134801F00C03042B10D0082B0ED1C1F378
:100850008343C9031DF803000AD5516804AAC1F3F4
:100860004041515C0A4A5043B0FBF1F005B070477B
:1008700008494843FAE7000002030405060708098F
:100880000A0B0C0D0E0F10100102000000100240A8
:1008900000127A0000093D002DE9F84F040070D0E5
:1008A0002078C04DC00749D06868C0F38100012896
:1008B00007D06868C0F38100022809D16868C003C6
:1008C00006D52868800339D560680028E7D035E070
:1008D0006068B0F5803F0BD010B1B0F5A02F11D0FB
:1008E000286820F480302860286820F4802002E006
:1008F000286840F480302860606890B1FFF744FEBB
:1009000006460AE0286840F480202860F0E700BF2F
:10091000FFF73AFE801B642873D828688003F7D558
:100920000CE0FFF731FE064605E000BFFFF72CFEA6
:10093000801B6428F0D828688003F7D420789A4E6A
:1009400080074FF001094FF0000839D5686810F0B2
:100950000C0F07D06868C0F38100022809D16868CD
:10096000C00306D42868800714D52069012808D15F
:1009700010E02069B0B1C6F80090FFF705FE074609
:1009800005E00AE1FFF700FEC01B0228C4D8286872
:100990008007F7D52868616920F0F80040EAC100B7
:1009A00028600DE0C6F80080FFF7EEFD074604E082
:1009B000FFF7EAFDC01B022823D828688007F7D478
:1009C000207800072CD57948A169D9B1C0F80090EA
:1009D000FFF7DAFD074604E0FFF7D6FDC01B02284B
:1009E0000FD8686A8007F7D571484FF4FA5100684C
:1009F000B0FBF1F0009000BF0098411E0091FAD2C8
:100A00000EE080E0C0F80080FFF7BEFD074604E07E
:100A1000FFF7BAFDC01B022875D8686A8007F7D4B3
:100A20002078400760D5E8690027C00008D4E8694D
:100A300040F08050E861E869012700F080500090A4
:100A40005C480168C90513D40168834641F480718C
:100A50000160FFF799FD824606E000BFFFF794FDB5
:100A6000A0EB0A0064284ED8DBF80000C005F5D5DD
:100A7000E06801280AD008B1052813D0286A20F0C0
:100A800001002862286A20F0040002E0286A40F091
:100A900001002862E06841F2883B98B1FFF774FDDD
:100AA00082460BE0286A40F004002862EEE700BFAF
:100AB000FFF76AFDA0EB0A0159455AD8286A80075A
:100AC000F6D50CE0FFF760FD824605E0FFF75CFD20
:100AD000A0EB0A0159454CD8286A8007F6D41FB10B
:100AE000E86920F08050E861E06988B36968C1F383
:100AF0008101022944D00228C6F8608004D0FFF7A3
:100B000043FD044638E034E0FFF73EFD074604E0CD
:100B1000FFF73AFDC01B02282BD828688001F7D4C4
:100B2000206AB0F5803F05D16868A16820F40030E4
:100B300008436860D4E908010843696821F4741126
:100B400008436860C6F86090FFF71EFD044606E0A3
:100B500025E000BFFFF718FD001B022809D8286810
:100B60008001F7D51BE000BFFFF70EFD001B022838
:100B700002D90320BDE8F88F28688001F4D40EE084
:100B80000128F7D06868226A00F48031914204D1CC
:100B9000616A00F47010884201D00120EAE7002069
:100BA000E8E7000000100240000042428004424298
:100BB0000C000020007000404FF0E021042808697C
:100BC00003D020F004000861704740F00400FAE709
:100BD00010B5401EB0F1807F01D3012010BD4FF051
:100BE000E02460610F21601700F0BFFF0020A061CA
:100BF00007202061002010BD70477047F8B50268DB
:100C000004461068D168536910F00F0F4FF00005CB
:100C100053D003F0010601F4907737435FD0C20749
:100C200005D0CA0503D5226C42F0010222644207B6
:100C300005D5DA0703D0226C42F002022264820753
:100C400005D5DA0703D0226C42F0040222640207C1
:100C500007D501F02002324303D0226C42F0080293
:100C60002264226C002A34D0800604D5880602D57E
:100C7000204600F077FE20684069216CC0F38010A8
:100C8000090700D430B3204600F054FE20684169C3
:100C900049061BD5416921F040014161A06BA8B113
:100CA00058494163A06BFFF7D5FA002811D0A06B1B
:100CB000416B01B0BDE8F040084783060FD58B06B5
:100CC0000DD52046BDE8F84000F04CBE2046FFF7A9
:100CD00094FFF8BD2046FFF790FF2564F8BD266B12
:100CE0002023012E52D1C60650D5CE064ED510680F
:100CF00050680090506940062AD5A16B086840688A
:100D00000004000CEAD0A68D8642E7D9E085886908
:100D1000202818D0D06820F48070D0602068416905
:100D200021F0010141612068416921F040014161E8
:100D300084F83E3025632068C16821F01001C1604D
:100D4000A06BFFF763FAA08DE18D401A81B219E024
:100D5000A08DE18D401A81B2E08D0028BED000291F
:100D6000BCD0D06820F49070D0602068426922F036
:100D70000102426184F83E3025632068C26822F097
:100D80001002C2602046FFF737FFF8BD05062BD5DD
:100D90000D0629D594F83D002128F6D1A068B0F5BC
:100DA000805F01D12069B0B1206A411C21622168B5
:100DB00000784860E08C401E0004000CE084E4D120
:100DC0002068C16821F08001C1602068C16841F0DD
:100DD0004001C160F8BD206A0088C0F3080050607F
:100DE000206A801C2062E5E74006F3D54806F1D56D
:100DF000D168204621F04001D16084F83D3000F0F8
:100E000076F8F8BD2519000870B5040004D094F8F0
:100E10003D00002510B106E0012070BD84F83C5073
:100E2000204600F023F8242084F83D002068C168A3
:100E300021F40051C160204600F0F0FD20680169F6
:100E400021F4904101612068416921F02A0141614A
:100E50002068C16841F40051C1602564202084F8F5
:100E60003D0084F83E00002070BD000030B585B024
:100E70000024009401940294039400681849884265
:100E80002CD11848816941F480418161816901F464
:100E900080410491816941F0040181618069124DB2
:100EA00000F0040004904FF40070009002200190C4
:100EB0000320039069462846FFF764FA2815CDE918
:100EC0000004694628460294FFF75CFA00221146A6
:100ED0002520FFF7C3FB2520FFF7B2FB05B030BD8F
:100EE0000038014000100240000801407047704780
:100EF00070B59F4E96B0012214A9304600F030FC28
:100F00009B4DBDF850104FF4C2609A4C0A35814297
:100F10007DD0ADF85000012214A9304600F04AFC03
:100F200041F6BC3024F8140FADF800004FF4E15046
:100F30006080ADF8020041F68440A080ADF8040066
:100F400041F61A50E080ADF8060000212181ADF88D
:100F500008106181ADF80A10A181ADF80C10E18193
:100F6000ADF80E102182ADF810106182ADF81210AC
:100F7000A182ADF81410E182ADF816103220208362
:100F8000ADF8180064206083ADF81A00C822A2836F
:100F9000ADF81C20E183ADF81E102184ADF82010BF
:100FA0006184ADF82210A184ADF82410E184ADF87D
:100FB00026102185ADF828106185ADF82A10A1858D
:100FC000ADF82C10E185ADF82E102186ADF830106B
:100FD0006086ADF83200A086ADF83400FA20E086D5
:100FE000ADF836004FF4AF702087ADF83800618758
:100FF000ADF83A10A187ADF83C10E187ADF83E108E
:1010000040F20110A4F84000ADF8400000E028E0F4
:1010100041F60600A4F84200ADF842004FF4897092
:10102000A4F84400ADF844004FF45050A4F8460032
:10103000ADF84600A4F84810ADF84810A4F84A10DE
:10104000ADF84A10A4F84C10ADF84C10A4F84E10AE
:10105000ADF84E1028226946284600F0ABFB16B0CA
:1010600070BD28226946284600F07AFBBDF80000D2
:1010700024F8140FBDF802006080BDF80400A080C1
:10108000BDF80600E080BDF808002081BDF80A0028
:101090006081BDF80C00A081BDF80E00E081BDF8B4
:1010A00010002082BDF812006082BDF81400A082FA
:1010B000BDF81600E082BDF818002083BDF81A00C4
:1010C0006083BDF81C00A083BDF81E00E083BDF85E
:1010D00020002084BDF822006084BDF82400A08494
:1010E000BDF82600E084BDF828002085BDF82A0060
:1010F0006085BDF82C00A085BDF82E00E085BDF808
:1011000030002086BDF832006086BDF83400A0862D
:10111000BDF83600E086BDF838002087BDF83A00FB
:101120006087BDF83C00A087BDF83E00E087BDF8B1
:101130004000A4F84000BDF84200A4F84200BDF809
:101140004400A4F84400BDF84600A4F84600BDF8E9
:101150004800A4F84800BDF84A00A4F84A00BDF8C9
:101160004C00A4F84C00BDF84E00A4F84E0076E701
:10117000000007085C0E0020FEE710B51870102074
:101180005870080A9870D970100A18711C465A7164
:101190000621184600F092FAA071000AE0710820BA
:1011A00010BD00002DE9F04186B0002424480094D1
:1011B000019402940394816941F010018161816975
:1011C00001F010010491816941F020018161816980
:1011D00001F020010491816941F00401816181697C
:1011E00001F004010491816941F008018161806985
:1011F000012200F00800134F1502049029463846DA
:10120000FFF7BCF9DFF84080012204214046FFF7D8
:10121000B5F90095032601250396CDE901546946E9
:101220003846FFF7AFF80420CDE90005CDE90246C6
:1012300069464046FFF7A6F806B0BDE8F081000019
:101240000010024000080140001401400C4810B595
:101250000A4901604FF4E1314160002181600C22B4
:10126000C160C0E904128161C161FFF7CDFD0028B2
:1012700003D0BDE81040FEF7C8BF10BD00380140E4
:101280001C020020FEE700002DE9F84FF949FA4A58
:10129000FB4C08781278DFF8E4B3A61E4FF0000983
:1012A000904278D08A4600EB0010F64F00EB4001E8
:1012B00007EB41004178801C891E89B200F0FEF9DD
:1012C0009AF8001001EB011101EB410207EB420318
:1012D000BBF800709A785946BA426ED15A7802EB40
:1012E000030CBCF800C08445F7D1D878032804D09B
:1012F000062836D01028F0D1F1E0E04A4FF003087C
:101300007832177082F8018093F807C000274FEAFF
:101310004C009070988840BA0DE000BFD74A3BF867
:101320001010783202EB47020B0A7F1CD370401C6E
:101330001171FFB280B2822801D2BC45EED8CF48ED
:1013400008EB4701783000F0B9F9CC49783101EB6E
:101350004701C870000A0871052000EB4700C1B2C0
:10136000E2E0988840BA0A3816281BD2DFE800F07D
:101370000B141B20262B303840485058606870787A
:10138000808F979FA7AFD88840BAABF81400208809
:1013900040F0010005E0DAE0D88840BAABF816006A
:1013A00079E020806CE0D88840BAABF818007AE089
:1013B000D88840BAABF81A007DE0B9E0D88840BAC6
:1013C000ABF81C007FE0D88840BAABF81E0082E082
:1013D000D88840BAABF82000208840F04000E0E711
:1013E000D88840BAABF82200208840F08000D8E7C7
:1013F000D88840BAABF82400208840F48070D0E749
:10140000D88840BAABF82600208840F40070C8E7BE
:10141000D88840BAABF82800208840F48060C0E744
:10142000D88840BAABF82A00208840F40060B8E7BA
:10143000D88840BAABF82C00208840F48050B0E740
:10144000D88840BAABF82E00208840F40050A8E7B6
:10145000D88840BAABF83000208840F48040A0E73C
:10146000D88840BAABF83200208840F4004098E7B2
:10147000D88840BAABF83400608840F00100608042
:10148000981C114600F0CAFB0120307050E0D8884B
:1014900040BAABF83600208840F0020081E7D888D7
:1014A00040BAABF83800208840F0040079E7D888CB
:1014B00040BAABF83A00208840F0080071E7D888BD
:1014C00040BAABF83C00208840F0100069E7D888AB
:1014D00040BAABF83E00208840F0200061E79888D1
:1014E000DA79009240BA0546002796F801C093F8D1
:1014F00008800DE003EB070CBF1CBCF809C0FFB26D
:101500009CFA9CFC21F810C0401C80B24FF0010CEA
:10151000B845EFD8594B86F801C09BF800007833E6
:101520002946FFF72AFE01465448783000F076FB42
:101530009AF80010491CC9B28AF800100A2906D38B
:101540008AF800904FF47F714E48FEF714FE307811
:1015500001287ED120884949C20701F1140107D032
:101560000122494800F026F9208820F001006DE0B2
:10157000820708D544480122801C00F01BF920880E
:1015800020F0020062E0420708D53F480122001D1A
:1015900000F010F9208820F0040057E0020708D579
:1015A00039480122801D00F005F9208820F008004C
:1015B0004CE0C20608D534480122083000F0FAF8A1
:1015C000208820F0100041E0820608D52E48012234
:1015D0000A3000F0EFF8208820F0200036E04206C4
:1015E00008D5294801220C3000F0E4F8208820F0CA
:1015F00040002BE0020608D5234801220E3000F0FF
:10160000D9F8208820F0800020E0C20508D51E48C7
:101610000122103000F0CEF8208820F4807015E010
:10162000820509D518480122123000F0C3F820883D
:1016300020F400700AE00CE0400508D512480122B1
:10164000143000F0B7F8208820F48060208086F8FD
:101650000090707801280AD10B480BEB4501143833
:1016600000EB4500009A00F0A5F886F80190BDE86F
:10167000F88F000015000020140000205C0E0020F0
:1016800018000020600200200A0007080948012114
:1016900020F8021B4FF4165120F8021B40F2622181
:1016A00020F86A1B002120F83619018741878187BD
:1016B000C18770475C0E00207047000070B5094D6F
:1016C000FF231A4605F5807606E000BF10F8014BAF
:1016D00054402A5D5A40335D491E89B2F6D242EA2F
:1016E000032070BD1C0000207047000030B5044688
:1016F00045F6FF75284600F04DF8002812D10A4B38
:10170000186940F0020018615C61186940F04000FF
:101710001861284600F03EF8012803D0196921F02D
:101720000201196130BD0000002002400748C06876
:10173000C10701D001207047410701D50220704741
:10174000C00601D5032070470020704700200240EA
:101750000248016941F080010161704700200240A8
:1017600010B5002306E000BF30F8024B21F813400B
:101770005B1C9BB29342F7D310BD000003480249A3
:1017800041600349416070472301674500200240E2
:10179000AB89EFCD00B50246FFF7C8FF012803D0A3
:1017A000002A00D1FF2000BD521E1204120CF3D1FA
:1017B000F8E700002DE9F04F1546A0F100628A46D7
:1017C0008346B2F5002F52D2FFF7D8FFC2F3490685
:1017D000D70AC6F58064A54200D82C46DFF894905D
:1017E0004FF0006000EBC72080464FF48062214933
:1017F000FFF7B6FF00204FF6FF7106E0331839F807
:1018000013208A4203D1401C80B2A042F6D3A042EA
:1018100025D24046FFF76AFF0020494607E000BF97
:101820003AF810208319401C21F8132080B2A042FE
:10183000F6D3104940464FF4806200BF00F036F8FE
:10184000A54210D0281B0AEB440AA344002685B207
:101850004FF480647F1CA542C2D82C46C0E72246C4
:1018600051465846EAE7BDE8F04FFFF771BFBDE8C3
:10187000F08F00005C06002030B505460C46FF20C6
:10188000FFF788FF00280ED1074B186940F00100D0
:1018900018612C80FF20FFF77DFF012803D0196914
:1018A00021F00101196130BD00200240F0B516465B
:1018B0000F460546002407E037F814102846FFF7C6
:1018C000DBFF641CA4B2AD1CB442F5D3F0BD70477D
:1018D000FEF760BE30B58FB028216846FEF74BFC9E
:1018E00014210AA8FEF747FC01210804CDE90010E5
:1018F0000024029402250491CDE907504FF4E01032
:1019000009906846FEF7C8FF0F20CDE90A05680276
:10191000CDE90C4002210AA80E94FEF7D1FE0FB0CB
:1019200030BD704710B5406A0021C185C184FFF702
:1019300064F910BD0168CA6822F49072CA60016837
:101940004A6922F001024A61016B012904D1016850
:10195000CA6822F01002CA60202180F83E100021DF
:101960000163704708B590F83E10222901D002208B
:1019700008BD82684FF480539A4201D1016921B1B8
:10198000816A9A421BD04AB10AE00268816A5268B1
:10199000C2F308020A80816A891C08E0026972B1F8
:1019A0000268526802F07F020A70816A491C8162F3
:1019B000C18D491E0904090CC18503D019E00268D4
:1019C0005268F1E70168CA6822F02002CA60016823
:1019D000CA6822F48072CA6001684A6922F0010272
:1019E0004A61202180F83E10016B012903D0FFF7E6
:1019F0007DFA002008BD002101630168CA6822F059
:101A00001002CA6001680A68D20602D50A684968ED
:101A10000091818DFFF7F0F8EBE7000070B5044608
:101A200000680169E26821F44051114301612169B4
:101A3000A0680843616908432168CA6841F20C63E1
:101A40009A430243CA6020684169A26921F4407147
:101A5000114341611E492068884202D1FEF7D6FE3B
:101A600001E0FEF7C3FE00EBC00101EB001260686D
:101A700064218000B2FBF0F3B3FBF1F36FF01806C2
:101A80007343B2FBF0F5B2FBF0F605EB83053223AE
:101A900003EB0515B5FBF1F5B6FBF1F605F0F00526
:101AA00005EB0615B2FBF0F6B2FBF0F0B0FBF1F07F
:101AB0006FF01802504306EB800003EB0010B0FB00
:101AC000F1F0216800F00F002844886070BD00002C
:101AD00000380140F8B52048FFF790F81E49086823
:101AE00000684FF00006C04382061C4823D41C4AFD
:101AF000176802784FF0020E02EB021202EB420569
:101B0000184A02EB45040EEB4505637803EB020C23
:101B10005B1C63700CF80570037803EB031303EB95
:101B2000430302EB43025378642B00D956700B68D1
:101B30006FF020021A6009680A68D243D20609D4FD
:101B40000278521CD2B202700A2A00D306700868CA
:101B500048680090F8BD00001C020020140000201E
:101B60000438014060020020FEE70907090E002842
:101B700004DB00F1E02080F80014704700F00F0053
:101B800000F1E02080F8141D704702E008C8121F21
:101B900008C1002AFAD170477047002001E001C156
:101BA000121F002AFBD1704710B504460420FFF72E
:101BB00003F80148046010BD100000204820FFF722
:101BC000F3FFFEF7EFFCFFF761FDFFF791F9FFF779
:101BD00081FEFFF7E7FAFFF739FB0D480168CA6895
:101BE00042F02002CA600068C16841F01001C16083
:101BF00000224FF480710748FEF7C0FC0022042148
:101C00000548FEF7BBFC00BFFFF73EFBFCE700000A
:101C10001C0200200008014000140140064A10B5D3
:101C2000131D05E014686406FCD510F8014B1C6018
:101C3000491EC9B2F6D210BD0038014000000000B4
:101C4000000000000102030406070809000000006C
:101C500001020304741C0008000000201C020000A4
:101C6000B0010008A01D00081C0200201C1100008B
:101C70009A1B000832018210E324F42808C1814035
:101C800001C0804104690C2908E918A91C091A300F
:101C9000091638093660092E70092F6000FF00C050
:101CA000C101C30302C2C60607C705C5C404CC0CE4
:101CB0000DCD0FCFCE0E0ACACB0BC90908C8D81854
:101CC00019D91BDBDA1A1EDEDF1FDD1D1CDC14D464
:101CD000D515D71716D6D21213D311D1D010F03094
:101CE00031F133F3F23236F6F737F53534F43CFCA4
:101CF000FD3DFF3F3EFEFA3A3BFB39F9F83828E854
:101D0000E929EB2B2AEAEE2E2FEF2DEDEC2CE42423
:101D100025E527E7E62622E2E323E12120E0A06093
:101D200061A163A3A26266A6A767A56564A46CAC63
:101D3000AD6DAF6F6EAEAA6A6BAB69A9A86878B8D3
:101D4000B979BB7B7ABABE7E7FBF7DBDBC7CB474E3
:101D500075B577B7B67672B2B373B17170B0509093
:101D600091519353529296565797559594549C5C23
:101D70005D9D5F9F9E5E5A9A9B5B995958988848D3
:101D800049894B8B8A4A4E8E8F4F8D4D4C8C4484A3
:101D900085458747468682424383418180020040D1
:0400000508000131BD
:00000001FF
