:020000040800F2
:1000000060F60120C502000881400008BB360008E8
:100010003940000811130008E977000800000000CB
:10002000000000000000000000000000CF70000889
:10003000E914000800000000B50D00085571000823
:10004000FF020008FF020008FF020008FF0200088C
:10005000FF020008FF020008FF020008FF0200087C
:10006000FF020008FF020008FF020008FF0200086C
:10007000FF020008FF020008FF020008FF0200085C
:10008000FF020008FF020008FF020008FF0200084C
:10009000FF020008FF020008FF020008FF0200083C
:1000A000FF020008FF020008FF020008FF0200082C
:1000B000D17100083572000841720008FF02000883
:1000C000FF020008FF020008FF020008FF0200080C
:1000D000FF0200083D770008B1770008FF02000822
:1000E000FF020008FF020008FF020008FF020008EC
:1000F000FF020008FF020008FF020008FF020008DC
:10010000FF020008FF020008FF020008FF020008CB
:10011000FF020008FF020008FF020008FF020008BB
:10012000FF020008FF020008FF020008FF020008AB
:10013000FF02000839150008FF020008FF0200084E
:10014000FF020008FF020008FF020008FF0200088B
:10015000FF020008FF020008FF020008FF0200087B
:10016000FF020008FF020008FF020008FF0200086B
:10017000FF020008FF020008FF0200080000000064
:10018000FF020008FF020008FF020008FF0200084B
:10019000FF020008FF020008FF020008FF0200083B
:1001A000FF020008FF020008FF02000800F002F84A
:1001B00000F071F80AA090E8000C82448344AAF190
:1001C0000107DA4501D100F066F8AFF2090EBAE88E
:1001D0000F0013F0010F18BFFB1A43F0010318477B
:1001E0004C7301006C7301000A444FF0000C10F8CE
:1001F000013B13F0070408BF10F8014B1D1108BFA5
:1002000010F8015B641E05D010F8016B641E01F844
:10021000016BF9D113F0080F1EBF10F8014BAD1C94
:100220000C1B09D16D1E58BF01F801CBFAD505E0B2
:1002300014F8016B01F8016B6D1EF9D59142D6D30C
:10024000704700000023002400250026103A28BF34
:1002500078C1FBD8520728BF30C148BF0B60704738
:10026000642900F04581752900F04281782900F069
:100270007B81632900F05F84732900F0648400208F
:1002800070471FB512F013FB9DE8030000F092FBCE
:100290001FBD10B510BD00F0C0FC1146FFF7F1FF07
:1002A0000AF0A4FD00F0DEFC03B4FFF7F2FF03BC8C
:1002B00007F0DFFA30BF72B6704762B6704780F35E
:1002C0000888704711488047DFF84400016841F40E
:1002D00070010160BFF34F8FDFF83800016821F033
:1002E00040410160BFF36F8F0B480047FEE7FEE718
:1002F000FEE7FEE7FEE7FEE7FEE7FEE7FEE7FEE7D6
:1003000006480749074A084B704700007D710008FE
:1003100088ED00E034EF00E0AD01000860F001205E
:1003200060F6012060F2012060F2012072B6704791
:1003300062B67047EFF3108072B6704780F3108892
:10034000704730BF704720BF7047B0FA80F07047E9
:1003500090FAA0F0B0FA80F0704790FAA0F07047E1
:10036000704770B5064600F009FB056806F10B0002
:1003700020F00704B4429CBF002070BD2B466A6881
:10038000BAB11068A04210D304F1080188423CBF02
:100390005068586007D35168101941601168091BF3
:1003A000016058601460101D70BD13465268002A29
:1003B000E7D12146284600F0E9FA0028DED170BDD9
:1003C00070B50446051F00F0D9FA0068002C14BF70
:1003D000446870BD002C18BFAC423CBF2046646826
:1003E000F8D301680A18AA4218BF456003D12A68E9
:1003F00005461144016028684119A1421CBF6C6088
:1004000070BD6168696021680844286070BD0000A3
:100410000FB4044910B503AA029800F099FB10BC70
:100420005DF814FB240000200FB41CB5074B06AA8E
:100430007B4469460090059800F05BFB002069460C
:1004400000F06AFB1CBC5DF814FB0000E506000030
:1004500070B5044685690068C10601D5302600E004
:100460002026C00707D070BDD4E90121304690474F
:10047000206A401C20626D1EF6D570BD70B5044622
:1004800085690078C00707D170BDD4E9012120201B
:100490009047206A401C20626D1EF6D570BD70B575
:1004A0000C460546012A05D02878800600D5EA6961
:1004B000002302E0012305E05B1C934202D2E05CD2
:1004C0000028F9D1A869E618C01AA861286A18445A
:1004D00028622846FFF7BCFF04E0D5E9012114F8A3
:1004E000010B9047B442F8D32846FFF7C7FF70BD11
:1004F0002DE9F0410646002410687529314616A5FD
:1005000010D0AFF30080002802DA404213A507E0C4
:1005100031688A0701D512A502E0490704D511A563
:10052000012401E0AFF3008000210A2206F1240734
:1005300009E0B0FBF2FCB0FBF2F302FB1C00303030
:1005400078541846491C0028F3D123462A463046E1
:10055000BDE8F04100F06FBA000000002D0000007F
:100560002B0000002000000070B504460D46214617
:100570001068AFF300802188090502D50F4A7A443C
:1005800002E00E4A7A440E32002104F1240305E011
:1005900000F00F060009965D5E54491C0028F7D153
:1005A00020780023000704D5702D02D009B1022362
:1005B00011322046BDE8704000F03DBAB26D010036
:1005C0002DE9F05F894604464FF0000ADFF874B168
:1005D000FB44C0F820A02046E1688847002874D07A
:1005E000252806D0D4E901219047206A401C2062CA
:1005F000F1E700265F462046E16888472028054647
:1006000007DB312D05D2781910F8200C08B106430C
:10061000F1E7B00701D526F00406C4F81CA00027B6
:10062000C4F818A02A2D09D0284607F01BF938B3C2
:1006300004EB8708303DC8F8185019E059F8041B3E
:10064000204604EB87029161E1688847012F054647
:1006500018D1E069002820DA26F020061DE0D8F83D
:10066000180000EB800005EB40003038C8F8180097
:100670002046E1688847054607F0F4F80028EED1E7
:10068000012F0AD02E2D08D12046E16888477F1C13
:100690000546022F46F02006C4DBA069002803DAD5
:1006A000404246F00106A061F00701D026F0100696
:1006B0006C2D0BD0682D09D04C2D39D06A2D35D03A
:1006C000742D35D07A2D33D016E038E0E1682F460E
:1006D00020468847B842054609D16C2F26D04FF4F2
:1006E0008060E168064320468847054604E06C2F99
:1006F0001AD04FF4807006430DB3A5F141001928BC
:1007000002D8203546F400664A462946204626602F
:100710004E46FFF7A5FD80B101280BD0F61D26F04F
:10072000070000F1080956E74020E4E78020D8E7F9
:100730000020D6E706F104094DE7284652E7206A73
:10074000BDE8F09F886D010010B5002000F012FA9E
:10075000FFF79FFDBDE81040012007F08AB840EA8E
:10076000010310B59B070FD1042A0DD310C808C987
:10077000121F9C42F8D020BA19BA884201D9012030
:1007800010BD4FF0FF3010BD1AB1D30703D0521C7B
:1007900007E0002010BD10F8013B11F8014B1B1BB6
:1007A00007D110F8013B11F8014B1B1B01D1921E20
:1007B000F1D1184610BD032A40F2308010F0030C2E
:1007C00000F0158011F8013BBCF1020F624498BFA4
:1007D00011F801CB00F8013B38BF11F8013BA2F141
:1007E000040298BF00F801CB38BF00F8013B11F0BC
:1007F000030300F02580083AC0F0088051F8043B5C
:10080000083A51F804CBA0E80810F5E7121D5CBFC8
:1008100051F8043B40F8043BAFF30080D20724BFFB
:1008200011F8013B11F801CB48BF11F8012B24BF8F
:1008300000F8013B00F801CB48BF00F8012B7047DE
:1008400010B5203AC0F00B80B1E81850203AA0E86B
:100850001850B1E81850A0E81850BFF4F5AF5FEA9F
:10086000027C24BFB1E81850A0E8185044BF18C952
:1008700018C0BDE810405FEA827C24BF51F8043BF9
:1008800040F8043B08BF7047D20728BF31F8023B4D
:1008900048BF11F8012B28BF20F8023B48BF00F8E1
:1008A000012B70474FF0000200B513469446964660
:1008B000203922BFA0E80C50A0E80C50B1F1200173
:1008C000BFF4F7AF090728BFA0E80C5048BF0CC021
:1008D0005DF804EB890028BF40F8042B08BF70477F
:1008E00048BF20F8022B11F0804F18BF00F8012BF1
:1008F000704700004FF0013C50F8042B51F8043BC6
:100900009A4221D1A2EB0C03934313EACC1317D1E3
:1009100050F8042B51F8043B9A4215D1A2EB0C037A
:10092000934313EACC130BD150F8042B51F8043B3A
:100930009A4209D1A2EB0C03934313EACC13DBD008
:100940004FF00000704700BFD01A01BAB1FA81F130
:1009500001F0180122FA01F0CB40C1F12001DBB215
:10096000C0B2C01A2CFA01F3D11A914311EAC31193
:10097000E6D170477047704770477047004870472E
:1009800004F00120704770477047704738B504463F
:100990000A4600206946AFF30080002808BF38BD32
:1009A00002460099204600F0F5F8012038BD0120EC
:1009B00000F02CB9F8B5AFF30080054600200C46D6
:1009C000102000BF0646A819A0420DD9324669463C
:1009D0000020AFF30080070008BF00F017F900986F
:1009E000A04218BF0546C419FFF7C8FF05600746B7
:1009F000F01D20F007004619284600F00AF8B4421E
:100A000008BFF8BDA21B31463868BDE8F84000F0C9
:100A1000C1B800210160C0E9011070471020704783
:100A200010B500F0B3F8006810BD10B5044600F032
:100A3000ADF8046010BD2DE9F0470D469946924689
:100A4000044600F124080168880604D5E06921F015
:100A50001001216000E00120A84201DD471B00E0F9
:100A60000027A1697A1902EB0900081AA061207811
:100A7000C00602D42046FFF7EBFC002608E0D4E9CC
:100A800001211AF806009047206A401C761C20625B
:100A90004E45F4DB2078C0060AD52046FFF7D8FC87
:100AA00006E0D4E9012130209047206A401C2062F2
:100AB000381EA7F10107F4DC07E0D4E9012118F89A
:100AC00005009047206A401C2062281EA5F1010500
:100AD000F3DC2046FFF7D2FC2078000602D5022086
:100AE000BDE8F0870120FBE701694A1C0261087834
:100AF000704700B58FB0CDE901310021059105495E
:100B00007944CDE9031011466846FFF759FD0FB04F
:100B100000BD0000E5FFFFFF0A6802F8010B0A6054
:100B2000704710B5436913B1AFF3008001E0FFF7E0
:100B3000B6FC012010BD127800F124010A700022D9
:100B40004A700122EDE711684FF0FF32E9E700003B
:100B5000074B70B50D467B44FFF7CBFF0446284694
:100B600000F032F810B14FF0FF3070BD204670BD7C
:100B7000C788000010B500F031F8BDE8104000F063
:100B800027B8000000487047FCEF0120004870477C
:100B9000FCEF0120034640688C46002818BF8842BD
:100BA0003CBF03464068F8D318681844884207D011
:100BB0000CF1030020F00700001D411A521A0146F3
:100BC000081D0A60FFF7FCBB007B00F08000704747
:100BD000002801D006F04DBE7047000010B500217E
:100BE00002A000F048F8012010BD00005349474121
:100BF0004252543A2041626E6F726D616C2074658E
:100C0000726D696E6174696F6E00000010B500F05E
:100C10004BF8BDE81040FFF7DBBF7546FFF7B2FFAA
:100C2000AE4605006946534620F00700854618B0D9
:100C300020B5FFF765FBBDE820404FF000064FF000
:100C400000074FF000084FF0000B21F00701AC4601
:100C5000ACE8C009ACE8C009ACE8C009ACE8C00920
:100C60008D46704710B50446AFF300802046BDE8BE
:100C70001040FFF719BB70B505460C460A2000E08E
:100C80006D1C06F0F7FD35B128780028F8D102E098
:100C9000641C06F0EFFD14B120780028F8D1BDE8FF
:100CA00070400A2006F0E6BD10B5012805D00021ED
:100CB00003A0FFF7E0FF012010BD09A1F8E7000045
:100CC00053494752544D454D3A204F7574206F6635
:100CD0002068656170206D656D6F7279000000009D
:100CE0003A2048656170206D656D6F727920636F81
:100CF0007272757074656400EFF3098141B1F1EEB1
:100D0000101A40F8041D20ED200A3E490A681060C0
:100D10007047B0EC200A02C8E1EE101A3A490A689E
:100D20001060704772B64EF62250CEF2000040F2CC
:100D3000FF01C0F2000101704FF0000080F309884C
:100D400004F0D2FA40F28030C2F20000016881F370
:100D5000088840F2FE20C2F2000040F2FF21C2F2F9
:100D600000010A78027040F27835C2F2000540F2C4
:100D70007C31C2F200010A682A60106880F3098899
:100D8000EFF3148040F0020080F31488BFF36F8FFC
:100D9000BDE8F00F0FBCBDE8005006BC62B60847C6
:100DA0001A484FF080510160704718484FF0805149
:100DB0000160704772B6EFF3098020E9F00F40F24E
:100DC0007835C2F200052E683060744604F08CFA63
:100DD00040F2FE20C2F2000040F2FF21C2F2000108
:100DE0000A78027040F27C31C2F200010A682A607F
:100DF00044F0F40E1068B0E8F00F80F3098862B692
:100E000070470000780300207C03002004ED00E020
:100E10004A4910B5D1F8042322F44032C1F8042322
:100E2000D1F8042343681A43C1F8042301684A68CF
:100E300022F480724A6001684A68036942EA032228
:100E40004A6001684A6822F040724A6001684A6854
:100E500083681A434A6001688A6822F400628A60E3
:100E600001688A68C3681A438A60C16A6FF0706259
:100E7000D14201688A6822F070628A6001688A68DB
:100E80000CD0C36A1A438A6001688A6822F0405213
:100E90008A6001688A68036B1A4301E022F04052BD
:100EA0008A6001688A6822F002028A6001688A68A2
:100EB000836942EA43028A60416A002901684A68FC
:100EC00015D042F400624A6001684A6822F4604228
:100ED0004A6001684B684FF46044826A94FAA4F453
:100EE000B4FA84F4521EA24013434B6002E022F491
:100EF00000624A600168CA6A22F47002CA6201682C
:100F0000CA6A038C0E4C04EB03531A43CA6201688D
:100F10008A6822F400728A6001688A68C36942EABA
:100F200043228A6001688A6822F480628A600168CC
:100F30008A68406942EA8020886010BD0020014034
:100F40000000F0FF2DE9F04714212DED028B86B053
:100F50006846FFF7A7FC01224621052000F0D4FBDC
:100F60000190022246210A2000F019FC029003227F
:100F70003221092000F0EFFB0422049032211046B8
:100F800000F0E9FB00909DED010A0120B8EE400A57
:100F900006F072FC10EE100A11F018FC9FEDC41B55
:100FA00053EC112B11F028FB10F0EAFEC24DE86360
:100FB0009DED020A0220B8EE400A06F05DFC10EE3C
:100FC000100A11F003FC9FEDBD1B53EC112B10F028
:100FD00009FF10F0D5FE28649DED040A0320B8EE49
:100FE000400A06F049FC85ED110A95ED0F8AB5EE31
:100FF000C08AF1EE10FA0DDDD5ED100AF5EEC00A4B
:10100000F1EE10FA06DD68EE200AFCEEE00A10EEC2
:10101000900A288310EE100AAA4FB84203DD9FED14
:10102000AA0A85ED110A95ED100AF2EE040AA74C02
:1010300020EE201ABCEEC00ABCEEC11A11EE100A56
:1010400028EE201A2080009800EB4010BCEEC11A58
:10105000C0F30F30608011EE100AA08095ED111AD8
:1010600061EE200AFCEEE08A18EE900AE08010EEB5
:10107000100A2081009811F0E2F89FED951B53ECC7
:10108000112B11F0EFF89FED941B53EC112B11F085
:10109000E9F811F0A7F8BCEEC80A60814FF6FF72BC
:1010A00010EE100AA08118EE900AE081288B00EB68
:1010B000800102EA410121826082894800F028FD16
:1010C00095ED0F0A874A10EE101A874800269142C4
:1010D00005DABCEEC00A10EE101A698205E010EEC7
:1010E000101A914201DDC0F8AC6295ED100A7F49FB
:1010F00010EE102A8A4205DABCEEC00A10EE101A71
:10110000A98205E010EE102A8A4201DDC0F8AC6227
:1011100095ED110A10EE101AB94205DABCEEC00ABC
:1011200010EE100AE88205E010EE101AB94201DD57
:10113000C0F8AC626E486F4F01240078012816D1C8
:101140007888E88340F252312C85884200D2688347
:10115000698B40F6B8304143688A00EB400080005C
:10116000B1FBF0F081B22982287838B1E981624878
:101170004FF0020A0078012809D017E0A8880A3049
:1011800080B2A880884200D12C70E881EFE7B8884F
:1011900028844FF47A71A5F828A04843698AB0FBE7
:1011A000F1F081B22982687848B1E98153484FF063
:1011B00003084FF00C090078012809D029E0E888DD
:1011C0000A3080B2E880884200D16C70E881EDE797
:1011D0003889A88400EB4001B1FBF9F0A5F828801C
:1011E00011F02DF841EC100B06F0FFFA9FED441BB7
:1011F00051EC100B53EC112B11F034F810F0F2FFFE
:1012000080B2A883698AB0FBF1F12982E87828B11D
:10121000E9813D480078012809D018E068890A3042
:1012200080B26881884200D1EC70E881F1E7F888EB
:10123000688404212985B8FBF0F1B1FBF9F04FF483
:101240007A7148432882A97841B1E881E881E88928
:1012500040F2E93188420AD9E9810AE029890A3154
:1012600089B22981814200D1AC70E981EEE700B9F1
:10127000EE81288D40F271214843E98901EB00108D
:1012800080B2A881296B00290BD105F0C1FE1F494E
:10129000E884D1F8800248B10020C1F88002C5F886
:1012A00030A006B0BDEC028BBDE8F0870120F4E76A
:1012B00020D26F5F07CE0F40400000206666666652
:1012C0006666F63F0000C8430000000028EA0120DF
:1012D0006666666666660A40000000000000303FF1
:1012E0002028002000802244008043420080544493
:1012F0008A000020F0EA01208B0000208C000020F2
:101300000000000000408F408D000020000043429C
:10131000FEE70000054910B50020486000F0A6F87F
:1013200000F006F8BDE8104000F086B89C020020EE
:101330002DE9F041104F002635463E807E80BE608C
:10134000FE607E61BE613E61FEF7F4FF80460024D0
:101350007E6100F049F800F057F87869641C2404B5
:101360000544240CF4D0C7E904564046BE61BDE8EC
:10137000F041FEF7E3BF00009C0200200349096929
:10138000884201D9401A7047002070479C02002013
:1013900010B5FEF7CFFF04494C69FEF7CFFF20469A
:1013A000BDE81040FFF7EABF9C02002010B5FFF730
:1013B000EFFF0446FEF7BEFF034A00215161FEF72E
:1013C000BDFF204610BD00009C02002010B5FEF7B6
:1013D000B1FF04498C69FEF7B1FF2046BDE810401B
:1013E000FFF7CCBF9C02002010B5064C2088401CA3
:1013F0002080608810B900F051F8A0606088401C1F
:10140000608010BD9C02002010B50A4C6088401E10
:101410000004000C60800CD100F040F8E060A1688E
:10142000401A6169814200D26061A169814200D2A3
:10143000A06110BD9C02002010B5FEF77BFF0446A2
:10144000FFF7D2FF1021054802F0F7FDFFF7DCFFA0
:101450002046BDE81040FEF771BF0000DCD501203A
:1014600001494860704700009C02002010B501F05F
:101470007FF908490A6842F080720A600649002232
:101480004A600A6842F001020A60BDE81040FFF7B6
:10149000E7BF0000FCED00E0001000E001484068FC
:1014A00070470000001000E000B585B004AB0022DA
:1014B000094902208DE80F00642308A1094804F0BF
:1014C00037F8BDF81000002803D104A9054804F03E
:1014D000A1F805B000BD0000D9080108746D723193
:1014E0000000000064280020704738B504460068FA
:1014F00000F58050816941F480118161206800F518
:10150000805080690090012000F00CFB2068009959
:1015100000F58050816138BD02680021002A08DB97
:101520000268120405D40268D20502D50068C0F32F
:101530000D4108467047000010B502F07DFE0A4CD0
:1015400001E009F013FBA06AFFF7E6FF0028F8D1DD
:101550002068402100F58050416189024161BDE869
:10156000104002F079BE00008C2700202DE9F041E8
:10157000044621B14FF40060E060C000A060E06963
:101580000026002861D035462068402702683A4985
:101590000A40D4E902131943294341F4007111436D
:1015A000016020680568012000F0BCFA2068056031
:1015B0002068476020684568012000F0B3FA206881
:1015C0004560206886602068C660206881694FF6A3
:1015D0004172114041F080018161206885690120DC
:1015E00000F0A0FA206885612068C6612068C5699E
:1015F000012000F097FA2068C561206800F580504E
:1016000081691E4A11401E4A0A438261206800F522
:1016100080508569012000F085FA206800F580502F
:1016200085612068174900F580500160206800F549
:1016300080500568012000F075FA206800F58050A0
:101640000560A069012803D009E04FF480659BE79D
:10165000206800F58050C1690B4A1143C16160697F
:101660000A4A818811640178D0F8010041EA00201B
:101670005064BDE8F08100000F8120FF233FDEF8B9
:10168000040020028020C1024000010000800240CE
:1016900010B54FF4A07100200AF0CCF80A4CA0213C
:1016A000206000200AF0C6F8606043F68831002010
:1016B0000AF0C0F8A06041F6C45100200AF0BAF860
:1016C000E060002010BD0000300000200D4910B582
:1016D000086001204860072088600020C86001F190
:1016E000100000F08BF80748103000F0CDF90548E5
:1016F0000A21103000F092F90248103000F028F969
:1017000080B210BD102800202DE9F0478146904698
:101710000E4600258800FEF724FE074600240CE054
:1017200041464846FFF7D2FF47F824004146484665
:10173000FFF7CCFF641C0544E4B2B442F0D3B5FB20
:10174000F6F02121B0FBF1F184B23846FEF738FE05
:101750002046BDE8F0872DE9F047814690460E46C9
:1017600000258800FEF7FDFD074600240CE04146F9
:101770004846FFF7ABFF47F8240041464846FFF7CD
:10178000A5FF641C0544E4B2B442F0D3B5FBF6F007
:1017900084B23846FEF714FE2046BDE8F0872DE9F6
:1017A000F047814690460E4600258800FEF7D9FD99
:1017B000074600240CE041464846FFF787FF47F8FC
:1017C000240041464846FFF781FF641C0544E4B20B
:1017D000B442F0D3462138460AF00CF9C0B2301AB0
:1017E000B5FBF0F02121B0FBF1F1401A84B238468C
:1017F000FEF7E6FD2046BDE8F087000078B500243E
:10180000009490F83C20012A19D0012280F83C2055
:101810000A6807250368092A13D9DE680A3A02EB29
:1018200042029540AE43DE600A788B680A3A02EBCA
:10183000420293400268D5682B43D36010E0022037
:1018400078BD1E6902EB42029540AE431E610A78E4
:101850008B6802EB42029340026815692B431361C7
:101860004A681F25072A13D203685E6B521E02EBDB
:1018700082029540AE435E630A8893B20A79521E93
:1018800002EB820293400268556B2B43536327E0BF
:1018900003680D2A12D21E6BD21F02EB8202954002
:1018A000AE431E630A8893B20A79D21F02EB82020A
:1018B00093400268156B2B43136311E0DE6A0D3A07
:1018C00002EB82029540AE43DE620A8893B20A7947
:1018D0000D3A02EB820293400268D56A2B43D36231
:1018E000174B02689A4208D10A68122A05D1D3F828
:1018F000042342F48002C3F8042302689A421BD1F5
:10190000104D0A68AA4201D0112A15D1D3F8042338
:1019100042F40002C3F804230968A9420CD10A4921
:101920000A4A0968B1FBF2F101EB8101490000E0CC
:10193000491E00910029FBD180F83C40002078BD71
:1019400000200140120000100000002040420F0063
:101950000068C06C704770B5040004D094F83D0076
:10196000002510B106E0012070BD84F83C502046EF
:1019700000F00EF8022084F83D002046FFF748FAF8
:101980002564012084F83D0084F83C50002070BD9F
:1019900030B51E4887B00025016841F480710160B0
:1019A000006800F48070059018481438016841F010
:1019B00001010160016801F001010591016841F038
:1019C00002010160016801F002010591016841F026
:1019D000040101600068032400F0040005907120F8
:1019E0008DE8310069460A4800F0FCFB0094694626
:1019F0000848CDE9014500F0F5FB09208DE83100EC
:101A00006946054800F0EEFB07B030BD443802409F
:101A10000000024000040240000802402DE9F041AD
:101A2000044600680D4681684FF0000749050AD555
:101A30008068C00507D5042084F83D0084F83C7018
:101A40000120BDE8F08100F0C5FC06460DE0681CF1
:101A50000BD025B100F0BEFC801BA84205D90320A5
:101A600084F83D0084F83C70EBE72068006880074C
:101A7000EDD594F83D00252804D0152084F83D00CC
:101A80000020DEE73520F9E708B50022009290F843
:101A90003C1001290ED0012180F83C1090F83D1037
:101AA000222909D0122180F83D1001688B68DB07DC
:101AB00004D013E0022008BD3221F4E78B6843F024
:101AC00001038B600F49104B0968B1FBF3F101EB87
:101AD000410100E0491E00910029FBD10B4980F82B
:101AE0003C20D1F804230068D20601D0884207D1F7
:101AF000816811F0405F03D1816841F080418160CD
:101B0000002008BD0000002040420F0000200140DE
:101B100001688A6822F001028A60012180F83D1084
:101B20000020704731B500F055FC044600F052FC2F
:101B30000099001B8842F9D338BD2DE9F04390F895
:101B400045500024012D0DD04FF0010980F845903B
:101B5000022580F8445044F2F45C4FF000485F1EC8
:101B6000816216E00220BDE8F08301EB4415C5F860
:101B70000080C4EBC41606EB460602EB8606C5E9F8
:101B800001C6BC4203D205F12006EE6000E0E96028
:101B9000641C9C42E9D3026802F58052D16080F84F
:101BA0004490002180F845100846DCE72DE9F04319
:101BB00090F845400025012C0BD04FF0010C80F827
:101BC00045C0022480F844404FF480195F1EC16272
:101BD0001BE00220BDE8F08301EB4514C4F800903F
:101BE000C5EBC51606EB460602EB8606A660C6697F
:101BF0001EB9266846F440062660BD4203D204F1B1
:101C00002006E66000E0E1606D1C9D42E4D30268BE
:101C100002F58052116180F844C0002180F845101F
:101C20000846D7E710B590F84510012913D00123D5
:101C300080F84530022180F84410816A0A68002447
:101C4000002A27DB0A68D20518D5826B521C8263F2
:101C5000012A02D002E0022010BD016341630A683C
:101C6000C2F30D42121FC263026B92680264C9681C
:101C700040F8281F03774477002010BD0A689205BA
:101C800003D58363C0E90C1402E0826B521C8263AB
:101C9000C968816200F8443F4470012010BD000013
:101CA0002DE9FC414FF0000604000096B046019675
:101CB00003D094F8440018B107E00120BDE8FC818E
:101CC00084F84560204600F0C5F85848016841F4A2
:101CD00080410160006800F4804001905448016830
:101CE00021F4000101600168226A1143016020684B
:101CF00000F58050016841F001010160226802F5A1
:101D000080500168C907FCD1106920F01C0500F063
:101D10002FFD4849484A0144914202D245F0080546
:101D200016E04649464A0144914202D245F00C056C
:101D30000EE04449444A0144914209D343490844CE
:101D40004349884202D245F0040501E045F0100500
:101D5000206805616068012780B300F03BFB42F218
:101D6000107501906A460121204600F0F7F800F056
:101D700031FB0199401AA84217D800984007F1D5C5
:101D80004FF480520021204600F0F1F980BB00F0B2
:101D900021FB01906A460121204600F0DFF800F0A7
:101DA00019FB0199401AA84209D901212046FFF7E1
:101DB000DDFB04F8447F032066707FE719E000989C
:101DC0008006E7D56A461F21204600F0C7F878B99B
:101DD0000098C10603D54FF40061E16000E0E660C1
:101DE000400701D5A66019E04FF48040A06015E0DF
:101DF0000AE0E068A168C00840EA510082B2002110
:101E0000204600F0B4F930B101212046FFF7AEFBC7
:101E100084F8447051E7FF20FFF784FE41462046D6
:101E2000FFF7A4FB84F84470002047E744380240E1
:101E30000438014000D3CEFEC0E1E40040F1E9FDEA
:101E400040787D0100796CFC005A6202001F0AFA9A
:101E500080F0FA023B4810B5026886B0002142F0DB
:101E600000720260026802F000720592026842F09D
:101E700080620260026802F080620592026842F0AD
:101E800000620260026802F000620592026842F09D
:101E900001020260026802F001020592026842F04B
:101EA00002020260026802F002020592026842F039
:101EB00004020260026802F004020592026842F025
:101EC00008020260026802F008020592026842F00D
:101ED00040020260006801AA00F0400005908620E0
:101EE00000900220032482E813000B20049069462E
:101EF000154800F077F94FF40060009069461348E8
:101F000000F070F9322000906946114800F06AF93B
:101F10006003009069460F4800F064F908200090C3
:101F20000120CDE90204019069460B4800F05AF9FE
:101F3000002211463D2000F0A1FA3D2000F092FA67
:101F400006B010BD303802400000024000040240DC
:101F50000008024000180240000C02402DE9F8433E
:101F600000260446009690F84400914682281DD031
:101F7000822084F84400206802694FF6FF7502F061
:101F80001C03228A05EAC2221A434FF4F86303EACB
:101F90008111114321F0020141F00105056100F0BA
:101FA00019FA01274FF4803800900FE00220BDE8B5
:101FB000F88300F00FFA0099401A404504D304F862
:101FC000447F03206670F2E720680569E807F0D1D6
:101FD0002068406981B2C9F8001084F8447000207C
:101FE000E5E7F8B5044690F84500012839D0012509
:101FF00084F84550022084F84400206800260168D7
:1020000041F0080101602068006800902846FFF751
:1020100089FD2168009808602068016841F004018A
:1020200001602068006800900120FFF77BFD2168B7
:10203000009808602046FFF758FA206800F58050A5
:10204000816941F400518161206800F58050816907
:1020500041F00201816184F8445084F84560002019
:10206000F8BD0220F8BDF0B590F845300022012BF4
:1020700011D0012780F84570022380F844300025F4
:1020800059B1C46A2368002B0ADA122100F8441FF0
:1020900045700120F0BD0220F0BD00F8447FF7E755
:1020A00040F2F456B1420BD9B1FBF6FCB1FBF6F3AA
:1020B00006FB1C1CBCF1000F00D05B1C012B43D1A4
:1020C000226842F040522260C26AC1F30C015160A2
:1020D000C16A0A6842F000420A60C16AC968C16206
:1020E00034E0D4F800C02CF0405CC4F800C032B931
:1020F000C46AD4F800C04CF0805CC4F800C0C46A64
:1021000066605C1EA24214D1C46AD4F800C04CF0D0
:10211000005CC4F800C0C3F10104C4EBC41404EBB8
:102120004404D0F82CC001EB8404C4F30C04CCF8B4
:102130000440C46AD4F800C04CF0004CC4F800C09D
:10214000C46A521CE468C4629A42CAD3016801F5A9
:1021500080514A69520705D504224A61016801F598
:1021600080514D6000F8447F45700020F0BD2DE99E
:10217000F041044690F8440042281ED0422084F8E2
:102180004400206803694FF6FF7603F01C05238A9C
:1021900006EAC3232B434FF4F86505EA811119437E
:1021A00041F0030591B241612068056100F012F928
:1021B000064601274FF480380FE00220BDE8F08189
:1021C00000F008F9801B404505D304F8447F002047
:1021D00060700320F2E720680569E807F0D184F811
:1021E0004470EBE72DE9F84FDFF8A091002209F1E8
:1021F000040A0AF1040B4FF00F080BF1040E01263C
:102200000B6896403340B34271D14C68022C01D028
:10221000122C11D1D40800EB84073D6A5407E40E58
:1022200008FA04FC25EA0C05D1F810C00CFA04FCED
:102230004CEA050CC7F820C007685400032591F844
:1022400004C0A5400CF0030CAF430CFA04FC4CEAAC
:10225000070CC0F800C04F68012F05D0022F03D033
:10226000112F01D0122F11D18768D1F80CC0AF43C4
:102270000CFA04FC4CEA070CC0F808C04768B743E6
:102280000E79C6F3001696403E434660C668AE43DC
:102290008D68A5403543C5604C68E4006FD53C4C63
:1022A000256845F480452560246822F0030504F480
:1022B00080440094374C2E19D6F808789407250FDF
:1022C00008FA05F4A743344CA04201D100242EE0C3
:1022D000324CA04201D1012429E0314CA04201D16D
:1022E000022424E02F4CA04202D103241FE046E048
:1022F0002D4CA04201D1042419E02C4CA04201D164
:10230000052414E02A4CA04201D106240FE0294CF8
:10231000A04201D107240AE0274CA04201D10824A1
:1023200005E0264CA04201D1092400E00A24AC407B
:102330003C43C6F80848D9F800404D464E689C43D7
:10234000F60300D51C432C60DAF8004055464E6871
:102350009C43B60300D51C432C60DBF800405D466F
:102360004E689C43F60200D51C432C60DEF800400A
:1023700075464E689C43B60200D51C432C60521C27
:10238000102AFFF43CAFBDE8F88F0000003C01408C
:102390004438024000300140000002400004024086
:1023A00000080240000C02400010024000140240ED
:1023B00000180240001C024000200240002402409D
:1023C0000069084000D0012070470AB18161704760
:1023D0000904FBE701480068704700001400002072
:1023E00002480168491C0160704700001400002089
:1023F0000B4810B5016841F400710160016841F4B7
:1024000080610160016841F480710160052000F085
:1024100055F80F2000F006F800F015F8002010BD68
:10242000003C024010B5044600F0A2F94FF47A7166
:10243000B0FBF1F000F075FD00222146501E00F0C7
:102440001DF8002010BD08B50020009008BD00F068
:102450001F02012191404009800000F1E020C0F8F6
:102460008012704700F01F02012191404009800056
:1024700000F1E020C0F8001170470000F0B40E4BEE
:102480001B68C3F30223C3F10704042C00D90424FE
:102490001D1D072D01D2002300E0DB1E012606FAD8
:1024A00004F56D1E0D409D409E40761E164045EA87
:1024B0000601F0BC01F0E5BD0CED00E0064A00F0BD
:1024C000070110684FF6FF03184040EA0120034956
:1024D00008431060704700000CED00E00000FA05B2
:1024E0002DE9F8431D48016841F080510160006802
:1024F000012700F080500090380490FAA0F0DFF837
:102500006080B0FA80F048F82070FFF763FF04465F
:102510004FF47A75134E04E0FFF75CFF001BA842EE
:1025200013D87068C003F7D54FF4003090FAA0F0CC
:10253000B0FA80F048F82070FFF74CFF044607E03F
:10254000FFF748FF001BA84202D90320BDE8F8832B
:1025500070688003F4D50020F8E70000403802409E
:1025600000000E42007000402DE9F05FDFF8F8A196
:1025700004460F46DAF80000DFF8F08100F00F02A1
:10258000C8B27A49814641F2883608F10808BA4251
:1025900061D202468AF80020DAF8000000F00F004D
:1025A000B8427DD12078800707D5D8F80020A368ED
:1025B00022F0F0021A43C8F800202078C0072DD07E
:1025C000606801281AD002281BD0032819D0096896
:1025D0008907002964DAD8F80010474621F0030182
:1025E0000143C8F80010FFF7F5FE054660680128B2
:1025F0000FD0022818D003281CD027E009688903CF
:10260000E7E709688901E4E7FFF7E4FE401BB04211
:1026100058D83868C0F381000128F5D188E0FFF769
:10262000D9FE401BB0424DD83868C0F38100022863
:10263000F5D17DE03868FFF7CDFE401BB042F9D9F7
:1026400040E0FFF7C7FE401BB0423BD8386810F0AF
:102650000C0FF6D16CE02078800707D5D8F8002061
:10266000A36822F0F0021A43C8F800202078C007BF
:102670004CD06068012828D0022829D0032827D010
:1026800009688907002949DAD8F8002022F00302F6
:102690000243C8F80020FFF79DFE0546606800E091
:1026A0003CE001281DD0022829D0032838D0B346A9
:1026B0004646306810F00C0F28D0FFF78BFE411B08
:1026C0005945F6D90320BDE8F09F09688903D9E789
:1026D00009688901D6E7FFF77DFE411B594502D9FC
:1026E000F0E7B34646463068C0F381000128F2D1D6
:1026F0000CE0FFF76FFE411B594502D9E2E7B346F4
:1027000046463068C0F381000228F2D18AF8009072
:10271000DAF8000000F00F00B84209D00120D2E73B
:1027200044462068FFF756FE401BB042F9D9C9E77E
:102730002078400707D5D8F80010E26821F4E0516E
:102740001143C8F800102078000708D5D8F8001009
:10275000226921F4604141EAC201C8F800100F204B
:10276000FFF760FE0020AEE7003C02400038024068
:1027700010B500F043F808490968F02292FAA2F275
:1027800001F0F001B2FA82F2D140044A515CC84033
:102790000349086010BD000008380240C228010843
:1027A0000000002010B5FFF7E3FF074909684FF468
:1027B000E05292FAA2F201F4E051B2FA82F2D14070
:1027C000024A515CC84010BD08380240C2280108C6
:1027D00010B5FFF7CDFF074909684FF4604292FA40
:1027E000A2F201F46041B2FA82F2D140024A515C95
:1027F000C84010BD08380240C228010830B5194849
:10280000006810F00C01184812D0184C04290ED0A2
:1028100008290DD1134A121F1168136801F03F01F6
:102820005D0247F6C07304D5B4FBF1F003E0204627
:1028300030BDB0FBF1F01168194093FAA3F3B3FA7D
:1028400083F3D940484311684FF4403292FAA2F220
:1028500001F44031B2FA82F2D140491C4900B0FB88
:10286000F1F030BD083802400024F40040787D01CA
:102870002DE9F84F04460078DFF8FCA2BF4DC007F1
:102880004FF0000648D0DAF800105046C1F381013D
:10289000012908D00068C0F3810002280AD1281D50
:1028A0000068400206D52868800335D56068002896
:1028B00073D031E0DFF8C49209F1020989F80060B1
:1028C000FFF788FD074641F2883804E0FFF782FDF4
:1028D000C11B41457AD828688003F7D4207989F84C
:1028E0000000606860B1FFF775FD074604E0FFF780
:1028F00071FDC11B4145EDD828688003F7D50BE079
:10290000FFF768FD074604E0FFF764FDC11B414582
:10291000E0D828688003F7D42078DFF86492800735
:1029200044D5DAF80010504611F00C0F4FF0F808BB
:1029300009D00068C0F3810002280BD18E48001F27
:102940000068400206D42868800714D5E068012892
:1029500023D110E0E068D0B10120C9F80000FFF7F2
:1029600039FD074604E0FFF735FDC01B6428B1D8E8
:1029700028688007F7D5286898FAA8F22169B2FA82
:1029800082F220F0F8009140084328600EE0C9F878
:102990000060FFF71FFD074605E0EAE0FFF71AFDBC
:1029A000C01B642812D828688007F7D42078000755
:1029B00025D5DFF8C4817348616908F16C0881B1DD
:1029C00001210160FFF706FD074605E07EE0FFF705
:1029D00001FDC01B642879D8D8F800008007F6D51F
:1029E0000DE00660FFF7F6FC074604E0FFF7F2FC97
:1029F000C01B64286AD8D8F800008007F6D4207875
:102A0000400753D55C483830016841F0805101607F
:102A10000068DFF8748100F080500090D8F8001052
:102A200041F48071C8F80010FFF7D4FC074604E0B9
:102A3000FFF7D0FCC01B642848D8D8F80000C005B8
:102A4000F6D5DFF834B10BF1680B8BF80060FFF7B7
:102A5000C1FC074641F2883804E0FFF7BBFCC11B0C
:102A600041457ED8DBF800008007F6D4207A8BF849
:102A70000000A06868B1FFF7ADFC074604E0FFF76F
:102A8000A9FCC11B41456CD8DBF800008007F6D5D6
:102A90000CE0FFF79FFC074604E0FFF79BFCC11B1F
:102AA00041455ED8DBF800008007F6D4A069E8B3A2
:102AB000DAF80010C1F3810102295AD0022806D0A9
:102AC000C9F86060FFF786FC04464DE049E04F46D8
:102AD000C9F86060FFF77EFC064604E0FFF77AFC69
:102AE000801B64283DD828688001F7D4D4E9070109
:102AF000084347F6C07191FAA1F1626AB1FA81F117
:102B00008A40A16A4FF0FF3303EB51014FF4403389
:102B100093FAA3F3B3FA83F399400A4310434FF0B7
:102B2000706292FAA2F2B2FA82F200E01FE0E16A69
:102B3000914008431049091F086001203866FFF7DB
:102B400049FC044604E0FFF745FC001B642808D854
:102B500028688001F7D50AE0FFF73CFC001B6428D9
:102B600002D90320BDE8F88F28688001F4D4002042
:102B7000F8E70120F6E7000008380240003802407C
:102B800000004742800E47420070004070B50400CC
:102B900004D094F85100002510B106E0012070BD6A
:102BA00084F85050204600F033F8022084F8510099
:102BB0002068016821F040010160D4E90101084367
:102BC000D4E903121143084361690843218B01F4DE
:102BD00000710843E1690843216A0843A16A084378
:102BE00021680860A069042101EA1040616A084375
:102BF000216848602168E06A08612068C16921F4A1
:102C00000061C1616565012084F85100002070BD3C
:102C1000114800B5016887B041F0100101600068FB
:102C200000F0100005900C481430016841F4005188
:102C300001600068012100F40050059064200090BC
:102C40000220CDE901010390052004906946034864
:102C5000FFF7C8FA07B000BD30380240001002404C
:102C60002DE9F843044690F85100DDF82080012852
:102C700001D022287ED169B162B15BB194F85000D5
:102C8000012877D0012784F8507094F8510001286A
:102C900003D005E00120BDE8F883322084F851001C
:102CA00000266665A263A387E3872163A386E38684
:102CB000A664E664A06A4FF40055A84209D12068D2
:102CC000016821F4005101602068016841F400515D
:102CD000016020680168490603D4016841F04001A1
:102CE0000160E0684FF48271B0F5006F606807D052
:102CF000002867D088426ED1E08E012862D06AE059
:102D000020B188420CD1E08E012809D1206B2168C6
:102D10000088C860206B801C2063E08E401EE08627
:102D2000E08E80B9A06AA84244D12068016841F4CD
:102D3000805101603EE02068C068A16B0880A06BF4
:102D4000801CA0639EE0434600220221204604F03E
:102D50006FF9002874D1206B21680088C860206B4F
:102D6000801C2063E08E401E0004000CE08609D128
:102D7000A06A00E0C7E0A84204D12068016841F4DD
:102D800080510160434600220121204604F050F9A1
:102D900000286FD12068C068A16B0880A06B801CE0
:102DA000A063E08F401EE087E08E0028CBD16068F2
:102DB00000286AD1434600220121204604F038F958
:102DC000F0BBB8E7206B411C216321680078C86024
:102DD000E08E401EE086E08E98B9A06AA84204D139
:102DE0002068016841F480510160434600220121BE
:102DF000204604F01DF918BB2068C068A16B08705C
:102E000040E0434600220221204604F011F9B8B9FF
:102E1000206B411C216321680078C860E08E401E51
:102E20000004000CE08607D1A06AA84204D1206803
:102E3000016841F48051016000224346012100E015
:102E400018E0204604F0F4F8A0B92068C168A06B2F
:102E5000421CA2630170E08F401EE087E08E0028D4
:102E6000CFD1606888B9434600220121204604F092
:102E7000DFF808B103200EE72068C168A06B421C90
:102E8000A2630170E08F401EE087A06AA84210D1C3
:102E9000434600220121204604F0CAF818B1606DB3
:102EA00040F002000FE02068C068ADF80000BDF8F7
:102EB0000000434601228021204604F0B9F820B1E9
:102EC000606D40F020006065D4E784F851702068A0
:102ED0008168A26AC1F30011AA4210D179B1616D73
:102EE00041F002016165016821F400510160206830
:102EF000016841F40051016084F85060CAE684F82A
:102F000050600020C7E60220C5E64FF0E02104280B
:102F1000086903D020F004000861704740F0040005
:102F2000FAE710B5401EB0F1807F01D3012010BD3B
:102F30004FF0E02460610F21601701F0A2F800203B
:102F4000A06107202061002010BD7047704730B598
:102F500090F83820012A20D0012380F8383002224E
:102F600080F839200268546824F0700454600268C4
:102F700054680D682C4354600268946824F08004FF
:102F800094600268946849680C43946080F8393012
:102F9000002180F83810084630BD022030BD10B541
:102FA000040003D094F8390010B107E0012010BDEF
:102FB000002084F83800204600F00CF8022084F845
:102FC0003900211D206804F055F9012084F83900EA
:102FD000002010BD38B5054600681549154C8842DB
:102FE0000FD1206840F0020020602068012200F02C
:102FF0000200009011461D20FFF740FA1D20FFF748
:1030000031FA2868B0F1804F11D1206840F00100FA
:1030100020602068002200F00100009001211C20A7
:10302000FFF72CFABDE838401C20FFF71BBA38BD6B
:1030300000040040403802400168CA6842F00102C2
:10304000CA600068016841F001010160002070471A
:103050000168CA6822F00102CA600068016A41F290
:103060001112114207D1016A9210114203D1016875
:1030700021F0010101600020704770B5044690F80E
:103080003800012817D0012584F83850022084F830
:1030900039002068826822F0770222F47F42826041
:1030A0000868502836D00DDC202858D005DC80B3C5
:1030B000102840D150E0022070BD302852D0402866
:1030C00039D13EE060282DD070280BD0B0F5805F5C
:1030D00003D0B0F5005F2ED110E02068816821F0A8
:1030E000070109E0CB68D1E90121206804F022F949
:1030F0002068816841F0770181601CE0CB68D1E9EC
:103100000121206804F016F92068816841F48041AB
:10311000F2E71EE0CA684968206804F01DF95021F2
:10312000206806E0CA684968206804F026F9602132
:10313000206804F009F984F83950002084F8380038
:1031400070BDCA684968206804F006F9402120680B
:10315000EFE700212068ECE710212068E9E7202153
:103160002068E6E730212068E3E7704770B5044641
:10317000006801694FF00005C943890715D4C1688B
:10318000C943890711D4E91E016101202076206816
:1031900080698007204602D0FFF7E7FF04E000F0D7
:1031A00098F8204600F096F8257620680169C94312
:1031B000490717D4C168C943490713D46FF0040104
:1031C0000161022020762068806910F4407F20464B
:1031D00002D0FFF7CAFF04E000F07BF8204600F0C1
:1031E00079F8257620680169C943090716D4C168B2
:1031F000C943090712D46FF0080101610420207649
:103200002068C0698007204602D0FFF7AEFF04E0C7
:1032100000F05FF8204600F05DF82576206801692F
:10322000C943C90617D4C168C943C90613D46FF08E
:1032300010010161082020762068C06910F4407FE9
:10324000204602D0FFF791FF04E000F042F820464C
:1032500000F040F8257620680169C943C90708D104
:10326000C168C943C90704D1891E0161204600F025
:1032700033F820680169C943090609D4C168C94304
:10328000090605D46FF0800101612046FFF75DFE5D
:1032900020680169C943490609D4C168C943490680
:1032A00005D46FF040010161204600F01DF8206850
:1032B0000169C94389060BD4C168C943890607D48B
:1032C0006FF0200101612046BDE87040FFF73EBE6F
:1032D00070BD7047704700000249884201D109F073
:1032E000C5BA70478C2900207047704738B501680F
:1032F00004460868CA68C0F3000002F4807238B15E
:1033000032B1086848680090E06B40F00100E0636B
:1033100008684A69C0F3400002F0010238B132B1D6
:10332000086848680090E06B40F00400E0630868BB
:103330004A69C0F3800002F0010238B132B1086876
:1033400048680090E06B40F00200E06308684A695A
:10335000C0F3C00002F0010238B132B10868486819
:103360000090E06B40F00800E0630868C968C0F3B3
:10337000401001F0200118B111B1204604F054F8BA
:1033800020680168C068C1F3C01100F0800019B165
:1033900010B1204604F056F921680868CA68C0F3E5
:1033A000801002F04002012568B162B1CA6820466F
:1033B00022F04002CA6094F8391032290CD080F80B
:1033C000395000F079F9E06B002804D084F83950C6
:1033D0002046FFF78AFF38BD222180F83910F0E738
:1033E00070B5040004D094F83900002510B106E04F
:1033F000012070BD84F83850204600F021F80220EA
:1034000084F839002068C16821F40051C160204669
:1034100004F05EF82068016921F4904101612068A0
:10342000416921F02A0141612068C16841F40051DD
:10343000C160E563012084F83900002070BD000000
:1034400010B500681A4986B088422FD11948016822
:1034500041F001010160006800F00100059015488D
:103460001430016841F0100101600068012100F092
:10347000100005904FF4007000900220CDE901018A
:10348000039007200C4C049069462046FEF7AAFEE4
:103490002115009169462046FEF7A4FE2520FEF77F
:1034A000E1FF032211462520FEF7E8FF06B010BD1C
:1034B0000010014030380240000002402DE9F04782
:1034C000044690F8390099460D46012801D012288B
:1034D00057D125B31AB394F83800012851D00126EA
:1034E00084F838600027E76394F83900122819D06F
:1034F000222084F83900A285E2854FF48058E08DBF
:103500004B46401EE085A0684FF0000240454FF05A
:103510002001204616D104F0C8F8B0B904E001201B
:10352000BDE8F0873220E4E7206900282068406881
:1035300003D0C1B225F8011B12E0C0F3080125F841
:10354000021B0DE004F0B1F808B10320E8E72069A0
:1035500000282068406801D000F07F0005F8010BCA
:10356000E08D0028CBD194F83900322805D084F8BA
:10357000396084F838700020D2E7122084F83900CE
:10358000F7E70220CCE790F83930012B01D0122B5D
:103590002BD131B32AB390F83830012B25D0012339
:1035A00080F8383081628285C2850022C26390F83B
:1035B0003910122917D0222180F839100168CB6800
:1035C00043F48073CB6001684B6943F001034B61A6
:1035D00080F838200068C16841F02001C1600020F7
:1035E0007047012070473221E6E70220704770479C
:1035F0002DE9F047044690F8390099460D46012818
:1036000001D0222856D125B31AB394F838000128E6
:1036100050D0012684F838600027E76394F8390019
:10362000222819D0122084F83900A284E2844FF4B1
:103630008058E08C4B46401EE084A0684FF00002AA
:1036400040454FF08001204613D104F02EF808BB0E
:1036500004E00120BDE8F0873220E4E728882168F3
:10366000C0F308004860206908B16D1C08E0AD1C7B
:1036700006E004F01AF868B9216815F8010B4860F3
:10368000E08C0028D5D14B4600224021204604F092
:103690000CF808B10320DDE794F83900322805D092
:1036A00084F8396084F838700020D3E7222084F849
:1036B0003900F7E70220CDE77047FEE72DE9F84F24
:1036C000A84FA94E38463978DFF8A082007A002446
:1036D0000125012901D0A9B11EE0E8B93D72A4A0DD
:1036E000FCF796FEC6F8BC52C8F8A852A449D1F817
:1036F000800228B10020C1F880020120BDE8F88FC7
:103700000120F8E7012807D13C72C6F8BC42C8F88E
:10371000A8429CA0FCF77CFE7878012801D028B153
:1037200008E0787A30B97D720220E7E7787A0128DC
:1037300000D17C72B878974EDFF85C82DFF85CA22B
:10374000DFF85CB2DFF85C92012801D0A0B144E060
:10375000B87AE0BBF878397908437979084301D021
:10376000BC703AE0C6F8BC52C6F8B842BD728EA032
:10377000FCF74EFE0320C1E7B87A01282DD18D4811
:1037800004808D480470C6F8B852C6F8BC42BC72BA
:10379000A8F81440A8F81640A8F8184069468748C9
:1037A00001F0FEFEFC733C747C748548AAF800406E
:1037B000ABF800400480C9F8A45241F2883004F00C
:1037C000C1F9C9F8A852C82004F0BCF900E004E02F
:1037D000C9F8A0527BA0FCF71BFEF878012801D0A5
:1037E00088B13BE0F87AC8BBB87839790843797971
:1037F000084301D0FC7031E0C6F8BC52C6F8B842AC
:10380000FD7204207AE7F87A012827D1C6F8B85269
:10381000C6F8BC42FC72A8F81440A8F81640A8F8F4
:1038200018406946654801F0BBFEFC733C747C742B
:103830006348AAF80040ABF800400480C9F8A452DD
:1038400041F2883004F07EF9C9F8A852C82004F08B
:1038500079F9C9F8A0525EA0FCF7DAFD38790128A1
:1038600001D088B13BE0387BC8BBB878F978084311
:103870007979084301D03C7131E0C6F8BC52C6F8F2
:10388000B8423D73052039E7387B012827D1C6F8B7
:10389000B852C6F8BC423C73A8F81440A8F81640C9
:1038A000A8F818406946454801F07AFEFC733C745C
:1038B0007C744348AAF80040ABF800400480C9F883
:1038C000A45241F2883004F03DF9C9F8A852C8204A
:1038D00004F038F9C9F8A05240A0FCF799FD7879B6
:1038E000012801D088B13BE0787BC8BBB878F97873
:1038F00008433979084301D07C7131E0C6F8BC52E5
:10390000C6F8B8427D730620F8E6787B012827D1F7
:10391000C6F8B852C6F8BC427C73A8F81440A8F8A0
:103920001640A8F818406946244801F039FEFC7397
:103930003C747C742248AAF80040ABF80040048034
:10394000C9F8A45241F2883009F5287404F0FAF855
:10395000A560C82004F0F6F8256023A0FCF758FD08
:103960000020CBE6880000200000404200004142D9
:10397000583020B3E4B5E7BFAAC6F40D0A00000032
:1039800000004342583020B3E4B5E7B9D8B1D50DB3
:103990000A0000000080404228EA01205000002078
:1039A0004E000020008043425832204343B4F2BF0F
:1039B000AA0D0A00440000204000002064280020D6
:1039C000680000205832204343B9D8B1D50D0A0011
:1039D0005833204356B9D8B1D50D0A005834204386
:1039E00057B9D8B1D50D0A005835204352B9D8B1CE
:1039F000D50D0A000C4800B5026887B0002142F0DE
:103A000080020260006800F0800005901020CDE97F
:103A10000001022002900320039069460348FEF74C
:103A2000E1FB07B000BD000030380240001C02403E
:103A30007CB5FCF740FC1C4E0024C6F88C42642088
:103A400006F5237604F07EF801253560642004F045
:103A500079F8FCF732FC154801788DF800104178B0
:103A60008DF8011081788DF80210C1788DF803105F
:103A700001798DF8041040798DF805000D480C4946
:103A8000C0E90015A9038160C910C16004826946BC
:103A9000C0E90515E905C0E90741FEF701F900286D
:103AA00000D001207CBD00000080414260D3012095
:103AB000008002408C2700202DE9F04104463A485E
:103AC0000D46006820B12046BDE8F04100F024BA60
:103AD000364E270A3146B0884989A0F513434FEA8C
:103AE0001528413B0CD0A0F5A643103B08D0A0F50B
:103AF000AA43103B11D0A0F5C853633B27D04BE03D
:103B0000084600F0ADF9384600F09EF9E0B200F04A
:103B10009BF9B08900F0A4F938E0084600F0A0F95C
:103B2000384600F091F97089401C80B200F098F995
:103B3000E0B200F089F9B08900F092F9404600F057
:103B400083F9B089401C80B200F08AF921E0B07995
:103B500018B93088001B401E84B2084600F080F976
:103B6000270A384600F070F9E0B200F06DF93846E7
:103B700000F06AF9E0B200F067F9B08900F070F97E
:103B8000404600F061F9E8B200F05EF9404600F00E
:103B90005BF9E8B200F058F9054930890880881CC3
:103BA0000280BDE8F08100006C270020E42800209E
:103BB000FEFF07602DE9F8431F46144B8046089826
:103BC0001B6833B100903B46404600F0C3F9BDE8A6
:103BD000F883A2EB0802521C96B20C4685B2DFF8BD
:103BE00030900FE02146404600F014F800F044F910
:103BF0000020494602E00D80401C80B2B042FAD35A
:103C0000641CA4B2BC42EDD9E1E700006C2700209F
:103C100000000860F0B53F4D0C460246060AA98830
:103C20002846270A4089A1F51343413B28D0A1F536
:103C3000A643103B24D0A1F5C853633B2FD0A1F578
:103C4000AA43103B64D100F00BF9304600F0FCF8B9
:103C50006889401C80B200F003F9D0B200F0F4F89B
:103C6000A88900F0FDF8384600F0EEF8A889401C5D
:103C700080B200F0F5F8E0B2BDE8F04000F0E4B842
:103C800000F0EEF8304600F0DFF8D0B200F0DCF8DB
:103C9000A88900F0E5F8384600F0D6F8EBE7A979F6
:103CA00029B300F0DDF8304600F0CEF8D0B200F0D5
:103CB000CBF82888401EC0F30F2000F0C5F8287804
:103CC000401EC0B200F0C0F8A88900F0C9F838461C
:103CD00000F0BAF8E0B200F0B7F86888401EC0F310
:103CE0000F2000F0B1F8A878401EC0B2C4E72988C0
:103CF000891A491E8AB200F0B3F8002000F0A4F837
:103D0000002000F0A1F8100A00F09EF8D0B2D9E728
:103D1000F0BD0000E42800202DE9F84F82461F4640
:103D20000E468B46580700D0012000EBD7007908DB
:103D300010FB01F0203AC0B202F0FF09002500900C
:103D400047E00C2F10D0102F12D0182F14D0202F96
:103D500042D1224901EBC9104FF00008445D200612
:103D600010D51F48026811E009EB49001D4906E023
:103D70001D4901EB0910EFE71C4909EBC90001EBF4
:103D80008000E9E70A9828B915484268314650464C
:103D9000FFF792FE6006040E1548761CB6B2408806
:103DA000B04219D9A6EB0B00B84209D10AF10100C3
:103DB0001FFA80FA0E485E46018851450CD906E08C
:103DC00008F1010000F0FF08B8F1080FC7D36D1C1F
:103DD000EDB200988542B4D3BDE8F88F9240010857
:103DE0009C000020D2280108462D01083633010826
:103DF000E42800202DE9F84F044600F0FF081019D0
:103E00000D46DDE90A761FFA80FA58191FFA80F983
:103E10004FF0000B11E0544502D3E819444685B237
:103E20004D450FD23B4629462046CDF800B0FFF75E
:103E300073FF04EB570084B2761C3278A2F12000A5
:103E40005E28E8D9BDE8F88F01B5BDF80000ADF8EF
:103E50000000BDF800000149088008BD00000860AE
:103E600001B5BDF80000ADF80000BDF80000014943
:103E7000088008BDFEFF07600248034900890880EA
:103E800070470000E4280020FEFF076070B51F485F
:103E900086B0016841F040010160016801F0400115
:103EA0000591016841F0200101600068012400F0E3
:103EB00020000094164E0325059069460194304673
:103EC000CDE90245FEF78EF94FF46040CDE90004DC
:103ED000CDE902450F4C69462046FEF783F90122E1
:103EE00011463046FEF771FA012251032046FEF7D3
:103EF0006CFA012291032046FEF767FA0122D103F2
:103F00002046FEF762FA06B070BD0000303802406D
:103F10000018024000140240F0B50C4F94B23D4628
:103F2000DFF82CC02B68EA692D7D7E7D5CF825507A
:103F300026B103FB01004243AC52F0BD7E68301A4B
:103F4000401E03FB001050432C52F0BD6C27002094
:103F5000280000202DE9F043254EDDF81C900024B8
:103F6000757D0DB1054606E077680D46B91A1A460B
:103F70003B1A491E5B1E306896F814C0DFF8748047
:103F8000521B871A58F82CC0F66900FB015006FB3B
:103F900000C519487F1EBFB2066846F400060660D9
:103FA00016484FF4403606600226466307640668EA
:103FB00026F001060660C563591A4FF4803303EBFF
:103FC0000242491C11434164C0F83890016841F035
:103FD000010101605A0102E0641C944202D241686E
:103FE0008907F9D5816841F002018160BDE8F0835D
:103FF0006C270020280000203038024000B002402A
:104000000B480A4901604FF4803141600021816012
:10401000C1600161416101228161C0E90821054A55
:10402000C0E90A120163C161FDF795BC002001409F
:10403000202800200100000FFEE70A460021AFF310
:10404000008010B500231C46641C41EA0323042CA5
:10405000FAD310F0030404D109E0521E00F8011B4A
:10406000641C22B1042CF8D301E008C0121F042AFA
:10407000FBD202E000F8011B521E002AFAD110BD4B
:1040800070470907090E002806DA00F00F0000F15A
:10409000E02080F8141D704700F1E02080F8001443
:1040A0007047704702480068002800D000477047FA
:1040B000C802002010B5044600F0ACF840480022C9
:1040C0000A2102703F4802703F4802703F48026078
:1040D0003F4802603F4802703F4802703F4802700C
:1040E0003F4802703F480068B0FBF1F03E4908606D
:1040F0003E49086830B13E48006818B1096804C0FC
:10410000491EFCD13B4802603B4802603B480260CC
:104110003B4802603B4802603B4802603B4802600B
:104120003B48027001F0B0FD01F03CFE204601F07A
:10413000B9FA2088002841D1204601F00DFB2088E3
:1041400000283BD1204601F013FB2088002835D100
:10415000204601F01FFC208800282FD1204601F0C6
:10416000CFFD2088002829D1204601F005FF2088B6
:10417000002823D1204602F073F9208800281DD1A1
:10418000204601F0B5FA2088002817D1204602F019
:104190005FFC2088002811D1204602F067F82088B3
:1041A00000280BD1204602F0E5FC2088002805D12C
:1041B00001F076FABDE81040FFF773BF10BD0000B4
:1041C000DC020020E40200200A0300207803002023
:1041D0007C030020FE020020FF02002000030020DC
:1041E000100300200C7101080C030020E870010886
:1041F000E4700108BC020020C0020020C4020020BC
:10420000C8020020CC020020D0020020D4020020EE
:104210003E030020054806490068096800EB81005C
:10422000044920F00700086070470000E4700108AE
:10423000E87001088003002005480078012805D1B6
:1042400004490878FA2801D2401C08707047000021
:10425000E4020020DC020020184810B50078012894
:104260002BD1FCF767F816490446087800B3401EC6
:1042700010F0FF0008701BD112480078C0B901F09F
:10428000F1FC11490870114900EB400051F8200081
:104290000F4908600F490968884209D050F8941FF7
:1042A000491C01600C480168491C0160FCF77DFD58
:1042B0002046BDE81040FCF741B810BDE4020020E4
:1042C000DC0200200A030020FF02002020E601207B
:1042D0007C03002078030020340300202DE9F04106
:1042E00017460D460446FCF725F80646FDF77CF810
:1042F0000D48C4E9000500252562656284F8285050
:1043000004F10800E56201F0DDFB204601F0ECFA63
:1043100006490888401C0880FDF776F83046FCF70F
:104320000DF83D80BDE8F0814D555458FC02002049
:104330002DE9F04788B08946064600685049109D2F
:104340001C469046884202D045F6C45051E00027F2
:1043500004B12760FBF7EEFF8246FDF745F896F8BB
:104360002810484B99B1706A1A6890422CD1FF29E5
:1043700022D0491C86F828100CB1F06A2060FDF7A5
:1043800043F85046FBF7DAFF45F2827031E01868D7
:104390007062012086F828000CB1F06A206018686D
:1043A000C16B3162C663FDF72FF85046FBF7C6FFBD
:1043B0002F8008B0BDE8F087FDF726F85046FBF7E0
:1043C000BDFF45F2847014E05FEA084107D5FDF7B0
:1043D0001BF85046FBF7B2FF46F2B01009E02A493D
:1043E000097841B1FDF710F85046FBF7A7FF46F6F4
:1043F00063502880DDE790F837C092F83710984670
:104400008C4501D901F0A4FF4B4604223146684691
:1044100001F0CCFAFCF7F8FF5046FBF78FFF00F0F5
:10442000B7F9FBF787FF0646FCF7DEFFD8F8001068
:1044300091F8350040B101280BD002281AD003288A
:104440000DD046F62E600EE00CB1886C20602F80F7
:104450000AE00CB1886C206046F2A91003E004B1B8
:10446000276047F2D9202880FCF7CEFF3046FBF7C3
:1044700065FF9EE70CB1886C206045F6C250F2E7FC
:104480004D555458780300200A0300202DE9FC5FA5
:104490008B460446006847491546884204D045F6D5
:1044A000C4501080BDE8FC9FFBF744FF0190FCF76F
:1044B0009BFFDFF80481606AD8F80010884207D0BB
:1044C000FCF7A2FF0198FBF739FF45F2817012E07B
:1044D000FCF7E4FF8146E06294F82800401E10F0EB
:1044E000FF0084F8280008D0FCF78EFF0198FBF746
:1044F00025FF45F283702880D4E72146D8F80000D4
:1045000001F03EFA208A04F108074FF0000AE8B3F0
:10451000D8F8000090F8371090F8382091421DD05C
:1045200001F01DFAD8F8001091F83820824200D22C
:104530001046064691F83700B0420FD2084601F007
:10454000ABFCD8F8000080F83760304601F0A6FBDD
:10455000D8F8000001F06CFC184806703868002399
:104560001A4681680120616284F82800C86B2062C5
:10457000CC632046CDF8009001F006FBFCF744FF29
:104580000198FBF7DBFE5FEA0B4000E005E001D499
:1045900000F0FEF8A5F800A084E7C4F824A0564671
:1045A00084F828A0FCF730FF0198FBF7C7FE2E80A7
:1045B00078E700004D55545878030020FE02002093
:1045C0002DE9F0411E4690460F460446FBF7B2FE29
:1045D0000546FCF709FF0E48C4E90007414604F10F
:1045E000200001F035F904F1080001F06BFA2046D3
:1045F00001F074FB07480188491C0180FCF704FFA7
:104600002846FBF79BFE00203080BDE8F0810000CB
:1046100051554555080300202DE9F04F89B08B46D0
:10462000DDE912450646006847491F469246884222
:1046300002D045F6C45031E04FF000080CB1C4F888
:104640000080FBF777FE0090FCF7CEFE2B4622465B
:10465000394606F1200001F0CFF88146288850B194
:104660005FEA0A4010D5FCF7CFFE0098FBF766FE24
:1046700046F2B01012E0FCF7C7FE0098FBF75EFEB2
:10468000484609B0BDE8F08F3048007848B1FCF7E3
:10469000BBFE0098FBF752FE46F6635028800020D0
:1046A000EFE75B460522314601A801F07FF9FCF7F0
:1046B000ABFE0098FBF742FE00F06AF8FBF73AFE0B
:1046C0008146FCF791FE224A116891F8350060B1ED
:1046D000012815D002282CD003284FF0000619D04D
:1046E000A7F8008046F62E601BE0B1F864000E6E5D
:1046F000388014B11068806C2060A5F8008011E04B
:104700000026A7F8008014B11068806C206046F283
:10471000A91006E04046A7F8008004B1206047F2E7
:10472000D9202880FCF770FE4846FBF707FE30468C
:10473000A7E70026A7F8008014B11068806C2060FD
:1047400045F6C250EDE70000515545550A030020DB
:10475000780300202DE9FC418846054600680B4996
:10476000089C1E461746884204D045F6C450208057
:10477000BDE8FC81FCF792FECDE9000433463A46E1
:104780004146284601F0C8FAF2E700005155455568
:10479000174810B50078002829D11648007800285D
:1047A00025D1FBF7C7FD044601F05CFA12490870F9
:1047B000124900EB400051F82000114908601149EE
:1047C0000968884204D12046BDE81040FBF7B6BD19
:1047D00050F8941F491C01600B480168491C016096
:1047E000FCF7DEFA2046FBF7A9FDBFF36F8F10BD83
:1047F000DC0200200A030020FF02002020E6012046
:104800007C030020780300203403002070B50446A8
:104810000E480078012802D045F6896014E00C4D5E
:104820002878FA2802D345F209200DE0FBF782FD33
:104830000646FCF7D9FD2878401C2870FCF7E4FDFB
:104840003046FBF77BFD0020208070BDE402002095
:104850000A0300202DE9F04116460C460546FBF7F9
:1048600069FD0746FCF7C0FD29460D4800250129D2
:1048700001D0057001E0012101700A480CB104600B
:1048800005E009490A220968B1FBF2F10160FCF771
:10489000BBFD3846FBF752FD3580BDE8F0810000D6
:1048A000100300200C0300200C71010870B50446B1
:1048B00014480078012802D045F6896020E0124EA5
:1048C000307890B1FBF736FD0546FCF78DFD30786A
:1048D000401E10F0FF0030700AD0FCF795FD28460E
:1048E000FBF72CFD46F663500AE046F6645007E0FD
:1048F000FCF78AFD2846FBF721FDFFF749FF002062
:10490000208070BDE40200200A0300202DE9F04160
:10491000984615460E460446FBF70CFD0746FCF785
:1049200063FD256200250C486562C4E9000604F1B8
:10493000080001F0C7F8204601F00CFB0749088881
:10494000401C0880FCF760FD3846FBF7F7FCA8F830
:104950000050BDE8F081000053454D411803002090
:104960002DE9F04F8A4689B0064601684248129DFB
:104970001C469146814202D045F6C45034E00027DF
:1049800004B12760FBF7D6FC8346FCF72DFDD6F873
:104990002080B8F1000F0ED0A8F10108C6F82080E1
:1049A0000CB1706A2060346AFCF72EFD5846FBF7A4
:1049B000C5FC2F8057E05FEA09400BD5FCF724FDCA
:1049C0005846FBF7BBFC46F2B0102880404609B0C1
:1049D000BDE8F08F2948007840B1FCF715FD584636
:1049E000FBF7ACFC46F66350288024E053460622D1
:1049F0003146684600F0DAFFFCF706FD5846FBF743
:104A00009DFCFFF7C5FEFBF795FC8046FCF7ECFC30
:104A10001B48016891F8350078B1012812D00228AE
:104A200023D0032814D046F62E602880FCF7ECFC37
:104A30004046FBF783FC0020C9E70CB1886C20607E
:104A40002F800AE00CB1886C206046F2A91003E0C8
:104A500004B1276047F2D9202880346AFCF7D4FCDF
:104A60004046FBF76BFC2046B1E70CB1886C206038
:104A700045F6C250F0E7000053454D410A030020BF
:104A80007803002070B50E460546006809491446B3
:104A9000884204D045F6C4501080002070BDFCF759
:104AA000FDFC0246234631462846BDE8704001F031
:104AB0006FBA000053454D4170B50F4D044628783C
:104AC00018B145F68A60208070BD01F0CBF80B4923
:104AD00008700B4908700B4900EB400051F82000AA
:104AE000094908600949086001202870FCF71AF993
:104AF00043F69920E7E70000E4020020FF020020CF
:104B0000FE02002020E601207C0300207803002024
:104B10002DE9F0410746FBF70DFC0446FCF764FC69
:104B20002848002505802848056028480560284851
:104B300005602848056028480581FCF765FC20468B
:104B4000FBF7FCFBFBF7F6FB0646FCF74DFC2348A6
:104B5000046816E0FBF7EEFB0646FCF745FCC4F8DC
:104B6000B85044F87C5F2563A561A582E582656243
:104B7000A562FCF793FC44F8200FA4F13400858172
:104B8000646AFCF741FC3046FBF7D8FB002CE1D10E
:104B9000FBF7D0FB0646FCF727FC1148046806E04B
:104BA000FBF7C8FB0646FCF71FFCA585A469FCF7CC
:104BB0002BFC3046FBF7C2FB002CF1D13D80BDE859
:104BC000F08100001E030020300300204403002079
:104BD00068030020E002002014E6012038030020D2
:104BE00004030020F8B504466946244800F070FB31
:104BF000BDF8000058BB6A460021022000F0ACFB63
:104C0000BDF8000018BBFBF795FB0746FCF7ECFB73
:104C10001B4E00253560FCF7F7FB3846FBF78EFB93
:104C2000184919480A6803689A4202D9B2FBF3F09E
:104C300010B90A21B2FBF1F06A46002100F08CFBAA
:104C400069460E4800F074F9BDF8000008B12080F4
:104C5000F8BDFBF76FFB0746FCF7C6FB0B480C499A
:104C60000560306808600B4901200870FCF7CCFB38
:104C70003846FBF763FB2580F8BD000060E90120A2
:104C8000200300200C710108F87001083003002097
:104C9000240300202C03002002480068002800D0D4
:104CA00000477047CC0200202DE9FF4F83B0044637
:104CB000DDE91097DDE9175BDDF85480139EB9F14B
:104CC0001F0F09D13F48844206D046F27321ABF84A
:104CD000001007B0BDE8F08F204601F0D1FB4FF087
:104CE000000AABF800A0E80709D0A80707D53846A6
:104CF0000021524601E004C0491CB142FBD3129886
:104D0000CDE9006507EB800083460346DDE9050138
:104D10003A4600F00BFA0599A1620699E1620499FE
:104D2000216284F8379084F83890C4F808B0C4F849
:104D3000588020605FEA080037D0E0651698676207
:104D400026646060A4F844500020514604EB8002C1
:104D5000401CC2F8801010F0FF00F7D004F168008A
:104D6000149900F075FD204600F034F8FBF7E2FAE4
:104D70000546FCF739FB94F8370000F08FFF20461A
:104D800001F056F8204601F03DFB0F490888401C11
:104D900008800E48007801280AD0FCF735FB07B0E0
:104DA0002846BDE8F04FFBF7C9BA09480068C4E7D8
:104DB000FCF72AFB2846FBF7C1FA07B0BDE8F04F25
:104DC000FFF7E6BC4CE501203C030020E402002094
:104DD0000C03002002490968002900D008477047E9
:104DE000BC0200202DE9F04704464A480F468442A1
:104DF00004D147F24C100880BDE8F0875CB9FBF79E
:104E000099FA0546FCF7F0FA43480468FCF7FCFA07
:104E10002846FBF793FAFBF78DFA8146FCF7E4FA94
:104E200094F836004FF00008082869D2DFE800F057
:104E30000441080844410808204601F02DF83BE0F1
:104E400094F8340007282ED2DFE800F02D042D045A
:104E500008040400204600F067FE24E0206BC068D0
:104E6000456A204615F8376F00F05EFE15F8010B15
:104E700015F8381988420CD094F83710884208D1B8
:104E8000284600F06CFD95F83810814200D20846A3
:104E9000064684F8348095F83700B04203D0314696
:104EA000284601F055FA94F83600032801D0072867
:104EB00002D1204601F0CAFCE06B10B1204600F0A0
:104EC00025FD04F1680000F07DFC204600F028F884
:104ED000204601F0A9FA11490888401E08802046A2
:104EE00001F0CEFAFF2084F83600FCF78DFA484630
:104EF000FBF724FAA7F80080BDE8F047FFF748BCAD
:104F0000FCF782FA4846FBF719FA46F62D6038801E
:104F100072E700004CE50120780300203C030020EC
:104F200002490968002900D008477047C0020020E4
:104F300070B50D460646FBF7FDF90446FCF754FA3A
:104F4000FCF762FA2046FBF7F9F929463046BDE83E
:104F5000704001F0FBBA000002490968002900D046
:104F600008477047C40200202DE9F0471D46140091
:104F7000884681464FF0000600D02660FBF7DAF93C
:104F80008246FCF731FA3D4F3868C16CD9B1491EF1
:104F90008846C1640CB1806C2060FCF77FFA3968E8
:104FA0008A6C801AC1F8A800D1F8AC20824201D2E4
:104FB000C1F8AC00FCF728FA5046FBF7BFF92E8089
:104FC0004046BDE8F0875FEA084007D5FCF71CFAC9
:104FD0005046FBF7B3F946F2B01009E028480078D4
:104FE00048B1FCF711FA5046FBF7A8F946F66350B2
:104FF00028800020E5E700214B460722084600F004
:10500000D5FCFCF701FA5046FBF798F9FFF7C0FB17
:10501000FBF790F98046FCF7E7F9396891F835001D
:1050200030B1012816D003281AD046F62E601BE0B6
:1050300074B1886C2060FCF731FA39688A6C801A88
:10504000C1F8A800D1F8AC20824201D2C1F8AC006E
:105050002E800AE00CB1886C206046F2A91003E0B3
:1050600004B1266047F2D92028803868C46CFCF768
:10507000CBF94046FBF762F92046A2E7780300200F
:105080000A03002070B514460D460646FCF706FAE2
:105090000246234629463046BDE8704001F0BEBABC
:1050A0002DE9F0471D4616460F460446FBF742F928
:1050B0008146FCF799F90CB91B4804684FF00008C9
:1050C000206858B194F84400C00713D0FCF79CF94D
:1050D0004846FBF733F90020616A1BE0FCF794F9BE
:1050E0004846FBF72BF9C7F8008047F25210C6F884
:1050F00000800AE0FCF788F94846FBF71FF9C7F87B
:10510000008047F25410C6F800802880BDE8F08780
:10511000401C091D0A68002AFAD03860216C081A60
:105120003060A5F80080F1E77803002030B5DDE9B4
:10513000035402EB850222F007024FF0807542E92A
:105140000205484842F80C0D4FF0123042F8040DA9
:10515000A2F110004FF0023260E807134FF0113156
:105160008161D10041614FF0093101619100C1605D
:105170004FF007314FF003358160690041604FF017
:10518000053140F8241B510060E80A2501606107E1
:1051900067D51106021F1160A0F10801324A0A60AA
:1051A000091F324A0A60091F314A0A60091F314A41
:1051B0000A60091F304A0A60091F304A0A60091F45
:1051C0002F4A0A60091F2F4A0A60091F2E4A0A60E7
:1051D000091F2E4A0A60091F2D4A0A60091F2D4A1D
:1051E0000A60091F2C4A0A60091F2C4A0A60091F1D
:1051F0002B4A0A60091F4FF083420A60091F294A9F
:105200000A60091F284A0A60091F284A0A60091F04
:10521000274A0A60091F274A0A60091F264A0A60AE
:10522000091F264A0A60091F4FF082420A60091FBF
:10523000234A0A60091F234A0A60091F224A0A609A
:10524000091F4FF081420A60091F204A0A60091FA6
:1052500012020A60091F4FF07E520A60002140F8D6
:10526000841D30BD056600080000F8410000F041D3
:105270000000E8410000E0410000D8410000D041BA
:105280000000C8410000C0410000B8410000B0412A
:105290000000A8410000A04100009841000090419A
:1052A0000000884100007041000060410000504152
:1052B000000040410000304100002041000010414A
:1052C0000000E0400000C0400000A040000040405E
:1052D000044A904203D147F25B100880704701F006
:1052E000F3B900004CE5012070B5184C206890F827
:1052F0004410490702D50068FBF7FEFC144D2868EE
:1053000090F84410490702D50068FBF702FD1148E8
:10531000006800B18047FCF7C1F821682A68914213
:1053200007D0D1F89C30C31A41F8983F8D682B44C0
:105330008B60C2F89C00FCF739F82168D1F8B820DE
:10534000824201D2C1F8B80070BD0000780300208D
:105350007C030020D00200202DE9F04106461D48C4
:105360000D461446007810B146F6635021E045B171
:10537000022D06D0042D05D0082D02D045F625605B
:1053800017E0A6B1FAF7D6FF0746FCF72DF82A4634
:10539000114D23463146286801F01AFA208858B189
:1053A000FCF732F83846BDE8F041FAF7C7BF47F2DC
:1053B0007E201080BDE8F081286800F06DFDFCF7CC
:1053C00023F83846FAF7BAFFFFF7E2F90020208009
:1053D000F0E700000A030020780300202DE9F041E7
:1053E0001E462C4B1746DDE906241B7813B146F602
:1053F000635049E012F00E0547F27E2208D0022DDC
:1054000006D0042D08D0082D02D045F625603BE0DB
:1054100016B90FB901B9D0B31F4B4FF4FA7CC1EBE9
:1054200001111B68BCFBF3FC66445E434FF47A7CBD
:10543000B6FBFCF64FF4616C00FB0CF000EB810056
:10544000384400FB036616B3FAF774FF0746FBF710
:10545000CBFF2A46114D23463146286801F0B8F9A2
:10546000208830B1FBF7D0FF3846BDE8F041FAF7AD
:1054700065BF286800F010FDFBF7C6FF3846FAF755
:105480005DFFFFF785F900202080BDE8F081FFE790
:105490002280FAE70A0300200C710108780300203B
:1054A00070B50546FAF746FF0646FBF79DFF05482F
:1054B0000468FBF7A9FF3046FAF740FF0020288078
:1054C000204670BD4003002008B500F029F86A4668
:1054D00000210D48FFF7D6FD0C48007800EB400195
:1054E0000B4800EB810000F001FD0A490868401EEE
:1054F000086007D108486A4600680860002107482C
:10550000FFF7C0FD08BD000068E80120FE02002092
:1055100020E60120740300207003002060E90120D0
:1055200002480068002800D000477047D4020020DD
:105530002DE9F05F174E0446DDE90BB93078DDF850
:1055400028A0984615460F46012801D101F09CFB82
:10555000012084F82600E5610025C4F820800E486B
:10556000A561C4E90007A4F824A0C4F808B0C4E900
:1055700003952046656101F0DBFA08490888401C64
:1055800008803078012801D101F0F4FB0D980580E6
:10559000BDE8F09FE4020020544D52206403002037
:1055A0002DE9F0410C46054600681849884205D0AF
:1055B00045F6C45020800020BDE8F08101F064FB76
:1055C000284601F0C3FA95F82600B0B10027104E26
:1055D000012809D0022804D0032805D047F2413021
:1055E0000DE0284601F0A8FB284601F08BFA308830
:1055F000401E30802780012403E047F23D302080A8
:10560000002401F0B7FB2046D6E70000544D52209D
:105610006403002070B50D46044600681D498842A9
:1056200004D045F6C4502880002070BD01F02CFB4A
:1056300094F8260030B30021012809D0022804D0B4
:10564000032805D047F241301EE0E069A06111E077
:10565000022084F82600E06900B9206A0E4AA061A1
:105660000E4B106848B1C4E9040144611460188805
:10567000401C18802980012408E02161616101201B
:105680001460F6E747F23D302880002401F072FBF9
:10569000204670BD544D5220600300205C03002062
:1056A00070470000034A00211160034A1180018005
:1056B00070470000E8020020EC0200200A4C0B4D6D
:1056C000FAF738FE0646FBF78FFE2068401C206084
:1056D0002868401C2860FBF797FE3046FAF72EFE3C
:1056E000FEF7E0FCECE70000D802002020030020D9
:1056F00000B50E4A89B0002111600B220591069178
:10570000CDE907200A480B4A0B4B006812681B685A
:105710000292CDE903011F20CDE900030023074ACF
:1057200007A10C48FFF7C0FA09B000BDD80200205D
:10573000E0700108DC700108D8700108BD5600084F
:1057400075432F4F532D4949492049646C652054B6
:1057500061736B004CE50120034A00211160034A8C
:105760001180018070470000F0020020F402002048
:10577000F0B5124F104E3B8831685B1E9DB200237E
:1057800001F110021C4608E0E1E802245B1C21F84C
:10579000084B9BB241F8044C1032AB42F4D30C607E
:1057A0004C600C81CC60064932680A603A888A8075
:1057B000CC800C810480F0BDF0700108EC70010811
:1057C00014E6012010B5428992B10A4903680C68B9
:1057D0001C6043680B60CB8844891B1BCB808B8883
:1057E000448923448B800021418181810160416093
:1057F000104610BD14E60120F0B544890025CCB157
:105800004468278966680F800AB1E16811602168E1
:105810004160B9B14189491E41810C48016821604C
:1058200004608188491C8180C188491EC1801D8017
:105830003046F0BD0D8002B1156046F292501880DE
:105840000020F0BD05604581E7E7000014E6012077
:105850000181002141818181016041607047000028
:10586000F0B54489DDE905E60589AC4202D346F28C
:1058700093501EE01B4DAF88CFB12C687F1ED4F82B
:1058800000C0C5F800C0AF80EF887F1CBFB2EF80BA
:10589000B5F808C0BC4500D22F814789002557B113
:1058A000DB060ED403681C60046025600CE045F242
:1058B0001D703080F0BD0460012344604381256089
:1058C00005E043682360446043895B1C438187890A
:1058D00043899F4200D2838161602281C4F80CE039
:1058E0003580F0BD14E601200023074A05A143617D
:1058F000C161116819B181614861106070478361AD
:10590000FBE7000020000000F8020020F8B5064682
:10591000C46B1CE0256AFBF7C1FD0346E06221462B
:10592000304600F02DF8218A04F1080091B100689A
:1059300081680120666284F82800C86B2062CC630D
:10594000009300231A46204600F01EF92C46002C36
:10595000E0D1F8BD002084F828006062F6E71F213E
:105960003C3008E082682AB1926892F837208A4277
:1059700000D21146203000680028F3D10846704755
:105980003C3001E002F1200002688A42FAD1116A3B
:1059900001607047034A00211160034A11800180B1
:1059A00070470000F8020020FC0200202DE9F041C1
:1059B000114D07460C4628680026194680F8342009
:1059C00080F8356000F0B0FC64B1FC6004F10806BA
:1059D00001223946286800F011F83946304600F0B7
:1059E00076F803E02868A0F8466006632046296838
:1059F000BDE8F04100F01CB87803002010B5A0F815
:105A000046200024234601630EE04B6041F8103B22
:105A1000641C41F8103BA4B241F80C3C21F8083C4E
:105A200041F8043C41F8180C9442EED310BD00003C
:105A300038B14268C1F8C42081688968096AC161C7
:105A4000704791F83400022803D0072803D004A03F
:105A500002E004A000E005A0C1F8C4007047000007
:105A6000200000005461736B205100005461736B7F
:105A70002053656D0000000005A2C1F8C4208168B4
:105A800011B18968096A00E001A1C1617047000095
:105A90002000000070B5B0F84650046B0FE0E668D7
:105AA000308A0836012807D92146304600F051F8DF
:105AB0002146304600F00BF86D1EADB22034002DAB
:105AC000EDD170BD0021016041600181704730B5AA
:105AD0008A68002592F8374002891AB1521C028167
