:020000040800F2
:100000007005002045010008070D0008210C0008BC
:10001000050D000801020008F10E000800000000B4
:100020000000000000000000000000000B0D0008B0
:100030000302000800000000090D00080D0D000873
:100040005F0100085F0100085F0100085F01000810
:100050005F0100085F0100085F0100085F01000800
:100060005F0100085F0100085F0100085F010008F0
:100070005F0100085F0100085F0100085F010008E0
:100080005F0100085F0100085F0100085F010008D0
:100090005F0100085F0100085F0100085F010008C0
:1000A0005F0100085F0100085F0100085F010008B0
:1000B0005F0100085F0100085F0100085F010008A0
:1000C0005F0100085F0100085F0100085F01000890
:1000D0005F0100087D0E00085F0100085F01000855
:1000E0005F0100085F0100085F0100085F01000870
:1000F0005F0100085F0100085F0100085F01000860
:100100005F0100085F0100085F0100085F0100084F
:100110005F0100085F0100085F0100085F0100083F
:100120005F0100085F0100085F0100085F0100082F
:10013000DFF80CD000F052F80048004785110008A5
:10014000700500200648804706480047FEE7FEE7A6
:10015000FEE7FEE7FEE7FEE7FEE7FEE7FEE7FEE777
:100160005F0D00083101000840EA01039B0703D03E
:1001700009E008C9121F08C0042AFAD203E011F8E6
:10018000013B00F8013B521EF9D27047D2B201E0A8
:1001900000F8012B491EFBD270470022F6E710B58C
:1001A00013460A4604461946FFF7F0FF204610BDE5
:1001B00030B50B46014600202022012409E021FA37
:1001C00002F59D4205D303FA02F5491B04FA02F534
:1001D0002844151EA2F10102F1DC30BD064C074D8A
:1001E00006E0E06840F0010394E807009847103407
:1001F000AC42F6D3FFF7A0FF6C1500088C15000881
:10020000FEE77047704700002DE9F84FDFF8C8910E
:10021000002409F1040A0AF1040B23460F270BF10D
:10022000040ED1E00125A54006EA0502AA4276D1D6
:10023000DFF8A8C14E68A6EB0C0866452BD00DDC94
:10024000032E34D005DC36B3012E19D0022E2FD167
:100250001BE0112E16D0122E2AD119E0B8F5881FF6
:1002600019D006DCB8F5803F15D0B8F5801F1FD136
:1002700011E0B8F5001F0ED0B8F5041F18D10AE040
:10028000CB6815E0CB681B1D12E0CB6808330FE08C
:10029000CB680C330CE08B682BB1012B4FF00803BB
:1002A00003D0456104E0042302E0056100E000237F
:1002B000FF2A01D8064601E000F104064FEA840552
:1002C00001D9A5F12005D6F8008007FA05FC28EA37
:1002D0000C0803FA05F548EA0508C6F800804D68E1
:1002E000ED0070D53E4DAE6946F00106AE61AD69D8
:1002F00024F0030605F0010500953A4D06EB050CC8
:10030000DCF80850A607360F07FA06F825EA0805B4
:10031000DFF8D480404503D14FF0000825E052E0DB
:10032000DFF8C880404502D14FF001081DE0DFF83A
:10033000C080404502D14FF0020816E0DFF8B480DB
:10034000404502D14FF003080FE0DFF8AC80404594
:1003500002D14FF0040808E0DFF8A080404502D148
:100360004FF0050801E04FF0060808FA06F848EAE1
:100370000508CCF808804D68D9F80060ED034D46BB
:1003800001D5164300E096432E604D68DAF8006010
:10039000AD03554601D5164300E096432E604D68E7
:1003A000DBF80060ED025D4601D5164300E09643A0
:1003B0002E604D68DEF80060AD02754601D516432B
:1003C00000E096432E60641C0A681646E2407FF403
:1003D00029AFBDE8F88F00000004014000001110B3
:1003E000001002400000014000080140000C0140E4
:1003F000001001400014014000180140001C0140A1
:100400000AB1016170470904FBE7000001488068F8
:100410007047000000000020024881680278114403
:100420008160704700000020074810B5016841F066
:1004300010010160032000F073F8002000F006F8BE
:1004400000F024F8002010BD0020024070B50D4DD2
:1004500004464FF47A712878B1FBF0F00A49096834
:10046000B1FBF0F000F0F6FA48B9102C07D20022E8
:100470002146501E00F034F800206C6070BD012051
:1004800070BD0000000000200C0000200B4808B5E3
:10049000816941F001018161816901F001010091EF
:1004A000C16941F08051C161C06900F08050009085
:1004B0000348416821F0E061416008BD001002403E
:1004C00000000140002809DB00F01F0201219140DB
:1004D0004009800000F1E020C0F8001170470000E2
:1004E000F0B40E4B1B680C46C3F30223C3F107059F
:1004F000042D00D90425191D072901D2002300E08D
:10050000DB1E012606FA05F1491E214099409E4056
:10051000761E16403143F0BC00F0FCBC0CED00E050
:10052000064900F0070208684FF6FF03184040EA4A
:100530000220034A10430860704700000CED00E001
:100540000000FA052DE9F0470F46050061D0434E43
:10055000306800F00700B84209D2306820F0070088
:1005600038433060306800F00700B84251D1286845
:100570003B4C810712D5400703D5606840F4E0602A
:1005800060602878000703D5606840F460506060C0
:100590006068A96820F0F000084360602878C00710
:1005A00028D06868012810D02168022810D0890757
:1005B00000292EDA616821F0030101436160FFF731
:1005C00025FF804641F288390DE021688903EFE775
:1005D0008901EDE7FFF71AFFA0EB0801494502D9B1
:1005E0000320BDE8F0876068696800F00C00B0EB9C
:1005F000810FEFD1306800F00700B8420BD93068A6
:1006000020F0070038433060306800F00700B8423F
:1006100001D00120E5E72878400705D56068E96842
:1006200020F4E060084360602878000706D5606821
:10063000296920F4605040EAC100606000F038F899
:100640006168084AC1F30311515CC840064908605B
:1006500006480068FFF7FAFE0020C2E700200240CB
:1006600000100240A81400080C0000200400002024
:100670000448054900684968044AC1F30221515CF5
:10068000C84070470C00002000100240B814000859
:100690000448054900684968044AC1F3C221515C15
:1006A000C84070470C00002000100240B814000839
:1006B00012A185B00FC98DE80F0014A0144A00687C
:1006C00004905168134801F00C03042B10D0082B40
:1006D0000ED1C1F38343C9031DF803000AD5516845
:1006E00004AAC1F34041515C0A4A5043B0FBF1F007
:1006F00005B0704708494843FAE7000002030405C3
:10070000060708090A0B0C0D0E0F1010010200005D
:100710000010024000127A0000093D002DE9F84F58
:10072000040070D02078C04DC00749D06868C0F37D
:100730008100012807D06868C0F38100022809D130
:100740006868C00306D52868800339D5606800282A
:10075000E7D035E06068B0F5803F0BD010B1B0F560
:10076000A02F11D0286820F480302860286820F459
:10077000802002E0286840F480302860606890B1F2
:10078000FFF744FE06460AE0286840F4802028600F
:10079000F0E700BFFFF73AFE801B642873D8286893
:1007A0008003F7D50CE0FFF731FE064605E000BFF9
:1007B000FFF72CFE801B6428F0D828688003F7D44C
:1007C00020789A4E80074FF001094FF0000839D584
:1007D000686810F00C0F07D06868C0F38100022829
:1007E00009D16868C00306D42868800714D5206939
:1007F000012808D110E02069B0B1C6F80090FFF7D9
:1008000005FE074605E00AE1FFF700FEC01B0228CF
:10081000C4D828688007F7D52868616920F0F800F7
:1008200040EAC10028600DE0C6F80080FFF7EEFD49
:10083000074604E0FFF7EAFDC01B022823D828681A
:100840008007F7D4207800072CD57948A169D9B161
:10085000C0F80090FFF7DAFD074604E0FFF7D6FD89
:10086000C01B02280FD8686A8007F7D571484FF47B
:10087000FA510068B0FBF1F0009000BF0098411EF3
:100880000091FAD20EE080E0C0F80080FFF7BEFDD4
:10089000074604E0FFF7BAFDC01B022875D8686A56
:1008A0008007F7D42078400760D5E8690027C000AA
:1008B00008D4E86940F08050E861E869012700F059
:1008C000805000905C480168C90513D401688346D4
:1008D00041F480710160FFF799FD824606E000BF98
:1008E000FFF794FDA0EB0A0064284ED8DBF8000067
:1008F000C005F5D5E06801280AD008B1052813D055
:10090000286A20F001002862286A20F0040002E032
:10091000286A40F001002862E06841F2883B98B103
:10092000FFF774FD82460BE0286A40F0040028625D
:10093000EEE700BFFFF76AFDA0EB0A0159455AD860
:10094000286A8007F6D50CE0FFF760FD824605E0D7
:10095000FFF75CFDA0EB0A0159454CD8286A8007D7
:10096000F6D41FB1E86920F08050E861E06988B3EF
:100970006968C1F38101022944D00228C6F8608069
:1009800004D0FFF743FD044638E034E0FFF73EFDB6
:10099000074604E0FFF73AFDC01B02282BD8286861
:1009A0008001F7D4206AB0F5803F05D16868A1685E
:1009B00020F4003008436860D4E9080108436968FE
:1009C00021F4741108436860C6F86090FFF71EFDBB
:1009D000044606E025E000BFFFF718FD001B0228D3
:1009E00009D828688001F7D51BE000BFFFF70EFD8E
:1009F000001B022802D90320BDE8F88F2868800177
:100A0000F4D40EE00128F7D06868226A00F480313F
:100A1000914204D1616A00F47010884201D0012033
:100A2000EAE70020E8E70000001002400000424230
:100A3000800442420C000020007000404FF0E02192
:100A40000428086903D020F004000861704740F0D2
:100A50000400FAE710B5401EB0F1807F01D30120F9
:100A600010BD4FF0E02460610F21601700F052FAD2
:100A70000020A06107202061002010BD70B5040097
:100A800004D094F83D00002510B106E0012070BDAF
:100A900084F83C50204600F023F8242084F83D00E0
:100AA0002068C16821F40051C160204600F058F967
:100AB0002068016921F4904101612068416921F0B9
:100AC0002A0141612068C16841F40051C160256478
:100AD000202084F83D0084F83E00002070BD000016
:100AE00030B585B00024009401940294039400680A
:100AF000184988422CD11848816941F480418161AC
:100B0000816901F480410491816941F004018161AE
:100B10008069124D00F0040004904FF400700090C2
:100B2000022001900320039069462846FFF76CFBE2
:100B30002815CDE90004694628460294FFF764FBB6
:100B4000002211462520FFF7CBFC2520FFF7BAFC39
:100B500005B030BD003801400010024000080140DF
:100B60002DE9F84F044690F83E009A4616460D4689
:100B7000202853D1FDB1F6B194F83C0001284DD0A6
:100B8000012084F83C0000272764222084F83E00DE
:100B90002763FFF73BFCA6858146E685A0684FF4F6
:100BA0008058404501D1206940B12E465FF00005D4
:100BB00084F83C7027E00120BDE8F88F0026F7E7B5
:100BC0004B46002220212046CDF800A000F024F959
:100BD00008B10320F0E726B1A06840451BD038B12A
:100BE00008E020684068C0F3080025F8020B07E021
:100BF000206980B12068406800F07F0006F8010B92
:100C0000E08D401EE085E08D0028D9D1202084F8B9
:100C10003E000020D0E720684068EFE70220CBE7E5
:100C2000FEE700002DE9F04186B00024244800943E
:100C3000019402940394816941F0100181618169FA
:100C400001F010010491816941F020018161816905
:100C500001F020010491816941F004018161816901
:100C600001F004010491816941F00801816180690A
:100C7000012200F00800134F15020490294638465F
:100C8000FFF7BEFBDFF84080012204214046FFF75A
:100C9000B7FB0095032601250396CDE9015469466B
:100CA0003846FFF7B1FA0420CDE90005CDE9024648
:100CB00069464046FFF7A8FA06B0BDE8F08100009B
:100CC0000010024000080140001401400C4810B51B
:100CD0000A4901604FF4E1314160002181600C223A
:100CE000C160C0E904128161C161FFF7C7FE00283D
:100CF00003D0BDE81040FFF785BA10BD00380140B1
:100D00001C000020FEE7704770477047FFF784BB68
:100D100030B58FB028216846FFF73FFA14210AA8A2
:100D2000FFF73BFA01210804CDE9001000240294EA
:100D300002250491CDE907504FF4E0100990684670
:100D4000FFF7ECFC0F20CDE90A056802CDE90C4065
:100D500002210AA80E94FFF7F5FB0FB030BD7047D3
:100D600070B5044600680169E26821F440511143FE
:100D700001612169A0680843616908432168CA6864
:100D800041F20C639A430243CA6020684169A26938
:100D900021F44071114341611E492068884202D10B
:100DA000FFF776FC01E0FFF763FC00EBC00101EB0D
:100DB0000012606864218000B2FBF0F3B3FBF1F332
:100DC0006FF018067343B2FBF0F5B2FBF0F605EBDB
:100DD0008305322303EB0515B5FBF1F5B6FBF1F600
:100DE00005F0F00505EB0615B2FBF0F6B2FBF0F0EE
:100DF000B0FBF1F06FF01802504306EB800003EBFC
:100E00000010B0FBF1F0216800F00F00284488606A
:100E100070BD0000003801402DE9F04198461746AA
:100E20000E460446069D1DE0681C1BD02DB1FFF741
:100E3000EDFAA0EB0800A84214D92068C16821F49B
:100E4000D071C1602068416921F001014161202019
:100E500084F83D0084F83E00002084F83C00032024
:100E6000BDE8F0812068006836EA000004D0002068
:100E7000B842D9D00020F3E70120F9E77CB5194D3D
:100E800028680068184CC043800612D44FF47A7367
:100E9000012269462846FFF763FE0122694613488E
:100EA00000F080FA2078401C207029686FF0200044
:100EB000086028680068C043C00611D40B49227836
:100EC0000C310A4800F0BEF9084821780C300026A1
:100ED000465400F0DBFA26702868016840680190EB
:100EE0007CBD00001C0000201400002060000020D9
:100EF000FEE700000FB4054B10B503A9044A0298A1
:100F000000F028F810BC5DF814FB00007111000817
:100F1000180000200907090E002804DB00F1E0207A
:100F200080F80014704700F00F0000F1E02080F816
:100F3000141D704702E008C8121F08C1002AFAD128
:100F400070477047002001E001C1121F002AFBD149
:100F5000704700002DE9FF4F8BB09A460F460546BB
:100F6000002606E025280BD052460D9990476D1CAF
:100F7000761C28780028F5D10FB03046BDE8F08FF8
:100F80000024A0460122604900E0044315F8013F17
:100F9000203B02FA03F00842F7D128782E2817D117
:100FA00015F8010F44F004042A280ED06FF02F0228
:100FB0002878A0F1300109290AD808EB880102EB52
:100FC000410100EB01086D1CF2E757F8048B6D1C22
:100FD000287869283ED006DC0028CDD063280BD0C5
:100FE000642804D136E0732810D075284BD05246BF
:100FF0000D999047761C85E017F8040B8DF80000DA
:1010000000208DF80100E946012003E057F8049B19
:101010004FF0FF3061074FF0000401D40AE0641C78
:1010200044450DDA8442FADB19F804100029F6D1A0
:1010300006E0641C8442FCDB19F804100029F8D196
:10104000264404E019F8010B52460D999047641E9E
:10105000F8D257E001CF4FF00A0B002802DA4042E5
:101060002D2102E0210504D52B218DF8241001212A
:1010700003E0E10705D02021F7E70DF120090891F1
:101080000CE00021F9E701CF4FF00A0BF9E75946D0
:10109000FFF78EF801F1300209F8012D0028F6D192
:1010A000ADEB090000F1200B600701D44FF00108FF
:1010B000D84502DDA8EB0B0000E0002080460024AC
:1010C00006E009A85246005D0D999047641C761C05
:1010D00008988442F5DB04E0302052460D99904791
:1010E000761CB8F10001A8F10108F5DC05E019F85B
:1010F000010B52460D999047761CBBF10001ABF1F4
:10110000010BF4DC6D1C34E70928010010B504461E
:101110000420FFF793FC0148046010BD100000207C
:1011200070B5054600244FF47A7603E0304600F0AF
:1011300005F8641CAC42F9D370BD000070B54FF0E7
:10114000E024002265690949A36909684843A16947
:101150009942FCD002D2A3EB010302E0A5EB010609
:1011600033441A440B468242F1D370BD1000002074
:1011700038B504468DF8000069460320ABBE204612
:1011800038BD00004820FFF7C1FFFFF74DF9FFF71A
:10119000BFFD4FF4807422461849194800F0B4F896
:1011A000FFF740FDFFF792FD16480168CA6842F05C
:1011B0002002CA600068C16841F01001C160124D90
:1011C000124E4FF4FA77002221462846FFF718F90D
:1011D000012204213046FFF713F93846FFF7A0FF3C
:1011E000012221462846FFF70BF900220421304650
:1011F000FFF706F93846FFF793FFE4E76C0000209D
:10120000600000201C000020000801400014014084
:1012100010B5044600F02AF9002809D0012808D0AA
:10122000E188A0884A08B2EB500F04D9A2EB500025
:1012300010BD208910BD4008A0EB51002189081A7B
:1012400010BD000070B515460E46040005D19D2363
:101250001B4A1CA11EA0FFF74DFE2046FFF7D8FF3A
:1012600000282BD0A84200D285B22189A088A1EB0A
:1012700050022168AA4201EB500107DD2A463046A0
:10128000FEF772FFA08805EB500113E03046FEF731
:101290006BFF2089A188A0EB51002A1A30442168F5
:1012A000FEF762FFA088C14361F300002189A1EB32
:1012B0005001691A61F34F00A080284670BD0000FC
:1012C000FD140008726220213D204E554C4C000058
:1012D0002825732920617373657274696F6E2066A7
:1012E00061696C65642061742066756E6374696FF2
:1012F0006E3A25732C206C696E65206E756D626583
:10130000723A2564200A000070B515460E460400A6
:1013100005D120230E4A0FA111A0FFF7EBFD2DB937
:1013200021230B4A1CA10EA0FFF7E4FD2079002128
:1013300000F0010061F30000A080A07900F001003E
:1013400061F30000E08025F003002660208170BD7D
:10135000C0140008726220213D204E554C4C000004
:101360002825732920617373657274696F6E206616
:1013700061696C65642061742066756E6374696F61
:101380006E3A25732C206C696E65206E756D6265F2
:10139000723A2564200A000073697A65203E203085
:1013A0000000000070B515460E46040005D1362336
:1013B0001C4A1DA11FA0FFF79DFD2046FFF728FF37
:1013C0002189081A0004000C2AD0A84200D2054640
:1013D000E088A1EB50022168AA4201EB500007DD32
:1013E0002A463146FEF7C0FEE08805EB500113E0C7
:1013F0003146FEF7B9FE2089E188A0EB51002A1A98
:1014000081192068FEF7B0FEE088C14361F3000057
:101410002189A1EB5001691A61F34F00E080284651
:1014200070BD0000D3140008726220213D204E558B
:101430004C4C000028257329206173736572746910
:101440006F6E206661696C65642061742066756EDC
:101450006374696F6E3A25732C206C696E65206E1B
:10146000756D6265723A2564200A00008188C08823
:101470004A08B2EB500F07D1C907B1EBC07F01D1C9
:10148000002070470120704702207047054A111D57
:1014900013685B06FCD510F8013B0B600378002B4A
:1014A000F6D1704700380140000000000000000045
:1014B00001020304060708090000000001020304FA
:1014C00072745F72696E676275666665725F696E77
:1014D00069740072745F72696E67627566666572C0
:1014E0005F7075740072745F72696E6762756666AC
:1014F00065725F7075745F666F7263650072745FAA
:1015000072696E676275666665725F6765740072A0
:10151000745F72696E676275666665725F70757416
:10152000636861720072745F72696E676275666685
:1015300065725F707574636861725F666F72636510
:101540000072745F72696E676275666665725F6766
:101550006574636861720072745F72696E67627548
:10156000666665725F726573657400008C150008AD
:10157000000000201C000000340F0008A81500081F
:101580001C00002054050000440F0008010000006A
:1015900010000000000000000024F4000000000023
:0815A000000000000000000043
:0400000508000131BD
:00000001FF
