:020000040800F2
:10000000F81A00209D010008A71D0008DB15000854
:10001000A51D000811020008D527000800000000F7
:10002000000000000000000000000000AD1E0008FD
:100030001302000800000000A91D0008AF1E000800
:10004000B7010008B7010008B7010008B7010008B0
:10005000B7010008AB1D0008B7010008B701000890
:10006000B7010008B7010008B7010008B701000890
:10007000B7010008B7010008B7010008B701000880
:10008000B7010008B7010008B7010008B701000870
:10009000B7010008B7010008B7010008B701000860
:1000A000B7010008B7010008B7010008B701000850
:1000B000B7010008B7010008B7010008B701000840
:1000C000B7010008B7010008B7010008B701000830
:1000D000B7010008B7010008B7010008C9270008E8
:1000E000B7010008B7010008B7010008B701000810
:1000F000B7010008B7010008B7010008B701000800
:10010000B7010008B7010008B11F0008B7010008D7
:10011000B7010008B7010008B7010008B7010008DF
:10012000B7010008B7010008B7010008B7010008CF
:10013000B7010008B7010008B7010008B7010008BF
:10014000B7010008B7010008B7010008B7010008AF
:10015000B7010008B7010008B7010008B70100089F
:10016000B7010008B7010008B7010008B70100088F
:10017000B7010008B7010008B7010008000000003F
:10018000B7010008B7010008DFF80CD000F02EF826
:100190000048004789290008F81A002006488047CF
:1001A00006480047FEE7FEE7FEE7FEE7FEE7FEE75C
:1001B000FEE7FEE7FEE7FEE7591F00088901000899
:1001C00030B50B46014600202022012409E021FA27
:1001D00002F59D4205D303FA02F5491B04FA02F524
:1001E0002844151EA2F10102F1DC30BD064C074D7A
:1001F00006E0E06840F0010394E8070098471034F7
:10020000AC42F6D3FFF7C4FF582D0008782D000844
:10021000FEE770470022032903D0062901D01029E8
:1002200009D10F210B46491C89B28354521C92B24A
:10023000B2F5147FF6D3704730B58DB01548144928
:10024000016053214160002484604FF6FF75C56052
:100250000461082100F09EFF4FF48050089008A927
:100260000C4800F018FE30200190029503940820FD
:100270000490059406940794002201A9054800F013
:100280004DFF042201A9034800F048FF0DB030BD26
:10029000000C00405C02002010B5012806D0134A73
:1002A00002280ED0032816D0002010BD4FF4007194
:1002B0000F4800F04FF9012801D0002010BD0120A7
:1002C00010BD2021104600F045F9012801D0002082
:1002D00010BD012010BD4021104600F03BF901285F
:1002E00001D0002010BD012010BD00000010024010
:1002F000001C024090F83510022903D0802141658E
:1003000001207047052180F835100068016821F050
:10031000010101600020704731B500F02DF905465C
:10032000009CB4F1FF3F00D0641C00F025F9401B95
:10033000A042FAD338BD00002DE9F84F0022DFF8C3
:100340000082DFF80092DFF800A24FF0030E0F27C3
:10035000012303FA02F50B682B40AB427DD1D1F8A3
:1003600004C0BCF1020F02D0BCF1120F12D14FEA4F
:10037000D20C00EB8C0CDCF820605407E40E07FA7A
:1003800004FB26EA0B06D1F810B00BFA04F4344350
:10039000CCF8204006684FEA420C0EFA0CF4A64353
:1003A00091F804B00BF0030B0BFA0CFB4BEA0606BA
:1003B00006604E68012E05D0022E03D0112E01D00A
:1003C000122E11D18668A643D1F80CB00BFA0CFBA3
:1003D0004BEA06068660466826EA05050E79C6F3EE
:1003E0000016964035434560C56825EA04048D68CB
:1003F00005FA0CFC4CEA040CC0F80CC0D1F804C09F
:100400001CF0805F7DD0D8F800C04CF4804CC8F858
:1004100000C0D8F800C00CF4804CCDF800C022F029
:10042000030C0CF1804404F59834D4F808C89507FF
:100430002D0F07FA05F62CEA0606A0F1804CBCF554
:10044000003C64D0A0F1804CBCF5013C62D0A0F12E
:10045000804CBCF5023C60D000E052E0A0F1804C42
:10046000BCF5033C5CD0A0F1804CBCF5043C5AD0F8
:10047000A0F1804CBCF5053C58D0A0F1804CBCF5F7
:10048000063C56D0A0F1804CBCF5073C54D04FF050
:10049000080C0CFA05FC4CEA060CC4F808C8D9F89C
:1004A00000C02CEA030C4C6814F4803F01D04CEAE5
:1004B000030CC9F800C0254CD4F800C02CEA030C8A
:1004C0004D6815F4003F01D04CEA030CC4F800C09D
:1004D000DAF800C02CEA030C4C6814F4801F01D039
:1004E0004CEA030CCAF800C0194CD4F800C02CEA3E
:1004F000030C4D6815F4001F01D04CEA030CC4F83E
:1005000000C0521C102AFFF423AFBDE8F88F4FF053
:10051000000CBEE74FF0010CBBE74FF0020CB8E750
:100520004FF0030CB5E74FF0040CB2E74FF0050CA9
:10053000AFE74FF0060CACE74FF0070CA9E700005F
:1005400044380240003C0140083C0140043C01406A
:100550000C3C01400069084201D001207047002096
:1005600070474269514041617047002A01D0816162
:1005700070470904816170470148006870470000B6
:100580000400002002480168491C01607047000017
:100590000400002010B50B48016841F400710160AF
:1005A000016841F480610160016841F4807101607B
:1005B000032000F091F8002000F006F800F018F891
:1005C000002010BD003C024010B5044607484FF41F
:1005D0007A720068B0FBF2F000F036FC002221468F
:1005E000501E00F045F8002010BD0000080000205B
:1005F00010B5032000F070F8002211466FF00B00D8
:1006000000F036F8002211466FF00A0000F030F8D2
:10061000002211466FF0090000F02AF8002211466E
:10062000501F00F025F800221146101F00F020F89E
:1006300000221146901E00F01BF800221146501EA9
:1006400000F016F800221146052000F011F8BDE870
:1006500010400520AFF3008000F01F01012202FAD4
:1006600001F14009800000F1E020C0F8001170475E
:1006700010B4184B1B68C3F30223C3F1070CBCF181
:10068000040F01D94FF0040C1C1D072C01D20023CC
:1006900000E0DB1E012404FA0CFCACF1010C0CEAB6
:1006A0000101994004FA03F35B1E1A40114300282C
:1006B00008DA00F00F0000F1E020090180F8141DB5
:1006C00010BC704700F1E020090180F8001410BC54
:1006D000704700000CED00E000F00700064A1168CA
:1006E0004FF6FF03194041EA002040F0FD7040F052
:1006F00080601060704700000CED00E02DE9F05FB5
:1007000004460E46DFF8D091D9F80000F7B200F0A9
:100710000F00B0420AD289F80070D9F8000000F04A
:100720000F00B04202D00120BDE8F09F2078DFF832
:10073000AC8110F0020F07D0D8F80000A16820F0BB
:10074000F0000843C8F80000207810F0010F51D0E5
:1007500060686349012808D002280DD003280BD017
:10076000096811F0020F2ED00AE0096811F4003F69
:1007700006D10120BDE8F09F096811F0007F1FD06D
:10078000D8F8001021F003010843C8F80000FFF773
:10079000F3FE0546606841F2883A012816D0022827
:1007A00029D003283CD0D8F8000010F00C0F51D00D
:1007B000FFF7E2FE401B504547D90320BDE8F09FFC
:1007C0000120BDE8F09F0120BDE8F09FD8F80000AF
:1007D00000F00C0004283DD0FFF7CEFE401B504532
:1007E00002D90320BDE8F09FD8F8000000F00C000B
:1007F0000428F1D12EE0D8F8000000F00C00082801
:1008000028D0FFF7B9FE401B504502D90320BDE8B0
:10081000F09FD8F8000000F00C000828F1D119E092
:10082000D8F800004FF00C0B3BEA000012D0FFF7A5
:10083000A3FE401B504502D90320BDE8F09FD8F825
:1008400000003BEA0000F2D104E0D8F8000010F00C
:100850000C0FADD1D9F8000000F00F00B0420AD95A
:1008600089F80070D9F8000000F00F00B04202D003
:100870000120BDE8F09F207810F0040F07D0D8F8D1
:100880000000E16820F4E0500843C8F80000207838
:1008900010F0080F08D0D8F80000216920F460405B
:1008A00040EAC100C8F8000000F058F8D8F800107D
:1008B000F02292FAA2F201F0F001B2FA82F2D140F3
:1008C000084A515CC840084908600020FFF77CFED8
:1008D0000020BDE8F09F0000003C024008380240C4
:1008E00000380240402B0008080000200149012088
:1008F000C864704700004742014800687047000024
:100900000800002000B5FFF7F7FF074909684FF41A
:10091000E05292FAA2F201F4E051B2FA82F2D1402E
:10092000024A515CC84000BD08380240502B000804
:1009300000B5FFF7E1FF074909684FF4604292FAFA
:10094000A2F201F46041B2FA82F2D140024A515C53
:10095000C84000BD08380240502B000810B41F48A2
:10096000006810F00C011E481BD04FEA600C0429EF
:1009700016D0082915D11B4A116801F03F011368F0
:1009800013F4800F47F6C0730DD0BCFBF1F0116873
:10099000194093FAA3F3B3FA83F3D94048430CE028
:1009A000604610BC7047B0FBF1F01168194093FA33
:1009B000A3F3B3FA83F3D940484311684FF44032AC
:1009C00092FAA2F201F44031B2FA82F2D140491C0B
:1009D0004900B0FBF1F010BC70470000083802403D
:1009E0000024F400043802402DE9F84F0446DFF8F3
:1009F0001C842078A8F1040710F0010FA7F104056A
:100A000060D0D8F8000000F00C00042809D0D8F815
:100A1000000000F00C0008280DD1386810F4800F99
:100A200009D0286810F4003F4CD06068002849D1F4
:100A30000120BDE8F88F6068B0F5803F14D0B0F5B4
:100A4000A02F16D0286820F480302860286820F471
:100A500080202860606810B3FFF78EFD0646286886
:100A600010F4003F0ED02DE0286840F4803028605C
:100A7000F0E7286840F480202860286840F480303F
:100A80002860E7E7FFF778FD801B642802D9032080
:100A9000BDE8F88F286810F4003FF3D012E0FFF7AC
:100AA0006BFD0646286810F4003F0BD0FFF764FD8D
:100AB000801B642802D90320BDE8F88F286810F451
:100AC000003FF3D12078DFF8489310F0020F4FF089
:100AD000000663D0D8F800004FF0F80B10F00C0FB0
:100AE00016D0D8F8000000F00C00082803D13868B0
:100AF00010F4800F0CD0E068C8B30120C9F80000E2
:100B0000FFF73AFD8246286810F0020F16D022E067
:100B1000286810F0020F05D0E068012802D00120FB
:100B2000BDE8F88F28689BFAABF22169B2FA82F22D
:100B300020F0F8009140084328602FE0FFF71CFDEB
:100B4000A0EB0A00022802D90320BDE8F88F28682C
:100B500010F0020FF2D028689BFAABF22169B2FACA
:100B600082F220F0F80091400843286016E0FFE789
:100B7000C9F80060FFF700FD8246286810F0020FF8
:100B80000CD0FFF7F9FCA0EB0A00022802D90320E1
:100B9000BDE8F88F286810F0020FF2D1207810F02D
:100BA000080F34D09B48DFF870B26169C1B10121F0
:100BB0000160FFF7E1FC8246DBF8000010F0020F55
:100BC00025D1FFF7D9FCA0EB0A00022802D90320A7
:100BD000BDE8F88FDBF8000010F0020FF1D016E04E
:100BE0000660FFF7C9FC8246DBF8000010F0020F38
:100BF0000DD0FFF7C1FCA0EB0A00022802D90320A8
:100C0000BDE8F88FDBF8000010F0020FF1D120787A
:100C100010F0040F43D08148016841F08051016019
:100C2000006800F080500090DFF8F4B1DBF80000BD
:100C300040F48070CBF80000FFF79EFC8246DBF8A2
:100C4000000010F4807F0DD1FFF796FCA0EB0A00A6
:100C5000022802D90320BDE8F88FDBF8000010F469
:100C6000807FF1D0A068DFF8BCB1012818D005283A
:100C70001DD0DBF8000020F00100CBF80000DBF80D
:100C8000000020F00400CBF80000A06868B3FFF774
:100C900073FC8246DBF8000010F0020F14D03CE039
:100CA000DBF8000040F00100CBF80000EDE7DBF8D6
:100CB000000040F00400CBF80000DBF8000040F03A
:100CC0000100CBF80000E0E7FFF756FCA0EB0A01BB
:100CD00041F28830814202D90320BDE8F88FDBF869
:100CE000000010F0020FEFD017E0FFF745FC82463E
:100CF000DBF8000010F0020F0FD0FFF73DFCA0EB77
:100D00000A0141F28830814202D90320BDE8F88F00
:100D1000DBF8000010F0020FEFD1A069F0B3D8F8B3
:100D2000001001F00C0108296CD0022810D0C9F87D
:100D30006060FFF721FC0446286810F0007F5ED059
:100D4000FFF71AFC001B022855D90320BDE8F88FD5
:100D5000C9F86060FFF710FC0646286810F0007FB5
:100D60000BD0FFF709FC801B022802D90320BDE845
:100D7000F88F286810F0007FF3D1216AE0694FF006
:100D8000FF3340EA010247F6C07191FAA1F1606AAF
:100D9000B1FA81F100FA01F1A06A00E02FE003EB63
:100DA00050004FF4403393FAA3F3B3FA83F398401F
:100DB000084310434FF0706292FAA2F2E16AB2FA6D
:100DC00082F29140084338600120C9F86000FFF7C3
:100DD000D3FB0446286810F0007F10D1FFF7CCFB4E
:100DE000001B022802D90320BDE8F88F286810F004
:100DF000007FF3D003E0286810F0007FA0D100202E
:100E0000BDE8F88F0120BDE8F88F000008380240E7
:100E100000004742800E474274380240403802408A
:100E200000700040703802404FF0E021042804D0E8
:100E3000086920F0040008617047086940F0040068
:100E40000861704770470000401EB0F1807F01D3F9
:100E5000012070474FF0E0214861044AF0201070F3
:100E600000208861072008610020704723ED00E022
:100E700010B5FFF7E7FF10BD70477047022180F8FB
:100E8000391001680A6842F001020A60012180F805
:100E900039100020704770B5044694F838000128D6
:100EA00018D0012584F83850022084F839002068D1
:100EB000826822F0770222F47F428260086850281C
:100EC0003AD00EDC20285FD006DC002852D0102853
:100ED00063D154E0022070BD30285AD040285CD144
:100EE0003EE0602832D070280CD0B0F5805F03D08F
:100EF000B0F5005F51D113E02068816821F007014F
:100F000081604AE0CB684A688968206801F0BAF8D5
:100F10002068816821F0770141F0770181603CE031
:100F2000CB684A688968206801F0ACF8206881685D
:100F300041F48041816030E0CA684968206801F06E
:100F400084F95021206801F0A8F826E0CA684968B1
:100F5000206801F08DF96021206801F09EF81CE006
:100F6000CA684968206801F070F94021206801F0E2
:100F700094F812E00021206801F08FF80DE01021B4
:100F8000206801F08AF808E02021206801F085F847
:100F900003E03021206801F080F884F83950002007
:100FA00084F8380070BD704770B504462068016948
:100FB0004FF0000511F0020F17D0C16811F0020FB9
:100FC00013D0E91E0161012020762068806910F0AD
:100FD000030F03D02046FFF7E6FF05E0204600F0B0
:100FE000C9F8204600F01AF925762068016911F049
:100FF000040F18D0C16811F0040F14D06FF0040171
:101000000161022020762068806910F4407F03D0BF
:101010002046FFF7C8FF05E0204600F0ABF8204669
:1010200000F0FCF825762068016911F0080F18D04F
:10103000C16811F0080F14D06FF00801016104209D
:1010400020762068C06910F0030F03D02046FFF718
:10105000AAFF05E0204600F08DF8204600F0DEF8FB
:1010600025762068016911F0100F18D0C16811F0C1
:10107000100F14D06FF01001016108202076206855
:10108000C06910F4407F03D02046FFF78CFF05E0D5
:10109000204600F06FF8204600F0C0F82576206862
:1010A000016911F0010F09D0C16811F0010F05D0DD
:1010B0006FF001010161204600F0B2F8206801697B
:1010C00011F0800F09D0C16811F0800F05D06FF0CA
:1010D000800101612046FFF7CFFE2068016911F011
:1010E000400F09D0C16811F0400F05D06FF04001EA
:1010F0000161204600F0A2F82068016911F0200F7C
:101100000BD0C16811F0200F07D06FF020010161F2
:101110002046BDE87040FFF7B0BE70BD70B5044614
:1011200094F8380001280DD0012584F838500220A9
:1011300084F8390042B1042A0AD0082A0CD00C2ABB
:1011400011D10DE0022070BD206800F0AEFF0AE072
:10115000206800F0DEFF06E0206801F012F802E0EF
:10116000206801F046F884F83950002084F83800EF
:1011700070BD000006480188B1F5004F03D04FF65E
:10118000FF71018070474FF40041018070470000FB
:101190000000002070B504460D46002C03D094F8E2
:1011A000390010B107E0012070BD002084F838003C
:1011B000204600F015F8022084F83900211D20682F
:1011C00000F0FCFE2068016821F008010160206841
:1011D000016829430160012084F83900002070BDB6
:1011E00008B50068A0F18041B1F5406112D10A480C
:1011F000016841F008010160006800F008000090FB
:10120000002211463220FFF733FABDE808403220B1
:10121000FFF722BA08BD00004038024070470000C6
:1012200005480188B1F5004F02D0022101807047C6
:101230004FF4004101807047000000207047704764
:1012400010B5044622681068D168526900F00F0397
:10125000002B0AD110F0200F07D011F0200F04D07E
:101260002046BDE8104001F038B8002B6BD002F0EA
:10127000010301F4907C53EA0C0364D010F0010FD9
:1012800006D011F4807F03D0E36B43F00103E363E6
:1012900010F0040F06D012F0010F03D0E36B43F0FF
:1012A0000203E36310F0020F06D012F0010F03D027
:1012B000E36B43F00403E36310F0080F06D012F071
:1012C000010F03D0E26B42F00802E263E26B002AF6
:1012D0002ED010F0200F05D011F0200F02D02046A4
:1012E00000F0FBFF20684069C0F38010E16B11F053
:1012F000080F00D108B3204600F0D4FF20684169F0
:1013000011F0400F15D0416921F040014161606B3F
:1013100058B118490165606BFEF7ECFF002807D053
:10132000606B016DBDE8104008472046FFF787FF5E
:1013300010BD2046FFF783FF10BD2046FFF77FFF5B
:101340000020E06310BD10F0800F07D011F0800F77
:1013500004D02046BDE8104001F0AAB910F0400FBB
:10136000F0D011F0400FEDD02046BDE8104000F065
:10137000A7BF00009522000870B50446002C04D0D9
:1013800094F83900002510B106E0012070BD84F802
:101390003850204600F022F8242084F839002068D4
:1013A000C16821F40051C160204600F0DFFF2068D1
:1013B000016921F4904101612068416921F02A010D
:1013C00041612068C16841F40051C160E56320209B
:1013D00084F8390084F83A00002070BD00B587B069
:1013E0000068A0F18041B1F5883116D10C48016840
:1013F00041F010010160006800F010000190C02071
:101400000290022003900120049003200590072001
:10141000069002A90348FEF78FFF07B000BD000049
:10142000443802400004024090F83A30202B01D0AA
:1014300002207047D1B1CAB190F83830012B17D0D3
:1014400081628285C2850021C163222280F83A2010
:1014500080F8381001684A6942F001024A61006868
:10146000C16841F49071C16000207047012070474D
:101470000220704770B51649884228D1154D28883A
:10148000154C002620B1A0F57F40FF380DD106E0B5
:101490000120288026801148FFF7F0FC05E010A00D
:1014A00001F09AF94FF40040288012480078124960
:1014B000228888542088401C2080084800684662A2
:1014C000BDE8704001220B490148FFF7ADBF70BD78
:1014D000B8020020000000200C0000205C02002068
:1014E000BDD3CAD5B5C4CAFDBEDDD6A1B2BBCDEA57
:1014F000D5FB0A000E0000205C0000202DE9F84317
:1015000004460D4691461E4694F83900202802D024
:101510000220BDE8F8834DB3B9F1000F26D094F84E
:101520003800012825D0012084F838000027E7631F
:10153000212084F83900FFF71FF88046A4F8249092
:10154000A4F82690E08CA0B3E08C401EE084A06854
:10155000B0F5805F10D043460022802120460096DF
:1015600001F0F6F8F0B10320BDE8F8830120BDE8F2
:10157000F8830220BDE8F8834346002280212046FC
:10158000009601F0E5F810B10320BDE8F883288843
:101590002168C0F308004860206908B16D1C05E0AF
:1015A000AD1C03E0216815F8010B4860E08C0028B1
:1015B000CAD14346002240212046009601F0C8F8D7
:1015C00010B10320BDE8F883202084F8390084F8A6
:1015D00038700020BDE8F8837047FEE710B5FEF7CD
:1015E000D9FF00F06BFC00F0BBFBFEF725FE00F01E
:1015F00093F800F035F800F025FC0A490868C26845
:1016000042F00202C2600868C26842F00102C26091
:101610000A6840F2EE2050630A6840F2D660D06259
:10162000C86010BD5C02002010B50C4C01212046A2
:10163000FEF790FF38B91420FEF76EFE0121204618
:10164000FEF788FF08B1002010BD01212046FEF7FB
:1016500081FF0028F9D0012010BD000000100240D9
:1016600070B586B000252A48016841F0100101607C
:10167000016801F010010091016841F01001016062
:10168000016801F010010091016841F01001016052
:10169000016801F010010091016841F01001016042
:1016A000016801F010010091016841F01001016032
:1016B000006800F01000009001240194029503944A
:1016C000144E01A93046FEF737FE02200190029524
:1016D000039401A93046FEF72FFE042001900295E5
:1016E000039401A93046FEF727FE082001900295D9
:1016F000039401A93046FEF71FFE102001900295C9
:10170000039401A93046FEF717FE06B070BD000035
:101710003038024000100240F0B587B0234801681D
:1017200041F080010160016801F0800101910168D0
:1017300041F010010160016801F0100101910168A0
:1017400041F010010160006800F010000190184F96
:1017500000224FF400713846FEF707FF154E0022B5
:1017600020213046FEF701FF002240213046FEF7DF
:10177000FCFE70150290012403940225059502A930
:101780003846FEF7D9FD202102910394059502A960
:101790003046FEF7D1FD402002900394059502A942
:1017A0003046FEF7C9FD07B0F0BD000030380240FA
:1017B000001C02400010024010B52C4C207801287B
:1017C00013D02078022810D0207803280DD020785C
:1017D00004280AD02078052807D02078062804D0CD
:1017E0002078102801D0012010BD207804281DD0B9
:1017F00006DC01280BD0022809D0032834D115E0DB
:10180000052831D006282FD010282DD11DE02178B1
:10181000A088012200F068F808B1C0B210BDA1880C
:10182000608800F059F8F8B1C0B210BD6278217834
:10183000A08800F059F808B1C0B210BDA188608836
:1018400000F04AF880B1C0B210BD62782178A0885B
:1018500000F04AF808B1C0B210BDA188608800F05D
:101860003BF808B1C0B210BD002010BD98020020A6
:1018700030B4FF239C464A1ED2B20ED3094C04F565
:10188000807510F8011B81EA0C0114F801C08CEA84
:10189000030C6B5C521ED2B2F3D230BC4CEA032074
:1018A00070470000582B000810B50A4C0123237024
:1018B00040F0800060700A460321A2702046FFF7C6
:1018C000D7FFE070000A052120712046BDE81040D6
:1018D00000F022BF5C010020024600201144B1F557
:1018E000803F00D30220704784460020ACF1010302
:1018F000032915D008DC012901D0022903D1B3F551
:10190000FA6F00D303207047042909D01029FAD1B7
:101910007B2B00D30320B2EB4C0FF4D00320704795
:101920007D2BFCD30320704730B5104D6878104CE8
:101930002070E878A97840EA0120608068792979E8
:1019400040EA0120A0800B480088801EC1B22846D2
:10195000FFF78EFFE080A8796070E81DA0606188C5
:10196000E06800EB4100206130BD00005C00002019
:10197000980200200C00002038B5374D0121297055
:1019800002246870DFF8D4C00428DCF8101027D0D7
:1019900006DC01280BD0022812D003284AD118E017
:1019A000052826D006282DD0102843D135E0BCF8D4
:1019B0000420BCF80210204600F052F8044639E03A
:1019C000BCF80420BCF80210204600F093F804464E
:1019D00030E0BCF80420204600F0D4F8044629E0AA
:1019E000BCF80420BCF80210204600F0EFF80446D2
:1019F00020E0BCF80420BCF80210204600F01CF9DE
:101A0000044617E0BCF80420BCF802000B4601466F
:101A1000204600F05FF904460CE0DCF80800009076
:101A2000BCF80420BCF802000B460146204600F03A
:101A30006FF90446E1B20848FFF71AFF0146601C3F
:101A400080B229550A0A411C89B22A54BDE838409F
:101A5000014800F061BE00005C01002098020020F7
:101A60000223DFF888C0421C92B20CF800302048F4
:101A700001290FD0022918D0032921D004292AD006
:101A80000023501C81B20CF80230481C80B20CF8C4
:101A9000013070474388180A511C89B20CF80200C3
:101AA000481C80B20CF8013070478388180A511C1A
:101AB00089B20CF80200481C80B20CF80130704763
:101AC000C388180A511C89B20CF80200481C80B265
:101AD0000CF8013070470389180A511C89B20CF8C0
:101AE0000200481C80B20CF8013070475C010020F5
:101AF000AC0200202DE9F04F83B08A461746002340
:101B0000F91DCD08DFF87890411C8EB209F800501D
:101B1000E846BAF1000F21D007B3002D06D9002006
:101B200008F80300591C8BB2AB42F9D30024002FF4
:101B300014D94FF0010B04EB0A00C0B2FEF7ACFB66
:101B400040B108EBD40004F0070201780BFA02F26E
:101B500011430170601C84B2BC42ECD30021002D03
:101B60000AD9304618F80120731C9EB209F80020EB
:101B7000481C81B2A942F4D303B03046BDE8F08FCF
:101B80005C01002030B4104C4FEA420C431C9BB265
:101B900004F800C00020002A13D9B1F800C04FEAB1
:101BA0001C2503F1010C1FFA8CFCE55411F8025BB3
:101BB0000CF101039BB204F80C50401CC0B29042DF
:101BC000EBD330BCD8B270475C01002070B4A1B038
:101BD000174D431C9BB22A5400206C46002A0ED994
:101BE000DFF850C0BCF80060844620291DD024F8DE
:101BF00010C0491C89B2401CC0B29042F5D30020ED
:101C0000002A0ED934F810C0591C4FEA1C2689B29C
:101C1000EE544B1C9BB205F801C0401CC0B2904270
:101C2000F0D321B0D8B270BC704724F81060E0E760
:101C30005C010020AC0200202DE9F04114460B0AA3
:101C4000204E421C92B23354501C85B2B1541E48EF
:101C50001E4A012914D01E4F022917D003291CD077
:101C6000042921D0002050809080D0801081210A4A
:101C7000681C80B27155411C3454C8B2BDE8F08173
:101C8000548001225102FEF770FCF0E7948001229B
:101C900020213846FEF769FCE9E7D4800122402183
:101CA0003846FEF762FCE2E714814FF40071FEF75C
:101CB00058FC20213846FEF754FC40213846FEF7F8
:101CC00050FCD4E75C010020001C0240AC02002064
:101CD0000010024030B40C4C0D0A00F1010C1FFA48
:101CE0008CFC25540CF1010080B204F80C101A8011
:101CF000064A91880B0A411C89B223549288481CD9
:101D00006254C0B230BC70475C01002098020020D1
:101D1000F0B4DDF810C000240E0A451CAFB20F4D20
:101D20002E54781C86B2E955002A0DD99CF8010082
:101D30009CF8001040EA012023F8020B0CF1020C81
:101D4000601C84B29442F1D3110A701C80B2A95570
:101D5000411C2A54F0BCC8B2704700005C0100204E
:101D600082B000210C48026842F002020260006862
:101D700000F0020001900A48084A02604FF4E13284
:101D800042608160C16001610C2242618161C16178
:101D900002B0FFF7F1BA00003038024000100140F5
:101DA0001C000020FEE7704770477047F0B587B011
:101DB00000262048016841F480210160006800F499
:101DC000802001901C48016841F002010160016817
:101DD00001F002010191016841F080010160006899
:101DE00000F0800001904FF4806002900224039480
:101DF000059407250695114F02A93846FEF79CFA6F
:101E0000A102029103940496069502A93846FEF7B2
:101E100093FA0B4D0022E1012846FEF7A6FBE101F3
:101E2000029101210391059402A92846FEF784FA44
:101E300007B0F0BD40380240303802400004024094
:101E4000001C024010B5FFF7B1FF154813490160AF
:101E50004FF4164141604FF4805181600021C16010
:101E60004FF4806202610C2242618161C161FFF71F
:101E700083FA012211462720FEF7FAFB2720FEF7FE
:101E8000EBFB00224FF480710648FEF76EFBBDE8C5
:101E90001040012204490248FFF7C6BA004800403A
:101EA000B8020020001C02400E000020704710B550
:101EB000FEF768FBBDE81040FEF7DABF30B593B01F
:101EC00000252348016841F080510160006800F05E
:101ED000805000901F48016841F480410160006813
:101EE00000F4804000900120069000040790022436
:101EF0000C9480010D9008200E904FF4A8700F9064
:101F000010940720119006A8FEF76EFD0F20019097
:101F1000029403954FF4A0500490E002059005212F
:101F200001A8FEF7EBFBFEF7E1FCFEF7E5FC4FF442
:101F30007A71B0FBF1F0FEF787FF0420FEF774FF23
:101F400000221146501EFEF793FB13B030BD000077
:101F500040380240007000400F48016841F47001B1
:101F600001600E48016841F0010101600C4A002146
:101F70001160026822F4102222F080720260031DB8
:101F8000084A1A60026822F4802202600648016052
:101F9000064958060860704788ED00E000380240A6
:101FA00008380240103000240C38024008ED00E0F0
:101FB0000148FEF7F9BF00005C020020F0B402689F
:101FC0002B4BDFF8B0C02C4D2C4E2D4C98420AD034
:101FD000B0F1804F07D0604505D0A84203D0B04291
:101FE00001D0A04203D122F070024F683A439842D8
:101FF00028D0B0F1804F25D0604523D0A84221D011
:10200000B0421FD0A0421DD0A0F1804CBCF5A03C36
:1020100018D0A0F1804CBCF5A23C13D0A0F1804CAC
:10202000BCF5A43C0ED0A0F1804CBCF5C05C09D03E
:10203000A0F1804CBCF5E05C04D0A0F1804CBCF574
:10204000005C05D122F44072D1F80CC04CEA0202C7
:1020500002608A68C2620A688262984201D0A04225
:1020600001D10969016301214161F0BC70470000A1
:10207000000001400004004000080040000C004047
:1020800000040140D0F808C02CF47F4C42EA03223F
:10209000114341EA0C0181607047826822F07002AE
:1020A000114341F007018160704710B4026A22F0C9
:1020B00001020262036A4268D0F818C02CF0700C6A
:1020C0002CF0030C0C6844EA0C0C23F002038C681F
:1020D0002343A0F18044B4F5803404D0A0F18044BF
:1020E000B4F582340DD123F00803CC68234323F0E8
:1020F000040322F4807222F400724C6922438C693A
:1021000022434260C0F818C049684163036210BCB2
:10211000704710B4026A22F010020262036A426839
:10212000D0F818C02CF4E04C2CF4407C0C684CEA3D
:10213000042C23F020038C6843EA0413A0F18044AC
:10214000B4F5803404D0A0F18044B4F5823410D1C9
:1021500023F08003CC6843EA041323F0400322F405
:10216000806222F400624C6942EA84028C6942EA8D
:1021700084024260C0F818C049688163036210BCE1
:10218000704710B4026A22F480720262036A4268E5
:10219000D0F81CC02CF0700C2CF0030C0C6844EA36
:1021A0000C0C23F400738C6843EA0423A0F18044F0
:1021B000B4F5803404D0A0F18044B4F5823410D159
:1021C00023F40063CC6843EA042323F4806322F4FD
:1021D000805222F400524C6942EA04128C6942EAAD
:1021E00004124260C0F81CC04968C163036210BC9D
:1021F000704710B4026A22F480520262D0F820C004
:102200004268C36923F4E04323F440730C6843EA53
:1022100004232CF4005C8C684CEA043CA0F180445C
:10222000B4F5803404D0A0F18044B4F5823404D1F4
:1022300022F480424C6942EA84124260C3614968D8
:102240000164C0F820C010BC7047036AD0F820C0F9
:102250002CF0010CC0F820C0D0F818C02CF0F00C05
:102260004CEA021223F00A031943826101627047AB
:10227000036A23F010030362D0F818C0036A2CF439
:10228000704C4CEA023223F0A00343EA0111826150
:102290000162704710B5806B0021C185C184FEF7D3
:1022A000CEFF10BD0168CA6822F49072CA6001684E
:1022B0004A6922F001024A61202180F83A107047F1
:1022C00010B50168CA6822F04002CA60202180F877
:1022D0003910FFF781F9002010BD10B590F83A10C1
:1022E000222901D0022010BD8168B1F5805F11D094
:1022F000016919B30168496801F07F02816A4B1CCA
:1023000083620A70C18D491E0904090CC1851CD065
:10231000002010BD816A02693AB102685268D2B2E7
:102320000A80816A491C8162ECE702685268C2F344
:1023300008020A80816A891C8162E3E701684A68B1
:10234000816A4B1C83620A70DCE70168CA6822F468
:102350009072CA6001684A6922F001024A61202134
:1023600080F83A10FFF786F8002010BD2DE9F04103
:1023700004462068016921F44051E268114301617B
:102380002068C16821F4037121F414412369A26813
:10239000D4F81CC01A43636943EA0C031A4311437F
:1023A000C1602068416921F44071A2691143416113
:1023B000E069BC4ABC49BD4D3226B0F5004F5ED045
:1023C0002068884202D0904240F01281FEF7B0FAB5
:1023D00000EBC00101EB001061688900B0FBF1F770
:1023E000FEF7A6FA00EBC00101EB0010616889005E
:1023F000B0FBF1F0A5FB001040096FF01801484355
:1024000007EB800006EB0010A5FB0010400900F070
:10241000F007FEF78DFA00EBC00101EB00106168D8
:102420008900B0FBF1F0A5FB0010400907EB001795
:10243000FEF77EFA00EBC00101EB00106168890035
:10244000B0FBF1F8FEF774FA00EBC00101EB0010ED
:1024500061688900B0FBF1F0A5FB001040096FF046
:102460001801484308EB800006EB0010A5FB0010A4
:102470002168C0F3431038448860BDE8F0812068CB
:10248000884201D0904259D1FEF752FA00EBC001C8
:1024900001EB001061684900B0FBF1F0A5FB0010F2
:1024A00040090701FEF744FA00EBC00101EB001000
:1024B00061684900B0FBF1F8FEF73AFA00EBC001A1
:1024C00001EB001061684900B0FBF1F0A5FB0010C2
:1024D00040096FF01801484308EB800006EBC0008C
:1024E000A5FB0010400900F0F80007EB4007FEF7DD
:1024F0001FFA00EBC00101EB001061684900B0FB5E
:10250000F1F8FEF715FA00EBC00101EB001061686D
:102510004900B0FBF1F0A5FB001040096FF0180175
:10252000484308EB800006EBC000A5FB00102168C3
:10253000C0F3421038448860BDE8F081FEF7E2F94C
:1025400000EBC00101EB001061684900B0FBF1F045
:10255000A5FB001040090701FEF7D4F900EBC0010C
:1025600001EB001061684900B0FBF1F8FEF7CAF911
:1025700000EBC00101EB001061684900B0FBF1F015
:10258000A5FB001040096FF01801484308EB8000DC
:1025900006EBC000A5FB0010400900F0F80007EBB7
:1025A0004007FEF7AFF900EBC00101EB00106168D6
:1025B0004900B0FBF1F8FEF7A5F900EBC00101EB13
:1025C000001061684900B0FBF1F0A5FB0010400964
:1025D0006FF01801484308EB800006EBC000A5FB34
:1025E00000102168C0F3421038448860BDE8F081D3
:1025F000FEF788F900EBC00101EB0010616889006B
:10260000B0FBF1F7FEF77EF900EBC00101EB001023
:1026100061688900B0FBF1F0A5FB001040096FF084
:102620001801484307EB800006EB0010A5FB0010E3
:10263000400900F0F007FEF765F900EBC00101EB7F
:10264000001061688900B0FBF1F0A5FB00104009A3
:1026500007EB0017FEF756F900EBC00101EB001085
:1026600061688900B0FBF1F8FEF74CF900EBC0019E
:1026700001EB001061688900B0FBF1F0A5FB0010D0
:1026800040096FF01801484308EB800006EB00108A
:10269000A5FB00102168C0F3431038448860BDE8F2
:1026A000F081000000140140001001401F85EB5133
:1026B00090F83910212901D0022070478168B1F5C6
:1026C000805F0CD0016A4A1C02620268097851607E
:1026D000C18C491E0904090CC18410D019E0016A9B
:1026E00002680988C1F308015160016919B1016AE2
:1026F000491C0162ECE7016A891C0162E8E7016894
:10270000CA6822F08002CA600068C16841F04001D6
:10271000C16000207047000070B505460E460A4CA7
:10272000012211022046FDF720FF4FF6FF733246CB
:1027300029460648FEF7E2FE0022A1152046BDE824
:102740007040FDF712BF0000001C0240B8020020DC
:102750002DE9F0410446069D884617461E4620682E
:10276000006838EA000020D00020B84227D1B5F137
:10277000FF3F1CD025B1FDF7FFFE801BA84216D9F4
:102780002068C16821F4D071C1602068416921F0DE
:1027900001014161202084F8390084F83A000020CA
:1027A00084F838000320BDE8F0810120DDE72068CF
:1027B000006838EA000005D00020B842D7D00020D9
:1027C000BDE8F0810120F8E70148FEF739BD0000BF
:1027D000B8020020FEE700000FB4054B10B503A9B6
:1027E000044A029800F018F810BC5DF814FB0000D1
:1027F0006D2900081000002002E008C8121F08C15F
:10280000002AFAD170477047002001E001C1121F71
:10281000002AFBD1704700002DE9FF4F89B09B468D
:102820000446002506E025280BD05A460B99904710
:10283000641C6D1C20780028F5D10DB02846BDE839
:10284000F08F0027B8460122474900E0074314F8FB
:10285000013F203B02FA03F00842F7D120782E28EE
:1028600019D114F8010F47F004072A280ED06FF091
:102870002F022078A0F1300109290CD808EB88013B
:1028800002EB410100EB0108641CF2E70A98641CAA
:1028900050F8048B0A9020780028CED0642808D005
:1028A000692806D075281ED05A460B9990476D1C92
:1028B00058E00A994FF00A0901C90A91002802DA82
:1028C00040422D2102E0390504D52B218DF820103E
:1028D000012103E0F90704D02021F7E78A4608AE7A
:1028E0000DE00021FAE70A994FF00A0901C90A919F
:1028F000F7E74946FDF764FC303106F8011D002872
:10290000F7D1ADEB060000F12009780701D44FF0B4
:102910000108C84502DDA8EB090000E00020804660
:10292000002706E008A85A46C05D0B9990476D1C29
:102930007F1C5745F6DB04E030205A460B99904740
:102940006D1CB8F10001A8F10108F5DC05E016F8EE
:10295000010B5A460B9990476D1CB9F10001A9F182
:102960000109F4DC641C65E70928010013B54FF682
:10297000FF73012269460348FEF7C0FD009802B0CC
:1029800010BD00001C000020FEF728FE40F24A2087
:1029900000F0A0F8DFF8C880C8F80C000321FDF7AC
:1029A00039FC30A0FFF718FF37A0FFF715FF3F4EA7
:1029B000002737803E4DDFF8FCB0DFF8FC90DFF8F1
:1029C000FCA03088022832D100242A5D21463CA098
:1029D000FFF702FF601CC4B2082CF6D32878012848
:1029E00004D02878FF2801D03780EAE7FEF79CFF63
:1029F000BBF80000284410F8020CBBF80010294472
:102A000011F8011C40EA0120B8F8061081420DD1EE
:102A1000FEF7D2FE30B198F8002001461046FEF7CE
:102A200043FF03E098F80000FEF7A6FF3780FEF7AB
:102A3000FBFD0128C5D145F26320A9F80000032061
:102A4000A9F8020040215046FDF78BFD2021504699
:102A5000FDF787FD4FF400711D48FDF782FDB0E7DB
:102A600098020020202D2D2D2D2D2D2D4D6F6462CF
:102A70007573CDA8D0C5D0ADD2E9C0FDB3CC2D2D96
:102A80002D2D2D2D200A000059732D463450726FC4
:102A900020204D6F64627573B4D3BBFA202052546A
:102AA00055CDA8D0C5C4A3CABD0A000000000020AF
:102AB0005C0000200C000020AC020020001002404E
:102AC00052785F4275665B25645D3D25640A0000AF
:102AD000001C0240F0B50B30154D20F0070100241A
:102AE000144A0FE003688B420BD38B4205D95E1A60
:102AF00043184768C3E9006700E04368136002C0F9
:102B000004E0021D10680028ECD12046002802D104
:102B1000286808B10020F0BD064A07481060074A3F
:102B2000121A22F00702C0E9002401202860D7E72A
:102B30001800002014000020FC020020F80A0020E9
:102B4000000000000000000001020304060708095D
:102B5000000000000102030400C1814001C0804167
:102B600001C0804100C1814001C0804100C181405D
:102B700000C1814001C0804101C0804100C181404D
:102B800000C1814001C0804100C1814001C080413D
:102B900001C0804100C1814001C0804100C181402D
:102BA00000C1814001C0804100C1814001C080411D
:102BB00001C0804100C1814000C1814001C080410D
:102BC00001C0804100C1814001C0804100C18140FD
:102BD00000C1814001C0804101C0804100C18140ED
:102BE00000C1814001C0804100C1814001C08041DD
:102BF00001C0804100C1814000C1814001C08041CD
:102C000001C0804100C1814001C0804100C18140BC
:102C100000C1814001C0804100C1814001C08041AC
:102C200001C0804100C1814001C0804100C181409C
:102C300000C1814001C0804101C0804100C181408C
:102C400000C1814001C0804100C1814001C080417C
:102C500001C0804100C1814000C0C101C30302C264
:102C6000C60607C705C5C404CC0C0DCD0FCFCE0ECC
:102C70000ACACB0BC90908C8D81819D91BDBDA1A3C
:102C80001EDEDF1FDD1D1CDC14D4D515D71716D6AC
:102C9000D21213D311D1D010F03031F133F3F2321C
:102CA00036F6F737F53534F43CFCFD3DFF3F3EFE8C
:102CB000FA3A3BFB39F9F83828E8E929EB2B2AEAFC
:102CC000EE2E2FEF2DEDEC2CE42425E527E7E6266C
:102CD00022E2E323E12120E0A06061A163A3A262DC
:102CE00066A6A767A56564A46CACAD6DAF6F6EAE4C
:102CF000AA6A6BAB69A9A86878B8B979BB7B7ABABC
:102D0000BE7E7FBF7DBDBC7CB47475B577B7B6762B
:102D100072B2B373B17170B050909151935352929B
:102D200096565797559594549C5C5D9D5F9F9E5E0B
:102D30005A9A9B5B99595898884849894B8B8A4A7B
:102D40004E8E8F4F8D4D4C8C4484854587474686EB
:102D50008242438341818040782D0008000000209A
:102D60001C000000F8270008942D00081C0000201B
:102D7000DC1A000008280008000000000000000025
:102D80000024F4000000000000000000000000002B
:042D9000000000003F
:040000050800018965
:00000001FF
